:020000040800F2
:10000000105A0020A101000891630008ED52000879
:100010008D6300085B0300081773000800000000F0
:10002000000000000000000000000000FF6B00085E
:10003000890300080000000009680008016C00083E
:10004000BB010008BB010008BB010008BB010008A0
:10005000BB010008BB010008BB010008BB01000890
:10006000BB010008BB010008BB010008BB01000880
:10007000BB010008BB010008BB010008BB01000870
:10008000BB010008BB010008BB010008BB01000860
:10009000BB010008BB010008BB010008BB01000850
:1000A000BB010008BB010008BB010008BB01000840
:1000B000BB0100080000000000000000BB010008B8
:1000C000BB010008BB010008BB010008BB01000820
:1000D000BB010008BB010008BB010008BB01000810
:1000E000BB010008BB010008000000000000000088
:1000F0000000000000000000000000000000000000
:1001000000000000BB01000800000000BB01000867
:100110000000000000000000BB010008BB01000857
:10012000BB010008BB010008BB010008BB010008BF
:10013000BB010008000000000000000000000000FB
:10014000BB010008BB010008BB0100080000000063
:10015000BB010008BB010008BB010008BB0100088F
:10016000BB010008BB010008BB0100080000000043
:10017000BB010008BB0100080000000000000000F7
:10018000BB010008BB010008BB010008DFF80CD070
:1001900000F0A6F800480047D9CF0008105A002008
:1001A0000648804706480047FEE7FEE7FEE7FEE711
:1001B000FEE7FEE7FEE7FEE7FEE7FEE7DD6C000890
:1001C0008D0100082DE9F05F0546002092469B4610
:1001D00088460646814640241BE02846414647465D
:1001E000224600F06DF853465A46C01A914110D38A
:1001F00011461846224600F054F82D1A67EB010804
:100200004F4622460120002100F04BF817EB000971
:100210004E41201EA4F10104DFDC484631462A4647
:10022000434600F000B830BCBDE8C09F10B5431A8B
:10023000934209D28318881803E010F8011D03F8CF
:10024000011D521EF9D210BD40EA01039B0703D0E5
:1002500009E008C9121F08C0042AFAD203E011F805
:10026000013B00F8013B521EF9D210BDD2B201E0B1
:1002700000F8012B491EFBD270470022F6E710B5AB
:1002800013460A4604461946FFF7F0FF204610BD04
:10029000034611F8012B00F8012B002AF9D118466A
:1002A0007047202A04DB203A00FA02F10020704750
:1002B0009140C2F1200320FA03F3194390407047A4
:1002C000202A04DB203A21FA02F00021704721FAAB
:1002D00002F3D040C2F12002914008431946704712
:1002E000064C074D06E0E06840F0010394E8070083
:1002F00098471034AC42F6D3FFF74CFF780601085C
:100300009806010870B58C1810F8015B15F007030A
:1003100001D110F8013B2A1106D110F8012B03E09E
:1003200010F8016B01F8016B5B1EF9D12B0705D4A6
:100330000023521E0DD401F8013BFAE710F8013BEF
:10034000CB1A921C03E013F8015B01F8015B521E0B
:10035000F9D5A142D8D3002070BD00BFFEE7000050
:100360007CB507F0BFFA0546002000902B46044AF2
:1003700002210190034801F0D9FA044620467CBDD1
:100380007DCE000870D0000870472DE9F047044684
:1003900040688EB00027804601F0A4F90090B0F8C4
:1003A0007CA0D0F86890D0F88060D0F88850C06DFC
:1003B00000B10768684601F0DFF905E0696820468A
:1003C0008847002843D12D68002DF7D120681728D1
:1003D00053D00CDC0F283DD004DC0B2877D00D283F
:1003E00025D18BE0112810D0142820D13BE02628FD
:1003F00046D004DC1E2851D0202818D18AE02A28B3
:1004000016D0B0F5107F12D128E04046E56801F023
:1004100069F90290697A39B9297A012904D130F849
:100420007C1F41F48071018002A801F0A5F975E0FC
:10043000404601F057F90090E16811B1C0F884100E
:1004400002E0D0F88400E060684601F095F90EB053
:10045000BDE8F087D7B34046B8475FE02146404645
:100460000BF02AFAF3E705A9404600F05BFBE068D1
:100470000699016007994160E9E7C4F80C90E6E746
:10048000E0680228E3D1CDF83080E0680D902720A5
:100490000A900AA9A06808F073FAD8E7E068012872
:1004A00004D00021404600F0ADFAD0E7304607F016
:1004B000C0FB68B1304607F043FD304607F09EFAB6
:1004C00098B10121304606F0B8FF0EE026E02FE09B
:1004D000484607F083FD0646404601F003F90090C8
:1004E000C0F88060684601F047F90121404600F0FD
:1004F00089FA002EABD10020E060A8E75FEA0A701D
:100500000CD4E068C06848B1007A38B1404607F0C2
:1005100017FD03E0214640460BF036F921464046E0
:1005200006F0FBFE002892D0204607F0C7F88EE7C1
:10053000404601F0D7F80090703001F045F8684669
:1005400073E7F0B587B0B0F908400DF10C0C0C9EC4
:10055000876945688CE8F000448A0025CDE90015DC
:100560000294B0F90C10B0F91050B0F90E40B0F987
:100570000A00194410442B46224600F003F807B045
:10058000F0BD00002DE9F0478AB00DF14C0CDDE91B
:1005900017849CE86006129F45F48055DFF8BCC0C4
:1005A0006034CDE902C4CDE9007506F0D5FF040042
:1005B0004FD001F097F830224946049006F07AFFB8
:1005C0000498282226493430FFF730FE0498244F3F
:1005D000C0F86480A0F87C600026C0F88060C66621
:1005E000083FC0F888607968C16504A801F0C4F8C4
:1005F00005A9204600F096FA1A4841F28271039646
:100600000094CDE90110BDF91E00BDF91A10BDF925
:100610001C20431ABDF918005B1C121A521C06F06C
:100620009BFF06467868416820468847204601F0CF
:1006300059F80490866604A801F09EF842F204007E
:10064000054202D1204607F0E1F85146204600F06D
:100650000EFA0AB02046BDE8F08700008B030008C0
:10066000A4000020370E00082DE9F041044694B0A4
:10067000006800F0B7F908B1D94D01E0D84D2C352C
:10068000606815281ED00CDC0B281FD004DC002865
:100690007ED005287DD12FE10E287BD01228F9D1FC
:1006A00041E1162806D0172808D0182808D01C28A1
:1006B000F0D109E0E86914B0BDE8F081286AFAE7F2
:1006C000686AF8E7A86AF6E76869F4E720680B90BB
:1006D0001C200C90206801F005F80390016D0BA818
:1006E0008847064603A801F047F8022E0FDB95E87D
:1006F00007008DE80700D4E904023346A16902F03F
:10070000A5FF20698719A069A0EB06082CE02868DE
:1007100002F036FA2169E8690A18521E606901F090
:100720003BFBA269E869111A491C606901F034FBBE
:10073000D4E904077F1C394601F054FB3946A0690F
:1007400001F050FB686802F01BFA20693946401C32
:1007500001F048FBA0693946401E01F043FBA06947
:100760002769A0F10208BF1C286802F009FA424676
:100770003946606901F010FB686802F001FA6069AF
:1007800042463946401C01F007FB686A022802E035
:1007900015E1B0E000E10BDDA86802F0F1F9616954
:1007A0006A6A881C8B180146424638465B1E27E061
:1007B000296AB14226DD6069022E074600F102086F
:1007C00001DB374401E007F10207206901DB304417
:1007D00001E000F1020022693B460A444146A2F1D1
:1007E000010201F09FFB022E02DBA069821B01E0E7
:1007F000A269921EA069E9693B46401A4146401C25
:1008000001F090FB022E02DB6069064401E066699C
:10081000B61CE76928687F1E02F0B2F93A463146F5
:10082000206901F03DFB3A463146A06901F038FBF2
:10083000E7696868BF1E02F0A3F920693A463146AD
:10084000401C01F02DFBA0693A463146401E01F0E4
:1008500027FBE869022802DC286A022823DDA86A4F
:10086000022802DDE1690F1A01E0E769BF1EA868EE
:1008700002F086F9E969022909DD20693B46421840
:1008800000F1020C31466046521E01F04BFB286A13
:10089000022808DDA269E8693B46101A3146401C6F
:1008A000921E01F03FFB286802F06AF9D4E90620A5
:1008B000216901F071FA686802F062F9D4E9062052
:1008C0002169401E491C521E01F066FAA86A0228DE
:1008D00011DDA1692669E469A1F10208271AA41EA5
:1008E000B61C7F1CA86802F04BF9234642463946E5
:1008F000304601F017FB71E0208A00B2ADF8140019
:10090000A18A09B2ADF81610228B12B2ADF81820E8
:10091000A38B1BB2ADF81A302C69ED68CDE90054F9
:1009200001F002FA5AE0208A298B0844ADF814003D
:10093000A08AADF81600208B298B401AADF818005C
:10094000A08BADF81A00206800F0CCFE0390006F79
:10095000F0B1022002F05EF9039890F87C10C1F328
:10096000C00100EB8100006C02F00AF90398406BB3
:1009700002F010F90398006F00F0B4FE039909909B
:10098000B1F95A2005A901F071F909A800F0F4FEA7
:1009900003A800F0F1FE21E0208AADF81400A08A3F
:1009A000ADF81600208BADF81800A08BADF81A003A
:1009B000A86802F0E5F805A801F0D8FA0EE0206872
:1009C00000F090FE039030F85A1F41F00C010180B6
:1009D00003A800F0D1FE206807F028FB00206AE69B
:1009E000E001002038B5002450B100F07BFE0090FB
:1009F00090F87C00000700D50124684600F0BCFE9A
:100A0000204638BD002801D00BF0DBBA70472DE935
:100A1000FC410D46070028D000F064FE0190C16D36
:100A20008C6800F0E9F880460198456301A800F061
:100A3000A3FE22680121384690470646226803211A
:100A400038469047054622680021384690470446BC
:100A5000384600F0B9F92B463246414638460094F4
:100A600000F03FF9384607F086F8BDE8FC817CB518
:100A70000D46040019D000F035FE0090006F019083
:100A8000684600F079FE294601A803F0B7F800286F
:100A90000BD0204600F026FE0090019901676846C1
:100AA00000F06AFE204607F066F87CBD2DE9FC47A1
:100AB0000D465FEA00094FF000042DD000F012FE51
:100AC0000190B0F95440A54223D000F095F880463B
:100AD00001980121A0F85450C06D856848462A68E5
:100AE000904707462A6803214846904706462A68E9
:100AF0000021484690470546484600F065F93346D0
:100B00003A4641464846009500F0EBF8484607F063
:100B100032F801A800F030FE204600F000B80CBC0E
:100B2000BDE8F0872DE9F34F85B000270C46B846A5
:100B3000059800F0D7FD0090C06D012185680598EB
:100B40002A68904782462A680321059890470490B6
:100B50002A6802210598904703902A680021059889
:100B600090470646009807F005FC8346009807F07A
:100B700008FC8146009890F83210890601D5B0F93A
:100B8000588000F039F805460098C06E10B106F0A4
:100B900013FF074625806780A4F804A0049AABEBF6
:100BA000020006EB0802401E2A4420813A44E280FB
:100BB000039BA9EB0302521E6281A4F80CA02082C1
:100BC0007019E681401E6082684600F0D5FDB4F9D8
:100BD0000C000190B4F91000029002AA01A9059836
:100BE00000F03CF80198A0810298208207B000F044
:100BF00000B830BCBDE8C08F10B50146002091F8A8
:100C00003220920607D5B1F95400002803D1486B71
:100C100001F012FA801C10BD70B58AB00C46054672
:100C200000F060FD0990C06D866809A800F0A4FD81
:100C3000009534B1012C06D0022C0BD0032C04D12A
:100C40000AE0182000E01620019071686846884785
:100C50000AB070BD1520F7E71720F5E72DE9FC4134
:100C600017468846044600F03DFD0090C16D0568BA
:100C700068468E6800F080FD32680021204690476B
:100C80000646204606F042FE27E000BF00F02AFD9F
:100C90000190B0F900102AB2B0F90430891A9A1AFA
:100CA000B0F90230A3EB2543B34210D190F82800ED
:100CB000000605D53868884209DB491E396006E020
:100CC000D8F80000904202DC521CC8F8002001A8AD
:100CD00000F052FD204606F038FE0400D6D1BDE8F3
:100CE000FC812DE9FF4F83B00E460746DDF84090AA
:100CF00000F0F8FC0190C16D8D68FFF77DFF0446A0
:100D000001A800F039FD2A68012138469047834642
:100D10002A6803213846904782462A6800213846CF
:100D200090470546B44207D105998B4504D10699F1
:100D30008A4501D14D4541D0A41B0026B046384616
:100D400006F0E4FD38E000F0CDFC0090806A01067A
:100D500001D5800502E0810528D50006002825DBA5
:100D600024B122461146384606F0C4FF009890F898
:100D7000280000060AD50698A5EB0902A0EB0A0098
:100D800004FB16013846761C06F08DFF0098008D96
:100D900080050BD50599A5EB0902ABEB010004FB1F
:100DA000080108F10108384606F07DFF684600F0AA
:100DB000E3FC384606F0C9FD0700C4D107B000F0D7
:100DC00000B830BCBDE8C08F70B586B0064600F0F4
:100DD00089FC0590D0E91A4505A800F0CDFC54EA3D
:100DE000050026D069463046FFF79CFEACB1BDF940
:100DF0000620BDF90410204606F02CFFBDF90A00BC
:100E0000BDF90610421ABDF90800BDF90410521CC4
:100E1000411A2046491C07F029F9002D09D0BDF9D7
:100E20000600BDF90210421ABDF90410284606F06A
:100E300011FF06B070BD2DE9F0430446406889B04B
:100E4000054606F089FD814600F04CFC0290D0F882
:100E50004880D0F88070466E02A800F08DFC2068B3
:100E6000172853D008DC0E283AD00F2811D01428A8
:100E70004CD015283DD149E01E281ED01F282AD06D
:100E8000222840D0312834D10020E06009B0BDE8EC
:100E9000F0836FF070414046884503D004F04CFF6A
:100EA00000F006FD002EF1D0D4E902122068CDE951
:100EB0000405CDE9061204A81FE0E0680028E5D08B
:100EC0002FB1AF4203D0384607F03AF8DEE72846A4
:100ED00007F084F8DAE72146484606F01EFAD5E71F
:100EE000E0684168002904DD00680928EFD00A287D
:100EF00005D05EB12046C4F80490B047C6E7284646
:100F000007F074F8C2E7C4F80C80BFE7204606F08B
:100F1000D5FBBBE710B5002001F030FE6FF07F403D
:100F200001F02EFE012001F063FE002001F068FEBA
:100F3000002001F06FFE002001F02AFE0448006846
:100F400001F028FEBDE81040002001F02DBE000099
:100F50002800002070B50C46054600F0FFF8A86890
:100F60002168C16261680163A1684163490707D5CF
:100F7000D0E90021C0E90012D0E90221C0E9021243
:100F8000A18981842169002903D001DC4FF000018F
:100F9000016270BD2DE9F0411E46174688460546A0
:100FA00000F0DCF8AC686822414604F58670FFF773
:100FB0003DF92846B8472846B047286980688047E9
:100FC000A062BDE8F081000010B5044600F0C6F84C
:100FD000A0681149144AC0F8AC101049C0F8A81014
:100FE0000F49C0F8B0100F49C0F8B8100021C0F880
:100FF000BC101368C0F8B4300C4BC0E932315168F2
:10100000C0F8C41030F8261F21F0030120F82A1B75
:101010000749416410BD000025C200086DC30008E7
:10102000EDC1000873BD00089400002043BE000815
:1010300095C1000810B5044600F090F8A468104867
:101040000821C4F8E4000F48C4F8E8000E48C4F8CA
:10105000EC000E48C4F8F0000D48C4F8A0000D489C
:10106000C4F8A400D4F8C800C4F8FC00D4F8942054
:10107000204690471020A0630748606410BD000020
:10108000F59D000899AA00089D100008CD110008E0
:101090002DBD0008ADC5000808FC0008F8B584683F
:1010A00015460F4694F8260080074CD5D4F8003139
:1010B000204698470646D4F804312A463946204649
:1010C0009847D4F8983005461BB1002201212046EC
:1010D00098472069B04201DD012000E00020A169AD
:1010E000B14201DA012100E0002108436169A9420F
:1010F00001DD012100E000210843E169A94201DA94
:10110000012100E0002108430AD060680022401E4F
:1011100000902368D4F8A870114620465B1EB8479B
:10112000D4F8AC302A46314620469847D4F8A0106F
:1011300020468847D4F8983005466BB1012200213B
:101140002046984708E0D4F8AC3020469847D4F8B9
:10115000A0102046884705462846F8BD70B50446CD
:101160008068002812D14FF4BA75284600F034FA8E
:101170002A460021A06002F077FDA0680221C18408
:101180000121046401620249C0F8081170BD000029
:101190009511000810B590B0044620220A4968460F
:1011A000FFF744F808492022203108A8FFF73EF84D
:1011B000606B5DF82010C4F8001108A951F82000F8
:1011C000C4F8040110B010BDFCD000082DE9F843AC
:1011D00084689846154694F826000F46800740D547
:1011E000D4F80031204698470646D4F804312A4600
:1011F00039462046984705462069B04201DD012066
:1012000000E00020A169B14201DA012100E00021E3
:1012100008436169A94201DD012100E00021084382
:10122000E169A94201DA012100E0002108430AD066
:1012300060680022401E00902368D4F8A870114610
:1012400020465B1EB847D4F8AC302A4631462046CB
:101250009847D4F8A42001B041462046BDE8F043A9
:101260001047D4F8AC30F2E72DE9F04FDFF828B1A1
:1012700091B04FF0FF35DBF80030B3F92210069142
:10128000DE69B3F92490F469A189814206D8E28924
:10129000824203D3471AD4F8008012E0D4E90181D6
:1012A00000296FD00A8882426CD84D88854269D364
:1012B000801A82B2486800EB8200B0F90070B0F981
:1012C0000250781C5ED0307EA17C10FB01FA217C9C
:1012D000CDE90701B3F92A60304604F07DFDC0B2C4
:1012E0000E90DBF8000007FB0A81A37C826B0127CC
:1012F000CDE90412CDE90273C069089AC17E807EEF
:10130000CDE90001DDE90603494604F069F8681CEF
:1013100018D046F0020004F05FFDDBF80000A37C6B
:1013200005FB0A81826BCDE90273CDE90412C06925
:10133000089AC17E807ECDE90001DDE906034946B9
:1013400004F04EF8DBF800005D46C069417E007E87
:10135000814214D9022E12D086F0040004F03CFD24
:101360002868C069027EC37E12FB0391437E857E9E
:10137000089A06984B4412FB050204F0C1F90E9836
:1013800004F02AFDDBF80000627C418C11444184AA
:1013900011B000F003B800002C00002030BCBDE804
:1013A000C08F000004480068C069C06909B1027CB0
:1013B0000A60407C704700002C000020022008805A
:1013C0007047C06982898A4202D8C2898A4210D293
:1013D000806880B102888A420DD843888B420AD344
:1013E000406800EB8100A0EB8200B0F9000000280B
:1013F00001DB012070470020704700002DE9F04319
:10140000304C034687B020681946B0F92A60C0699D
:10141000C06900F086F8002850D041680088181A8A
:1014200001EBC0053046AF7804F0D6FC8146206859
:101430006A680123816BCDE90237CDE90421C169D6
:10144000CB7E8A7ECDE900230B7EB0F924102A786A
:10145000B0F9220003F0C4FF2068C069417E027E1B
:1014600091421FD9C07E11FB00F812FB00F7022E3B
:1014700018D000F0ACFD064600F08CFD01F080FBBA
:1014800021682A78CB69B1F92200DB7E12FB0302C6
:10149000B1F9241001EB0803394404F031F9304666
:1014A00001F06EFB484604F097FC20686A78C36937
:1014B000B0F922109B7E12FB0311418407B0BDE8F6
:1014C000F08300002C00002030B50F4C05460B4681
:1014D00020682946C069C06900F023F8002812D0AE
:1014E0004168008824682A1A0120E46900EBC200E0
:1014F000085CA47E10FB04F0002B04D011F832101D
:1015000011FB04F1196030BD2C000020012008807F
:10151000704700B5C06900F004F8002800D0012031
:1015200000BD06E002888A4202D842888A4202D27E
:1015300080680028F6D17047002801D007F012BB60
:10154000704738B50546FFF7F7FF040009D000F0F3
:10155000C9F82A460021009002F086FB684600F098
:101560000BF9204638BD0000024A106021F003004C
:1015700050607047DC48002010B5002814D00446A5
:101580000A48406B10F8341000290DD002290BD204
:10159000042101EBC4014158486807F09BFA20463A
:1015A000BDE810400AF0AEBB10BD00001C48002092
:1015B000002805D0034AD16B016001B14860D063B7
:1015C000704700001C48002010B504460068FFF773
:1015D000D3FF0020206010BD2DE9F041044609F042
:1015E000D3FF2848E41C24F00305016C2D1DA942FB
:1015F00000D90D46C46B13E054F8042CAA420ED156
:1016000084B1216809B162684A60616809B12268E1
:101610000A60C26BA24231D12168C1632EE0246806
:10162000002CE9D18046816BC0680F1857F8040C74
:101630003E1A306838B100200AF070FC57F8040CEC
:101640003E1A3068D0B97068A84217DB3044441B9A
:101650003046241D0AF01AFCD8F80C10491BC8F8B3
:101660000C10D8F814102944C8F814107068401BE6
:1016700002D0314607F02EFA44F8045C2046BDE85B
:10168000F08100001C48002010B5002409F07CFF08
:101690000C490F2001EBC002526C1AB101EBC000E3
:1016A000406C08E0401EF5D508E04168A14200D931
:1016B0000C46806810B180680028F6D1A4F10C00B7
:1016C00010BD00001C480020002138B1044904224C
:1016D00002EBC000496B085841680C390846704756
:1016E0001C4800200549CA69521CCA61496B01EBBC
:1016F000C0010A78521C0A7000F056B81C4800203D
:101700007CB506460C460846FFF716FF05001CD0C0
:10171000DEB13046FFF7D8FFA04200DA0446284683
:10172000FFF7E0FF00903046FFF7DCFF0146019035
:1017300022460098FEF77AFD684600F01DF801A8E1
:1017400000F01AF83046FFF717FF28467CBD00006E
:1017500010B5FFF799FF64220649B0F5800F04D950
:1017600090FBF2F0096A484310BD096A4143B1FB9E
:10177000F2F010BD1C4800200A4902684B6B52F879
:10178000082C03EBC2021378022B03D3CB690BB1F5
:101790005B1ECB611178491E117000210160084663
:1017A000704700001C480020002806D0034904228E
:1017B00002EBC000496B0858083070471C480020F5
:1017C00070B50C46054600F099FCC1B22346284688
:1017D000BDE87040002200F001B80000F0B52D27F0
:1017E0001C68B0F1004F08D0002600280DDA651CF7
:1017F0001D6027704042012408E0651C01261D6021
:101800006FF000402770491E01E00024091BC9B297
:101810002AB3491EC9B222E00C46491EC9B29442FD
:1018200005D1124C27781C68651C1D602770104C70
:1018300054F8215090FBF5F4E4B20A2C11D804FBC3
:10184000150011B90EB1641CE4B20A2C02D10124B6
:10185000491CC9B21D686F1C30341F602C700029F0
:10186000DAD1196800200870F0BD000020000020C7
:101870005CFC000810B5C2B2CBB2D21A00D55242FD
:1018800093B25B43C0F30722C1F30724121B00D5B8
:101890005242000C92B2A0EB114002FB023200B2A5
:1018A000002801DA404200B280B200FB002010BDE7
:1018B00010B50021084600F0D5FB43F6FF725042F8
:1018C000BDE8104013460146AFF300802DE9FC410E
:1018D00007461C4615460E46042004F07DFA804655
:1018E0001148C068C16C006D0F4406440D440444A7
:1018F000ADF80070ADF80450ADF80260ADF80640E8
:10190000684606F045FD07E023462A46314638463C
:1019100003F0F6FE06F0F0FC0028F5D1404604F096
:101920005BFABDE8FC810000200000202DE9F843AF
:101930001C00DDE9089816460F46054602D105F061
:10194000D1FF044600962E6843464A462146284663
:10195000B047061E35D005F0B9FF8146698A30468A
:1019600005F06BFD304606F0ADFB484606F0AAFBDD
:101970004FF000080CE000BFCDF8008055F81CCFF8
:1019800000231A4649462846E047E0B106F09AFB94
:101990007F1E002FF0DC1D21484606F044FA601C33
:1019A0000ED005F0BBFF30B1FFF7FEFE8469B442F4
:1019B00001D02000F8D1B44202D0304606F00EFB30
:1019C0003046BDE8F883304605F0ACFE0020F8E76D
:1019D0002DE9F0411C4616460D460746022B02DB58
:1019E0000020BDE8F0811C20FFF7F6FD0028F8D0AC
:1019F0000DB105610AE0094A52F8241009B905E061
:101A000011460A68002AFBD1096901618461868256
:101A1000002101604160C0E90217E2E744000020B4
:101A200070B51D46FFF7D4FF040009D000F00EF892
:101A3000E068006820B90348006800EB8500846511
:101A4000204670BD2C000020FFF7B2BD70B590B3EA
:101A50008269022A30DA1E4C54F8221019B944F86F
:101A6000220032E019464B68002BFBD106E0CB6820
:101A7000C5681B682D68AB4203DD09680029F6D1F3
:101A80001AE0C1B1CB68C6681B683668B3420CD196
:101A9000838A012B05D008E01946DB681B68AB423E
:101AA00003DB0B68002BF7D129B14B6833B1186009
:101AB0004A68426004E0FFE7012070BD44F822005C
:101AC0004860884200D100210160002070BD000004
:101AD000440000200A4A816952F82130834202D131
:101AE000036842F82130416809B102680A60016860
:101AF00009B142684A6000210160416070470000FE
:101B000044000020022801DB00207047054951F8FD
:101B1000200004E0C16809680029F6D000680028A8
:101B2000F8D170474400002070B5044601F01AFA5D
:101B3000051908E000F0D4F9052C01DD052000E0CE
:101B4000204601F001FA01F00DFA2C1A002CF1DC0C
:101B500070BD00002DE9FC4706005BD000F03EFAA6
:101B60003B4C81462068B0F9228000F04DFA216894
:101B700007468A8CD01B888441E000BF47F6FF717E
:101B8000304601F0C1FE82460146304601F092FE29
:101B90002168054691F82C0000F0030001283FD091
:101BA000022839D000204A8C101A4884ADF8000071
:101BB0006A1E1044ADF80400888CADF80200A9F14B
:101BC00001010844ADF806006A465146304601F06E
:101BD00053FB2168BDF8020088845146304601F06D
:101BE0009BF8064430780A281CD00D281AD0BDF87E
:101BF0000000216828444884307818B1761C307879
:101C00000028BBD12068818C39448184818D21F0EA
:101C10000301818500F01EB805EBD5704010C2E7C6
:101C20002846C0E7206890F82C1001F00301012934
:101C30000BD0022909D0018C418431780A29DBD1EB
:101C4000828C02EB09018184D6E7A0F82280F4E7B8
:101C50002C0000200CBCBDE8F0870000024B1B6884
:101C600059849A84FFF776BF2C00002047F6FF7353
:101C7000AFF300802DE9FC411F46904606000D465B
:101C80004FF0000416D065B1084606F00FFA0400C4
:101C900007D002462946684601F0A3FE684606F0D2
:101CA00005FA3B4642462946304601F03DFB2046B8
:101CB00006F0FCF9BDE8FC812DE9F04F0C46164911
:101CC00087B00D68DDE91098E96C0F18286D8D1844
:101CD0000619C418ADF81070ADF81450ADF81260C4
:101CE000ADF8164004A806F053FB002811D0DFF829
:101CF0002CB04FF0000ACDE90098CDE902BA2B468E
:101D000022463946304608F0C5FB06F0F5FA0028B1
:101D1000F1D107B000F004B82C000020AD56000847
:101D200030BCBDE8C08F00002DE9F04F164C87B0E5
:101D30002568DDE91098EC6C2718286DA518461861
:101D4000C418ADF81070ADF81450ADF81260ADF8CD
:101D5000164004A806F01CFB002811D0DFF82CB0B8
:101D60004FF0010ACDE90098CDE902BA23462A4690
:101D70003146384608F08EFB06F0BEFA0028F1D155
:101D800007B000F005B800002C000020ED55000859
:101D900030BCBDE8C08F00002DE9FC41104F044667
:101DA0003B68D86C4518196DADF800500E198418B1
:101DB000ADF80440ADF80260ADF80660684606F084
:101DC000E7FA08E0386822463146406E0368284644
:101DD000984706F091FA0028F4D1BDE8FC81000094
:101DE0002C0000207CB50E4D2A68D36C1E18106D97
:101DF000ADF804604418ADF80060ADF80640ADF8E9
:101E00000240684606F0C4FA07E028682146406EA2
:101E100042683046904706F06FFA0028F5D17CBD45
:101E20002C0000202DE9FC411C4C2468E66C94F841
:101E300018C03718206DACF1010C4518C418A7EB79
:101E40000C001644ADF8000006EB0C00ADF80400E1
:101E5000A5EB0C00ADF8020004EB0C00ADF8060099
:101E6000684606F095FA15E032462946384603F0F2
:101E7000BDFB32462146384603F0B8FB621E691CA2
:101E8000384603F013FC621E691C304603F00EFC5A
:101E900006F032FA0028E7D1BDE8FC812C000020D2
:101EA0007CB50E4B1B68DC6C2618186DADF8006015
:101EB00045188418ADF80460ADF80250ADF806403E
:101EC000684606F065FA06E022462946304603F0E9
:101ED000EDFB06F011FA0028F6D17CBD2C000020A5
:101EE00010B5002400E0012400F004F80028FAD125
:101EF000204610BD094810B50068002410B1804785
:101F000000B1012405F08EFC00B1012404480068F2
:101F100010B1804700B10124204610BD50000020C0
:101F20004C0000202DE9FC410F4C2568EC6C271873
:101F3000286DA5184618C418ADF80070ADF8045007
:101F4000ADF80260ADF80640684606F021FA07E0F9
:101F500023462A463146384603F0D2FB06F0CCF938
:101F60000028F5D1BDE8FC812C000020B0F9063036
:101F7000B0F90420B0F90210B0F90000FFF7D2BFA9
:101F8000034951F82000C1688A6A082110470000FF
:101F90004400002010B503F0E3FBBDE8104003F05F
:101FA00073BC000002490968C9694A6800211047EA
:101FB0002C000020024A1268D269526810470000C3
:101FC0002C000020002801D005F070BC704710B52F
:101FD00003F0CEFBBDE8104003F056BC0248006899
:101FE000C069407E704700002C00002001F058BC02
:101FF00001F0B4BC10B5044601F0A2FC0146204635
:10200000BDE8104001F056BC0A490020096891F86B
:102010002C2002F00C02042A07D0082A01D00C2A36
:1020200002D1C869007E40087047C869007E401E22
:10203000704700002C000020017EC07E11FB00F0E4
:1020400070470000024951F820000069006870479D
:1020500044000020024951F82000006940687047A0
:102060004400002070B50D4609F0F0F904462846FA
:1020700009F0F4F9204370BD2DE9F04119480168D9
:1020800021F00101016018480125856017490160B0
:1020900000681749884200D0FEE701F01FF8154E8E
:1020A0002E20307000F064FF134809F035FA0AF072
:1020B0004DFF074603F0A2FB10B103F0B3FB38B9A4
:1020C00003F0B9FB044603F0A2FB214603F07EFEB9
:1020D0000021084600F070FD05F0A0FC7570384640
:1020E000BDE8F081002000E000300240C2A507F406
:1020F000CDB5E8B520000020E848002010B5011E4D
:1021000001DD024600E04A42064B012053F8204020
:10211000944202D8401C0A28F8DB002900DA401C4F
:1021200010BD00005CFC00081CB520B90C4800681C
:10213000006E002812D0FFF7D5FA00904469684677
:10214000FFF71AFB002C09D02046FFF7CBFA0190CD
:1021500081688968884701A8FFF70EFB1CBD000055
:102160002C00002001490A4600F002B801F0FFFFF0
:102170002DE9F04387B015460C465FEA000842D0CF
:10218000002000F005FD814620480068066E4046AC
:10219000FFF7A8FA00900068806900F0D7FC0746B6
:1021A00040F6FF70C44204D10098B0F90440B0F981
:1021B00006500098611E0289ADF804401144ADF844
:1021C00008104189681E0844ADF80650ADF80A00B1
:1021D00005F078F96846FFF7CFFA01A806F0D8F8BD
:1021E00006E02A462146404600F05BFB06F084F8F4
:1021F0000028F6D1384600F0A9FC304600F06CF912
:10220000484600F0C5FC07B0BDE8F0832C00002074
:102210002DE9FE4F83461A488A461A4900680C9EEB
:102220009846407C9146002751F82040E1680968B3
:10223000042903D02468002CF8D100E01CB9FFF772
:1022400061FC041E19D0E0680121C26A2046904753
:10225000050011D02469A0688047401C02D10A4CB7
:1022600046F001060096CDE9015443464A465146E0
:10227000584600F0B5F90746384600F007B80000A8
:102280002C000020440000209CFC00081EBCBDE87F
:10229000E08F000038B5040018D00D480068006ECB
:1022A000A04201D100F048FC2046FFF71BFA009045
:1022B000406908B100F027FE00980068FFF7C4FBF2
:1022C0006846FFF759FA2046FFF756F938BD000077
:1022D0002C0000202DE9FF4FDFF83891074683B02E
:1022E000D9F800009A468B46447C4B480057012899
:1022F000204606DD03F088FA0546204603F098FAEA
:1023000005E003F069FA0546204603F06BFA04463F
:102310001FB302A901A8FFF76BFEB7F90000002860
:1023200000DA0020B7F902608046002E00DA0026AD
:1023300001984119B7F90400491E09F0EAF9054668
:1023400002980119B7F90600491E09F0E2F9A5EB58
:102350000802841B521C641C03E04FF00008464630
:102360002A46BAF1000F01D1C4F1000A002A4FDD5C
:10237000002C4DDD10980090534631464046FFF743
:1023800047FF5FEA000A10D000F06CF80746A04251
:1023900006D0D9F80000806C10B1322106F00EFB97
:1023A000504600F099F8002521E0594605988847E5
:1023B000012007B000F034B8611BB94202DA504680
:1023C00000F074F83DB172194146504600F0A6F88D
:1023D0005046FFF7A9FE5946059888470F480168FF
:1023E00009B1002088475046FFF7BCFE3D44A54296
:1023F000E2DB5046FFF74EFF002000F06DF8A742E9
:1024000006D0D9F80000806C10B1332106F0D6FA5E
:102410000020CEE72C00002064000020C401002032
:1024200030BCBDE8C08F38B5002460B1FFF75AF961
:102430000090006800698068804703F0A0FE0446B1
:102440006846FFF799F9204638BD38B5002808D00E
:10245000FFF748F900F1180400906846FFF78CF97F
:10246000204638BD38B5002418B907480068006E0A
:1024700038B1FFF737F90090B0F90A406846FFF726
:102480007BF9204638BD00002C00002070B50546C1
:102490000024284606F0E0FC641C18B1BDE870403A
:1024A00000F068B8052CF4DB70BD000038B50C46B0
:1024B00020B908480068006E00280AD0FFF712F91A
:1024C0000090B0F90A10A14200DD44816846FFF790
:1024D00053F938BD2C000020F8B50F4E05003068C8
:1024E000046E16D00CB100F027FB05F0DDF828468D
:1024F000FFF7F8F8009031680D660068FFF7A6FA5C
:102500006846FFF739F903F0AFFC03F03FFC2046C3
:10251000F8BD00F011FBFAE72C0000207CB5154651
:102520000C4620B912480068006E00281FD0FFF743
:10253000D9F82DB20090C58024B2848003F026FC27
:102540000098406980B1FFF7CDF8009A0190B2F988
:1025500008108180B2F90A20C28011B10AB104804A
:10256000458001A8FFF708F96846FFF705F97CBD2B
:102570002C00002001490A4600F002B801F0FFFFDC
:102580007FB515460C46060028D0FFF7ABF840F69D
:10259000FF710190CC4203D1B0F90440B0F906506C
:1025A0000289611E1144ADF80840ADF80C10418954
:1025B000681E0844ADF80E00ADF80A5001A8FFF7F8
:1025C000DBF802A805F0E4FE06E02A462146304684
:1025D00000F04FF905F090FE0028F6D17FBD000015
:1025E0002DE9FF4FDFF8E8B083B01C46DBF80010A0
:1025F000DDE9106092464FF000084B7C424612998C
:10260000FFF7E6F9050060D028698068804703F08D
:10261000B6FD81460AFB09F1C91DCF08FFF798F8FE
:10262000F10705D1C11700EB9170801000EB40005D
:10263000002C09DC1FB11838B0FBF7F000E00020D7
:102640006442A04200DC0446F00707D10090DDE9B7
:1026500003012346524600F0DFFB8046002C03DCDA
:102660002846FFF7F1F930E004FB07F01830F107D6
:1026700002D0FEF761FF01E0FEF763FF06001CD009
:10268000FFF730F801900560039981800499C180BB
:10269000A0F808A04481C0F81480C0E9037901A81B
:1026A000FFF76AF81298AE602861DBF80000407C02
:1026B000A861304607B000F00DB82846FFF7C4F90E
:1026C000B8F1000001D0FEF757FF0020F2E700004C
:1026D0002C00002030BCBDE8C08F00002DE9F74F72
:1026E0008EB0144689460E98FEF7FCFF0990B0F9AB
:1026F00008B0B0F90A600068006940680C9009A849
:10270000FFF73AF8564D574F2868407C57F820009D
:10271000C1688A6A082190470790182801D32020B1
:1027200007902868407C57F820000069069003C88D
:102730000B904D48814201D0012000E000200A901A
:10274000002000F016FC00287DD1286809EB0B0161
:10275000B0F90C20891A491E002902DDABEB0105F6
:1027600000E05D46B0F90810494505DDA1EB09011F
:1027700089446D1A089101E000210891002D6BDD5C
:10278000B0F90E20A119891A491E002902DDA6EB15
:10279000010800E0B046B0F90A00A04204DD061BC3
:1027A0003444A8EB060800E00026B8F1000F53DD22
:1027B000089801900DA95F46DDF830A00E980091B1
:1027C000FFF743FE774300EB870101982B4601EBAF
:1027D000800200994846CDE900A1214600F04AFE5A
:1027E0000090002838D00A98E8B1DDE90632294681
:1027F000009800F06DFCB0B90698009FDA46D0F85A
:1028000010C0BCF1000F05D004235A4639463846A3
:10281000E04708E00B993868884701C7AAF1010032
:102820005FEA000AF6D100990020079ACDE903017A
:10283000059001200090CDE9010221460346641C69
:102840002A46484600E007E002F0CAFDA8F1010070
:10285000761C5FEA0008ABD111B000F007B80000A9
:102860002C00002044000020A758000830BCBDE820
:10287000C08FF8B515460E460746FEF733FF0090A9
:1028800000681621C068426A0020904704466846E6
:10289000FEF772FF002C03D02A4631463846A04787
:1028A000F8BDF8B516460F46050012D0FEF71AFF20
:1028B000009044696846FEF75FFF2846FFF7B3FDC6
:1028C0000346082800DD2CB132463946284609F077
:1028D000A7FEF8BD3246394628460AF045F8F8BD4D
:1028E00002480068407C00F003B800002C00002083
:1028F000F8B51D49096809B1002200E002461B49EC
:102900008D56012D2EDD1849143151F822305B1CF3
:1029100041F82230012B25D1A1F1080300261039FE
:1029200053F8224051F8221053F822707F1C43F8CC
:102930002270AF4201D143F8226053F822708F42D7
:10294000F2D03D46FFF7DEF8009000280AD0C068BC
:102950002121426A68469047030003D02A46214657
:1029600000989847F8BD000068010020640000202E
:1029700002480068407C00F003B800002C000020F2
:1029800038B51449096809B1002200E0024612492D
:10299000895601291CDD0F49143151F822305B1E84
:1029A00041F8223014D1083951F82240103141F851
:1029B0002240FFF7A7F80090002809D0C068222124
:1029C000426A68469047020002D02146009890472C
:1029D00038BD0000680100206400002010B5002808
:1029E00021D009B30AB3B1F90040B2F900309C42DA
:1029F00000DA23460380B1F90240B2F902309C426A
:102A000000DA23464380B1F90440B2F904309C4215
:102A100000DD23468380B1F90610B2F90620914209
:102A200000DC1146C18010BD11460A680260496889
:102A3000416010BD00280BD003880B4403808388BD
:102A400019448180418811444180C1881144C1806A
:102A50007047000070B5094C0020D4E900218A427B
:102A60000AD0D2E90056104608F00EFD206031462B
:102A7000284605F023F9012070BD00008C010020DC
:102A80002DE9FC41154DDDE908742D68B5F90860A4
:102A9000864200DD3046B5F90C60964200DA3246D7
:102AA000824219DBB5F90A608E4200DD3146B5F984
:102AB0000E509D4200DA2B468B420DDB00E02C4687
:102AC000E5682D6825B1042D02D02568002DF6D1CA
:102AD000CDE9007403F038F8BDE8FC812C0000203B
:102AE000B0F90220B1F906309A4213DCB1F90220A4
:102AF000B0F906309A420DDCB0F90020B1F904308B
:102B00009A4207DCB1F90010B0F90400814201DCFF
:102B1000012070470020704701460248702200687B
:102B2000FDF784BB2C000020024970220968FDF7E4
:102B30007DBB00002C00002010B503F0DDF803F091
:102B400093F9BDE8104004F0BDBC000070B5094D1C
:102B50000446022C2868467C09D22046FEF7D2FFA4
:102B600028B128684474FFF7E7FF03480460304643
:102B700070BD00002C000020F400002003F0DCB841
:102B800003F012B90149886070470000200000205E
:102B900003F022B903490968CA6900B1C861104647
:102BA000704700002C000020024909688A7E887660
:102BB000104670472C000020094A30B41080094AA2
:102BC0001180094A1268537C084A52F82330DA68A7
:102BD000146A0A46A446014630BC18466047000005
:102BE0006C0000206E0000202C000020440000201B
:102BF000024909680A7E0876104670472C000020BA
:102C000003490968B1F92C208885104670470000F7
:102C10002C00002003490968B1F92A204885104694
:102C2000704700002C00002002480068002800D0F7
:102C3000004770479C01002002498A6802B98860F9
:102C4000FFF7F2BF8C01002010B5040009D009F095
:102C500037F9204609F082FC2046BDE81040FEF717
:102C60008BBC10BD38B50C4660B1FEF73BFD009043
:102C70008089204201D0012400E000246846FEF74C
:102C80007BFD00E00124204638BD000038B5054634
:102C9000002028600648046844B12046FEF722FD63
:102CA0000090006928606846FEF766FD204638BD42
:102CB000A402002038B504004FF000000D46086063
:102CC00011D02046FEF70EFD0090846844B168469E
:102CD000FEF752FD2046FEF705FD009000692860D2
:102CE0006846FEF749FD204638BD00002DE9F04159
:102CF000084E04460568306801682846884707463C
:102D00003068416828468847284420603846BDE836
:102D1000F0810000300000202DE9F0410C4606460D
:102D20000025064F05E0386841683046884706446C
:102D30000544641EF7D22846BDE8F081300000202B
:102D40002DE9F0411E46069C1746884605463A4640
:102D5000A8687F1C3346D0F804C041462846E047A7
:102D6000641EF4D1BDE8F08170B5B0F90040091BD4
:102D7000B0F904408C422CDD00F11404B0F902508B
:102D80000069521B02FB0040CA1800EBE104521E0E
:102D9000D010B0EBE10501F007034FF0FF0102F0A6
:102DA000070221FA03F0C2F1070201FA02F1CEB2E2
:102DB00021780FD001436D1E04F8011B002D05DDA5
:102DC000FF2229462046FDF751FA2C442078304353
:102DD000207070BD30400143217070BD10B5B0F956
:102DE0000030B0F90240C91A00F114030069121B47
:102DF00002FB003000EBE10001F0070302788021C4
:102E0000D9400A43027010BDB0F90610026951435F
:102E10001430FDF732BA00002DE9F843804602F184
:102E20000F000011470003FB07F01C4615468946BA
:102E30001430FEF786FB060013D0FEF753FC00901B
:102E4000A0F80080A0F802908580C48006498160C7
:102E50000121818107616846FEF78EFC3046BDE89E
:102E6000F8830020FBE700002806010870B5B0F9E0
:102E70000660B0F904400B6800F1140596421BDDB2
:102E80000069A34202FB005000EBE30214DA641E67
:102E9000E010A0EBE30512F8010B03F00704A040DB
:102EA000C4B206E045B1083312F8014B23F0070322
:102EB0006D1E002CF6D004E0002070BD6006040EEC
:102EC0005B1C2006FAD5FF2C07D0184602E06406EA
:102ED000240E401C6606FAD400E0D81DC4436407E3
:102EE00005D006E012F8014BFF2C09D108306D1E09
:102EF000F8D5C01A401C0B6070BD6206140E401C51
:102F00002206FAD4F5E738B50546FEF7EBFB00904C
:102F10008189491E0CB284816846FEF72DFC002C85
:102F200002D12846FEF728FB38BD000010B54FF44B
:102F300080410348FEF718FB0248FFF723FE10BD4F
:102F40001C08002030D80008044A1268111800BF7D
:102F5000024A12688A1A002AFADC70470800002028
:102F6000704700000148006870470000080000201A
:102F700070470EB508B102AA00E00022002301A9A3
:102F8000684600F03FFC0EBD074910B50C7818B13B
:102F900001200870801E03E0002008706FF07F4061
:102FA00002F0A6F9204610BD6600002010B5082AE0
:102FB0000EDC0346012A18D0022A56D0042A76D005
:102FC00010F8042B03F8012B491EF9D1012010BD84
:102FD000102A08DC4FEA000230F8043B22F8023BDA
:102FE000491EF9D1F2E7002010BD10F8042BD207DA
:102FF000120E491E34D010F8044B491E04F001048F
:1030000042EA84122CD010F8044B491E04F001044B
:1030100042EA441224D010F8044B491E04F0010483
:1030200042EA04121CD010F8044B491E04F00104BB
:1030300042EAC40214D010F8044B491E04F0010403
:1030400042EA84020CD010F8044B491E04F001043B
:1030500042EA440204D010F8044B04F00104224375
:1030600003F8012B0029C0D1B0E710F8042B920718
:10307000120E491E15D010F8044B491E04F003042B
:1030800042EA04120DD010F8044B491E04F0030468
:1030900042EA840205D010F8044B04F003042243F2
:1030A000491E03F8012B0029DFD18FE7FFE710F855
:1030B000042B1207120E491E05D010F8044B04F021
:1030C0000F042243491E03F8012B0029EFD17DE7AD
:1030D00038B50024009400F01BF838BD0A4810B53C
:1030E000816900290ED101218161FFF71FFF02F0E4
:1030F000E9FE054905481C310860BDE81040084656
:1031000000F074BD10BD0000200000201DB80008B4
:103110002DE9F0410D460699044601B901461F68A4
:10312000082A09DC0E46012A1AD0022A5BD0042A9A
:103130007DD0082A13D18DE0102A07DCD3F810C007
:103140000E46BCF1000F04D0022389E00020BDE848
:10315000F08101CCB84726F8020B6D1EF9D189E049
:1031600001CCB847C0074FEA10686D1E36D001CCBD
:10317000B84748EA801000F0FF086D1E2ED001CC41
:10318000B84748EA401000F0FF086D1E26D001CC79
:10319000B84748EA001000F0FF086D1E1ED001CCB1
:1031A000B84748EAC00000F0FF086D1E16D001CCF9
:1031B000B84748EA800000F0FF086D1E0ED001CC31
:1031C000B84748EA400000F0FF086D1E06D001CC69
:1031D000B84740EA080000F0FF086D1E06F8018BB2
:1031E000002DBDD146E001CCB84780074FEA1068FA
:1031F0006D1E16D001CCB84748EA001000F0FF0859
:103200006D1E0ED001CCB84748EA800000F0FF08E0
:103210006D1E06D001CCB84740EA080000F0FF0858
:103220006D1E06F8018B002DDDD123E0FFE701CCF8
:10323000B84700074FEA10686D1E06D001CCB847AA
:1032400040EA080000F0FF086D1E06F8018B002D13
:10325000EDD10FE0D3F810C0BCF1000F04D0012372
:103260002A462046E04705E001CCB84706F8010BA6
:103270006D1EF9D101206AE77CB5064628480D4647
:10328000006868B1002005F083F806E06A46294628
:10329000304605F0B7FE05F02FF80028F6D17CBDCA
:1032A000106800901F4C506801902268BDF8000023
:1032B00032F84C1F0844ADF80000BDF802009188B8
:1032C0000844ADF80200BDF8040011880844ADF8C8
:1032D0000400BDF8060091880844ADF80600684671
:1032E00005F056F80EE000BF2068BDF800106A46F1
:1032F0004184BDF8021081842946304605F082FEE3
:1033000004F0FAFF0028EFD1206830F8221F428D28
:10331000891A01804188C28D891A41807CBD0000D4
:10332000680000202C0000202DE9FF4F85B09A4650
:1033300090460D46FEF752FE4FF00009DDF814B03E
:1033400006464C4625B1286800906868019002E066
:103350006846FEF737FE18F00C0F02D055460027DE
:1033600013E0BDF902402DE029467F1C059800F0CE
:10337000CBFA01466D1A0598FFF7CEFC0599084473
:10338000059005A800F004FB08B9002DECD108F069
:103390000C00042804D0082802D00C2812D105E023
:1033A000BDF9060007FB1604641C0BE0BDF906001E
:1033B000BDF90210401A07FB1600401C00EBD0704C
:1033C00001EB60045546CDF814B043E0294605985A
:1033D00000F09AFA07460146ED1B059800F06AFADC
:1033E00018F003010ED0012939D002290DD1BDF901
:1033F0000410BDF90020891A091A01EBD17102EB02
:10340000610101E0BDF900108946174A401E484499
:1034100012683946A2F822909484ADF80C00A019E5
:10342000401EADF80890ADF80E00ADF80A4002AAB3
:103430000598FFF721FF39460598FFF76DFC0599C0
:1034400008440590FEF7CAFD044405A800F0A0FA60
:10345000002801D1002DB9D109B000F007B8BDF99D
:103460000410091A491CCFE72C00002030BCBDE82D
:10347000C08F00002DE9FF4F8DB00020DDF86CA05B
:10348000164600901D4604460246CAF8000008ABE6
:1034900003A902A800F0B6F918B1002011B000F09D
:1034A000D1B80898854200DD0546614F0B9561490A
:1034B0003868407C51F82010049109690691FEF7A4
:1034C0005FFD05903868407CFEF7C4FD5A4981468F
:1034D000884204D05949894501D0012000E00020EC
:1034E0000A9001CE1A9988478346000E079077D03C
:1034F000009870BB0D9800EB04084D480068B0F9C7
:103500000800404503DDA0EB0807804600E00027E7
:103510000298049900EB840000EB8700CDE90001DC
:103520000B990D98421809920E9B40461946521E5F
:10353000FFF7A6FA01200090059818280ADA0298E9
:10354000DDE9052300EB840000EB8700E91B00F0B8
:10355000AFF812E00A9880B1029800EB840000EB0B
:1035600087070998A0EB080849463868884701C7CB
:10357000A8F101005FEA0008F6D13148C06980B3C4
:10358000DDE9020700EB840007EB8402CDE90202CB
:103590002B4C361F3046E4692B460299A047FF2189
:1035A0003068B1EB106F02D10298006804E0029A13
:1035B0001268B1EB126F01D1039A1060029806F104
:1035C0000406001D02900398001D03906D1EE7D1B4
:1035D0000397DAF8000040F00101CAF8001020E07B
:1035E00021E0FFE70798FF2811D0C0F1FF02029801
:1035F00050F82410584600F08FFA039941F824003F
:10360000DAF8000040F00101CAF8001005E0029865
:10361000039950F8240041F82400641C6D1E7FF4C7
:1036200060AF03983AE7039941F824B0E8E7000057
:103630002C00002044000020A7580008A5580008CE
:103640007802002030BCBDE8C08F00002DE9F047B3
:103650009A46164B86B01B68DDE90F87DC6CDDF8F7
:1036600038902618186D65188418AAF10100ADF875
:1036700010502044ADF80C60ADF81200ADF80E40CB
:1036800003A804F085FE0BE0CDF80090CDE901879A
:10369000534622462946304607F000F804F02CFE37
:1036A0000028F1D106B0BDE8F08700002C00002012
:1036B0002DE9F05F0C1E16DD5E68014600EB840507
:1036C000082A12DC611E012A26D0022A47D0042AC9
:1036D0006AD0082A07D1071917F8010DB04745F835
:1036E000040D641EF8D100F084B8102AFBDC5F6979
:1036F0003FB12246BC4600F07FB802235DF804EBE0
:10370000604701EB440700BF37F8020DB04745F8AA
:10371000040D641EF8D1E6E700EBE10001F00707B5
:1037200010F801A98146802020FA07F8B5F10405B8
:103730000AEA0800C7F10701C840B04745F8040984
:103740003FB14FEA48604FEA10687F1E641EEFD118
:10375000C9E719F801A907274FF00108F6E700EBC0
:10376000A10001F0030710F801A981467900C020EB
:1037700020FA01F84FF0060BB5F104050AEA08003B
:10378000ABEB4701C840B04745F804093FB14FEAE9
:1037900088604FEA10687F1E641EEFD1A3E70327FD
:1037A00019F801A9B846F7E700EB6100012710F806
:1037B00001A9A7438146B900F02020FA01F84FF093
:1037C000040B2D1F0AEA0800ABEB8701C840B04785
:1037D00045F804093FB14FEA08704FEA10687F1EB0
:1037E000641EEFD17FE719F801A901274FF00F08F8
:1037F000F6E730BCBDE8C09F30BCBDE8C04FFFF766
:103800007CBF00002DE9F047224C06461F46A06908
:1038100090468946002540B90120A06104F12001AD
:103820001D480860084600F0E1F9606930B91B489E
:103830000068606110B901F0D2FF606107B13860C3
:103840004EB1A06830B960698000FDF7C5FEA06088
:1038500000B901253060B9F1000F0AD0E06830B935
:1038600060698000FDF7B8FEE06000B90125C9F885
:103870000000B8F1000F0AD0206930B960698000FB
:10388000FDF7AAFE206100B90125C8F8000028460E
:10389000BDE8F0877802002091B800085C000020A5
:1038A00003480068C069017EC07E11FB00F07047CC
:1038B0002C00002073B5124A01A9009812689047A5
:1038C00000240090C8B10F4900250968C9694969F9
:1038D00059B10A684AB1019990477CBD6846FFF723
:1038E00005FA0546FEF75EFB04440198401E019070
:1038F000F4D5284600F040F8044420467CBD000082
:10390000A00200202C00002073B50D460098002472
:1039100090B10A490968C969496959B14A684AB107
:10392000294690477CBD6846FFF7E0F920B10A2898
:1039300002D0641CAC42F6DB20467CBD2C0000208B
:1039400031B50024009808B905E0641C6846FFF70B
:10395000CDF90028F9D1204638BD0000044AB2F95B
:10396000002002600348B0F90000086070470000C2
:103970006C0000206E00002038B5002469460094D9
:10398000FEF718FB0099814200DD0C1A204638BD75
:10399000016811F8012B12B10A2A02D002E00120BD
:1039A0007047016000207047B0F90030B1F9002085
:1039B000934200DA0280B0F90230B1F9022093425A
:1039C00000DA4280B0F90430B1F90420934200DDFE
:1039D0008280B0F90620B1F906108A4200DDC1806C
:1039E000704770B5B1F90040B2F900309C4200DD7B
:1039F00023460380B1F90250B2F90240A54200DD2E
:103A00002C464480B1F90460B2F90450AE4200DAA9
:103A100035468580B1F90610B2F90620914200DBE7
:103A20001146C1809D4201DBA14201DA002070BD38
:103A3000012070BD014602480068407C00F002B8D9
:103A40002C0000202DE9F84301268946044602286F
:103A50005DDA304F7A6802B190472E4D5FEA090077
:103A600005F1100532D0012803D0B9F1020F4ED173
:103A700018E055F8240088B92046FEF743F8009076
:103A800018B3C0680D21426A6846904702003ED0D4
:103A900049460098904755F824000026401C45F8F8
:103AA000240034E02046FEF72DF8009068B1C0688D
:103AB0000D21426A68469047040028D0386800B15A
:103AC000804749460098A047002620E055F824008A
:103AD000A846012812D12046FEF714F8009068B1DC
:103AE000C0680D21426A68469047050006D03868D4
:103AF00000B1804749460098A847002658F824108E
:103B000009B1012200E00022891A48F82410304649
:103B1000BDE8F8835001002070B5FF23B3EB116FAF
:103B20002CD0C3B213FB02F500F47F4400F47F03F2
:103B300054435343000E10FB02F6C2F1FF00CAB219
:103B400012FB005201F47F4505FB004401F47F05A0
:103B500005FB0033090E11FB0065C2F307204FF48B
:103B60007F024FF47F4102EA132201EA14214FF051
:103B70007F43084303EA05431043184370BD2DE912
:103B8000F04F0646DDE90CB915460C46002080468C
:103B9000584519D20B9F4FF0FF0A01CE08CCAAEB73
:103BA000106202FB09F2B2FBFAF1CAB21946FFF742
:103BB000B3FF20F07F4001C57F1EEED1099804EBD2
:103BC000800408F10100E2E700F000B830BCBDE875
:103BD000C08F0B88134403808B889B1A83804B888B
:103BE00013444380C988891AC180704702494A69D1
:103BF0004260486170470000200000202DE9F84332
:103C00000768064688460025384600F091F840B31C
:103C1000404600F09DF8441C3846FDF755FD8442AF
:103C20000CD1F4B13846FDF75DFD224641460090C7
:103C3000FCF7FCFA6846FDF79FFD11E02046FDF712
:103C40007BFC04000DD0FDF74DFD41460090FCF7D4
:103C50001FFB6846FDF790FD3046FDF7B5FC34606C
:103C600001252846BDE8F88310B502E000F8011BE5
:103C7000521E0AB18307F9D1930818D001EB014411
:103C800002F0030204EB042406E010C01B1F10C066
:103C900040F8084B40F8044C042BF6DA01E010C061
:103CA0005B1E002BFBD102E000F8011B521E002A14
:103CB000FAD110BD10B5830702D520F8021B521EA1
:103CC000530811D001EB0144042B09DB10C01B1F6A
:103CD00010C0042B40F8084B40F8044CF6DA01E021
:103CE00010C05B1E002BFBD1D20700D0018010BD9D
:103CF000024600204FF080414318934201D8D21A67
:103D0000581840088908F7D17047000000B907A08B
:103D100021B906A102E03AB1401C491C02780B7897
:103D20009A42F8D001207047002070470000000040
:103D300038B50D46012448B1FDF7D4FC2946009062
:103D4000FFF7E4FF04466846FDF716FD204638BD40
:103D50004FF0FF3128B100BF10F8012B491C002A99
:103D6000FAD10846704770B5044600F0F7F80646E9
:103D70002546681C00B16D1C00BF00F0EFF8801BE9
:103D8000A842FAD370BD000078B503460022CBE00C
:103D9000012696400D6805EA0604002C72D04D6895
:103DA000022D02D04D68122D13D1D60803F1200543
:103DB00055F826005507EE0E0F25B540A8435607C7
:103DC000F60E0D69B5402843D60803F1200545F8E5
:103DD0002600186856000325B540A8430D7905F064
:103DE00003055600B540284318604D68012D08D0E2
:103DF0004D68022D05D04D68112D02D04D68122D51
:103E000013D1986856000325B540A8435600CD68E5
:103E1000B54028439860586801259540A8430D791E
:103E2000C5F30015954028435860D868560003250F
:103E3000B540A84356008D68B5402843D8604D680A
:103E400005F08055B5F1805F6DD100BF394D2D6E05
:103E500045F00105374E356635462D6E05F00105F6
:103E6000009500BF00BF4FEAB635960855F826000A
:103E700095072E0F0F25B540A843B3F1904F02D1FF
:103E8000002515E04FE02C4DAB4201D101250FE09C
:103E90002A4DAB4201D102250AE0294DAB4201D1A6
:103EA000032505E0274DAB4201D1042500E007259D
:103EB0009607360FB5402843234D960845F826004F
:103EC000224D2868A0434D6805F48035B5F5803F44
:103ED00000D120431D4D28602D1D2868A0434D684A
:103EE00005F40035B5F5003F00D12043174D2D1DD9
:103EF00028602D1D2868A0434D6805F48015B5F590
:103F0000801F00D12043114D083528602D1D2868E1
:103F1000A0434D6805F40015B5F5001F00D12043FE
:103F20000A4D0C352860521C0D68D540002D7FF4D9
:103F30002FAF78BD00100240000400480008004880
:103F4000000C004800100048080001400004014037
:103F50000AB1816100E08162704700000148006899
:103F6000704700000000002002480068401C014922
:103F7000086070470000002010B50024032000F006
:103F8000ADF8002000F008F808B1012401E000F0CD
:103F90001BF8204610BD000070B5044600250948F6
:103FA00000684FF47A71B0FBF1F6304601F017F972
:103FB00008B1012504E000222146501E00F04CF813
:103FC000284670BD0400002008B500BF2148006EDF
:103FD00040F001001F4908660846006E00F001002D
:103FE000009000BF00BF00BF0846806D40F08050C9
:103FF00088650846806D00F08050009000BF00BFCB
:10400000032000F06BF8002211466FF00B0000F067
:1040100023F8002211466FF00A0000F01DF800227C
:1040200011466FF0090000F017F800221146501FEA
:1040300000F012F800221146101F00F00DF80022C7
:104040001146901E00F008F800221146501E00F0A4
:1040500003F808BD001002402DE9F05F80460D46D0
:104060001646002702F096F9074639462A46334697
:1040700001F00700C0F1070ABAF1040F02D94FF0AE
:10408000040A01E0C0F1070AD14600F1040ABAF1BE
:10409000070F02D24FF0000A01E0A0F1030AD44654
:1040A0004FF0010A0AFA09FAAAF1010A0AEA020A19
:1040B0000AFA0CFA4FF0010B0BFA0CFBABF1010BF7
:1040C0000BEA030B4AEA0B042146404602F06AF968
:1040D00000F000B830BCBDE8C09F000000BF00F099
:1040E0000702064B19684FF6FF031940044B0B43B8
:1040F00043EA0221014B196000BF70470CED00E05C
:104100000000FA050246B2F5007F2AD11D4800687A
:1041100000F4C060B0F5007F32D01A48006820F487
:10412000C06040F40070174B1860174800683223D5
:104130005843164BB0FBF3F0411C00E0491E1148F8
:10414000406900F48060B0F5806F01D10029F5D19D
:104150000C48406900F48060B0F5806F10D10320F6
:1041600070470848006800F4C060B0F5806F07D061
:104170000448006820F4C06040F48060014B18607F
:104180000020EDE7007000400400002040420F00D6
:104190000248006800F4C0607047000000700040F2
:1041A0002DE9F84304460025A846208800F4006065
:1041B000B0F5006F26D1606C68B1B0F5000F03D088
:1041C000B0F5400F0ED10CE0D548C06840F4803007
:1041D000D349C86008E00021201D02F017FB054606
:1041E00002E001E0012500BF00BF55B9CC4888308E
:1041F000006820F44000616C0843C949C1F8880098
:1042000000E0A846206800F40030B0F5003F75D10A
:104210004FF00009C248806D012121EA107078B189
:1042200000BFBF48806D40F08050BD49886508469A
:10423000806D00F08050009000BF00BF4FF001097A
:10424000B848006840F48070B6490860FFF786FE01
:10425000074606E0FFF782FEC01B022801D90325AE
:1042600005E0B048006800F480700028F2D000BF7C
:104270007DBBAB489030006800F44076CEB1A06DB5
:10428000B04216D0A6489030006820F44076A4488A
:10429000D0F8900040F48030A149C1F89000084661
:1042A000D0F8900020F48030C1F890000846C0F8A3
:1042B000906006F00100A8B1FFF750FE074609E044
:1042C000FFF74CFEC01B41F28831884202D903251A
:1042D00007E016E092489030006800F002000028E5
:1042E000EED000BF5DB98E489030006820F4407079
:1042F000A16D08438A49C1F8900003E00CE0A8468C
:1043000000E0A846B9F1010F05D18548806D20F085
:1043100080508349886500BF207800F0010048B1D3
:104320007F488830006820F00300216A08437C49F8
:10433000C1F88800207800F00200022809D17848EE
:104340008830006820F00C00616A08437449C1F8A5
:104350008800207800F00400042809D170488830D3
:10436000006820F03000A16A08436D49C1F8880058
:10437000207800F02000202809D1694888300068A2
:1043800020F44060E16A08436549C1F8880020884C
:1043900000F40070B0F5007F09D1614888300068F2
:1043A00020F44020E16B08435D49C1F88800208873
:1043B00000F48060B0F5806F09D1594888300068FA
:1043C00020F44010216C08435549C1F8880020783A
:1043D00000F04000402809D151488830006820F49E
:1043E0004050216B08434E49C1F88800207800F006
:1043F0008000802809D14A488830006820F4404075
:10440000616B08434649C1F88800208800F4807039
:10441000B0F5807F09D142488830006820F44030F0
:10442000A16B08433E49C1F88800206800F40020D1
:10443000B0F5002F1FD13A488830006820F0406066
:10444000A16C0843364988310860A06CB0F1006F58
:1044500006D13348C06840F480103149C8600AE092
:10446000A06CB0F1806F06D10121201D02F0CEF9C1
:10447000054605B1A846206800F48020B0F5802FDD
:104480001FD127488830006820F04060E16C084365
:10449000234988310860E06CB0F1006F06D12048F4
:1044A000C06840F480101E49C8600AE0E06CB0F1BA
:1044B000806F06D10121201D02F0A8F9054605B143
:1044C000A846208800F48040B0F5804F14D11448ED
:1044D0008830006820F04050216D08431049883131
:1044E0000860206DB0F1805F06D10221201D02F02E
:1044F0008DF9054605B1A846208800F40040B0F5C6
:10450000004F09D106488830006820F08040616D76
:1045100008430349C1F888004046BDE8F88300001D
:1045200000100240007000402DE9F04104460D46A5
:1045300014B90120BDE8F0815548006800F007007B
:10454000A8420ED25248006820F007002843504984
:1045500008600846006800F00700A84201D001206A
:10456000E8E7207800F00100002840D060680328C8
:1045700006D14848006800F00070D8B90120D9E79A
:104580006068022806D14348006800F4003088B90A
:104590000120CFE7606830B93E48006800F00200B3
:1045A00040B90120C6E73B48006800F4806008B9C4
:1045B0000120BFE73748806820F0030061680843A6
:1045C00034498860FFF7CAFC064608E0FFF7C6FCDE
:1045D000801B41F28831884201D90320AAE72D4887
:1045E000806800F00C006168B0EB810FEED120789C
:1045F00000F00200022807D12648806820F0F00071
:10460000A1680843234988602148006800F007003A
:10461000A8420ED91E48006820F0070028431C4914
:1046200008600846006800F00700A84201D0012099
:1046300080E7207800F00400042807D1154880683E
:1046400020F4E060E168084312498860207800F0B7
:104650000800082808D10F48806820F460502169BC
:1046600040EAC1000B49886000F044F809498968B4
:10467000C1F30311084A515C01F01F01C84007490A
:1046800008600020FFF788FC0746384652E7000024
:10469000002002400010024028D000080400002042
:1046A00001480068704700000400002000B5FFF7D3
:1046B000F7FF05498968C1F30221044A515C01F002
:1046C0001F01C84000BD00000010024038D00008A3
:1046D00000B5FFF7E5FF05498968C1F3C221044A27
:1046E000515C01F01F01C84000BD000000100240F5
:1046F00038D000082DE9F04100240020DFF800C187
:10470000DCF808C00CF00C01DFF8F4C0DCF80CC0D9
:104710000CF0030719B10C291ED1012F1CD1DFF8B1
:10472000E0C0DCF800C00CF0080CBCF1000F06D1B2
:10473000DFF8CCC0DCF894C0CCF3032405E0DFF84C
:10474000C0C0DCF800C0CCF30314DFF8B8C05CF8DC
:10475000244041B9204606E0042901D12A4802E05C
:10476000082900D129480C2947D1DFF894C0DCF88A
:104770000CC00CF00305DFF888C0DCF80CC0CCF3EB
:10478000021C0CF10103012D1FD0022D02D0032DBC
:104790001AD10CE0DFF870C0BCFBF3FCDFF86080DE
:1047A000D8F80C80C8F306280CFB08F218E0DFF8F4
:1047B0005CC0BCFBF3FCDFF84880D8F80C80C8F381
:1047C00006280CFB08F20BE000BFB4FBF3FCDFF89B
:1047D0003080D8F80C80C8F306280CFB08F200BF24
:1047E00000BFDFF81CC0DCF80CC0CCF3416C0CF14E
:1047F000010C4FEA4C06B2FBF6F0BDE8F081000078
:104800000010024040D000080024F40000127A009A
:104810002DE9F843044614B90120BDE8F883F848AF
:10482000806800F00C06F648C06800F003072078A6
:1048300000F01000102875D11EB10C2E74D1012F7C
:1048400072D1EF48006800F0020018B1A06908B901
:104850000120E2E7EA48216A006800F0080020B180
:10486000E748006800F0F00005E0E5489430006893
:1048700000F47060000981421FD9206A02F08AF8B2
:1048800008B10120C9E700BFDD48006840F008001A
:10489000DB4908600846006820F0F000216A084300
:1048A000D749086000BF0846406820F47F40E169AE
:1048B00040EA0120D24948601EE000BFD0480068AD
:1048C00040F00800CE4908600846006820F0F0007B
:1048D000216A0843CA49086000BF0846406820F4BE
:1048E0007F40E16940EA0120C5494860206A02F042
:1048F00051F808B1012090E7FFF7FCFEC049896834
:10490000C1F30311BF4A515C01F01F01C840BE4909
:1049100008600020FFF740FB8046B8F1000F4ED042
:1049200040467AE74BE0FFE7A06980B3B4480068EF
:1049300040F00100B2490860FFF710FB054606E0B1
:10494000FFF70CFB401B022801D9032065E7AC48A8
:10495000006800F002000028F2D000BFA8480068FC
:1049600040F00800A64908600846006820F0F00002
:10497000216A0843A249086000BF0846406820F445
:104980007F40E16940EA01209D49486017E0FFE768
:104990009B48006820F0010099490860FFF7DEFAA3
:1049A000054606E0FFF7DAFA401B022801D903208A
:1049B00033E79348006800F002000028F2D1207825
:1049C00000F0010000285CD0082E03D00C2E0AD184
:1049D000032F08D18A48006800F4003088B360686B
:1049E00078BB012019E700BF6068B0F5803F06D1B1
:1049F0008348006840F48030814908601AE06068AC
:104A0000B0F5A02F0BD17E48006840F480207C498F
:104A100008600846006840F4803008600AE0784882
:104A2000006820F48030764908600846006820F469
:104A30008020086000BF606890B1FFF78FFA0546DC
:104A400007E01EE0FFF78AFA401B642801D9032023
:104A5000E3E66B48006800F400300028F2D010E074
:104A6000FFF77CFA054606E0FFF778FA401B64285A
:104A700001D90320D1E66248006800F40030002824
:104A8000F2D1207800F00200022852D1042E03D087
:104A90000C2E14D1022F12D15948006800F4806006
:104AA00018B1E06808B90120B7E65548406820F021
:104AB000F850217C40EA01605149486039E0E068E3
:104AC00000B34F48006840F480704D490860FFF71C
:104AD00045FA054606E0FFF741FA401B022801D9D6
:104AE00003209AE64648006800F480600028F2D06F
:104AF0004348406820F0F850217C40EA016040497A
:104B0000486016E03E48006820F480703C49086028
:104B1000FFF724FA054606E0FFF720FA401B0228BB
:104B200001D9032079E63648006800F48060002847
:104B3000F2D1207800F00800082836D16069D0B1A1
:104B40002F489430006840F001002D49C1F89400CE
:104B5000FFF704FA054606E0FFF700FA401B0228BB
:104B600001D9032059E626489430006800F002007D
:104B70000028F1D019E022489430006820F00100AC
:104B80001F49C1F89400FFF7E9F9054606E0FFF771
:104B9000E5F9401B022801D903203EE6184894306D
:104BA000006800F002000028F1D1207800F0040035
:104BB000042870D14FF000091148806D00F080503A
:104BC00078B900BF0E48806D40F080500C49886570
:104BD0000846806D00F08050009000BF00BF4FF08D
:104BE00001090A48006800F48070F0B907480068BD
:104BF00040F4807005490860FFF7B0F905460EE003
:104C00000010024028D0000804000020007000407E
:104C1000FFF7A4F9401B022801D90320FDE59B48BA
:104C2000006800F480700028F2D000BFA06801285E
:104C300008D19748006840F0010095499039C1F8C3
:104C4000900021E0A06805280FD19148006840F04D
:104C500004008F499039C1F890000846D0F89000C0
:104C600040F00100C1F890000EE08948006820F093
:104C7000010087499039C1F890000846D0F89000AB
:104C800020F00400C1F8900000BFA068A0B1FFF7B9
:104C900065F9054609E02EE0FFF760F9401B41F297
:104CA0008831884201D90320B7E57948006800F0CF
:104CB00002000028F0D012E0FFF750F9054608E0A6
:104CC000FFF74CF9401B41F28831884201D903209B
:104CD000A3E56F48006800F002000028F0D1B9F1A8
:104CE000010F07D16A489038806D20F080506849E4
:104CF0009039886500BF207800F02000202838D146
:104D0000606AD8B162480830006840F0010060492C
:104D10009039C1F89800FFF721F9054606E0FFF742
:104D20001DF9401B022801D9032076E558480830B8
:104D3000006800F002000028F1D01AE05448083062
:104D4000006820F0010052499039C1F89800FFF73F
:104D500005F9054606E0FFF701F9401B022801D9D5
:104D600003205AE54A480830006800F00200002895
:104D7000F1D1A06AF0B30C2E74D0A06A022853D1EE
:104D800043489038006820F08070414990390860AD
:104D9000FFF7E4F8054606E0FFF7E0F8401B0228BD
:104DA00001D9032039E53A489038006800F00070D6
:104DB0000028F1D1206B401E0101606B41EA002008
:104DC000E16A0843A18F0122C2EB510140EA41513F
:104DD0004020005DC2EB500041EA40613820005D98
:104DE00041EAC0602A499039C8600846006840F02E
:104DF000807000E048E008600846C06840F08070BD
:104E0000C860FFF7ABF8054606E0FFF7A7F8401BC0
:104E1000022801D9032000E51D489038006800F001
:104E200000700028F1D02FE019489038006820F079
:104E300080701749903908600846006800F00060EB
:104E400020B90846C06820F00300C86010489038B8
:104E5000C068104908400E499039C860FFF77EF8D5
:104E6000054607E00EE0FFF779F8401B022801D95C
:104E70000320D2E406489038006800F00070002853
:104E8000F1D101E00120C8E40020C6E40070004038
:104E900090100240FFFFEEFE70B504460CB90120F1
:104EA00070BD606A00B900BF0021A16294F85D0086
:104EB00028B9002084F85C00204600F04DF802205C
:104EC00084F85D002068006820F0400021680860D8
:104ED000E068B0F5E06F01D9002501E04FF480559E
:104EE000E068B0F5706F05D0E068B0F5E06F01D014
:104EF0000021A162206B40B9E068B0F5E06F02D9F3
:104F00000221216301E001212163D4E90101084369
:104F10002169084361690843218B01F4007108434A
:104F2000E1690843216A0843A16A084321680860CF
:104F30000421A06901EA1040616A0843616B0843DB
:104F4000E16808432843216848600020206601206A
:104F500084F85D000020A3E710B586B00446184928
:104F6000206888422AD100BF1648806D40F48040F6
:104F7000144988650846806D00F48040009000BFA9
:104F800000BF08200190022002900020039003201F
:104F900004900520059001A90B48FEF7F5FE4FF49B
:104FA0000050019002200290002003900320049002
:104FB0000520059001A90548FEF7E6FE06B010BDE4
:104FC000003800400010024000080048000400487B
:104FD0002DE9F84F0446884616461D464FF0000A54
:104FE00000BF94F85C00012802D1022000F0DFB875
:104FF000012084F85C0000BFFEF7B0FF0746B14611
:1050000094F85D00012802D04FF0020AC5E0B8F123
:10501000000F00D016B94FF0010ABEE0032084F85B
:105020005D0000202066C4F83880A687E6872064EB
:10503000A4F84400A4F846002065E064A068B0F538
:10504000004F05D12068006840F480402168086066
:105050002068006800F04000402805D02068006803
:1050600040F0400021680860E068B0F5E06F2FD99B
:10507000606810B1B9F1010F09D1A06B00882168F7
:10508000C860A06B801CA063E08F401EE0871BE01F
:105090002068806800F0020002280AD1A06B008816
:1050A0002168C860A06B801CA063E08F401EE08771
:1050B0000AE0FEF753FFC01BA84201D3681C00B9E9
:1050C00015B94FF0030A68E0E08F0028E0D14AE00C
:1050D000606810B1B9F1010F17D1E08F01280AD92A
:1050E000A06B00882168C860A06B801CA063E08F63
:1050F000801EE08709E0A06B007821680873A06B30
:10510000401CA063E08F401EE08729E02068806893
:1051100000F00200022818D1E08F01280AD9A06B04
:1051200000882168C860A06B801CA063E08F801E8F
:10513000E08715E0A06B007821680873A06B401C25
:10514000A063E08F401EE0870AE0FEF707FFC01B68
:10515000A84201D3681C00B915B94FF0030A1CE03E
:10516000E08F0028D2D13A462946204601F06CFC57
:1051700008B120202066A06850B900BF0020009030
:105180002068C068009020688068009000BF00BF61
:10519000206E08B14FF0010A00BF012084F85D00C5
:1051A00000BF002084F85C0000BF50461EE718BC1A
:1051B000BDE8E08F042808D14FF0E021096941F0F3
:1051C00004014FF0E022116107E04FF0E02109698E
:1051D00021F004014FF0E02211617047704770B573
:1051E00004462546681EB0F1807F01D301200FE000
:1051F000681E4FF0E02148610F214FF0FF3001F0B1
:10520000D1F800204FF0E0218861072008610020DC
:1052100070BD10B5FFF7E2FF10BD10B504460CB924
:10522000012010BDA06900B100E000BF94F871003A
:1052300028B9002084F87000204600F02BF82420C4
:1052400084F871002068006820F00100216808607F
:10525000204601F021FE012800D1E2E7606A10B18A
:10526000204601F063FD2068406820F490402168EA
:1052700048602068806820F02A00216888602068E3
:10528000006840F0010021680860204601F0CAFD76
:10529000C7E7000010B586B004461249206888426E
:1052A0001DD100BF1048006E40F480400E490866D2
:1052B0000846006E00F48040009000BF00BF4FF42D
:1052C000C06001900220029000200390032004900F
:1052D0000720059001A94FF09040FEF755FD06B05C
:1052E00010BD0000003801400010024000BFFEE782
:1052F00002490A680860104670470000BC0200209E
:105300002DE9F04104460D4616461F462A2000F0BE
:10531000BDFD201200F0C8FDE0B200F0C5FD301266
:1053200000F0C2FDF0B200F0BFFD2B2000F0AEFD9A
:10533000281200F0B9FDE8B200F0B6FD381200F016
:10534000B3FDF8B200F0B0FD2C2000F09FFDBDE8E9
:10535000F0810000F8B505460020009028128DF875
:105360000000E8B28DF80100EF231A46002108463C
:10537000FFF7C6FF00240DE09DF800000F4901F87B
:1053800014009DF80100012101EB44010B4A505427
:10539000601C84B2B4F5107FEEDB01224021084886
:1053A000FEF7D6FD002606E04FF49061034800F0BA
:1053B0009AFC701C86B2642EF6DBF8BD9C030020BC
:1053C000000800480449054A0968497C52F8211040
:1053D00009690968084700002C00002044000020EB
:1053E0002DE9F04F05468DB07B48DDF860901A9CA2
:1053F00000681E4617464FF0000A78B11B9B199AA9
:10540000CDF808900593CDE90324DDE91623CDE915
:105410000023046833463A46284680E0DDE9160258
:1054200001EB060805EB070C1043A8F10108ACF1ED
:10543000010C012806D0C9F1080005900020029156
:105440000990C6E065480268B2F90A30581A002887
:1054500006DD361A002E63DD1946199B00FB034456
:10546000B2F90E00A8EB0000002802DD361A002E6B
:1054700056DDB2F90C00ACEB0000002800DD3F1A4D
:10548000B2F908300020AB4235DD581B3F1A4B46BD
:10549000B9F1080F26D006DC012B0BD0022B11D05E
:1054A000042B28D116E0102B1ED0182B1FD0202B38
:1054B00021D11CE020F0070304EBE0041D4400F0C0
:1054C000070018E020F0030304EBA0041D4400F0E3
:1054D000030010E020F0010304EB60041D4400F021
:1054E000010008E0044404E004EB400401E004EBA4
:1054F000800405440020002F12DD1B9BDDF864C0F2
:10550000CDE90403CDE90069CDE902C4527C3448F9
:105510003B4650F82200C26854680A462946A04714
:105520000DB000F05FB81799029808440C902B4911
:10553000401E00900A68B2F90A30834241DCB2F999
:105540000E10029881423CDB4FF0000BD8460395C9
:105550000A9434E0BBF1000F05D10A984FF0080B14
:1055600010F801AB0A900599ABEB090B3AFA01F080
:105570000AFA09F101F0FF0A04D118490968097C07
:10558000890716D415490968C96B0A680B921B9ADA
:105590000AB152F82000086016990398009B42183F
:1055A000521E029900F0ACF80C490B980968C96BBF
:1055B00008600399169808F1010808440390B8455B
:1055C000C8DB0998401C09900C9802901998044473
:1055D0000998B042A7DBA3E7680000202C00002058
:1055E0004400002030BCBDE8C08F0000F0B40C4681
:1055F00012490968B1F90A30A3421CDCB1F90E3036
:10560000A34218DBB1F90830834200DD1846B1F936
:105610000C30934200DA1A4682420CDB4B7C08497C
:1056200051F8235013462246E9688E680146284601
:10563000B446F0BC6047F0BC704700002C0000206E
:10564000440000200A46174930B40968B1F90A300D
:10565000934225DCB1F90E30934221DBB1F90830D9
:1056600083421DDCB1F90C30834219DB0B7C0E4CFC
:10567000DB0709D0497C54F82130D968CC69014650
:10568000A44630BC18466047CB6B497C1B6854F875
:105690002140E1688D6901462046AC4630BC604738
:1056A00030BC70472C00002044000020124B30B466
:1056B0001B68B3F9084084421CDCB3F90C408442F7
:1056C00018DBB3F90A408C4200DD2146B3F90E40E5
:1056D000944200DA22468A420CDB5C7C074B53F88A
:1056E0002440E368DD6813460A4601462046AC467E
:1056F00030BC604730BC70472C00002044000020C4
:1057000038B5134C2468B4F90850854200DD2846AA
:10571000B4F90C50954200DA2A46824217DBB4F9FC
:105720000A508D4200DD2946B4F90E509D4200DA40
:105730002B468B420BDB0093647C064B53F82440D2
:10574000E3681D6913460A4601462046A84738BD4E
:105750002C00002044000020082105F058BD000066
:1057600002480068806B0068704700002C00002031
:1057700002480068C06B0068704700002C000020E1
:10578000024809210068407C05F041BD2C00002042
:10579000092105F03CBD70B500252C462046FCF7DC
:1057A000B1F900B16D1C641C022CF7DB284670BDFA
:1057B00002480068407C00F003B800002C00002084
:1057C00010B5FCF79FF9002805D0C168CA6ABDE88A
:1057D00010400221104710BD032105F018BD032021
:1057E00005F081BD042105F012BD00000248012131
:1057F0000068407C05F00BBD2C00002001480068CB
:1058000070470000BC010020012105F000BD01200F
:1058100005F069BD024802210068407C05F0F7BC34
:105820002C0000200148406870470000BC010020A7
:10583000022105F0ECBC022005F055BDAFF300805D
:105840002DE9F041002809D0876837B10D4E716805
:1058500019B10468B4F5807F02DD0020BDE8F08155
:105860003068844200DD0446002507E057F8250033
:10587000FFF7A8FD716841F825006D1CA542F5DB16
:105880007068EBE7AC0100200449054A0968497CCF
:1058900052F8211009694968084700002C000020CF
:1058A000440000207047704710B500F01F01074A00
:1058B000074BC0F34514C0F3C4201B5D105C515C62
:1058C00000EB032000EB014010BD0000D8F0000801
:1058D000F8F0000810B500224FF400416C48FEF7C4
:1058E00037FB002280216B48FEF732FB0C20FEF7CD
:1058F0003AFA012280216748FEF72AFB0C20FEF7C6
:1059000032FA112000F0C2FA0C20FEF72CFA3620F1
:1059100000F0BCFA002000F0C7FA3A2000F0B6FA16
:10592000652000F0C1FAB22000F0B0FA0C2000F0BF
:10593000BBFA0C2000F0B8FA002000F0B5FA3320D2
:1059400000F0B2FA332000F0AFFAB72000F09EFA70
:10595000722000F0A9FABB2000F098FA3D2000F078
:10596000A3FAC02000F092FA2C2000F09DFAC22089
:1059700000F08CFA012000F097FAC32000F086FABC
:10598000192000F091FAC42000F080FA202000F0E5
:105990008BFAC62000F07AFA0F2000F085FAD020AA
:1059A00000F074FAA42000F07FFAA12000F07CFA45
:1059B000E02000F06BFAD02000F076FA042000F02E
:1059C00073FA0D2000F070FA112000F06DFA132028
:1059D00000F06AFA2B2000F067FA3F2000F064FA2A
:1059E000542000F061FA4C2000F05EFA182000F01C
:1059F0005BFA0D2000F058FA0B2000F055FA1F203A
:105A000000F052FA232000F04FFAE12000F03EFAB5
:105A1000D02000F049FA042000F046FA0C2000F0F3
:105A200043FA112000F040FA132000F03DFA2C2038
:105A300000F03AFA3F2000F037FA442000F034FA40
:105A4000512000F031FA2F2000F02EFA1F2000F034
:105A50002BFA1F2000F028FA202000F025FA23203E
:105A600000F022FA212000F011FA292000F00EFAAD
:105A7000EF231A4600210846FFF742FC0020FFF7FB
:105A800069FC0122D1030248FEF762FA10BD000052
:105A9000000400480008004810B50A4C606860B96E
:105AA00020688000FBF798FD606040B104F10801B8
:105AB000054808600846FEF799F8002010BD01204F
:105AC00010BD0000AC0100207DB800082DE9F047B2
:105AD000FFF761FE07460024DFF860802AE02046D9
:105AE000FCF710F828B3D8F8000090F8119044742F
:105AF0002046FFF731FE082817DC1148114950F8FD
:105B000024000069884210D02046FFF741FE064677
:105B1000002508E0E8B2FFF7B7FE0246E9B22046EA
:105B200000F060F96D1CB542F4DBD8F8001081F884
:105B30001190641CBC42D2DBBDE8F0872C00002031
:105B40004400002084FC00082DE9FF4F83B0164676
:105B5000DDE910408B46C0684769426A7AB101218D
:105B600011A8904705000AD00698CDE900043346F5
:105B70005A4603991198A84707B000F0B1B85748A2
:105B80000068407CFCF7FCF98246082801DC012013
:105B900005E0BAF1100F01DC022000E0042080468D
:105BA000002596E04046B8F1010F05D0022871D0DB
:105BB000B8F1040F25D17CE0BAF1090F21D2DFE85A
:105BC0000AF08605213F3F5959595900039815E0BD
:105BD00001465A461198B847C5F1070188404FF66B
:105BE0007F722178EA40114001436D1C217004EB63
:105BF000E50425F00700054109F101008146B042A6
:105C0000E6DD64E0039817E001465A461198B8476C
:105C10000621A1EB450188406B004FF63F722178C9
:105C2000DA40114001436D1C217004EBA50425F0FE
:105C30000300054109F101008146B042E4DD46E080
:105C4000039813E001465A461198B8470421A1EB86
:105C5000850188402178AB000F229A401140014312
:105C600021702C4485F0010509F101008146B04204
:105C7000E8DD2CE0DDF80C9007E001465A4611986B
:105C8000B847207009F1010944444846B145F4DDA4
:105C90001DE0FFE7DDF80C9007E001465A46119839
:105CA000B847208009F1010944444846B145F4DD74
:105CB0000DE0DDF80C9007E001465A461198B84710
:105CC000206009F1010944444846B145F4DD0BF177
:105CD000010B06998B457FF765AF4DE72C0000203F
:105CE00030BCBDE8C08F70B504460D46294620463D
:105CF00000F09EFE70BD000010B50D4C0D492068EF
:105D0000407C51F8200048B1C16811B109680429EC
:105D100001D00068F7E708B1FBF7DCFE206800213E
:105D2000016600F108014161BDE8104000F02EB8A5
:105D30002C000020440000200149096849680847F8
:105D4000A8010020044909680A7C520701D5C96BE3
:105D500000E0896B086070472C0000207CB5094C7E
:105D600005462068417C084850F82100C1680A6B4C
:105D70006946904720686A4629460830FDF731FE9B
:105D80007CBD00002C000020440000200448016875
:105D900004484A7C083150F82200C268126B104750
:105DA0002C000020440000200149096809680847C8
:105DB000A8010020044909680A7C520701D5896BB3
:105DC00000E0C96B086070472C000020014AC2E95E
:105DD00000017047BC010020014909688968084733
:105DE000A8010020F8B515460E460124FBF78AFEEF
:105DF000009058B1C0681021426A6846904703007D
:105E000004D02A4631460098984700242046F8BD21
:105E1000F8B515460E460124FBF774FE009058B104
:105E2000C0680B21426A68469047030004D02A46A6
:105E300031460098984700242046F8BDF8B515462D
:105E40000E460124FBF75EFE009058B1C0680A219F
:105E5000426A68469047030004D02A4631460098BB
:105E6000984700242046F8BD10B5074C2068006B09
:105E7000FFF7A8FAFFF79EFF2068406BFFF7A2FA32
:105E8000BDE81040FFF75EBF2C00002001B50022E6
:105E900040210448FEF75CF801216846FFF723FF24
:105EA00008BD00000008004801B501224021044857
:105EB000FEF74EF801216846FFF715FF08BD000008
:105EC0000008004810B5A0B014211BA8FAF7D5F9B6
:105ED000682101A8FAF7D1F900231A46124913489C
:105EE000FBF79EFD0446F02211460020FFF790FFCD
:105EF000F02211460020FFF7A1FF00201D90022094
:105F00001F901BA92046FBF725F809480190094876
:105F1000029009480490094B094A01A92046FBF761
:105F200039F820B010BD0000B0D00008C8D000087B
:105F3000D7610008B1610008BD6100083510000894
:105F4000C90F00082DE9F04106460C461746012C02
:105F500004D1FFF7BFFC0020BDE8F0814FF0FF3512
:105F600000BF00BF2846F7E72DE9FF4F8DB0174669
:105F7000674ADDF870901E9E209812681D46002426
:105F80008AB11D9B1F98CDE90293CDE90460DDE93C
:105F90001A03CDE9000314682B463A460D98A04732
:105FA00011B000F0BBB80D9A01EB050802EB070C2D
:105FB000DDE91A231A43A8F10108ACF1010C012A0A
:105FC00006D0C9F108004FF0000B029105909CE04B
:105FD000504A1268B2F90A40631A002B06DDED1A26
:105FE000002DDDDD21461D9C03FB0466B2F90E3059
:105FF000A8EB0303002B02DDED1A002DD0DDB2F972
:106000000C30ACEB0303002B00DDFF1A0D9B1C1AB8
:10601000B2F90830A3420DDDA3EB040C0CEB000336
:10602000181A20F007000444A7EB0C0706EBE30660
:1060300003F00700002FB3DDDDF874C01F9BCDE92E
:1060400002C6CDE90403CDE90059527C32483B46F3
:1060500050F82200C26855680A462146A8479FE7C3
:106060001B99029808440C902A49401E00900A6827
:10607000B2F90A30834242DCB2F90E100298814232
:106080003DDB4FF0000A0D980A96D046039034E0AD
:10609000BAF1000F05D10A984FF0080A10F8014B29
:1060A0000A900599AAEB090A34FA01F004FA09F4F6
:1060B000E4B204D117490968097C890717D4154946
:1060C0000968C96B0A680B921F9A0AB152F820003E
:1060D000086003991A98009B0A18DDE90210521E05
:1060E000FFF70EFB0B490B980968C96B0860039911
:1060F0001A9808F1010808440390B845C8DB0C98C9
:1061000002901D980BF1010B0644AB45A8DB47E755
:10611000680000202C0000204400002030BCBDE8B6
:10612000C08F002818D0410817D0810817D0C108A7
:1061300017D0010917D0410917D0010A17D0410A19
:1061400017D0010B15D0C10B13D0010C11D0810C4D
:1061500011D0000E11D0202070470120704702207E
:1061600070470320704704207047052070470820BF
:10617000704710207047122070471820704700B5F4
:106180000022FFF7CEFF012804D0811E062903D884
:1061900008220BE0012209E0A0F10901072901D83A
:1061A000102203E011380F2800D82022104600BD2D
:1061B00010B504462046FFF777FE10BD70B50446C3
:1061C0000D4603E014F8010BFFF76EFE281EA5F143
:1061D0000105F7D170BD10B504462046FFF756FE05
:1061E00010BD000000B587B000BF2648C06C40F06D
:1061F00004002449C8640846C06C00F00400019003
:1062000000BF00BF00BF0846C06C40F00200C86479
:106210000846C06C00F00200019000BF00BF00BF44
:106220000846C06C40F00100C8640846C06C00F02D
:106230000100019000BF00BF00224FF4035112483B
:10624000FDF786FE00224FF400411048FDF780FE66
:106250004FF4035002900120039000200490059019
:1062600002A90948FDF790FD4FF40040029001207B
:10627000039000200490059002A90448FDF784FDD6
:1062800007B000BD001002400008004800040048AC
:1062900010B51248124908604FF48270486000211E
:1062A0000F4881604FF4E061C1600221016101216A
:1062B0004161490281610021C161016241628162E3
:1062C0000721C162002101634163FEF7E5FD18B1BA
:1062D000472104A004F09EFB10BD000000380040E0
:1062E000C00200202E2E2F5372632F7370692E630D
:1062F0000000000010B50E480E4908604FF4E13070
:10630000486000210B488160C16001610C2141613E
:1063100000218161C161016200200649486208468E
:10632000FEF77BFF18B1442103A004F073FB10BDFE
:1063300000380140240300202E2E2F5372632F7546
:10634000736172742E630000FAF70AF818E00A20ED
:10635000FBF7EAFB0B48006800F018F90A490880CF
:1063600008460188491C0748006800F043F90648C0
:106370000088642804D100210248006800F03AF93E
:10638000E5E700000C0000201400002000BFFEE73D
:106390007047000002480068C0F302207047000008
:1063A0000CED00E010B5002807DA0A07140E054AC4
:1063B00000F00F031B1FD45403E00A07130E024A18
:1063C000135410BD18ED00E000E400E038B5446857
:1063D00005460146204600F0A0FF002811D028689D
:1063E0000B280FD00F2817D12046FBF77BF9009020
:1063F000406E05686846FBF7BFF9002D01D02046C6
:10640000A84738BD2046FBF76DF900903830FBF700
:10641000DBF86846FBF7B0F92846BDE8384001F0E4
:106420004DB9F0B585B0B0F90850468A8469029636
:10643000CDE903540027CDE90017B0F90C10B0F9ED
:106440001050B0F90E40B0F90A00194410442B4620
:10645000224600F003F805B0F0BD00002DE9FF4131
:106460000C46DDE90D61DDE90BC7DFF890E0403156
:106470000A9DCDE902E1CDE9005C214601F06CF80E
:10648000050037D00520FBF75CF8040032D0284621
:10649000FBF728F900223146009001F00BF818496B
:1064A000284600F0DEFF174E00981822316841663A
:1064B000311D4C30F9F7BAFE00980221A0F84010C7
:1064C000642181640021416480F8687084632046FF
:1064D000FBF708F9014601900022009805F0B1FF92
:1064E00001A8FBF749F96846FBF746F930684168AF
:1064F0002846884704B02846BDE8F081CD630008EF
:1065000040FC0008CC00002070B50446006A6268B8
:10651000052A22D01C490B2A02D0122A31D121E0AF
:106520000868006AFCF72CFBD4E90410A269FBF7A9
:1065300033FCD4E906202169FBF72EFCD4E90401E1
:10654000E269491C521EFBF7ABFCD4E90510E26975
:10655000491C521EFBF7A4FC13E00168204602F020
:106560008BFD0EE0026862B985680868406AFCF736
:1065700007FB0220FCF74EFBD4E904122846FBF788
:106580006DFB002070BD00003CFC000838B5002405
:1065900030B1FBF7A7F80090446B6846FBF7ECF8C6
:1065A000204638BD38B50D46040009D0FBF79AF8EF
:1065B0000090C5646846FBF7DFF8204601F0DBFA7F
:1065C00038BDF8B514460D46060012D0FBF78AF820
:1065D0000090AC420ADD816CA14202D1416CA9421B
:1065E00004D0C0E91154304601F0C5FA6846FBF703
:1065F000C3F8F8BDF0B587B00C4607007ED0FBF7B6
:1066000071F80090416CA14200DD0C46816CA14202
:1066100000DA0C46416BA14271D090F8681040F648
:10662000FF76C907416B4FF0000519D0A14207DD85
:10663000214600F0C1F8ADF80E000098416B05E06E
:1066400000F0BAF8ADF80E002146009800F0B4F85A
:10665000ADF80A00ADF80850ADF80C6000985FE0A6
:10666000A14207DD214600F0A7F8ADF80800009828
:10667000416B05E000F0A0F8ADF808002146009855
:1066800000F09AF8ADF80C000098ADF80A50ADF89B
:106690000E6090F86810890742D404950595806BC8
:1066A000FBF712F805280EDA0098856B6846FBF7B1
:1066B00063F805212846FBF723F805463846FBF723
:1066C00011F800908563009800F034F8019030B321
:1066D0000098C06CFCF75EFA0546DDE9000204A9EB
:1066E00000F02BF802A904AA0846FCF777F9DDE9C7
:1066F0000001224605F0A5FE04A901E018E014E01F
:10670000DDE9000200F019F802A904AA0846FCF726
:1067100065F92846FCF73EFA01A8FBF72DF800E0E2
:10672000446302A9384601F0EBF96846FBF724F808
:1067300007B0F0BD806BFAF7D5BF2DE9F0410546F3
:106740000C46B0F90400B5F90010471AB5F9060077
:10675000B5F902107F1C401A00F101081046FBF742
:1067600049FC0646FBF742FCE96A95F840200968B7
:1067700002F00302012A06D0022A07D1B91B01EB5D
:10678000D171491002E0BA1B511A491E2180A8EBB1
:10679000000101EBD171491061802288AB8F761E18
:1067A0001A442280EB8F324419446180401EA2803B
:1067B0000844E080BDE8F08170B590F8682012F0E0
:1067C0000104C26A136804D0B0F90620B0F902507F
:1067D00003E0B0F90420B0F90050551BD0E91120B6
:1067E0006D1C914200DA1146814200DD01465E4295
:1067F00005EB46050CB1411A00E0891A4D43801A99
:1068000095FBF0F0184470BD704700002DE9F04191
:1068100004460F4600255B48C06800F0030090B1B5
:106820005848C06800F003002168884209D12068F8
:1068300038B15448C068C0F30210401C61688842F7
:1068400033D0012531E02068012804D0022809D086
:1068500003281AD10DE04B48006800F0020000B98F
:10686000012514E04748006800F4806000B9012564
:106870000DE04448006800F4003028B94148006841
:1068800000F4802000B9012501E0012500BF00BF10
:106890005DB9D4E90010401E41EA00103949C968C9
:1068A00021F0730108433749C860002D67D135488E
:1068B000006820F0806033490860FDF74FFB064612
:1068C00006E0FDF74BFB801B022801D9032505E0FC
:1068D0002C48006800F000600028F2D100BFC5BB62
:1068E00067B9A0680002217B40EAC16025490969B7
:1068F000254A114008432349086120E0012F0FD1A8
:10690000A0680002218A0122C2EB510140EA4150F5
:106910001C4909691D4A114008431A4908610EE0E3
:10692000A0680002217D0122C2EB510140EA4160D2
:1069300014490969164A114008431249086111486F
:10694000006840F080600F490860FDF707FB0646CD
:1069500007E014E0FDF702FB801B022801D90325A4
:1069600005E00848006800F000600028F2D000BF91
:106970002DB904480069A169084302490861284605
:10698000BDE8F08100100240FF80FF07FF809FFFFD
:10699000FF80FFF9F8B5044600262348806D00F01B
:1069A000805018B1FDF7F4FB054616E000BF1E4805
:1069B000806D40F080501C4988650846806D00F06D
:1069C0008050009000BF00BFFDF7E2FB054616486F
:1069D000806D20F0805014498865B5F5007F07D19F
:1069E000802C10D9A02C01D902260CE001260AE047
:1069F000802C01D9032606E0802C01D1022602E07A
:106A0000702C00D101260948006820F007003043AF
:106A1000064908600846006800F00700B04201D04F
:106A20000120F8BD0020FCE70010024000200240D9
:106A300070B504460D46FF232A4621460148FEF75D
:106A4000C7FA70BDC0020020F8B504460E461546D0
:106A5000334600224FF4C0512046009500F026F83E
:106A600028B1206E40F0200020660320F8BD334698
:106A7000002280212046009500F06DF828B1206E9C
:106A800040F0200020660320F0E7334600224FF458
:106A9000C0612046009500F009F828B1206E40F052
:106AA000200020660320E1E70020DFE72DE9F04128
:106AB00004460E4617461D46DDF8188044E0B6F53C
:106AC000C06F02D10FB92068007B681CD8B3FDF7F6
:106AD00045FAA0EB0800A84200D2A5BB2068406898
:106AE00020F0E000216848606068B0F5827F0DD139
:106AF000A068B0F5004F03D0A068B0F5806F05D155
:106B00002068006820F0400021680860A06AB0F5A5
:106B1000005F0DD100BF2068006820F4005021689C
:106B200008602068006840F400502168086000BFD9
:106B3000012084F85D0000BF002084F85C0000BFE5
:106B40000320BDE8F081FFE7206880683040B8424C
:106B5000B5D10020F5E72DE9F04104460E46174671
:106B60001D46DDF818803EE0681CD8B3FDF7F6F945
:106B7000A0EB0800A84200D2A5BB2068406820F026
:106B8000E000216848606068B0F5827F0DD1A068A0
:106B9000B0F5004F03D0A068B0F5806F05D1206834
:106BA000006820F0400021680860A06AB0F5005F2E
:106BB0000DD100BF2068006820F4005021680860F3
:106BC0002068006840F400502168086000BF012080
:106BD00084F85D0000BF002084F85C0000BF032043
:106BE000BDE8F081FFE7206880683040B04201D105
:106BF000012000E00020B842B6D10020F0E7704745
:106C000010B505480068401C03490860FDF7ACF961
:106C1000FEF7FFFA10BD00000800002010B5AEB06E
:106C200010201D90012023900020249060202590AA
:106C30000220279001211DA8C16201632821416320
:106C4000072181630221C1630164FDF7E1FD18B1F1
:106C50009C211EA003F0DEFE0F2018900320199047
:106C600000201A901B901C90042118A8FDF75CFCD2
:106C700018B1AA2115A003F0CDFE0120019000203B
:106C8000099001A8FDF78CFA18B1B1210FA003F00B
:106C9000C1FE4FF40070FDF735FA18B1B8210BA012
:106CA00003F0B8FEFDF7FCFC4FF47A71B0FBF1F491
:106CB0002046FEF794FA0420FEF77CFA00221146E3
:106CC000501EFDF7C9F92EB010BD00002E2E2F5317
:106CD00072632F6D61696E2E6300000010480068BA
:106CE00040F470000E4908600E48006840F0010052
:106CF0000C49086000208860084600680A4908407E
:106D0000084908608814C8600846006820F480209C
:106D1000086000208861C803014980390860704715
:106D200088ED00E000100240FFFFF6EA90F8241022
:106D300001F0010139B10168496821F40031826A2A
:106D400011430268516090F8241001F002010229F9
:106D500007D10168496821F48031C26A1143026891
:106D6000516090F8241001F00401042907D1016852
:106D7000496821F48021026B11430268516090F848
:106D8000241001F00801082907D10168496821F49D
:106D90000041426B11430268516090F8241001F0E9
:106DA0001001102907D10168896821F48051826B94
:106DB00011430268916090F8241001F0200120290D
:106DC00007D10168896821F40051C26B1143026840
:106DD000916090F8241001F04001402913D101681E
:106DE000496821F48011026C114302685160016C02
:106DF000B1F5801F07D10168496821F4C001426CD8
:106E000011430268516090F8241001F0800180293C
:106E100007D10168496821F40021826C114302689E
:106E20005160704738B50446002500206067FDF7C3
:106E300095F805462068006800F0080008280CD185
:106E40006FF07E402B4600224FF400110090204648
:106E500000F02BFA08B1032038BD2068006800F06C
:106E6000040004280CD16FF07E402B4600224FF422
:106E700080010090204600F018FA08B10320EBE7EB
:106E8000202084F8710084F8720000BF002084F88C
:106E9000700000BF00BFDFE72DE9F84F04464FF058
:106EA000000910264FF0000B0025002000908246BC
:106EB000F3492068884200D100E000BF2169A06842
:106EC000084361690843E16940EA010920680068F4
:106ED000EC49084040EA09002168086020684068E1
:106EE00020F44050E168084321684860D4F81890C5
:106EF000E3492068884202D0206A40EA09092068F4
:106F0000806820F4306040EA09002168886000BF92
:106F1000DD492068884216D1DC48006800F0030093
:106F200030B1012808D0022804D0032808D105E098
:106F3000012607E0022605E0042603E0082601E01A
:106F4000102600BF53E0D2492068884216D1CF48AE
:106F5000006800F00C0030B1042808D0082804D0E4
:106F60000C2808D105E0002607E0022605E00426EB
:106F700003E0082601E0102600BF38E0C54920687C
:106F8000884216D1C148006800F0300030B11028A6
:106F900008D0202804D0302808D105E0002607E0DA
:106FA000022605E0042603E0082601E0102600BFC3
:106FB0001DE0B3492068884219D1B448006800F444
:106FC000406048B1B0F5806F0AD0B0F5006F05D0D1
:106FD000B0F5406F08D105E0002607E0022605E085
:106FE000042603E0082601E0102600BF00BF00BF12
:106FF000A3492068884272D1042E10D003DC3EB130
:10700000022E13D108E0082E0DD0102E0ED10EE066
:10701000FDF74CFB82460DE0DFF87CA20AE0FDF7AD
:1070200069FB824606E04FF4004A03E000BF0120FE
:10703000009000BF00BFBAF1000F0AD0606800EBFB
:107040004000504503D860680003504502D201203B
:1070500000900FE1042E2ED003DC3EB1022E51D160
:1070600018E0082E3CD0102E4CD14CE0FDF71EFB52
:107070004FF48071A0FB0130616849085F1840F14E
:107080000001D4F804C0624600233846F9F79AF8A4
:1070900005463BE0D4F804C04FEA5C0000217F4B7A
:1070A000C71841EB010862460B4638464146F9F7DE
:1070B00089F805462AE0FDF71DFB4FF48071A0FB1F
:1070C0000130616849085F1840F10001D4F804C03C
:1070D000624600233846F9F775F8054616E022E0C7
:1070E000D4F804C04FEA5C0000214FF40003C71835
:1070F00041EB010862460B4638464146F9F762F813
:10710000054603E000BF0120009000BF00BFB5F5B9
:10711000407F05D3B5F5801F02D22068C560A9E085
:1071200001200090A6E0E069B0F5004F57D1042E91
:1071300028D005DC4EB1012E11D0022E36D118E038
:10714000082E29D0102E31D131E0FDF7AFFA4000E2
:10715000616800EB5100B0FBF1F085B22AE0FDF769
:10716000B7FA4000616800EB5100B0FBF1F085B266
:1071700020E04B49606801EB50006168B0FBF1F022
:1071800085B217E0FDF7B6FA4000616800EB5100E8
:10719000B0FBF1F085B20DE04FF48031606801EB97
:1071A00050006168B0FBF1F085B203E000BF012040
:1071B000009000BF00BF102D0ED3B5F5803F0BD25D
:1071C0004FF6F07005EA000BC5F342004BEA000BE6
:1071D0002068C0F80CB04DE0012000904AE0042E79
:1071E00026D005DC4EB1012E10D0022E33D116E090
:1071F000082E26D0102E2ED12EE0FDF757FA61680A
:1072000000EB5100B0FBF1F085B228E0FDF760FA29
:10721000616800EB5100B0FBF1F085B21FE01E4940
:10722000606801EB50006168B0FBF1F085B216E0D8
:10723000FDF760FA616800EB5100B0FBF1F085B238
:107240000DE04FF40041606801EB50006168B0FB55
:10725000F1F085B203E000BF0120009000BF00BF45
:10726000102D05D3B5F5803F02D22068C56001E03E
:1072700001200090002020666066009800F012B89F
:1072800000800040F369FFEF0038014088100240A1
:1072900000440040004800400024F400000024F4B2
:1072A0000048E80118BCBDE8E08F2DE9F041044634
:1072B0000D4617469846069E21E0701CF8B12EB187
:1072C000FCF74CFEA0EB0800B04218D9206800681B
:1072D00020F4D070216808602068806820F00100E8
:1072E00021688860202084F8710084F8720000BF53
:1072F000002084F8700000BF0320BDE8F081206802
:10730000C0692840A84201D1012000E00020B84215
:10731000D3D00020F1E700BFFEE7FEB50C46060023
:107320004FF0010558D0FAF7DDF9019021681629D0
:1073300054D008DC0D293ED011292ED0142978D044
:10734000152944D126E000271E294AD01F296BD0D9
:10735000312903D0B1F5407F39D101E0E76035E054
:10736000C16AE2680968C26210680C1A01A8FAF7DB
:1073700003FA3046FAF7B6F9624223461146009402
:10738000029001F035FB02A8FAF7F6F9304600F05A
:10739000F2FB1BE0B0F9300042E090F83200C0068A
:1073A00015D5E068007A90B101A8FAF7E5F9304602
:1073B00000F0C6FD0BE0E068C06840B1007A30B173
:1073C00001A8FAF7D9F9304600F0C3F80025019872
:1073D00010B101A8FAF7D0F92846FEBDA1890186AF
:1073E000F4E7E168408E012906D020F00101304623
:1073F00000F042F8092507E0C1060DD540F0010173
:10740000304600F039F8082501A8FAF7B5F9294601
:10741000304600F04AFCA1E701A8FAF7ADF90120D7
:10742000E060D3E705E0FFE790F83200C0F300101A
:10743000F6E7E16800F031F8C8E738B50C4605001A
:107440000ED0FAF74FF90090418E34EA010204D0D1
:1074500021434186284600F08EFB6846FAF78CF9F6
:1074600038BD1FB5002202924FF440720391009282
:10747000694600F0D3FC1FBD38B50C460546FAF747
:1074800031F90090418EA14203D04486284600F095
:1074900072FB6846FAF770F938BD70B50C460546C0
:1074A00000F0F4FEE86A21460268BDE87040084634
:1074B000FCF78FBB024B1B68C36242860186704794
:1074C0006C02002002490120096881F854007047CD
:1074D0002C0000202DE9F0418AB0040036D0FAF7E4
:1074E00001F90190D0E90012CDE90412876A056A1A
:1074F00001A8FAF741F9204600F01EFF060025D04A
:10750000204600F029FA8046B80704D52A464146AD
:1075100004A801F088F82046FAF7E4F80190404604
:10752000FAF7E0F806903046FAF7DCF803900562C7
:107530000698019AC1691162C46101A8FAF71CF9A1
:1075400006A8FAF719F903A8FAF716F90AB0BDE880
:10755000F08101F063BB00002DE9FC5FDFF834A18E
:107560000746DDE90C54DAF81800DDF83CB098461F
:1075700091460E4604434DB9BAF8020048B3464856
:107580000AF144010068407C51F82050681C0ED07C
:10759000FDB12846FAF7A6F80190B0F90010B0F94D
:1075A00002200F441644B9F1000F02D006E0002576
:1075B0000FE0B0F90430591A01F10109B8F1000FD8
:1075C00004D1B0F90600801A00F1010801A8FAF709
:1075D000D3F80BF12C00F9F7B4FF5FEA000B56D09B
:1075E000BAF80200401CAAF802005846FAF77AF8E6
:1075F0000090078007EB09014680491E818006EB59
:107600000801491EC1800E990161244A816A224005
:10761000114381626846FAF7AFF8DAF810005E4667
:1076200050B1FAF7C1F807463046FAF7BDF80146FF
:10763000786948617E6101E0CAF810B02946584671
:1076400000F01EFFA00602D5584600F0C9FBE00777
:1076500004D0DAF82410491CCAF82410600602D5B8
:107660005846FFF737FFA0070DD55846FAF73AF806
:107670000090816A41F0020181626846FAF77CF865
:10768000584600F078FA0121584601F0AAF9584608
:1076900000F006B8E80000202C0000209F3F3F00CB
:1076A0003CBCBDE8C09F000003490020096881F888
:1076B0005400FEF76BBB00002C00002010B5044600
:1076C000C168D4E90020172A0DD004DC0E2A0CD0A2
:1076D000142A07D104E0222A0CD0282A02D10CE077
:1076E00000F0C4FD0020E06010BD2146BDE8104060
:1076F00000F09BBB6FF07040F5E7BDE8104000F074
:107700003ABA38B504000BD0F9F7ECFF00900068E6
:10771000FBF79AFA6846FAF72FF82046F9F72CFF9C
:1077200038BD0000F8B505006CD000F0A7FF0028B8
:1077300068D0284600F012FE07460B21284601F0CB
:1077400050F9284600F043FD2846F9F7CBFF00909A
:10775000406A08B1FAF79EFD2B4C002104F15C024F
:107760006163E06852F82030AB4201D142F820104A
:10777000254A543252F82030AB4201D142F8201051
:10778000606904E04368AB4200D1416000680028B2
:10779000F8D10721284600F088FA009801F019FC7A
:1077A000284600F039FD20690DE000BFF9F7FCFF25
:1077B000064640692946A84205D10846F9F7F4FF74
:1077C0004069706101E00028F0D10098806AC1072B
:1077D00002D0616A491E6162800602D5A088401EFF
:1077E000A0806846F9F7C8FF6088401E6080284680
:1077F000F9F7C2FE002F05DB0348443050F827009C
:1078000000F0EEFAF8BD0000E800002010B50028F6
:1078100006D0F9F7C9FF816A42F2040291438162FE
:1078200010BD00002DE9F0411A4C0025206B10B16D
:10783000804700E0012503F0EFF80028FAD1164E4A
:10784000306890F8540038B1A08828B1206A012728
:1078500020B10068804704E0002702E00120FCF727
:10786000E9F8306890F8540038B1A08828B102F0E7
:10787000E7FEA08808B10125F3E73FB1206A10B107
:107880004068804702E00020FCF7D4F82846BDE8B5
:10789000F0810000E80000202C00002000F0D0BCA7
:1078A00001480068806C70472C00002001460448A5
:1078B000006810B903480068806C00F005B800004B
:1078C000100100202C00002000F0D0BC1FB50021CA
:1078D000039117210091694600F0A0FA039804B0C3
:1078E00010BD0000034804490068407C51F82000A6
:1078F000704700002C0000202C01002002004FF0F7
:10790000000002D0104603F09FBC704710B500285D
:1079100002D0F9F749FFC06910BD000003490248D1
:10792000096850F82100704744010020F40000204D
:107930001FB5002101910291039115210091694623
:1079400000F06CFA039804B010BD10B5002802D006
:10795000F9F72AFF006A10BD10B5002802D0F9F728
:1079600023FF806910BD10B501004FF0000004D066
:107970000846F9F719FFB0F9000010BD10B50C4624
:10798000002807D0002C05D0F9F70EFF0168216010
:107990004068606010BD38B503F046FBF9F7A2FE01
:1079A0000090B0F90410B0F900000C1A6846641C8D
:1079B000F9F7E2FE204638BD38B503F035FBF9F79C
:1079C00091FE0090B0F90610B0F902000C1A68465A
:1079D000641CF9F7D1FE204638BD0000064A05496F
:1079E000126851F82210814201D101207047002015
:1079F000704700003C010020F4000020064A0549C1
:107A0000126851F82210814201D1012070470020F4
:107A10007047000044010020F40000202DE9FF5FC2
:107A20002C4D6878002853D100272B482F616F63B5
:107A30000068DFF8A8903C464764AF806F804FF045
:107A4000020A4FF0FF3B43F6FF7805F1440620465B
:107A5000FAF758F898B1CDE90297CDE900BA0021BC
:107A6000424643460846FFF777FD1A4A46F8240087
:107A70004C326FF0704142F8241000F07CF8641C26
:107A8000022CE4DB164FDFF85C80DFF85C9000240A
:107A900007EBC40000F064FB08EBC40000F060FBDF
:107AA00009EBC40000F05CFB641C022CF0DB3068C6
:107AB00000F096F9FFF706FD0120064968703C3199
:107AC0000A48086004B0084600F012B8FCF78EB807
:107AD00000F013B8E80000202C0000202DCE000894
:107AE000E0490020F0490020004A002049B8000881
:107AF00030BCBDE8C05FFFF7E9BF3FBCBDE8C09F39
:107B000070B586B00D4606002CD0F9F7EBFD00905D
:107B1000846AA10723D5D0E90010CDE90110E00364
:107B200002D5304600F002FD5DB128680390686818
:107B3000049003A9009800F01BFB03A901A8FBF720
:107B400033FF314601A800F01BFB40B140F60100B5
:107B50000440012C08D001A9304600F0E3FC68463F
:107B6000F9F70AFE06B070BD0098026A816901A8A3
:107B700000F059FDF3E70021FFF7C2BF10B5040084
:107B80000FD0FFF7F8FF2046FFF7C0FE044606E0DF
:107B90002046FFF7F3FF2046F9F706FE046A002CA3
:107BA000F6D110BDFEB515460E4604001CD0F9F7FF
:107BB00099FD0246009090F82800800711D53146C3
:107BC00001A8FBF70EFF60B16846F9F7D5FD2A461C
:107BD00001A9204603F02CFD2046FFF797FE04463E
:107BE0000CE06846F9F7C8FDFEBD2A4601A920460B
:107BF000FFF7D8FF2046F9F7D7FD046A002CF4D12F
:107C0000FEBD7FB505004FF000040FD0F9F7CCFDA5
:107C1000806A81070AD5C00608D4002003901F207F
:107C200000906946284600F0F9F8039C04B020460D
:107C300070BD00F023BD000004490A6802B10122B2
:107C400000B103480860104670470000080100209A
:107C500038F300087CB515460E46040022D0FFF725
:107C60007BFE00281ED0F9F73DFD00902046F9F775
:107C700039FD01900099B0F90020B0F90200B1F986
:107C80000030B1F90210D21A401A2D1AB61A6846FD
:107C9000F9F772FD01A8F9F76FFD2A463146204633
:107CA00000F0FEFC7CBD00F0FBBC1FB5262203915A
:107CB0000092694600F0B9F81FBD000010B50C4CE9
:107CC0000A4A03462468002086B052F82420002A7D
:107CD0000AD00E200090CDE9043104A80390694633
:107CE000104600F04DFE012006B010BD44010020FA
:107CF000F400002070B5154606468AB00C4651EADD
:107D000005006BD0002E69D03046F9F7EBFC0590EA
:107D1000D0E90012CDE90212CDE906127CB1816AE8
:107D20000A0607D5890505D4BDF81810091BADF85A
:107D3000181004E0BDF81C102144ADF81C107DB1F2
:107D4000816ACA0507D5490505D4BDF81A10491B33
:107D5000ADF81A1004E0BDF81E102944ADF81E104D
:107D6000806AC00302D5304600F0E0FB05AB93E823
:107D70000700C0E9001290F8280080070AD506AA7B
:107D800002A908A8FAF72AFE0598026A816908A8DC
:107D900000F049FCBDF91E00BDF90E10401A00901C
:107DA000BDF91C00BDF90C10431ABDF91A00BDF94C
:107DB0000A10421ABDF91800BDF90810411A0598B9
:107DC00000F016FE059901F10800FBF7EDFD052115
:107DD000304600F006FE05A8F9F7CEFC0AB070BDEB
:107DE00070B50C4D04002868866C01D10A490C69F5
:107DF0008464204600F0BAFDFDF7C8FF2046F9F77D
:107E0000D3FC2968B0F90020CA64B0F90200086503
:107E1000304670BD2C000020E8000020002801D072
:107E200000F0AEBD704700F0C9BD70B50C0005464E
:107E300009D0FFF791FD002805D02146A560BDE8D7
:107E4000704000F09DBD70BD2DE9F041094F044622
:107E5000074E38680D4656F82000A04201D000F0C9
:107E60004FFD386846F8204003480570BDE8F081B2
:107E70003C010020F40000204C0100202DE9FF47C8
:107E80001D4616460C468146FFF7A8FDDFF8908098
:107E900090B3B8F900102068471AB8F9021060686A
:107EA000441A56EA050033D069464846FFF766FD96
:107EB0002DB1BDF802006D1E2844ADF806004846FD
:107EC000FFF74AFD02A9FFF759FD224639466846E9
:107ED000FAF7B0FD02A932460846FBF77AFE02A97E
:107EE0006846FAF7FDFD002804D022463946484688
:107EF000FFF7D9FE00F016B8FFE701214846FFF76B
:107F0000A3FF2088A8F80000A088A8F80200F1E7E5
:107F100004B0224639464846BDE8F047FFF7C3BEE5
:107F2000740200200FBCBDE8F087000010B5F8F720
:107F3000F1FF024900200968486410BD2C000020B0
:107F4000F0B587B004004FF0000002900390049059
:107F500005903BD0204D1F4F286857F82000A042C5
:107F600034D0CDE900041E21029110B102A900F025
:107F700007FD0120059002A9204600F001FD0599AA
:107F800020266846002902D1296847F82140059F2C
:107F90001DD105462046FFF7DFFC040005D002A9ED
:107FA0000296059500F0ECFCF4E7009C2046FFF7F4
:107FB00040FE28B90BE002A90296059500F0E0FC0E
:107FC0002046FFF7C9FC0400F5D100E0012707B007
:107FD0003846F0BD44010020F400002001004FF0BD
:107FE000000002D0084604F0A5B8704770B5010043
:107FF0004FF0000017D0084600F05EF903F0B3F927
:1080000005462C4605E0204603F0ADF90446A8429B
:1080100004D0FFF7F6FD08B9002CF4D12046FFF795
:108020008FFF08B1002070BD204670BD38B5040038
:1080300018D0F9F757FB009090F82800C0070ED130
:10804000204600F053F80098816A41F001018162F6
:1080500005480168491C01602046FFF78CFD684611
:10806000F9F78AFB38BD00000C010020F8B5164670
:108070000C46050018D0F9F735FB0090B0F9041054
:10808000B0F90020891A641AB0F90610B0F902009C
:10809000641E081A361A6846761EF9F76DFB3246DA
:1080A00021462846FFF726FEF8BD0000044910B51A
:1080B00009684C6C486400F02FF8204610BD0000A1
:1080C0002C00002038B504000ED0F9F70BFB00900F
:1080D000816A8A0705D441F0020181622046FFF7D8
:1080E0004DFD6846F9F748FB38BD000008B500288B
:1080F0000FD0F9F7F7FA0090816A8A0606D521F0C9
:108100002001816203480188491E01806846F9F711
:1081100033FB08BDEC0000200EB50E48006890F857
:10812000541009B10C4811E0806CF9F7DBFA0090AB
:10813000D0E90010CDE901106846F9F71DFB0748AA
:10814000816A11B101A800F01BF801A803F066FFD5
:108150000EBD00002C00002060490020E800002037
:1081600002490A680260086070470000FC000020B5
:108170000B46B0F90220B0F900101846FAF75ABCC5
:1081800038B50C4605462046F9F7ACFA0146009092
:1081900090F82800800703D46846F9F7EDFA12E05A
:1081A0002846FBF701FC0098806920B10446684628
:1081B000F9F7E2FAE7E76846F9F7DEFA204600F059
:1081C00011FF002801DA002038BD012038BDF8B5C4
:1081D00005466846FAF75AFD1AE001212046FAF7EB
:1081E00041FD009981B178B10846F9F7DDFA4068A0
:1081F000A84209D169462046009EFAF75BFD044675
:108200003046FFF77EFA04E069462046FAF752FD51
:108210000446002CE1D1F8BD38B50446F9F762FAFE
:108220000090816941B1026A00F0FDF9204600F03A
:108230007DFB0099002088616846F9F79DFA38BDFA
:1082400070B516460D46F9F7AFFAC4690BE0314632
:108250002046A847324629462046FFF7F1FF204630
:10826000F9F7A2FA046A002CF1D170BD38B50C46BA
:1082700000280AD0002C08D0F9F734FA21460090E3
:1082800000F004F86846F9F777FA38BD00224A8012
:108290000A8082880388D21A8A80C2884088101A8D
:1082A000C880704710B5FFF757FB002802D0F9F7D8
:1082B0007BFAC06910BD000070B5084E0146064D3E
:1082C0003068002455F8200000F0C7F910B130687C
:1082D00055F82040204670BD44010020F4000020E5
:1082E00010B5040006D000BFF9F75EFA006A08B1C5
:1082F0000446F9E7204610BD0D4810B5006890F817
:108300005400002806D00B4C6069012803DD401E94
:108310006061002010BD2069401C206102F0F0FC6B
:1083200018B1FFF7F9FE012010BD6069EFE700000A
:108330002C0000205849002070B50546FFF7B2FF19
:1083400008E0AC4201D1002406E0F9F72DFA006AFA
:10835000A84201D00400F4D1204670BD10B50446F7
:10836000F9F722FA80690028F9D12046BDE81040CB
:1083700000F038BEB0F90410B0F90000081A401C33
:108380007047B0F90610B0F90200081A401C704797
:10839000F0B5384E074687B0306890F8541041B1B8
:1083A000354C6169491C6161012905DD012007B077
:1083B000F0BDFFF7B1FEF9E7806CF9F793F92F4DA7
:1083C0004FF0FF3100902161297821B1816802913D
:1083D000C068039007E090F8281089073CD5D0E9E1
:1083E0000010CDE902101FB1394602A8FBF7DCFAF4
:1083F0003068406C78B3009804903068406C016835
:10840000059140680690A86A30B104A8F9F7B4F95C
:10841000A86AF9F767F9049005A90498FFF7A8FE80
:1084200005A902A8FBF7C0FA0DF11000F9F7A4F9AD
:10843000A96A19B102A8FFF7A3FEB0B13068816C38
:1084400002A8FFF79DFE80B1DDE90201C4E9000149
:10845000FFF752FFABE706E06069401E60616846C7
:10846000F9F78AF904E06846E0E76069401E606158
:1084700000209CE72C00002058490020E800002044
:10848000FEB50D00044647D0F9F72CF90090002105
:10849000856101622846F9F725F900990290C569BE
:1084A00091F8281001F008062DB12846F9F71AF9BD
:1084B000019036B115E0C4616846F9F75DF902A88C
:1084C00028E090F8280000070BD500980562029874
:1084D000C4616846F9F750F902A8F9F74DF901A807
:1084E00018E002A8F9F748F901A8F9F745F9284674
:1084F000F9F75AF911E004620BE02846F9F754F94C
:108500005EB990F82810090707D501980462009811
:1085100005626846F9F730F9FEBD0190056A002D45
:10852000EBD1E8E7202203F083B8000038B504005F
:1085300022D0F9F7D7F8009090F82810890718D5BD
:10854000406A40B10D49C96AA14204D0F9F7A2FEC0
:108550000099002048622046FFF7D8F9044606E05B
:108560002046FFF7E3FF2046F9F71EF9046A002CC6
:10857000F6D16846F9F700F938BD0000E8000020A0
:1085800070B5064615460C460846F9F70DF9806A9F
:10859000C00302D54FF4804300E020232A46214641
:1085A0003046BDE87040AFF300802DE9FF419846AA
:1085B000164607460D0031D00846F9F793F80090AB
:1085C000846A0246A00726D5394601A8FBF709FAB6
:1085D00008B340F601000440012C07D0424601A92F
:1085E000284603F025F80098C46912E00098434635
:1085F000026A816901A8FFF7D8FFF4E7B4420AD004
:10860000424601A92046FFF7CDFA2046F9F7CCF8FB
:10861000046A002CF2D16846F9F7AEF800F000B811
:1086200003BCBDE8FC812023FFF7BFBF70B50C463B
:10863000002550B14CB100BFF9F7B6F88069A042EF
:1086400001D1012501E00028F6D1284670BD8842FD
:1086500001D101207047FFF7E9BF38B50D4600246E
:1086600050B1F9F73FF8009018B18069A84200D1E5
:1086700001246846F9F780F8204638BD10B5044655
:108680000648006906E0A04201D1012010BDF9F7BB
:108690008BF840690028F6D110BD0000E8000020EA
:1086A000F0B58BB006004FF0000015460C46049064
:1086B0000590069007903ED054EA05003BD0304626
:1086C000F9F710F80090D0E90012CDE902122A461D
:1086D0002146FAF7AFF900982A4621460830FAF702
:1086E000A9F90098C7696846F9F746F82A4621466D
:1086F000384603F012F83046F8F7F4FF009090F88F
:10870000281089070AD5816941B1026AFFF738FF4D
:108710000098026A816902A8FFF732FF6846F9F7FC
:108720002BF80320049007AA08A882E8310004A9C6
:10873000304600F025F90BB0F0BD00002DE9F14105
:1087400087B000250798F8F7CDFF0190D0E9021215
:10875000CDE9031207698669846A01A8F9F70CF864
:1087600044F2200814EA080F30D0DFB103A80799BB
:10877000FFF706FDB0B10798FFF732FB60070DD594
:1087800056B144F30000401C0090002307AA114991
:1087900003A8F9F79FFD05E00120F5E7079800F031
:1087A00063F801250798F8F79DFF0190816A21EA97
:1087B000080181628A0402D541F00401816201A8A6
:1087C000F8F7DAFF04498888401E888008B02846F8
:1087D000BDE8F08109CF0008E8000020F0B589B0BD
:1087E0000546F8F77FFF0290866A0469D0E9021017
:1087F000CDE9001002A8F8F7BFFF002C30D0B00779
:108800002ED52E212846FFF70EFB164C6F462078FA
:10881000401C2070F0044FF00F0609D5CDE9046527
:108820000797FFF783FB04A9284600F0A9F810E09A
:108830003846FFF7ADFD0AE0CDE904650797FFF77D
:1088400075FB04A9284600F09BF8FFF755FD0028AA
:10885000F2D120782F21401E20702846FFF7E3FA3E
:1088600009B0F0BDE800002038B50446F8F73AFF3B
:108870000090806A40F601010840012805D0684652
:10888000F8F77AFF204603F077F91448406A002889
:1088900023D0204603F0C8F92046F8F785FF856904
:1088A000046A18E02046F8F77FFF90F82800C043DC
:1088B000800702D1204603F071F9204603F0B4F995
:1088C0002046F8F771FF046A002CEBD12846F8F730
:1088D0006BFF8569046A002DF6D138BDE8000020E1
:1088E000B0F90010B0F90420914205DCB0F9021093
:1088F000B0F90600814201DD002070470120704779
:108900007FB5094D074C286854F82000002808D08E
:1089100018210091694600F033F82968002044F8D6
:1089200021007FBD3C010020F400002070B5064608
:10893000F8F73AFF05468069002809D0F8F734FFB8
:108940000446C069B0420ED1F8F72EFF006AE0611C
:1089500070BD00BFF8F728FF0146006AB04202D19F
:10896000286A086270BD0028F4D170BD10B5FFF709
:10897000F5FC002803DBBDE81040FAF7E7B810BDAE
:1089800070B50D4C06460D46206814280DDA3046A9
:10899000F8F70AFF01696E6041B12068401C206051
:1089A000284688472068401E206070BD2846BDE8E4
:1089B0007040FEF783BE0000700200207FB50546C0
:1089C000002000900190029003900C462846F8F792
:1089D000EBFE0269002A03D06846CDE900459047C6
:1089E0007FBD1FB5CDE900106946FFF7C9FF1FBD68
:1089F0002DE9FF4F81B09B46C66962E03046F8F72B
:108A000071FE01460090D1E90004896A254601F40F
:108A100020730246802B09D0B3F5207F029B1344BC
:108A200006D063F30F02029B234405E002EB0B0325
:108A300063F30F0204EB0B0301F4A06163F30F0473
:108A4000B1F5807F0BD0B1F5A06F03994FEA2243B7
:108A500007D0194461F31F422314039906E00E99CD
:108A60001314194461F31F420E99231419440FFA89
:108A700082FA61F31F440FFA80F917144FEA204875
:108A8000AAEB0901A7EB080251EA020002D0304626
:108A9000FFF709F92AB221B2A2EB0900A1EB0A0102
:108AA000091AC7EB2440C8EB2542821A51EA02009A
:108AB00002D03046FFF71EF90098066A6846F8F7BC
:108AC0005BFE002E9AD105B000F000B830BCBDE8C6
:108AD000C08F00002DE9F041214D0C460646E968A3
:108AE000A86B0844A119401E814206D808460968AF
:108AF00019B941680E4403F0C9F9A86BA0420AD223
:108B000054F8040C271A386828B97868064438469F
:108B100003F0BCF93C46304602F0F4FB10281CD2AE
:108B200005EBC0073246002120467B6C03F070FD48
:108B300057F8440F083400B14460206000206060A2
:108B40003C6028683044286095F8291029B9E96804
:108B5000081AA968814200D2A8603046BDE8F081B9
:108B60001C4800202DE9F041054602F00DFD2A4881
:108B7000046CAC4202D8ED1C25F00304804600686A
:108B80000C34A04202D20020BDE8F08103F09AF834
:108B9000071EF9D0204602F0B5FB414630E000BF89
:108BA00001EBC002526C52B3956845B36B68A342A7
:108BB00006D2AA681AB395680DB36B68A342F8D3BE
:108BC000D8F84000191B0C301E46814200D23446B2
:108BD000284603F05BF90421D8F8340001EBC70103
:108BE0000023455022463946284603F011FDA6428F
:108BF00003DD2919301BFFF76DFF3846C4E7401C21
:108C00001028CDD3204603F089F90028C2D0384679
:108C100003F078F8B7E700001C4800207CB504009A
:108C200016D0F8F75FFD0090016A91B190F8280026
:108C3000000713D40846F8F755FD019090F8280076
:108C4000000708D56846F8F797FD01A8F8F794FDE6
:108C50007CBD6846FAE701A8F8F78EFD00988569A3
:108C60006846F8F789FD2046FFF760FE2946204652
:108C7000FFF706FC2046FEF77EFF00220249204651
:108C8000FEF70CFE7CBD000005CF000801207047F8
:108C9000F0B40F4C246814B1A446F0BC60470D4DED
:108CA000DFF834C010C855FA84F63778C4F30726C5
:108CB000C4F307441CF806602C5D521E04EB4614F6
:108CC00004EBC7240C801944ECD1F0BC70470000C1
:108CD0007000002038F1000838F2000810B510C804
:108CE0000C601944521EFAD110BD00002DE9F04766
:108CF0008146FCF745FD4FF0000807466FF07F44C2
:108D00004546FCF755FD060018D000BF56F8251063
:108D1000494502D12846BDE8F0876D1CBD42F5DB10
:108D20005FF00005484656F82510F8F7A3FDA0426D
:108D300001D20446A8466D1CBD42F3DB4046EAE77B
:108D40007047000010B5084A52FA80F1074BC0F393
:108D50000724C0F307401B5D105C097800EB43104B
:108D600000EBC12010BD000038F1000838F2000807
:108D70002DE9F05F9A46DDE90A8791460C460546E3
:108D80008B46164635F8020B41468847B84701C462
:108D9000761EF7D15046BAF1200F06D20246494658
:108DA000584600F004B8FAF701B900F005B830BC35
:108DB000BDE8C05FFFF7F7BF30BCBDE8C09F2DE93D
:108DC000F05F9A46DDE90A8791460C4605468B46D8
:108DD000164615F8010B41468847B84701C4761E70
:108DE000F7D15046BAF1200F06D2024649465846FE
:108DF00000F004B8FAF7DAB800F005B830BCBDE806
:108E0000C05FFFF7F7BF30BCBDE8C09F30B58BB087
:108E10000446F8F767FC0090C06D85686846F8F76F
:108E2000ABFC0020CDE90140696801A888470BB080
:108E300030BD30B58BB00446F8F754FC0090406E5E
:108E400085686846F8F798FC0020CDE9014029685C
:108E500001A888470BB030BD2DE9F04786B08246A7
:108E6000F8F740FC0390D0E90075D0F8249003A8EF
:108E7000F8F782FC29B20FFA87F83E14A1EB080438
:108E8000C6EB2545641C6D1C002C01DD002D03DCA8
:108E9000002006B0BDE8F087B9F1000014D0F8F763
:108EA00021FC0490B0F90440B0F9065004A8F8F78A
:108EB00063FC38B2A04201D1AE425AD0324641469C
:108EC0004846F9F72BFB54E0FEF70CFD824513D121
:108ED000FCF78CFC0746FCF79DFCBC4201DC85429C
:108EE0000ADDBC4200DD3C46854200DD05462A46DF
:108EF00021465046FFF7BAF8244A254901208DE85B
:108F00000700314640462B462246F9F769FB0646E4
:108F10005046F8F7E7FB039046627EB3816A41F45E
:108F20008031816203A8F8F727FC3046F9F7D4FABC
:108F300007460120FAF728F83046F9F786FA15496E
:108F40006C43A2000978FAF78FFE134E134C50467B
:108F5000C6F800A02568FEF706FD20605046FFF722
:108F60003DFC002025603060FAF70EF83846F9F72E
:108F7000B3FA5046F8F718FC406A8AE7FFE703A8FF
:108F8000F8F7FAFB5046FFF729FC81E79CFC000844
:108F9000F4050108C8010020140100206000002031
:108FA00041884FF4FC63C1F3C402007803EA511115
:108FB0000A4300F0F80042EA0020704781784278C6
:108FC000C9089208007841EA4211C00841EAC0206D
:108FD000704710B50446E069FEF7A4FBE06900287D
:108FE000F9D110BD0146064A002000BF52F82030DA
:108FF0008B4204D0401C0228F8DB4FF0FF30704752
:109000002C010020F7B51546184A01A900981268EE
:109010009047174C00902068406920B12946F9F725
:109020005FFD002821D00120FAF704FD2068C06907
:10903000406920B18268DDE90001904712E00D4DE2
:109040000CE06846F9F752FE06462068C0690168E0
:1090500030468847296809B1304688470198401E44
:109060000190EED50020FAF7E5FCFEBDA00200203D
:109070002C000020580000202DE9FC47D0F820905B
:1090800005468269C369D5E90407D9F804C03A4C9A
:1090900099B3111A491C4E102168BCF1000F26D05B
:1090A000D1E9002C00214FF0010800BFCDE9002CD0
:1090B0008219A3EB08033944401CF8F7FDFDD9F8E9
:1090C00004000028206819D0D0E9022300210120E3
:1090D000CDE90023EA69761C131AD5E9050201449B
:1090E0002869521E3044F8F7E7FD00F047B8D1E98F
:1090F000042C01214FF00008D8E704E0D0E9062352
:1091000001210020E4E7D91B491C4E102168BCF165
:10911000000F25D0D1E904384FF0000C5FF00101B9
:10912000CDE90038521ABB19791C6044F8F7FCFDF0
:10913000D9F804000028206818D0D0E906130020D0
:109140005FF00102CDE90013D5E906138A1A6969B7
:109150002C69761C314420445B1EF8F7E5FDC4E71A
:10916000D1E900384FF0010C0021D9E7D0E9021312
:1091700001200022E6E700003CFC00080CBCBDE832
:10918000F08700002DE9FF4F85B08346DDE91370BD
:10919000129DD0E900A0DBF80890039047484C19D5
:1091A0001E4600684FF08008007C10F0030006D0D7
:1091B000012865D0022818D0032813D160E0307848
:1091C00028FA05F1084201D0039800E0504681B228
:1091D000484603F06EFD6D1C082D01D10025761C5C
:1091E0007F1EECD109B000F06BB84FF0000ACDF84B
:1091F00008A0D9F86CB00194317828FA05F0014242
:1092000002980BD020B90120CDE90140D9F86CB00B
:1092100003982BF8020B0AF1010013E0012812D188
:10922000631E0020029007980090D9F8A8C0484615
:10923000079A0199E04748465246D9F86C1003F066
:10924000B9F900208246641C6D1C082D01D100254F
:10925000761C7F1ED0D1BAF1000FC3D00798631ED1
:109260000090D9F8A8404846079A0199A047D9F834
:109270006C1009B04846524600F025B803F09AB980
:10928000317828FA05F001420ED0D9F8EC302146A9
:109290005846079A9847D9F82830D9F8F0C0434083
:1092A00021465846079AE047641C6D1C082D01D1E1
:1092B0000025761C7F1EE3D194E700002C000020DF
:1092C00030BCBDE8C08F30BCBDE8C04FFFF7D6BF93
:1092D0002DE9FF5F9046DDE90E924D4B99F8005065
:1092E000C2F108048A465D5DDDE91071D540494A46
:1092F000139E1268127C12F0030226D0012A03D0BA
:10930000022A37D0032A72D10069806880471FFA89
:1093100080FBBC4200D93C463F1BBAF1000F68D02D
:10932000E8070AD0DAF808004146039A0368504675
:109330009847318881EA0B0131806D0808F10108F6
:10934000641E06F10206EBD15EE0314ABC4200D950
:109350003C463F1B05F001006D0831F8200026F85F
:10936000020B641EF6D1002F50D019F8010F08240B
:10937000155CEBE788881FFA80FBBC4200D93C46AD
:109380003F1BBAF1000F17D095B1E80708D0DAF803
:1093900008004146039A036850469847A6F800B073
:1093A00008F10108641E06F1020612D06D08EBE711
:1093B00006EB4406A0440CE04DB1E80701D0A6F846
:1093C00000B0641E06F1020603D06D08F4E706EB58
:1093D0004406002F1AD019F8011F0D480824455CD7
:1093E000CBE719F8011F0A480824455C91E70DE016
:1093F000FFE7E80703D0308880EA0B0030806D0873
:10940000641E06F10206F4D1002FEAD100F004B880
:10941000B4FC00082C0000203FBCBDE8C09F000049
:109420002DE9FF4F81B08A46DDF8388011ACDFF8B6
:1094300004B198F800509146DDE90F1794E8450013
:109440001BF80550C1F10804CD403B495B46096853
:10945000097C11F003011FD0012903D0022930D06B
:10946000032964D110680069806880475946BC426E
:1094700000D93C463F1BEA0702D0326842403260C6
:109480006D08641E06F10406F5D1002F4FD018F8C0
:10949000012F08248D5CEAE71946BC4200D93C46FE
:1094A000B7EB040705F001026D0850F82220641E96
:1094B00004C6F7D1002F3AD018F8012F08248D5C8C
:1094C000EBE740680090BC4200D93C463F1BBAF134
:1094D000000F17D095B1E80708D0DAF80800494620
:1094E000049A0368504698470098306009F10109D2
:1094F000641E06F1040612D06D08EBE706EB840645
:10950000A1440CE04DB1E80701D000983060641E22
:1095100006F1040603D06D08F4E706EB8406002F7D
:1095200005D018F8011F08241BF80150CBE705B03F
:1095300000F004B8B4FC00082C00002030BCBDE8EA
:10954000C08F00002DE9FF4F85B0D0F80890DDE90D
:10955000125714989B46002839D041489BF8006068
:109560004C1900684FF0C008007C10F0030016D0C2
:1095700002282CD14FF0000ACDF80CA0D9F86C00CD
:10958000CDE90140C5F103004100C1F1060228FA0E
:1095900002F03040C8402ED00399D9B120E0C5F187
:1095A00003004100C1F1060228FA02F03040C84031
:1095B000149931F8200081B2484603F07AFB6D1C03
:1095C000042D02D11BF8016F00257F1EE7D109B0E1
:1095D00000F048B8012101940391D9F86C10029170
:1095E000149931F82000029908800298801C02909A
:1095F0000AF1010014E00398012812D1631E002033
:10960000039007980090D9F8A8C04846079A019996
:10961000E04748465246D9F86C1002F0CBFF0020D4
:109620008246641C6D1C042D02D11BF8016F0025BD
:109630007F1EA7D1BAF1000FC9D00798631E009012
:10964000D9F8A8404846079A0199A047D9F86C1064
:1096500009B04846524600F008B802F0ABBF00001F
:109660002C00002030BCBDE8C08F30BCBDE8C04F2E
:10967000FFF7F3BF2DE9FF5F8B460FA9DDF83880B8
:1096800091E82104C0F10401CCB298F80010400028
:1096900081402F48129F91460068CEB2007C10F0A6
:1096A000030004D001283AD002284FD114E0AC4284
:1096B00000DDECB22D1BB1093AF8210027F8020BAE
:1096C000B006060E641E14F0FF04F4D1002D3DD048
:1096D000042418F8016FEAE7AC4200DDECB22D1B60
:1096E000B0090DD0B109BBF1000F3AF82100388064
:1096F00006D0DBF808004946039A036858469847A5
:10970000B006060E641EBF1C09F1010914F0FF0427
:10971000E6D1002D1AD0042418F8016FDCE7AC4222
:1097200000DDECB22D1BB00903D0388880F0FF00BB
:109730003880B006060E641EBF1C14F0FF04F2D180
:10974000002D03D0042418F8016FE8E700F002B8F8
:109750002C0000203FBCBDE8C09F00002DE9FF5F4A
:109760008B460FA9DDF8388091E82104C0F104018F
:10977000CCB298F80010400081402F48129F9146CB
:109780000068CEB2007C10F0030004D0012839D06C
:1097900002284ED113E0AC4200DDECB22D1BB10922
:1097A0005AF8210001C7B006060E641E14F0FF042B
:1097B000F5D1002D3DD0042418F8016FEBE7AC4241
:1097C00000DDECB22D1BB0090DD0B109BBF1000FCB
:1097D0005AF82100386006D0DBF808004946039AA1
:1097E000036858469847B006060E641E3F1D09F1EF
:1097F000010914F0FF04E6D1002D1AD0042418F852
:10980000016FDCE7AC4200DDECB22D1BB00903D0E8
:10981000386880F0FF003860B006060E641E3F1DF9
:1098200014F0FF04F2D1002D03D0042418F8016FC6
:10983000E8E700F003B800002C0000203FBCBDE8C2
:10984000C09F2DE9F0479946DDE908540A9F9246EA
:109850005FEA0108064608D0D8F8080023464A46C1
:10986000D0F804C051464046E0473069C16831B184
:10987000A20029463846BDE8F047F6F7D7BC416854
:10988000002088474FEA10682846214642460026B5
:1098900008C81B0E934201D106F10106A1F1010196
:1098A00001D10029F4D15EB14FEA8602294638463B
:1098B000F6F7BCFC07EB860705EB8605A41B0CE05E
:1098C0002868010EFF2905D2C1F1FF023968FAF7B5
:1098D00023F93860641E2D1D3F1D002CD4D1BDE836
:1098E000F08700002DE9FF4F85B0D0F80890DDE942
:1098F000125714989B46002839D041489BF80060C5
:109900004C1900684FF0F008007C10F0030016D0EE
:1099100002282CD14FF0000ACDF80CA0D9F86C0029
:10992000CDE90140C5F101008100C1F1040228FA2E
:1099300002F03040C8402ED00399D9B120E0C5F1E3
:1099400001008100C1F1040228FA02F03040C84051
:10995000149931F8200081B2484603F0AAF96D1C31
:10996000022D02D11BF8016F00257F1EE7D109B03F
:1099700000F048B8012101940391D9F86C100291CC
:10998000149931F82000029908800298801C0290F6
:109990000AF1010014E00398012812D1631E00208F
:1099A000039007980090D9F8A8C04846079A0199F3
:1099B000E04748465246D9F86C1002F0FBFD002003
:1099C0008246641C6D1C022D02D11BF8016F00251C
:1099D0007F1EA7D1BAF1000FC9D00798631E00906F
:1099E000D9F8A8404846079A0199A047D9F86C10C1
:1099F00009B04846524600F008B802F0DBBD00004E
:109A00002C00002030BCBDE8C08F30BCBDE8C04F8A
:109A1000FFF7F3BF2DE9F05F92460BAA894692E863
:109A200042010A9F9B468B003A78C1F102009A409E
:109A3000D5B24F4A0E9CC0B21268127C12F00302DB
:109A40001BD0012A7CD0022A3AD1D9B328090DD0E3
:109A50002909B9F1000F38F82100208006D0D9F883
:109A600008005A465146036848469847A41C0AF124
:109A7000010A17F8015F761E4CE039B12909761EFC
:109A800038F8210024F8020B17F8015F022E11DBD1
:109A9000701006F001062A09401E38F8221005F061
:109AA0000F0224F8021B38F8221024F8021B17F8C2
:109AB000015FF0D1002E03D0290938F82100208061
:109AC00000F058B826E028090DD02909B9F1000F97
:109AD00038F82100208006D0D9F808005A465146AF
:109AE00003684846984715F00F000DD038F820005D
:109AF0006080B9F1000F07D0D9F808005A460AF182
:109B0000010103684846984717F8015F241D0AF1D0
:109B1000020AB61E022ED6DA002ED1D02809CFD0E6
:109B200038F820002080B9F1000FC9D0D9F808001A
:109B30005A4651460368484600F01FB81847FFE7E9
:109B4000B04200DDF0B2361AA90903D0218881F0B5
:109B5000FF01218029070D0E401EA41C10F0FF00FC
:109B6000F2D1002EACD0022017F8015FE8E7000028
:109B70002C00002030BCBDE8C09F30BCBDE8C05FF9
:109B8000FFF7DCBF2DE9F05F92460BAA894692E809
:109B900042010A9F9B468B003A78C1F102009A402D
:109BA000D5B24D4A0E9CC0B21268127C12F003026C
:109BB0001BD0012A79D0022A37D1C1B328090DD090
:109BC0002909B9F1000F58F82100206006D0D9F812
:109BD00008005A465146036848469847241D0AF132
:109BE000010A17F8015F761E49E031B12909761E96
:109BF00058F8210001C417F8015F022E0FDB701026
:109C000006F001062A09401E58F8221005F00F023E
:109C100002C458F8221002C417F8015FF2D1002ED6
:109C200003D0290958F82100206000F057B826E039
:109C300028090DD02909B9F1000F58F8210020603A
:109C400006D0D9F808005A46514603684846984756
:109C500015F00F000DD058F820006060B9F1000F2A
:109C600007D0D9F808005A460AF1010103684846AE
:109C7000984717F8015F08340AF1020AB61E022E4F
:109C8000D6DA002ED1D02809CFD058F82000206095
:109C9000B9F1000FC9D0D9F808005A4651460368F7
:109CA000484600F01EB81847FFE7B04200DDF0B2AA
:109CB000361AA90903D0216881F0FF012160290724
:109CC0000D0E401E241D10F0FF00F2D1002EACD06E
:109CD000022017F8015FE8E72C00002030BCBDE847
:109CE000C09F30BCBDE8C05FFFF7DDBF2DE9FF4F6F
:109CF00083B08568DDE9107B1E460C465FEA0B00E9
:109D000020D02E480068007C10F0030018D00228F4
:109D100018D14FF00008D5F86C90C246CDF8044039
:109D200016F8010BE8B1BAF1000F0ED012E030784E
:109D30003BF8200081B2284602F0BBFF761C7F1E54
:109D4000002FF4DC07B000F03BB80194D5F86C901C
:109D50004FF0010A3BF8200029F8020B08F101003E
:109D600013E0BAF1010F11D1059800900246D5F821
:109D7000A8C0631E4FF0000A28460199E0474246FA
:109D80002846E96E02F016FC00208046641C7F1E07
:109D9000C6D1B8F1000FD5D00598631E00900246D9
:109DA000D5F8A84028460199A047E96E07B0424679
:109DB000284600F008B802F0FDBB00002C0000208F
:109DC00030BCBDE8C08F30BCBDE8C04FFFF7F3BF6B
:109DD0002DE9F04387B089460EA991E8F01181681A
:109DE0008DE8F011D1F8E4404946A04707B0BDE83E
:109DF000F08300002DE9FF4F83B099460398DDE919
:109E00001075DDE9136BD0F808809246012D05D05E
:109E1000022D03D0042D01D0082D06D13148006851
:109E2000007C00F0030002280ED00AEB0700401E61
:109E300000900498D8F8A84000EB0B0101EB09034F
:109E4000404652465B1EA047002446E0042D24D025
:109E500004DC012D07D0022D3CD111E0082D29D0C2
:109E6000102D37D131E01598CDF800B0CDE9019033
:109E7000DDE9030104EB0A023346FFF783F929E029
:109E80001598CDF800B0CDE90190DDE9030104EBB0
:109E90000A023346FFF756FB1CE01598CDF800B0D8
:109EA000CDE90190DDE9030104EB0A023346FFF737
:109EB00019FD0FE0159804EB0A02CDE90090DDE9E9
:109EC00003013346FFF712FF04E04A46314640469D
:109ED00002F070FB1298641C0644BC42B6DB07B06B
:109EE00000F002B82C00002030BCBDE8C08F00009C
:109EF0002DE9FF4F8FB0A448DDE91F860068DDE93A
:109F00001C970C46006EF7F7EDFB0790406908B10F
:109F1000F7F7E8FB0A900798C0680C9007A8F7F7D6
:109F20002BFCA01910900A9858B197490968097C30
:109F3000890706D110ACCDF8009094E80E00F8F730
:109F4000FFFEDDE9100102F0BDFE0446102F03D034
:109F5000182F5DDB002057E000251EE0DDE910B082
:109F60002844DDF828A00190129E5FEA08012046EF
:109F70000ED068B17200F6F759F9BAF1000F07D0A8
:109F8000DAF808003346594647685046019AB84700
:109F90001E990C98884404446D1C4D45DEDBEAE0B4
:109FA0000A980390DDE910B10698DDF848A008444E
:109FB00001905FEA0805264620D0FEB1039830B133
:109FC0008068534659464768019A0398B8470F99E5
:109FD00028680969096888473080039828B1806833
:109FE0005946019A0368039898472D1DAAF101006C
:109FF000B61C0BF1010B5FEA000AE8D10C981E9920
:10A00000044406988844401C06904845C8DBB2E0EA
:10A01000082F02D02198C0B365E000205DE02198B0
:10A02000129F00280A980290DDE910A05844454686
:10A0300000902BD021980490534826460068007C5D
:10A0400010F0030002D0022841D109E015F8011BED
:10A0500004987F1E30F8210026F8020BF6D136E076
:10A06000287858B1049931F820003080029828B13E
:10A0700080685146009A0368029898476D1CB61C88
:10A080000AF1010A7F1EEBD121E02AE03E48264674
:10A090000068007C10F0030002D0022817D105E010
:10A0A0003A4641462046F6F7C1F810E0287840B11C
:10A0B0003080029828B180685146009A036802985F
:10A0C00098476D1CB61C0AF1010A7F1EEED10C9850
:10A0D0001E99044488440BF10100834648459EDBE9
:10A0E00049E02A482190002543E03846012F04D05A
:10A0F00002281CD0042F37D128E023480068006EC6
:10A10000F7F7F0FACDF800800790219A129905949C
:10A11000CDE90320CDE9016111980A992B18DDE9F9
:10A120000F02FFF7D5F807A8F7F726FB1CE02198E8
:10A130001299CDE90210CDE90086119804942B18EC
:10A14000DDE90F020A99FFF795FA0DE021981299BF
:10A15000CDE90210CDE90086119804942B18DDE9B1
:10A160000F020A99FFF756FC1E986D1C80440C984C
:10A1700004444D45B9DB0A98002802D00AA8F7F735
:10A18000FBFA13B000F004B82C000020C8FB000854
:10A1900030BCBDE8C08F00002DE9FF4F0C46A5493B
:10A1A0008DB00868DDE91A96DDE91D87006E00288C
:10A1B0007ED0F7F797FA0690406908B1F7F792FA60
:10A1C0000A900698C068089006A8F7F7D5FAE01933
:10A1D0000E900A9858B197490968097C890706D4F6
:10A1E0000EACCDF8009094E80E00F8F7A9FDDDE97B
:10A1F0000E0102F085FD0446182E15DB002510E047
:10A200001098CDF80080CDE901040F980A992B1819
:10A21000DDE90D02FFF715FB1C986D1C80440898C2
:10A2200004444D45ECDBFBE0102E05D0082E42D057
:10A230001F98002877D0ACE0002036E00E980290FE
:10A2400009990F98DDF828A008440190DDF840B086
:10A25000464625465FEA0A0007D0DAF80800DDE93D
:10A26000012147685B465046B8470D993088096917
:10A27000496888472860BAF1000F06D0DAF808006C
:10A28000DDE9012103685046984702982D1D401CC6
:10A290000290ABF10100B61C5FEA000BE5D1089813
:10A2A0001C99044409988844401C0990484500E0E2
:10A2B000BCE0C3DBB4E0002065E01F9800280A98EA
:10A2C00032D00090DDE90EA10BEB010001901F9848
:10A2D00003905848109F454600682646007C10F0C1
:10A2E000030002D0022848D108E015F8011B0398AA
:10A2F0007F1E50F8210001C6F7D13EE0287858B102
:10A30000039951F820003060009828B180685146C8
:10A310000368DDE9000298476D1C361D0AF1010A49
:10A320007F1EEBD129E032E00490DDE90EA10BEBBA
:10A3300001000B903F48109F454600682646007C70
:10A3400010F0030002D0022817D105E03A4641463A
:10A350002046F5F76BFF10E0287840B13060049894
:10A3600028B1806851460B9A0368049898476D1C81
:10A37000361D0AF1010A7F1EEED108981C9904448B
:10A3800088440BF101008346484596DB48E02A48A3
:10A390001F90002542E0012E04D0022E1CD0042E76
:10A3A00037D128E023480068006EF7F79BF9014693
:10A3B00006901F9A1098CDE90414CDE90087CDE9E5
:10A3C00002020F980A992B18DDE90D02FFF728F811
:10A3D00006A8F7F7D1F91CE010991F98CDE900877E
:10A3E000CDE902100F9804942B18DDE90D020A99AB
:10A3F000FFF7B4F90DE010991F98CDE90087CDE97A
:10A4000002100F9804942B18DDE90D020A99FFF74A
:10A41000B9FB1C990898884404446D1C4D45BADB6F
:10A420000A98002802D00AA8F7F7A6F911B000F0A0
:10A4300005B800002C000020B405010830BCBDE8C0
:10A44000C08F70471CB56846FDF730FA684600F0CB
:10A4500003F81CBD7047000010B59CB00446684668
:10A46000F8F762FB09480068FBF79EFCB4F9063078
:10A47000B4F90420B4F90210B4F90000F7F7D2FCE3
:10A480006846F8F749FB1CB010BD0000B802002078
:10A49000704700002DE9FF4F89B01F46DDE91684A3
:10A4A0008946DDF864A0F7F792FD0790A0450FD12B
:10A4B0004046FBF779FCBAF1000F04D03B46494611
:10A4C0000B9A099892E03A4648460B9B09998DE011
:10A4D000A7EB0906761C012E00D0761E08F0FF00BF
:10A4E0000290C8F307200190C8F307400090E0B243
:10A4F0000590C4F307200490C4F307400390200E96
:10A5000006904FEA186B012540464C4659E000BFC3
:10A51000029B059AA4EB0901D21A4A4392FBF6F377
:10A52000029ADDF804C01A44D3B2049AA2EB0C02DA
:10A530004A4392FBF6FC019A624402F0FF0EDDF8FA
:10A5400000C0039A43EA0E23A2EB0C024A4392FB9B
:10A55000F6FC009A4C456244DDF818C0D2B2ACEB70
:10A560000B0C0CFB01FC9CFBF6FC0CEB0B0143EA17
:10A57000024242EA016822DD804501D16D1C1EE0E5
:10A58000FBF712FC012D0EDDBAF1000F04D0611BA8
:10A59000631E0B9A099803E0601B621E0B9B0999CE
:10A5A000FBF7AEF80AE00B9ABAF1000F02D0611E79
:10A5B000099801E00999601E189B984701254046BB
:10A5C000641CBC42A4DDFBF7EFFB3846012D10DD17
:10A5D000BAF1000F05D0411B3B46491C0B9A099864
:10A5E00004E0441B3A46601C0B9B0999FBF788F872
:10A5F00009E00B9ABAF1000F02D03946099800E041
:10A600000999189B984707980DB000F002B8FBF71E
:10A61000CBBB30BCBDE8C04FFFF7F9BF38B584688D
:10A620000092D4F8E840A04738BD08B5009200F089
:10A63000B7FA08BD08B5009200F00CFB08BD000099
:10A640002DE9F041134E9CB00125746B04B93469B7
:10A650006846F8F769FA10480068D0E90C875CB1E1
:10A660002046FEF76BF800B16D1E2046F7F79CF808
:10A6700044690CB1002DF3D140467463F8F780FAB9
:10A680003846F8F77BFA6846F8F746FA1CB0BDE89A
:10A69000F0810000E80000202C0000202DE9F04FA0
:10A6A0008DB0824616981C1E17460D4676DDF8F7CB
:10A6B00067FA661E07EB04082F1B0DF114090AEB5D
:10A6C00004051EE0A8EB0600039009AB0AAA314678
:10A6D000CDF80090204600F08EFE0A9809992B1ABA
:10A6E00007EB000B78186A1A00F1010A1846521E8F
:10A6F0000399FAF77BFF5A4650460399FAF776FF1B
:10A70000761E002EDEDC012C48DD1798F8F738FAAB
:10A71000A61E1EE0A8EB0600039009AB0AAA31466C
:10A72000CDF80090204600F066FE059809992A1A97
:10A730006B1A384407EB010B00F1010A1846521E50
:10A740000399FAF753FF5A4650460399FAF74EFF1A
:10A75000761E002EDEDC022C20DD1898F8F710FAA9
:10A76000E61E1BD005A80090A8EB060A09AB0AAAB2
:10A770003146204600F03FFE05986A1E2B1A07EB73
:10A78000000B07F1010951461846FAF72FFF5A4608
:10A7900051464846FAF72AFF761EE3D10DB000F085
:10A7A00000B830BCBDE8C08F70471CB56846FDF7E7
:10A7B0007DF8684600F002F81CBD704710B59CB0EB
:10A7C00004466846F8F7B0F909480068FBF7ECFA68
:10A7D000B4F90630B4F90420B4F90210B4F9000059
:10A7E000F7F720FB6846F8F797F91CB010BD00009A
:10A7F000B802002038B5846800930B46D4F8E840CE
:10A80000A04738BD2DE9FC47DFF8AC8081461E46E5
:10A81000D8F8000015468A46006EF6F763FF0190EF
:10A82000406908B1F6F75EFF00902946504602F0F5
:10A8300049FA04460198C768D8F80000017CC907A6
:10A8400015D0D9F810008068804787B2009820B1F1
:10A8500081682A460B685146984720886D1C7840CD
:10A8600020800198B542C0680444EFDD19E0C06B58
:10A870000168009870B11FFA81F800982A46816833
:10A880000B6851469847A4F800806D1C3C44B542C3
:10A89000F3DD06E0701B89B2401C21803C44401E61
:10A8A000FBD101A8F6F768FF0098002802D068469F
:10A8B000F6F762FF00F002B82C0000200CBCBDE8E7
:10A8C000F08700002DE9FC47284F1E4615463868E2
:10A8D0008946006EF6F706FF0190406908B1F6F769
:10A8E00001FF00902946484602F00AFA39680446FA
:10A8F0000198CA6B097CD0F80C801768C90715D07D
:10A9000000680069806880470746009820B1816828
:10A910002A460B684946984720686D1C784020609D
:10A920000198B542C0680444EFDD13E0009858B1C7
:10A9300000982A4681680B684946984727606D1C35
:10A940004444B542F4DD05E0701B401C27604444DC
:10A95000401EFBD101A8F6F70FFF0098002802D097
:10A960006846F6F709FF00F003B800002C0000204D
:10A970000CBCBDE8F0870170012070472DE9F0475D
:10A98000234C0427E06AD8B1206907EBD0014518B1
:10A99000E800FEF7E7F8060037D0616B07EBC6006A
:10A9A000B9460F5820690837C2003846D4F82C80C1
:10A9B000F5F73CFC6763E66249466A1E20690EE0D3
:10A9C0001348C030D0E901100830B1FBF0F5AD1CE0
:10A9D000DEE7666B431C01EBC007401CF35190425D
:10A9E000F7D3636B09EBC00000221A502069606244
:10A9F0006168281A084425616060B8F1000001D040
:10AA0000F6F7BAFD0020BDE8F0870120FBE7000063
:10AA10001C48002000BFFEE7F8B5184DA86BC8B170
:10AA20002C6913E02046F6F75DFE0090018D0904C5
:10AA300008D5264644696846F6F79EFE3046FCF780
:10AA400071FE03E044696846F6F796FE002CE9D1F2
:10AA50000020A863E86900B180470948006808B190
:10AA6000804738B90748006890F8540020B1F7F7DC
:10AA7000F1FF08B10120F8BD0020F8BDE80000207A
:10AA8000540000202C00002038B58468049D0095F7
:10AA9000D4F8E840A04738BD2DE9FF4F83B03D4FC3
:10AAA000039816468B4684683868DDF840809946DE
:10AAB000007CA3EB0B0AC20734D138E0D4F8C8708D
:10AAC000E56E3FB1CDE900654B46324659460398E5
:10AAD000B8470DE05F4608E0D4F8EC30324639461E
:10AAE0000398984725F8020B7F1C4F45F4DDE56E6F
:10AAF0000AF1010005E02988228D514025F8021B4A
:10AB0000401E0028F7D10096D4F8A8504B46324694
:10AB100059462046A8470AF101022046E16E01F09D
:10AB200049FD761C4645C9DD07B000F035B8A8EBF5
:10AB300006000AF10105401CCDF800804543D4F819
:10AB4000A8C04B4632462046E04738680127D4F873
:10AB500068A0C06B0088C0F3072900F0FF0816E06A
:10AB60002E46F92D00D9F92657B10AF10100002728
:10AB7000314603E000F8019B00F8018B491EF9D231
:10AB8000D4F8182171000AF101009047AD1B002D87
:10AB9000E6D1C9E72C00002030BCBDE8C08F000022
:10ABA0002DE9FF4FDFF8A0A00C4685B0DAF80000D1
:10ABB000DDF848801F46C16B154609680391006E99
:10ABC000F6F790FD01902946204602F07BF80646F4
:10ABD0000198391B01F1010BD0F80C90406950B37A
:10ABE000F6F780FDA8EB0501491C00915B462A465B
:10ABF00002902146F8F7A4F802A8F6F7BDFD1AE086
:10AC0000DAF80000007CC0070DD005985F46344696
:10AC100000698068804780B22188414024F8021B87
:10AC20007F1EF9D105E003985A4681B23046F9F704
:10AC300041F84E446D1C4545E2DD01A8F6F79CFD48
:10AC400009B000F003B800002C00002030BCBDE8C3
:10AC5000C08F00002DE9FE4F264E1F461446306877
:10AC60000D46DDF83090006EF6F73CFD0190214670
:10AC7000284602F045F8791B01F1010A3168804647
:10AC80000198C96BD0F80CB00E68406958B3F6F75C
:10AC900029FDA9EB0401491C00915346224602906C
:10ACA0002946F8F74DF802A8F6F766FD1BE01148B3
:10ACB0000068007CC0070CD00198574645460068E4
:10ACC0000069806880472968414002C57F1EFAD12B
:10ACD00007E0BAF1000004DD01464046491E40C0CD
:10ACE000FCD1D844641C4C45E1DD01A8F6F744FDD5
:10ACF00000F002B82C0000201EBCBDE8E08F000070
:10AD0000FEB54F4CD4E90201CDE90001206970B3D2
:10AD1000A089401C00B2ADF800006189ADF80210B6
:10AD2000B4F90410884207DD2088ADF80000E089FE
:10AD300010F10100ADF80200BDF90200B4F90610EF
:10AD4000884274DC3F4D2868806CF6F7CBFC02909B
:10AD5000BDF90000B4F90010884220D1E088ADF8B8
:10AD60000600A088ADF804002868806C0FE0FFE7BB
:10AD70002088ADF800006088DCE700BFF6F714FD1E
:10AD80000646006A0022694600F0D5F8B06900283E
:10AD9000F4D1029800226946C06900F0CCF8BDF8F1
:10ADA0000000ADF804002868806C0AE0F6F7FCFCAF
:10ADB0000646006A0022694600F046F80028EED1F7
:10ADC000B0690028F2D1029800226946C06900F0FB
:10ADD0003BF80028E3D1B4F90400BDF90010ADF848
:10ADE0000400884207DADDE90001C4E9020102A893
:10ADF000F6F7C2FC98E72868806C08E0F6F7D4FC08
:10AE00000546006A0022694600F05CF8A86900283F
:10AE1000F4D1029800226946C06900F053F802A8F4
:10AE2000F6F7AAFC206944F62061884201DD002083
:10AE3000FEBDDDE90001C4E902010120FEBD000004
:10AE4000584900202C000020FEB517460E46054646
:10AE5000002433E02846F6F745FC0090856A014659
:10AE6000A80726D527B13A4601A8F8F7BAFD03E0AE
:10AE7000D1E90001CDE9010101A93046F7F730FE23
:10AE8000B8B1E80702D00098C56910E0BDF8080025
:10AE9000401C308001240CE001AA31462846FFF70F
:10AEA000D3FF00B101242846F6F77EFC056A002D89
:10AEB000F2D10098056A6846F6F75EFC002DC9D10C
:10AEC0002046FEBDFEB516460D46044630E020463F
:10AED000F6F708FC0090846A0146A00723D526B146
:10AEE000324601A8F8F77DFD03E0D1E90001CDE984
:10AEF000010101A92846F7F7F3FDA0B1E00702D050
:10AF00000098C4690DE0BDF80400401EA8800AE066
:10AF100001AA29462046FFF7D5FF2046F6F744FC54
:10AF2000046A002CF4D10098046A6846F6F724FC01
:10AF3000002CCCD1FEBDFEB516460D4604464AE0B7
:10AF40002046F6F7CFFB0090846A0146A0073DD566
:10AF500026B1324601A8F8F744FD03E0D1E900012B
:10AF6000CDE9010101A92846F7F7BAFD10B3E007C2
:10AF700002D00098C46927E000983EB1B0F90210F1
:10AF8000B6F90200814203DD084601E0B0F9020093
:10AF9000B5F90210814207DABDF90600B5F90610CD
:10AFA000401E05E0E88011E0BDF90A00B5F9061081
:10AFB0008842F7DB0AE001AA29462046FFF7BBFFDB
:10AFC0002046F6F7F1FB046A002CF4D10098046ADD
:10AFD0006846F6F7D1FB002CB2D1FEBDF6F7CCBA2D
:10AFE00070B58AB00C460546F6F77CFB0990066DF5
:10AFF00009A8F6F7C1FB009534B1012C06D0022C4C
:10B000000AD0032C04D109E0182000E0162001909A
:10B010006846B0470AB070BD1520F8E71720F6E77C
:10B020000078704701207047002801D1FCF738BC38
:10B0300070478068012901D000207047406C70473C
:10B04000012901D0002070470048704708FC000823
:10B05000012901D00020704700487047F40501081D
:10B060000D291CD008DC012914D00A290CD00B2989
:10B070000CD00C2906D10BE016291AD0172913D0B1
:10B08000182918D0002070470C4870470C487047AA
:10B090000C48704700688068D0F8FC007047006872
:10B0A0008068D0F8F400704700688068D0F8F80035
:10B0B00070470548704705487047000095B1000883
:10B0C00081B10008F1B0000889C0000841B1000852
:10B0D000162901D00020704700487047A3280008B7
:10B0E000162901D00020704700487047DD2600086F
:10B0F00070B50546F6F732F84FF4FA70AC68F6F71B
:10B100006BFAA066A16B2068C91DC9104843F6F709
:10B1100063FAE06600220121A869FAF713FF0546E9
:10B12000D4F8081120468847D4F8B0102046884744
:10B13000002D01DD012070BD002070BD70470000B2
:10B14000F8B50D4DDDE906678468286867B1002809
:10B1500009D10096D4F8A8602046B04754F8A80F4B
:10B16000286006482060F8BD0028FCD0C4F8A8007C
:10B1700000202860F8BD0000780000203DB10008E4
:10B1800070B515460C460646F5F7E8FFB068C0E90D
:10B19000004570BD70B515460C460646F5F7DEFF56
:10B1A000B068C0E9024570BD80680F292CD2DFE885
:10B1B00001F02B080A0C0E2B2B2B10121414161D49
:10B1C0002400006870474068704780687047C06816
:10B1D0007047806B7047002070470120704700283F
:10B1E000FCD090F8340000F0010070470028FCD03B
:10B1F00090F83400C0F3400070470028FCD090F86D
:10B200003400C0F3800070474FF0FF30704770B5D6
:10B2100000240D46022807DAF6F774FC20B1C16855
:10B220008A6A294690470446204670BD006810B1DE
:10B23000C268926A10474FF0FF307047082901D06A
:10B240000020704720207047F8B50E460025F6F71D
:10B2500049FA0090C4696846F6F78EFA10E0204675
:10B26000FCF766FBB04201D12046F8BD31462046CE
:10B27000FFF7EAFF050005D12046F6F795FA046AC4
:10B28000002CECD12846F8BD10B5FAF779FAB0F5E4
:10B29000807F03D0802803D307211AE0082118E01B
:10B2A000402801D3062114E0202801D3052110E015
:10B2B000102801D304210CE0082801D3032108E061
:10B2C000042801D3022104E0022801D3012100E077
:10B2D000002101208840401E10BD4FF0FF30704714
:10B2E0004FF6FF70704770B50024064601253146C1
:10B2F0002846FFF78CFF844200DA04466D1EF6D51F
:10B30000204670BD0146054A0F2000BF02EBC00376
:10B310001B6C8B4201D9401EF8D570471C48002099
:10B3200070B505460C0004D00846F6F73DFA006AF1
:10B3300018B92846F6F738FAC069A04200D10020B3
:10B3400070BD8368D3F8EC30184710B50846114635
:10B3500001F0B8FC008810BD10B50846114601F098
:10B36000CFFC006810BD10B5040002D0FCF7E4FF6C
:10B3700010B92046FCF7B4FFA04200D1002010BD58
:10B38000806800220A804A800288521E8A80808853
:10B39000401EC880704738B50C468068F6F7A2F9A1
:10B3A000009081882180C188618081880289114450
:10B3B000491EA180C18840890844401EE08068463B
:10B3C000F6F7DAF938BD38B50C468068F6F78AF931
:10B3D000009081882180C188618081880289114420
:10B3E000491EA180C18840890844401EE08068460B
:10B3F000F6F7C2F938BD2DE9F0470D460446461E62
:10B4000001FB05F7604399469246C01BDDF820809A
:10B41000F8F76EFCCAF800004FF0000AB54210DAE7
:10B420007643F01BF8F764FCA41EC9F80000A5429F
:10B4300004DA401EC8F80000BDE8F087C8F800A094
:10B44000FAE75046C9F800A0F4E70000024909688D
:10B4500048840020704700002C0000200249096841
:10B4600088840020704700002C000020054A90428C
:10B4700001D1503A01E000F1080209B18A4200D03E
:10B4800010467047C04900200021FFF7EFBF0000C1
:10B49000F0B4124C646814B1A446F0BC6047541E6A
:10B4A00004FB030401EB82000D4DDFF838C0001FE0
:10B4B0002188E41A01F01F06521EAF5DC1F3451644
:10B4C00005EBD1211CF80660097801EB062101EBA0
:10B4D000074140F80419EBD1F0BC70477000002020
:10B4E000D8F00008F8F0000810B50468184410C13E
:10B4F000521EFAD110BD70B50446FAF741F905465F
:10B50000FAF756F9AC4201D3002070BD0028FCD0F8
:10B5100050F8240070BD000070B5184D0446E8686E
:10B52000011DC0E90E010064091D6161417C05F146
:10B53000240050F82100C1680A6B04F1080190470B
:10B540000F486066A868E061E86808306061012023
:10B550002076FCF7C7F9A064032084F868006FF038
:10B560007040206360630020FAF7E6FB6FF07F40D5
:10B57000FAF71AFC0348286170BD00002000002083
:10B58000A8D0000840F3000870B5264C94F82800B5
:10B59000002846D1012604F1C00584F828606968B6
:10B5A0004FF42050814200D90146286800F060FF26
:10B5B000A86810B968688008A8601C491A48086023
:10B5C0000846F8F713FB5A20206200205FF01001B4
:10B5D00001FA00F204EBC003401C1A641028F7D3F0
:10B5E000D5E9001288181438C4E90D01022300209F
:10B5F0000421C4E9032305E0636B421C01EBC00591
:10B60000401C5A512269521E8242F5D86662206956
:10B61000401E6060A16BE068FDF75CFAFFF7AEF9D1
:10B62000266370BD1C480020E9B700081800002000
:10B63000FEB514460D460646F6F7B6F80090836A46
:10B64000980731D52846FDF74BF900282CD040F655
:10B6500001000340012B27D03046F6F743F802469D
:10B660000090294601A8F8F7BCF901A8FDF738F9C0
:10B67000B8B1009944F22002886A104205D008311E
:10B6800001AA0846F7F7AAF90BE0DDE901232043F8
:10B690008862C1E9022305498888401C8880F7F741
:10B6A000C3FA6846F6F768F8FEBD0000E80000201F
:10B6B0000846704710467047084670471046704766
:10B6C0000068401A401E70474068801A401E70474C
:10B6D0000068401A401E70474068801A401E70473C
:10B6E00010467047084670474068801A401E7047F1
:10B6F0000068401A401E7047104670470846704761
:10B700004068801A401E70470068401A401E70470B
:10B710007047884200DD084670472DE9F0478AB03F
:10B720000446002091468A4601900290039006AE9E
:10B730004FF00308049022E02046F5F7D3FF4A4675
:10B7400051460090F7F776F900984A46514608307E
:10B75000F7F770F90098D0E907576846F6F70CF844
:10B760004A4651462846FFF7D8FFCDF80480CDE978
:10B7700006A901A920460496FDF702F93C46002CD3
:10B78000DAD10AB0BDE8F08738B5CC680546002CA0
:10B7900028D029466068FCF75AFF78B10121284675
:10B7A00000F00FFC29466068FCF740FF002819D024
:10B7B0002846F5F797FF009061680EE000212846C3
:10B7C00000F0FFFB29462068FCF730FF002809D075
:10B7D0002846F5F787FF00902168C0F8801068467A
:10B7E000F5F7CAFF38BD00000B4910B5002081F8FD
:10B7F00028000146084880224030F8F735FAC02278
:10B8000000210548F8F730FA03480C220021BDE872
:10B810001040C030F8F728BA1C480020084910B57D
:10B8200000208861014670220648F8F71DFA044896
:10B8300008220021BDE810402430F8F715BA0000B6
:10B8400020000020E84800200B4A10B5002151706C
:10B850009163084602F15C0402F15403C2F814102B
:10B8600044F8201043F82010401C0228F8D35162FD
:10B8700091629161116210BDE800002010B5034C87
:10B880006068F5F795FE0020606010BDAC010020F7
:10B8900010B5084CA068F5F78BFEE068F5F788FE58
:10B8A0002069F5F785FE00202061E060A0606061FE
:10B8B000A06110BD78020020F8B50E460746CD689D
:10B8C000F5F710FF0090B0F87C406846F5F754FF9C
:10B8D000F068002817D0287AB0B1200702D4384683
:10B8E000FCF72EFB3846FBF734FEE0060BD5E005EF
:10B8F00009D50023200606D40A482946B0F90020BD
:10B900003846FCF7BBFAF8BD3846F5F7EBFE009079
:10B9100030F87C1F21F4807101806846F5F72CFF18
:10B92000F8BD00009C0000202DE9F14F98B0189858
:10B93000F5F7D8FE0C90416B1291C16D066D8D68C4
:10B94000F5F75AF907460C98B0F958B00CA8F5F776
:10B9500013FF1898FCF71FF80B901898FCF72CF8B9
:10B9600004462A6801211898904780462A680321D6
:10B97000189890470E902A680021189890470990CF
:10B980002A680221189890470546189800900020D0
:10B99000FCF7FEFC002848D00B980B99A0F1010998
:10B9A0000998A4F1010A074407EB0B00A0F1010B71
:10B9B0000E98651B0C1A781E169006A904A8641E22
:10B9C000CDE90A016D1E0020059004900B20019026
:10B9D000CDE9069A6846B047CDE9064BCDE9048724
:10B9E000AB4500DB07950E2001906846B047CDF8C7
:10B9F00010800998CDE9050416980790052001905C
:10BA00006846B047DDE90A121898F5F727F90220D1
:10BA1000F7F700F91298F7F7BDF812200190684681
:10BA2000B047FCF769FC0028CDD119B000F000B890
:10BA300030BCBDE8C08FF0B595B00646F5F752FEB4
:10BA40000C9090F86810C76C01F00101056E0E9122
:10BA5000416BFAF7B1FE04460CA8F5F78DFE0EA86F
:10BA60000B9069463046FBF72FFF0B20CDE90360B2
:10BA7000BDF900000790BDF902000890BDF904006F
:10BA80000990BDF906000A9003A8A847DDE9000166
:10BA9000CDE9130113A901220846F8F79AF813A873
:10BAA000FCF704FB0520CDE903600E980028BDF9E2
:10BAB0000000079008D0BDF902000890BDF90410FD
:10BAC0002044CDE9091007E0BDF902102044CDE97A
:10BAD0000810BDF906000A9000200F9003A8A8479F
:10BAE0000E980028BDF9000005D00790BDF90200AE
:10BAF000641C204404E0641C20440790BDF902004B
:10BB00000890BDF904000990BDF906000A900120D3
:10BB10000F9003A8A8473046F5F7E4FD0C90FAF71C
:10BB200009FE0D90F8B13846F7F734F8DDE90C025C
:10BB30006946FAF702FE0CA8F5F71EFE0D98109064
:10BB40001220CDE90360BDF900000790BDF90200A5
:10BB50000890BDF904000990BDF906000A9003A8F9
:10BB6000A8470DA800E00CA8F5F706FE0020FCF79A
:10BB70009DFA15B0F0BD000010B50446F5F714FEAF
:10BB8000806AC00301D5034900E003492046BDE8AF
:10BB9000104008478D240008DD8700082DE9FC418E
:10BBA0001F4C80462068806CF5F79CFD0090404655
:10BBB000F5F798FD0146019000980830F6F790FFE0
:10BBC00028B32068DDE90021D0E9135601F108000F
:10BBD0000832F7F706FF6846F5F7CEFD114FC7F8B4
:10BBE000288001992068B1F90020C264B1F90210DF
:10BBF000016501A8F5F7C0FD4046FFF7BDFF002035
:10BC0000B8622068C0E913560120BDE8FC8168468F
:10BC1000F5F7B2FD01A8F5F7AFFD0020F5E700004C
:10BC20002C000020E80000202DE9FC410546F5F736
:10BC300059FD009090F8281089073DD5C46939E076
:10BC40002046F5F74FFD019090F82810C943890769
:10BC50002BD100990831F6F743FF30B30098D0E9B3
:10BC600002676846F5F788FD01A8F5F785FD2046CF
:10BC7000FFF794FF70B12046F5F796FD019020463E
:10BC8000FFF7D2FF2046F5F78FFD01902846F5F724
:10BC90008BFD00902846F5F725FD00902046F5F72E
:10BCA00021FD01900098C0E902670198046A01A88B
:10BCB000F5F762FD002CC3D16846F5F75DFDBDE8E0
:10BCC000FC81000010B50E4C6168206B814209D8E0
:10BCD000401E2063FEF752FE216B491C216308B110
:10BCE000002010BD60680422401E6060606A616BC5
:10BCF00002EBC0028A586262012201F8302010BDB6
:10BD00001C480020084910B54A680424521C4A60A7
:10BD10004B6B04EBC0044A6A1A514B6B002203F8C8
:10BD20003020486210BD00001C480020D0F8B81038
:10BD30000847016CD0F8D420896908461047016C87
:10BD4000D0F8D8208969084610471FB50446D0F8B6
:10BD50002C112E208847216AD4F848216846891C76
:10BD60009047206A694601EB4000FDF719F904B0DD
:10BD700010BD1CB50446D0F80C112E208847216A4E
:10BD8000D4F828216846C91C9047206A69460844AF
:10BD9000FDF714F91CBDF8B55D1ADDE90667B41AA4
:10BDA000641C6D1C6543846800962046D4F8A86026
:10BDB000B047206CD4F8DC302A46806901B039469F
:10BDC000BDE8F0401847F8B55D1ADDE90667B41A1A
:10BDD000641C6D1C6543846800962046D4F8A860F6
:10BDE000B047206CD4F8E0302A46806901B039466B
:10BDF000BDE8F0401847F0B585B08468DDE90A7603
:10BE0000B81A5D1A401C6D1C00974543D4F8A87001
:10BE10002046B847D4F82C112E208847D4F8482162
:10BE200001A8216A9047D4F84821022101A890472F
:10BE300001A8FDF7B5F826F8020B6D1EF3D105B089
:10BE4000F0BDFEB58468DDE90876B81A5D1A401CBD
:10BE50006D1C00974543D4F8A8702046B847D4F825
:10BE60000C112E208847D4F8282101A8216A904778
:10BE7000D4F82821032101A8904701A8FDF79EF8D6
:10BE800026F8020B6D1EF3D1FEBD000010B504466E
:10BE90004068FFF737FA10280DD2084963680A682E
:10BEA000D21A0A6001EBC002D4E90201443200B1A7
:10BEB000416009B1086010BD106010BD1C48002031
:10BEC0007CB5050025D0144C2068A84206D1F5F7B2
:10BED00009FC009080682060684611E00446204616
:10BEE000F5F700FC01908068A8420DD1F5F7FAFB48
:10BEF00001990090806888606846F5F73DFC01A8CC
:10BF0000F5F73AFC00207CBD044601A8F5F734FCA7
:10BF1000E5E701207CBD0000A40200202DE9F05FD0
:10BF2000DFF894808346D8F83840D8F80C10601EAB
:10BF30000F182046D0E90015B9BB6619BE4236D2AB
:10BF4000D6E9001989B3D8F8343013F83130012B11
:10BF50002DD1D8F82C20914201D1012100E00021FF
:10BF60008A46FFF793FF3068D8F83410042202EBBA
:10BF7000C0004A460C5031462046F4F757F9BAF152
:10BF8000000F05D0D8F83410321B891AC8F83410C5
:10BF900004EB09012846FCF79DFDBBF1000F05D01D
:10BFA000834503D8002000F009B800E04D462C443A
:10BFB000BC42BED30120F6E71C48002030BCBDE8DF
:10BFC000C09F38B50C460546F5F78CFB0090B0F8DD
:10BFD0007C104FEA017224B1002A0BDB41F008010A
:10BFE00003E0002A06DA21F00801A0F87C102846B8
:10BFF000FBF7C1FD6846F5F7BFFB38BD064910B534
:10C0000009684A6B824206D04863F9F7DBF9BDE85C
:10C010001040F9F797BE10BD2C0000201FB5044654
:10C020000F480168486C38B102680292406803907A
:10C030000C48806A18B901E020460EE0886CF5F7DC
:10C0400051FB02A90090FCF793F86846F5F794FBC2
:10C05000214602A8F7F7A8FC02A8F9F77FFE1FBD4A
:10C060002C000020E8000020064910B509680A6B82
:10C07000824206D00863F9F7A5F9BDE81040F9F748
:10C0800099BE10BD2C00002070B514460D46064622
:10C09000F5F764F8B068002810D0262D0FD0272DB2
:10C0A0000CD1826B0021102A1CD0122A06D114B1A7
:10C0B0001149C0F8E04040F8CC1F416070BD816B71
:10C0C000102907D01229F9D10C49C0F8D84040F8FE
:10C0D000BC1FF2E70A49C0F8B810C0F8D440C0F855
:10C0E000B41070BD14B10749C0F8DC40C0F8C810E6
:10C0F000C0F8C41070BD0000C7BD00083FBD0008F7
:10C1000033BD000897BD000830B509490B681A7C9B
:10C1100082EA0004640707D59C6BDB6B25681B680B
:10C1200023600B68DB6B1D6009680874104630BD26
:10C130002C00002070B50646FCF7BEF801463046DC
:10C14000FFF7EEF805462C4606E021463046FFF79D
:10C15000E7F80446A84202D0FBF753FD88B194B13A
:10C160000B4D20462E68FCF7F9F8401C0DD02046F8
:10C17000FCF7F4F828602046FBF7E2FE2E6020B1C1
:10C1800001E0002CE1D1002070BD204670BD000010
:10C19000F4000020082907D0102904D1054940F8EF
:10C1A0008C1F054941607047044940F88C1F0449C1
:10C1B000F8E7000021C40008FFC5000829C40008F2
:10C1C00007C600081CB5CDE9001280696A46032144
:10C1D000F9F7B8FE1CBD0068002802D0C3681B6ACE
:10C1E000184770470068C3681B6A18471CB50BA145
:10C1F0000446D1E90001CDE90001D4F88C203621B4
:10C2000020469047A08CD4F8902020F0E001606B8D
:10C210001DF800000143204690471CBD004080C02F
:10C220002060A0E070B515460E46D0F88C2004467C
:10C230002A219047E06AD4F890203044C0F30F21BF
:10C240002046904794F82C00D4F890203044C1B296
:10C2500020469047E06AD4F890203044C0F30F2184
:10C260002046904794F82C00D4F890203044C1B276
:10C2700020469047D4F88C202B2120469047206BF5
:10C28000D4F890202844C0F30F212046904794F81A
:10C290003000D4F890202844C1B220469047206B4B
:10C2A000D4F890202844C0F30F212046904794F8FA
:10C2B0003000D4F890202844C1B220469047204650
:10C2C000D4F88C20BDE870402C21104730B484682D
:10C2D000D4F8F040A44630BC604700007CB510485C
:10C2E0001C46154600680E46006EF5F7FBF90190F6
:10C2F0002946304600F0E6FC04800198406950B1C0
:10C30000F5F7F0F9009081682A460B6831469847A6
:10C310006846F5F731FA01A8F5F72EFA7CBD000062
:10C320002C0000207CB510481E46144600680D46BF
:10C33000006EF5F7D7F901902146284600F0E0FCA1
:10C3400006600198406950B1F5F7CCF9009081681A
:10C3500022460B68294698476846F5F70DFA01A86A
:10C36000F5F70AFA7CBD00002C0000202DE9F04111
:10C3700016460F46D0F88C201D460446DDF818807E
:10C380002A219047E06AD4F890203844C0F30F2166
:10C390002046904794F82C00D4F890203844C1B23D
:10C3A00020469047E06AD4F890202844C0F30F213B
:10C3B0002046904794F82C00D4F890202844C1B22D
:10C3C00020469047D4F88C202B2120469047206BA4
:10C3D000D4F890203044C0F30F212046904794F8C1
:10C3E0003000D4F890203044C1B220469047216BF1
:10C3F000D4F8902001EB0800C0F30F2120469047AD
:10C4000094F83010D4F8902001EB0800C1B2204617
:10C4100090472046D4F88C20BDE8F0412C211047ED
:10C42000D0F82C210846104770B505460C46080A7E
:10C43000D5F80C118847E0B2D5F80C11BDE8704072
:10C44000084708B542630091416C806C521A64231E
:10C45000401A5A4392FBF0F06946F5F7B1F900989B
:10C46000252100F8011B00210090017008BD00008B
:10C47000F0B58E080023FF220546002406E0E718E9
:10C48000B7FBF2FC02FB1C7780C5641CB442F6D3F8
:10C49000054600240BE004EB030CBCFBF2FE80CD50
:10C4A00002FB1ECCBC4501D00320F0BD641CB4428D
:10C4B000F1D35B1C022BDFD34E080023054600247A
:10C4C00007E0E718B7FBF2FC02FB1C7725F8027BBC
:10C4D000641CB442F5D3054600240CE004EB030CC5
:10C4E000BCFBF2FE35F8027B02FB1ECCBC4501D042
:10C4F0000220F0BD641CB442F0D35B1C022BDDD3E0
:10C5000000230546002407E0E618B6FBF2F702FB1D
:10C51000176605F8016B641C8C42F5D305460024B0
:10C520000CE000BFE718B7FBF2FC15F8016B02FB4B
:10C530001C77B74201D00120F0BD641C8C42F1D3BE
:10C540005B1C022BDDD30022134602E000F8013B06
:10C55000521C8A42FAD30020F0BD00007CB50500D1
:10C5600020D0F5F7BFF8104900904C68AC4214D1C8
:10C570004068486013E02046F5F7B4F8019044683D
:10C58000AC4207D1009801994068486001A8F5F7CE
:10C59000F3F804E001A8F5F7EFF8002CEBD16846BA
:10C5A000F5F7EAF87CBD0000A402002089B200F093
:10C5B00080BB000070B515460E4604460020A36EF1
:10C5C0000AE000BF36F8021B401C0A0A03F8012BE0
:10C5D000FA2803F8011B0AD06D1EF3D200280DD0F3
:10C5E0004100D4F81821A06EBDE870401047D4F87F
:10C5F00018214FF4FA71A06E9047DFE770BDD0F8B4
:10C600003021084610470246C8B2D2F81011084738
:10C61000006180E80E00104440F8042C70470000D0
:10C620002DE9F74FCC489EB09246D0E90010CDE9F5
:10C630001B101E98F5F756F81390D0E90445B0F991
:10C640000810D0F80C800E91B0F90A10159100680E
:10C65000C24E0069406817903068407CF5F790FC46
:10C6600011903068407CF5F7F5FC814613A8F5F78A
:10C6700083F8082C01D8012004E0102C01D80220F6
:10C6800000E004208346012C1BD000271798484562
:10C6900075D03068407CF5F7D5FC18900E98800076
:10C6A000F4F74AFF199000286AD01E98F5F7CDFEDE
:10C6B0008146002D79D02846F5F714F800261A9007
:10C6C0009AE01BAFE2E7002009901A983246816891
:10C6D0004B6909A998470E990546884227D11998B0
:10C6E000F5F700F81690DDE91712CDE900120146C2
:10C6F000119B082C2A46484602D9FCF739FB01E079
:10C70000FCF75DFB03AB0020169A119983E88500C6
:10C7100001200090CDE9010103460AEB06010E9AC3
:10C720001F98F8F75DFE16A8F5F726F862E0012CD1
:10C7300022D05DE00998C21700EB527309EBE302C7
:10C7400000F007010492CDE90571012101AB0091D0
:10C7500083E812011F9A0AEB0601104401232A46BE
:10C76000F9F702FC09983246284409901A98816822
:10C770004B6909A998470546002DDBD13AE055E001
:10C7800051E01998F4F7AEFF1690099A844602FB1F
:10C790000B90DDE91712CDE90012119B082C2A46F7
:10C7A000614603D9FCF7E4FA02E02DE0FCF707FB51
:10C7B00003AB0020169A119983E8850001200090B0
:10C7C000CDE90101099A1F980AEB060110440123E3
:10C7D0002A46F8F705FE16A8F4F7CEFF0998324668
:10C7E000284409901A9881684B6909A99847054619
:10C7F000002DC6D1C144761C15988642FFF663AF62
:10C800001AA8F4F7B9FF0BE0012001A905970090E1
:10C8100081E811035146159B0E9A1F98F8F7E0FD29
:10C820001998F4F7A9FE21B000F09AB81E98F5F710
:10C830000CFE8146002D7DD02846F4F753FF0025DD
:10C840001A9073E0002009901A982A4681684B6973
:10C8500009A998470E99064688421DD1119500E016
:10C860006D1C1A986A1C81684B6909A99847B042E7
:10C87000F6D0012001A90597009081E811031198D5
:10C880000E9A2E1A0AEB0001731C1F98F8F7A8FDE8
:10C89000761C06FB089047E0012C22D040E0099866
:10C8A000C11700EB517309EBE301CDE9041700F068
:10C8B0000702012101AB0692009183E812011F9A41
:10C8C0000AEB0501104401233246F9F74DFB0998A4
:10C8D0002A46304409901A9881684B6909A99847FB
:10C8E0000646002EDBD11DE0099A01AB02FB0B903E
:10C8F000CDE904070120009083E811011F980AEB9D
:10C900000501104401233246F8F76AFD09982A46CA
:10C91000304409901A9881684B6909A998470646DE
:10C92000002EE1D109EB080081466D1C1598854267
:10C9300088DB00E003E01AA8F4F71EFF73E701208C
:10C9400001A90597009081E811035146159B0E9AA5
:10C950001F98F8F745FD66E7400601082C00002007
:10C9600030BCBDE8C08F00002DE9FF4F97B01C46DA
:10C9700015461798F4F7B6FE0F90B0F908A0B0F975
:10C980000A90C168019100F1180100910068D0F887
:10C9900010B00FA8F4F7F0FEDBF804001190C148C6
:10C9A000C1490068407C51F820100F69D7F8008019
:10C9B000F5F7E6FA082801D8012604E0102801D886
:10C9C000022600E00426BB4512D1DDE90002002169
:10C9D000CDE904010120CDE90242009001904B46CF
:10C9E000524629461898F8F7FBFC1BB000F05EB9D8
:10C9F000202C2ED0102CF8D116FB0AF0F4F79CFD59
:10CA000014900028F1D0F4F76DFE13901798F4F706
:10CA100069FE0F90396900F11804002972D0DBF823
:10CA200014100029FAD0B0F908008000F4F784FD52
:10CA30000C90002867D0F4F755FE0A90002848D0E3
:10CA40004FEAC608012E7DD0022E7CD0042E7BD169
:10CA5000D0E016FB0AF0F4F76FFD14900028C4D064
:10CA6000F4F740FE13901798F4F73CFE00F1180419
:10CA70000F90386998B34FF0010B4FEAC608012EAA
:10CA800004D0022E07D0042E0ED123E013990123E7
:10CA9000D7F810C003E01399D7F810C0022352460C
:10CAA0002046E04704EB8A04139A0020CDE90302F4
:10CAB000CDF800B00590CDE901B829466D1C0123E1
:10CAC00052461898F8F78CFCA9F101005FEA0009BA
:10CAD000D5D146E013990423D7F810C0DFE7FFE76C
:10CAE0005746012E04D0022E0ED0042E1FD115E081
:10CAF000DDF84CB001CC414688470BF8010B7F1E96
:10CB0000F8D114E086E036E0DDF84CB001CC4146C7
:10CB100088472BF8020B7F1EF8D108E0DDF84CB0F7
:10CB200001CC414688474BF8040B7F1EF8D100200A
:10CB3000F100139ACDE90210CDE904200120009004
:10CB4000294602E01AE026E037E0034601906D1C1A
:10CB500052461898F8F744FCA9F101005FEA000971
:10CB6000BED10FA8F4F708FE13A8F4F705FE149839
:10CB7000F4F702FD39E700200A90F2E713980190DC
:10CB8000DBF814C00223524620460A99E0470123ED
:10CB9000D7F810C00BE013980190DBF814C0022303
:10CBA000524620460A99E047D7F810C00223524661
:10CBB00001990A98E04704EB4A04139A0020CDE952
:10CBC0000302059001200090CDE9010829460346A3
:10CBD0006D1C52461898F8F703FCA9F101005FEAB2
:10CBE00000097FF42FAF0AA8F4F7C6FD0C98F4F7FC
:10CBF000C3FCB6E713980990DBF814C00223524631
:10CC000020460A99E047DDE9091004235246D7F887
:10CC100010C0CFE75746012E04D0022E0FD0042EAD
:10CC200028D11AE0DDF84CB0119934F8020B88478E
:10CC3000414688470BF8010B7F1EF5D11AE0DDF85D
:10CC40004CB000BF119934F8020B88474146884721
:10CC50002BF8020B7F1EF5D10CE0DDF84CB000BFC5
:10CC6000119934F8020B8847414688474BF8040B6A
:10CC70007F1EF5D10020F100139ACDE90210CDE915
:10CC80000420012000902946034601906D1C524665
:10CC90001898F8F7A5FBA9F101005FEA0009B9D1DE
:10CCA0005FE700002C0000204400002030BCBDE8FD
:10CCB000C08F0A0A00F8712F4170D0F8A720022116
:10CCC0001047000038B505460C480C460068006E59
:10CCD000F4F708FD0090B0F90620C36800F11801D0
:10CCE000A21A02FB0311B0F9040001EB4501A1EB0C
:10CCF00040046846F4F740FD204638BD2C00002073
:10CD000038B505460C480C460068006EF4F7EAFC9E
:10CD10000090B0F90620C36800F11801A21A02FBC6
:10CD20000311B0F9040001EB8501A1EB8004684612
:10CD3000F4F722FD204638BD2C000020F8B515463A
:10CD40000E4604468768FEF7FCFA0090BB6A01B005
:10CD500043402A4631462046BDE8F040FFF7B6BAC8
:10CD6000FEB50746124815460E460068006EF4F7F9
:10CD7000B9FC019029463046FFF7A4FF0446386904
:10CD8000806880472188414021800198406950B1E6
:10CD9000F4F7A8FC009081682A460B683146984752
:10CDA0006846F4F7E9FC01A8F4F7E6FCFEBD0000D4
:10CDB0002C000020FEB5144815460E460068006E93
:10CDC000F4F790FC019029463046FFF799FF04469E
:10CDD00001980068006980688047014620684840E3
:10CDE00020600198406950B1F4F77CFC00908168A4
:10CDF0002A460B68314698476846F4F7BDFC01A8FF
:10CE0000F4F7BAFCFEBD00002C00002002E008C8C8
:10CE1000121F08C1002AFAD170477047002001E0B4
:10CE200001C1121F002AFBD17047000010B5044653
:10CE300000680E2802D00F2817D108E0E06841688A
:10CE4000012917D10068BDE81040F5F7F5BE60680C
:10CE5000FCF7C8F8084951F820006FF0704188428B
:10CE600003D0F5F78BFEF4F723FD2046BDE8104014
:10CE7000FAF724BC10BD00003401002010B50446B0
:10CE800020681D2824D115496068086020211348B6
:10CE90000068F3F70BFE12A110480068F3F7E7FDF6
:10CEA00016490E480068F3F7B2FD40F601016068CC
:10CEB000FAF724FD09490860114908480068F9F7A4
:10CEC00071FB6422002105480068F9F77AFB03E052
:10CED0002046FAF7F3FB00BF00BF10BD0C00002096
:10CEE0005354656D57494E404265617250692053F5
:10CEF000544D33324C34333100000000B8E20008A6
:10CF0000B4F00008FAF737BEF8B50F4C07462068B2
:10CF1000806CF4F7E7FB00902268D0E90256D2E972
:10CF20000212C0E902126846F4F726FC3868FBF7E3
:10CF30009BFC2068806CF4F7D5FB0090C0E902569A
:10CF40006846F4F719FCF8BD2C000020F8B5F8F796
:10CF50001DFFF8F7A1FD04003BD100252846F4F79A
:10CF6000D1FD009048B1C0680C21426A68469047E4
:10CF7000010007D00098884704436D1C022DEDDBAB
:10CF800014B126E00120F8BDF8F7A0FD012543F615
:10CF9000FF762846F4F7B6FD0090C0B12846F5F7B5
:10CFA000D5FD0420F8F718FF002132463346084625
:10CFB000F8F7A6FB0020F8F70FFF00980E21C068D5
:10CFC000426A68469047010001D0009888476D1E6C
:10CFD000DFD52046F8BD000008B5F6F7CDFFF9F71C
:10CFE0001DFEF9F7FFF8F9F753F9F9F783F900BFD8
:10CFF0000C48806C40F480500A4988640846806C74
:10D0000000F48050009000BF00BFF5F735F8012014
:10D01000FAF712FEF9F798F902E03220F4F784FDEE
:10D02000FBE70000001002400000000000000000CC
:10D0300001020304060708090000000001020304BE
:10D04000A0860100400D0300801A060000350C0088
:10D0500040420F0080841E0000093D0000127A004B
:10D060000024F40000366E010048E801006CDC0288
:10D07000430500086C060108000800000000F000ED
:10D08000F000000000000000000000002364000821
:10D090006406010801080F004600CB0039000000BB
:10D0A0000000000000000000ED5500084556000893
:10D0B000458D0008A9580008E1B2000801000000F1
:10D0C000918C000891B4000800000000D19D000878
:10D0D0001DA60008F5A7000889AA000843B30008A8
:10D0E000CDC200083DCD0008C5C1000861B00008F0
:10D0F000A9B1000833B0000881B30008B1B6000838
:10D10000C1B60008B9B60008D1B60008B5B6000827
:10D11000C9B60008BDB60008D9B60008E1B60008D7
:10D12000F9B60008E9B6000801B70008E5B600083E
:10D13000FDB60008F1B6000809B7000800000000BD
:10D140000000000020202020200020004848480047
:10D15000000000005050F850F85050002078A070A7
:10D1600028F02000C0C81020409818006090A0400F
:10D17000A89068006020400000000000102040409F
:10D18000402010004020101010204000005020F8D7
:10D1900020500000002020F82020000000000000A7
:10D1A00000602040000000F80000000000000000C7
:10D1B000006060000008102040800000708898A87F
:10D1C000C8887000206020202020700070880830FF
:10D1D0004080F80070880830088870001030509047
:10D1E000F8101000F880F00808887000304080F0D7
:10D1F00088887000F80810204040400070888870CF
:10D20000888870007088887808106000006060006E
:10D2100060600000000060600060204010204080DE
:10D22000402010000000F800F800000080402010AE
:10D230002040800070880810200020007088086856
:10D24000A8A87000708888F888888800F08888F01E
:10D250008888F0007088808080887000E0908888DE
:10D260008890E000F88080F08080F800F88080F0FE
:10D27000808080007088808098887800888888F80E
:10D28000888888007020202020207000381010101E
:10D29000109060008890A0C0A0908800808080805E
:10D2A0008080F80088D8A8A8888888008888C8A8BE
:10D2B000988888007088888888887000F08888F04E
:10D2C0008080800070888888A8906800F08888F046
:10D2D000A09088007088807008887000F820202056
:10D2E000202020008888888888887000888888881E
:10D2F00088502000888888A8A8A8500088885020D6
:10D30000508888008888885020202000F808102045
:10D310004080F80070404040404070000080402055
:10D3200010080000701010101010700020508800BD
:10D330000000000000000000000000F84020100085
:10D340000000000000007008788878008080B0C875
:10D350008888F00000007080808870000808689855
:10D360008888780000007088F8807000304840E0BD
:10D370004040400000007888887808708080B0C8FD
:10D380008888880020006020202070001000301065
:10D3900010109060808090A0C0A09000602020209D
:10D3A000202070000000D0A8888888000000B0C845
:10D3B0008888880000007088888870000000F088E5
:10D3C00088F0808000007888887808080000B0C85D
:10D3D00080808000000078807008F0004040E040CD
:10D3E00040483000000088888898680000008888DD
:10D3F0008850200000008888A8A8500000008850AD
:10D400002050880000008888887808700000F81094
:10D410002040F80010202040202010002020202054
:10D420002020200040202010202040006890000094
:10D43000000000001820000000000000C0200000D4
:10D440000000000070880000000000005000000094
:10D450000000000068900000000000000000006074
:10D4600020207000006090F08888B08020007088D4
:10D47000F888880020007008788878003860A0B8A4
:10D48000E0A0B800704848E848487000E0407048A4
:10D49000487040E00000D02878A05800A040A010BC
:10D4A000788870006020302830207000708898A83C
:10D4B000C888700000007098A8C8700000007088CC
:10D4C000F88888000000F880E080F80000007020F4
:10D4D0002020700000007088888870000000888814
:10D4E00088887000000088C8A89888002000202044
:10D4F000202020002000204080887000182000009C
:10D5000000000000C02000000000000020500000CB
:10D5100000000000500000000000000068900000C3
:10D5200000000000000000000000002000000000DB
:10D5300000000000002070A0A0A87020304040E053
:10D540004048B00000008870507088008850F82073
:10D55000F8202000202020002020200030482050EB
:10D56000209060008800000000000000F888A8B843
:10D57000A888F8007008788870000000002850A083
:10D5800050280000000000F80808000000000070AB
:10D5900000000000F888A88898A8F800F8000000AB
:10D5A000000000002050200000000000002070203B
:10D5B0000070000060902040F0000000E01060105B
:10D5C000E000000018200000000000000000888833
:10D5D00088C8B08078989878181818000000003033
:10D5E0003000000040C04040E000000070888888A3
:10D5F0007000000000A0502850A000008890A050AB
:10D60000B05078108890A040B8081038C040C0488A
:10D61000D82838080088502050880000002000F8E2
:10D6200000200000103070FC70301000203038FCFA
:10D6300038302000002070F820200000002020F862
:10D640007020000000082868F8602000000404082A
:10D65000089050209D00FFFF9E00FFFF9F00FFFFEE
:10D66000A000FFFFA100FFFFA200FFFFFFFFFFFFE1
:10D67000FFFFFFFFFFFFFFFFFFFFFFFFFFFFFFFFBA
:10D68000FFFFFFFFFFFFFFFFFFFFFFFFFFFFFFFFAA
:10D69000FFFFFFFF7E00FFFF7600FFFF7F00FFFF21
:10D6A0008000FFFF8100FFFF8200FFFF8300FFFF7C
:10D6B0008400FFFF8500FFFF8600FFFF8700FFFF5C
:10D6C0008800FFFF8900FFFF8A00FFFF8B00FFFF3C
:10D6D0008C00FFFF8D00FFFF8E00FFFF8F00FFFF1C
:10D6E0009000FFFF9100FFFF9200FFFF9300FFFFFC
:10D6F0009400FFFF7D00FFFF9500FFFF9600FFFFF6
:10D700009700FFFF9800FFFF9900FFFF9A00FFFFBF
:10D710007700FFFF700079007000780070007A00D9
:10D7200070007C0070007B006600FFFF6800FFFF58
:10D7300023007D00710079007100780071007A008B
:10D7400071007B00720079007200780072007A002C
:10D7500072007B006900FFFF75007C007300790098
:10D760007300780073007A0073007C0073007B0004
:10D770009B00FFFF6E00FFFF7400790074007800CB
:10D7800074007A0074007B00390078006A00FFFFA3
:10D790006500FFFF4100600041005F004100610043
:10D7A00041006300410062006700FFFF6B00FFFF64
:10D7B00043007D004500600045005F0045006100BA
:10D7C000450062006400600064005F006400610066
:10D7D000640062006C00FFFF4E0063004F006000B9
:10D7E0004F005F004F0061004F0063004F00620078
:10D7F0009C00FFFF6F00FFFF5500600055005F00B9
:10D80000550061005500620059005F006D00FFFF88
:10D81000590062009000FF0054D600083CD1000877
:10D820003CD1000814D8000820007E000606010044
:10D8300069120008A5130008BD130008C3130008EF
:10D840000000000000000000080801011CD80008CA
:10D8500007050700000000000000000000000000B5
:10D8600000000000000000606060606060600060B8
:10D87000600000000000006C6C6C00000000000004
:10D8800000000000000000242424FC4848FC909084
:10D890009000000000001038545070783C1C145464
:10D8A000381000000000000000007200520052001A
:10D8B000540074000B800A800A80128013800000DC
:10D8C000000000000000000000001C0036003600D0
:10D8D0001E0018003D006D00670067003D800000DD
:10D8E0000000000000000060606000000000000018
:10D8F0000000000000000010302060606060606088
:10D900006020301000000080C04060606060606097
:10D910006040C08000000020F820D8000000000017
:10D92000000000000000000000000018187E181819
:10D930000000000000000000000000000000006087
:10D9400060204000000000000000000000007000A7
:10D950000000000000000000000000000000006067
:10D960006000000000000010102020204040408097
:10D970008000000000000078CCCCCCCCCCCCCCCC4F
:10D980007800000000000018387858181818181887
:10D990001800000000000078CC0C0C18383060C073
:10D9A000FC00000000000078CC0C0C380C0C0CCCF7
:10D9B0007800000000000018183838585898FC18F3
:10D9C000180000000000007C60C0F8CC0C0C0CCCEF
:10D9D00078000000000000384CC0C0F8CCCCCCCCA3
:10D9E00078000000000000FC0C1818303030606037
:10D9F0006000000000000078CCCCCC78CCCCCCCC43
:10DA00007800000000000078CCCCCCCC7C0C0CC89A
:10DA10007000000000000000000060600000006076
:10DA20006000000000000000000060600000006076
:10DA3000602040000000000000041C70C0701C0446
:10DA40000000000000000000000000FE00FE0000DA
:10DA500000000000000000000040701C061C704028
:10DA6000000000000000007CC606060C18300030E4
:10DA7000300000000000000000000FC030206010E7
:10DA80004EC89FC8B9C8B188B390BFB05DC0400848
:10DA900030300FC00000000000001C001C003600E9
:10DAA00036003600630063007F00C180C180000043
:10DAB000000000000000000000007E006300630022
:10DAC00063007E0063006300630063007E0000006B
:10DAD000000000000000000000001F003180600016
:10DAE0006000600060006000600031801F00000086
:10DAF000000000000000000000007C0066006300E1
:10DB00006300630063006300630066007C00000044
:10DB1000000000000000007E6060607E6060606069
:10DB20007E0000000000007E606060607E606060DB
:10DB3000600000000000000000001F003180600055
:10DB40006000600067806180618031801F0000009C
:10DB5000000000000000000000006300630063009C
:10DB600063007F00630063006300630063000000E4
:10DB70000000000000000060606060606060606045
:10DB8000600000000000000C0C0C0C0C0C0CCCCC49
:10DB900078000000000000000000630066006C00D8
:10DBA0006C007C0076006600660063006300000085
:10DBB0000000000000000060606060606060606005
:10DBC0007E00000000000000000071C071C07BC03A
:10DBD0007BC06AC06AC06AC06EC06EC064C000000C
:10DBE00000000000000000000000630073007300EC
:10DBF0007B006B006F00670067006300630000003C
:10DC0000000000000000000000001E0033006180E2
:10DC10006180618061806180618033001E0000004E
:10DC2000000000000000000000007E0063006300B0
:10DC3000630063007E006000600060006000000020
:10DC4000000000000000000000001E0033006180A2
:10DC50006180618061806180658033001F00008089
:10DC6000000000000000000000007E006300630070
:10DC7000630063007E006600630063006180000053
:10DC8000000000000000000000003E006300600093
:10DC900070003C001E000700030063003E0000000F
:10DCA00000000000000000FF1818181818181818B5
:10DCB0001800000000000000000063006300630023
:10DCC0006300630063006300630063003E000000C4
:10DCD00000000000000000000000C180C18063005F
:10DCE000630063003600360036001C001C00000094
:10DCF00000000000000000000000C718C7186730CF
:10DD00006DB06DB06DB06DB038E038E038E0000057
:10DD10000000000000000000000063006300360007
:10DD20001C001C001C001C00360063006300000087
:10DD300000000000000000C3C3663C3C181818181F
:10DD400018000000000000FE060C1818303060C0FB
:10DD5000FE00000000000070606060606060606055
:10DD600060606070000000808040404020202010F3
:10DD700010000000000000E06060606060606060B3
:10DD8000606060E00000000030307848CC000000A7
:10DD90000000000000000000000000000000000083
:10DDA000000000FE000000C0600000000000000055
:10DDB000000000000000000000003C461E366666C1
:10DDC0003E0000000000006060606C76666666766B
:10DDD0006C0000000000000000003C6660606066AF
:10DDE0003C000000000000060606366E6666666EA1
:10DDF000360000000000000000003C66667E6066A1
:10DE00003C000000000000306060F0606060606016
:10DE100060000000000000000000366E6666666E5E
:10DE20003606463C0000006060606C76666666669A
:10DE3000660000000000006060006060606060607C
:10DE40006000000000000060600060606060606072
:10DE5000606060C0000000606060666C78786C6C28
:10DE600066000000000000606060606060606060EC
:10DE70006000000000000000000000000000000042
:10DE80006EC07760666066606660666066600000AF
:10DE9000000000000000000000006C766666666608
:10DEA000660000000000000000003C6666666666D2
:10DEB0003C0000000000000000006C76666666769C
:10DEC0006C606060000000000000366E6666666E82
:10DED00036060606000000000000786060606060A2
:10DEE0006000000000000000000078CCE0781CCC4E
:10DEF00078000000000000002060F060606060605A
:10DF00003000000000000000000066666666666E75
:10DF100036000000000000000000C6C66C6C6C38C3
:10DF200038000000000000000000000000000000B9
:10DF3000C460CE606EC06AC07BC03B803180000090
:10DF40000000000000000000000066663C183C660F
:10DF500066000000000000000000C6C66C6C6C3853
:10DF6000383830F00000000000007C0C18303060C1
:10DF70007C000000000000386060606060C060608D
:10DF800060606038000000404040404040404040F9
:10DF900040404000000000E0303030303018303079
:10DFA000303030E00000000000000000729C0000F3
:10DFB000000000000404010054D80008040401001B
:10DFC00064D800080606010074D80008070701009D
:10DFD00084D800080707010094D800080A0A020044
:10DFE000A4D8000809090200C4D8000803030100EE
:10DFF000E4D8000804040100F4D800080404010077
:10E0000004D900080505010014D90008080801001A
:10E0100024D900080404010034D9000804040100D4
:10E0200044D900080404010054D900080404010084
:10E0300064D900080707010074D900080707010028
:10E0400084D900080707010094D9000807070100D8
:10E05000A4D9000807070100B4D900080707010088
:10E06000C4D9000807070100D4D900080707010038
:10E07000E4D9000807070100F4D9000807070100E8
:10E0800004DA00080404010014DA000804040100A2
:10E0900024DA00080808010034DA00080808010042
:10E0A00044DA00080808010054DA000808080100F2
:10E0B00064DA00080D0D020074DA00080909020094
:10E0C00094DA000809090200B4DA0008090902001C
:10E0D000D4DA000809090200F4DA0008080801008F
:10E0E00014DB00080808010024DB00080A0A02000B
:10E0F00034DB00080909020054DB000804040100B5
:10E1000074DB00080707010084DB0008090902002E
:10E1100094DB000808080100B4DB00080B0B0200C8
:10E12000C4DB000809090200E4DB00080A0A020057
:10E1300004DC00080909020024DC00080A0A0200C5
:10E1400044DC00080909020064DC00080909020037
:10E1500084DC000808080100A4DC000809090200AA
:10E16000B4DC000809090200D4DC00080D0D02002F
:10E17000F4DC00080909020014DD000808080100A9
:10E1800034DD00080707010044DD00080404010035
:10E1900054DD00080404010064DD000804040100EB
:10E1A00074DD00080808010084DD0008070701008D
:10E1B00094DD000804040100A4DD00080808010043
:10E1C000B4DD000808080100C4DD000807070100ED
:10E1D000D4DD000808080100E4DD0008080801009B
:10E1E000F4DD00080404010004DE00080808010052
:10E1F00014DE00080808010024DE00080404010001
:10E2000034DE00080404010044DE000807070100B2
:10E2100054DE00080404010064DE00080C0C020057
:10E2200074DE00080808010094DE000808080100F8
:10E23000A4DE000808080100B4DE00080808010098
:10E24000C4DE000805050100D4DE00080606010052
:10E25000E4DE000804040100F4DE00080808010000
:10E2600004DF00080707010014DF00080B0B0200A1
:10E2700024DF00080808010044DF00080707010048
:10E2800054DF00080707010064DF000805050100EE
:10E2900074DF00080303010084DF000805050100A6
:10E2A00094DF000808080100A4DF000820007E00B9
:10E2B000B4DF000800000000FD130008C9140008C6
:10E2C0000D150008131500080000000000000000F4
:10E2D00010100101ACE200080D070A000000000068
:10E2E000000000000000000000000000000000002E
:10E2F000606060606060606060606000606000003E
:10E30000000000666666666600000000000000000F
:10E3100000000000000000000C600C607FF87FF837
:10E3200018C019C03180FFF0FFF033806300630034
:10E3300000000000000000000C000C001F007F80A7
:10E34000EC00CC00CC00FF003F800DC00CC0CDC065
:10E35000FF807F000C000C000C000000000000801B
:10E360007180F900DB00FA00760004000C0008E080
:10E3700019F011B031F020E00000000000000000B2
:10E38000000000000E001F001B001E001C003C408F
:10E390006640C3C0C1C0E1807FC03E0000000000F5
:10E3A000000000000030303030300000000000007D
:10E3B0000000000000000C1C1830306060606060DD
:10E3C00060603030180C0000C0E060303018181861
:10E3D00018181818303060C0000000000000080055
:10E3E0007F003F001C0036002600000000000000F7
:10E3F000000000000000000000000000000000001D
:10E400000000181818FFFF1818180000000000007E
:10E41000000000000000000000000000206040003C
:10E420000000000000000000007C7C0000000000F4
:10E43000000000000000000000000000000000607C
:10E440006000000000000000000003000300030063
:10E45000060006000C000C00180018003000300008
:10E4600060006000000000000000000000001E00CE
:10E470007F006300C180C180C180C180C180C18034
:10E4800063007F003E000000000000000000001854
:10E490003878581818181818187E7E0000000000E8
:10E4A000000000001E003F80718061800180070035
:10E4B0000E003800700060007F807F800000000048
:10E4C00000000000000000003E007F006300030029
:10E4D00007003C001F000300030043007E003E00D5
:10E4E0000000000000000000000000000300070022
:10E4F0000F000B00130033006300FFC0FFC00300D8
:10E500000300030000000000000000000000000005
:10E510007F807F8060007E007F006380618001805B
:10E52000018063807F003E000000000000000000CA
:10E530000000000006000E001C00380030007F00C4
:10E540007F806180618073803F001E0000000000BA
:10E5500000000000000000007FC07FC001800300B9
:10E560000200060006000C000C0018001800100045
:10E570000000000000000000000000001E007F00FE
:10E58000618061807F003F00738061806180618075
:10E590007F001E00000000000000000000000000DE
:10E5A0001E003F0073806180618073803F801F8008
:10E5B000030007000E003C003000000000000000D7
:10E5C00000000000006060000000606000000000CB
:10E5D00000000000000000303000000000306060EB
:10E5E00000000000000000000C1C386030180C0017
:10E5F000000000000000000000007E7E0000007EA1
:10E600007E00000000000000000000006030180CD8
:10E610003870400000000000000000000000000012
:10E620003C007E00670003000300030006001C009E
:10E63000100000003000300000000000000000006A
:10E6400007C01FF018383018330C660C6C8C6D8CBA
:10E650006FF866707000300018601FE007C000009F
:10E6600000000000000001800180038006C006C099
:10E670000CC01FC01FC030E03060606060600000F0
:10E68000000000000000000000007C007E00670029
:10E69000630067007E007F006380618063807F008D
:10E6A0007C000000000000000000000000000F00DF
:10E6B0001F00330060006000C000C000C000C10047
:10E6C000E7007E003C0000000000000000000000A9
:10E6D000000060007C007F00638060C0606060605C
:10E6E0006060606061C07F803F000000000000004B
:10E6F0000000000000007F007F00600060006000FC
:10E700007F007F006000600060007F003F0000002D
:10E71000000000000000000000007F807FC060005B
:10E72000600060007F807F806000600060006000AB
:10E7300060000000000000000000000000000E006B
:10E740001F80398070006000DFC0DFC0C0C0C180A2
:10E75000C3807F003C0000000000000000000000BB
:10E7600000006060606060606060606067E07FE043
:10E7700078606060606060606060000000000000C1
:10E78000000000000000FF00FF0018001800180043
:10E7900018001800180018001800FF00FF00000003
:10E7A000000000000000000000003FC03FC0060065
:10E7B0000600060006000600C600C600E6007E0051
:10E7C0001C0000000000000000000000000060804D
:10E7D0006180630066006C007000700078006C005F
:10E7E00066006380618000000000000000000000FF
:10E7F0000000600060006000600060006000600079
:10E800006000600060007F007F00000000000000EA
:10E810000000000000000C201C701C701C701450C4
:10E8200036D836D836D826D86798638C638C0000E3
:10E830000000000000000000000060206030703028
:10E8400078306C3066306230633061B060F0607098
:10E85000603000000000000000000000000007C061
:10E860001FE0387030307030603060306070606051
:10E8700030E03FC00F000000000000000000007CFE
:10E880007E6763677E7C60606060600000000000FF
:10E89000000000000FC03FE078706030C018C01862
:10E8A000C018C218631871B03FF00F600030001834
:10E8B000000800000000000078007E006700638010
:10E8C0006180618063007E007E00670061C060C07F
:10E8D0000000000000000000000000000F001F808A
:10E8E000380030003F001F8001C000C060C061C020
:10E8F0003F801E000000000000000000000000003B
:10E90000FFC0FFC00C000C000C000C000C000C0041
:10E910000C000C000C000C000000000000000000C7
:10E920000000000060606060606060606060606067
:10E930006060606070C031C03F800F000000000068
:10E94000000000000000000060C060C061803180F5
:10E950003180318033001B001B001B000E000E00B5
:10E960000000000000000000000000000000006047
:10E97000C30061C30061C3006143003366003366B6
:10E9800000336600366C00166C001C6C001C7800AE
:10E990001C38000000000000000000000000000023
:10E9A00000006060606030C019800F000600070042
:10E9B0000F80198030C060606060000000000000BF
:10E9C00000000000000060C060C031C031801B80CA
:10E9D0001B000F000F0006000E000C0018000000C6
:10E9E000000000000000000000007FE07FE001C0A8
:10E9F000038007000E000C001800300060007FE06C
:10EA00007FE000000000000000003C3C303030306F
:10EA100030303030303030303C3C0000006060300E
:10EA200030101818080C0C0C060600000000F8F84E
:10EA3000181818181818181818181818F8F80000C6
:10EA4000183C3662000000000000000000000000DA
:10EA500000000000000000000000000000000000B6
:10EA600000000000000000000000000000000000A6
:10EA70000000FFC0000000004000600030001000F7
:10EA80000000000000000000000000000000000086
:10EA90000000000000000000000000000000003E38
:10EAA0007EE6C6C6C6FE7B000000000000006000D7
:10EAB00060006000600060006E007F007380618015
:10EAC000618063807F007E00000000000000000085
:10EAD00000000000003C7E62C0C0C27E3C0000001E
:10EAE00000000000030003000300030003003F00D8
:10EAF0007F00E300C300C300E3007F003F0000008D
:10EB000000000000000000000000003C7EE6CCD8C1
:10EB1000E2FE3C0000000000070F1C18187E7E1863
:10EB200018181818180000000000000000003C7EB3
:10EB3000E6C6C6CEFE76060CFC780000C0C0C0C09B
:10EB4000C0DCFEE6C6C6C6C6C60000000000006007
:10EB50006000006060606060606060000000000055
:10EB60000030300000303030303030303030303035
:10EB70000000000060006000600060006000620053
:10EB800066006C007C007C0066006300630000008F
:10EB900000000000000060606060606060606060B5
:10EBA0006060600000000000000000000000000045
:10EBB00000000000DD80FFC0EEC0CCC0CCC0CCC0E7
:10EBC000CCC0CCC00000000000000000000000002D
:10EBD00000DCFEE6C6C6C6C6C60000000000000097
:10EBE000000000387CC6C6C6C67C380000000000A5
:10EBF0000000000000000000000060006E007F00C8
:10EC000063006300630063007E007C0060006000BE
:10EC10006000000000000000003E7EE6C6C6C67E22
:10EC20003E060606000000000000006E766660608A
:10EC3000606060000000000000000000001C7CE03C
:10EC4000F87C0CFC7800000000000000303030FC44
:10EC5000FC30303030303000000000000000000098
:10EC600000C6C6C6C6C6C6FE7E0000000000000084
:10EC7000000000C6C66C6C6C383810000000000044
:10EC8000000000000000000000000000CCC0CCC06C
:10EC9000CCC0DEC0DAC0DAC0738073800000000030
:10ECA0000000000000000000000000000000000064
:10ECB000C300E7007E003C003C007E00E700C3008C
:10ECC0000000000000000000000000000000000044
:10ECD00000000000C300E3006300760036003C0043
:10ECE0001C00180018003000300000000000000078
:10ECF00000000000000000007F007F0006000C0004
:10ED0000180030007F007F000000000000000000BD
:10ED10001C3C3030303030706030303030301C1CB3
:10ED20000000181818181818181818181818181893
:10ED300018180000E0F03030303030381C383030F7
:10ED40003030E0E0000000000000000000000000A3
:10ED500018003C806C8067804700000000000000C5
:10ED6000000000000000000000007E7E424242429F
:10ED700042424242427E7E0000000000000000004D
:10ED800007C01FC03800FF00FF006000FE00FE004B
:10ED9000600071803F801E00000000000000000045
:10EDA00005050100DCE2000804040100EEE20008B1
:10EDB0000808010000E300080D0D020012E300083E
:10EDC0000B0B020036E300080D0D02005AE30008A9
:10EDD0000A0A02007EE3000806060100A2E300081A
:10EDE00006060100B4E3000806060100C6E30008B9
:10EDF00009090200D8E3000808080100FCE3000844
:10EE0000040401000EE400080707010020E40008E4
:10EE10000404010032E400080909020044E4000887
:10EE20000A0A020068E40008070701008CE40008F1
:10EE30000A0A02009EE400080A0A0200C2E400086E
:10EE40000A0A0200E6E400080A0A02000AE50008CD
:10EE50000A0A02002EE500080A0A020052E500082C
:10EE60000A0A020076E500080A0A02009AE500088C
:10EE700005050100BEE5000805050100D0E5000814
:10EE800006060100E2E5000808080100F4E50008B4
:10EE90000707010006E600080909020018E6000855
:10EEA0000F0F02003CE600080C0C020060E60008B0
:10EEB0000A0A020084E600080A0A0200A8E600081E
:10EEC0000C0C0200CCE600080A0A0200F0E600087A
:10EED0000A0A020014E700080B0B020038E70008DA
:10EEE0000C0C02005CE700080909020080E700083A
:10EEF0000B0B0200A4E700080A0A0200C8E700089A
:10EF000009090200ECE700080F0F020010E80008F2
:10EF10000D0D020034E800080D0D020058E800084D
:10EF2000080801007CE800080E0E02008EE80008C8
:10EF30000B0B0200B2E800080B0B0200D6E8000839
:10EF40000B0B0200FAE800080C0C02001EE9000896
:10EF50000A0A020042E900081111030066E90008EC
:10EF60000C0C02009CE900080B0B0200C0E9000831
:10EF70000C0C0200E4E900080606010008EA00089B
:10EF8000080801001AEA0008060601002CEA000839
:10EF9000080801003EEA00080A0A020050EA0008D8
:10EFA0000909020074EA00080808010098EA00084C
:10EFB0000A0A0200AAEA000808080100CEEA0008CE
:10EFC00009090200E0EA00080808010004EB000853
:10EFD0000808010016EB00080808010028EB0008EB
:10EFE000080801003AEB0008050501004CEB000899
:10EFF000060601005EEB00080909020070EB00083C
:10F000000505010094EB00080B0B0200A6EB0008BD
:10F0100008080100CAEB000808080100DCEB000842
:10F0200009090200EEEB00080808010012EC0008D4
:10F030000808010024EC00080707010036EC00086E
:10F040000707010048EC0008080801005AEC000816
:10F05000080801006CEC00080B0B02007EEC0008B5
:10F0600009090200A2EC000809090200C6EC000828
:10F0700009090200EAEC0008060601000EED00088E
:10F080000707010020ED00080606010032ED000828
:10F090000A0A020044ED00080808010068ED0008B3
:10F0A0000B0B02007AED000820008000A0ED0008A4
:10F0B00000000000FD130008C91400080D15000829
:10F0C00013150008000000000000000012120101EA
:10F0D000A8F000080F080C00000810192129313A87
:10F0E000424A525B636B737B848C949CA5ADB5BD27
:10F0F000C5CED6DEE6EFF7FF0004080C1014181C8E
:10F100002024282D3135393D4145494D5155595D12
:10F110006165696D7175797D82868A8E92969A9EF7
:10F12000A2A6AAAEB2B6BABEC2C6CACED2D7DBDFDC
:10F13000E3E7EBEFF3F7FBFF000000000001010144
:10F1400001010101010202020202020202030303A1
:10F150000303030303040404040404040405050571
:10F160000505050505050606060606060606070743
:10F170000707070707070808080808080808090913
:10F18000090909090909090A0A0A0A0A0A0A0A0BE5
:10F190000B0B0B0B0B0B0B0C0C0C0C0C0C0C0C0DB5
:10F1A0000D0D0D0D0D0D0D0D0E0E0E0E0E0E0E0E87
:10F1B0000F0F0F0F0F0F0F0F101010101010101057
:10F1C0001111111111111111121212121212121227
:10F1D00012131313131313131314141414141414F9
:10F1E00014151515151515151516161616161616C9
:10F1F000161617171717171717171818181818189B
:10F20000181819191919191919191A1A1A1A1A1A6A
:10F210001A1A1B1B1B1B1B1B1B1B1B1C1C1C1C1C3B
:10F220001C1C1C1D1D1D1D1D1D1D1D1E1E1E1E1E0C
:10F230001E1E1E1F1F1F1F1F0000000101010102D3
:10F240000202020303030304040404050505050682
:10F250000606060707070708080808090909090A32
:10F260000A0A0A0B0B0B0B0C0C0C0C0D0D0D0D0EE2
:10F270000E0E0E0F0F0F0F10101010111111111292
:10F280001212121313131314141414151515151543
:10F2900016161616171717171818181819191919F6
:10F2A0001A1A1A1A1B1B1B1B1C1C1C1C1D1D1D1DA6
:10F2B0001E1E1E1E1F1F1F1F202020202121212156
:10F2C0002222222223232323242424242525252506
:10F2D00026262626272727272828282829292929B6
:10F2E0002A2A2A2A2A2B2B2B2B2C2C2C2C2D2D2D69
:10F2F0002D2E2E2E2E2F2F2F2F303030303131311A
:10F3000031323232323333333334343434353535C9
:10F310003536363636373737373838383839393979
:10F32000393A3A3A3A3B3B3B3B3C3C3C3C3D3D3D29
:10F330003D3E3E3E3E3F3F3FE12800087129000828
:10F3400021B0000825B000088D8C000877A90008BE
:10F3500069C00008FDBF000809C1000800000000E6
:10F3600000000000000000000000000040004040DD
:10F37000404040400000000000202078A0A0A0A055
:10F3800078202000000038404040F04040F8000065
:10F39000000000000088705070880000000000002D
:10F3A0008850502020F820200000000040404040BD
:10F3B0000000404040404000000078808070888815
:10F3C000700808F00000005000000000000000007D
:10F3D000000000000000003E0041009C80A080A0D2
:10F3E00080A0809C8041003E000000000000E010F2
:10F3F000709070000000000000000000002850A085
:10F400005028000000000000000000007E02020200
:10F41000000000000000000000E00000000000000C
:10F4200000000000003E0041009C8092809C80947F
:10F4300080928041003E00000000FC0000000000BF
:10F4400000000000000000000060909060000000DC
:10F45000000000000000101010FE1010FE00000060
:10F46000000000601010207000000000000000008C
:10F47000601020106000000000000000102000005C
:10F48000000000000000000000000000888888885C
:10F4900098E8808000000078E8E8E86828282828B4
:10F4A00028000000000000404000000000000000B4
:10F4B0000000000000000000000830000000206094
:10F4C000202070000000000000000060909090601C
:10F4D00000000000000000000000A0502850A00024
:10F4E00000000000000000002100620022002480D3
:10F4F00025800A800BC01080000000000000000082
:10F50000000021006200220025802440084008807D
:10F5100011C00000000000000000000071000A009F
:10F5200032000C8075800A800BC010800000000043
:10F53000000000200020204080807000002010008B
:10F540003030484848FC84840000102000303048A7
:10F550004848FC848400003048003030484848FC6B
:10F56000848400006858003030484848FC84840097
:10F57000000048003030484848FC8484000030488F
:10F58000483030484848FC848400000000000000F7
:10F59000003F80280048004F007800880088008FD6
:10F5A00080000000000000003C4080808080403CE3
:10F5B0000830201000F88080F0808080F800001073
:10F5C0002000F88080F0808080F80000304800F84B
:10F5D0008080F0808080F80000005000F88080F08B
:10F5E000808080F80000804000E040404040404083
:10F5F000E00000204000E0404040404040E000008B
:10F60000609000E0404040404040E0000000A0002A
:10F61000E0404040404040E00000000000784442AC
:10F62000F2424244780000685800C4C4A4A49494F0
:10F630008C8C000020100038448282828244380082
:10F640000008100038448282828244380000182466
:10F650000038448282828244380000342C003844CE
:10F6600082828282443800000028003844828282EC
:10F670008244380000000000000022140814220018
:10F6800000000000003A448A9292A244B800002090
:10F690001000848484848484847800001020008492
:10F6A0008484848484847800003048008484848442
:10F6B0008484847800000048008484848484848462
:10F6C0007800001020008888505020202020000062
:10F6D0000000008080F08888F080800000000070CA
:10F6E0008888B088888888B00000000020100070EA
:10F6F000087888887800000000102000700878885A
:10F700008878000000003048007008788888780009
:10F7100000000068580070087888887800000000B1
:10F720000050007008788888780000003048483021
:10F730007008788888780000000000000000000051
:10F740000000770008807F8088008C8073000000B4
:10F750000000000000000070808080807020C000E9
:10F76000004020007088F8808870000000001020A1
:10F77000007088F8808870000000003048007088B1
:10F78000F8808870000000000050007088F88088C1
:10F7900070000000008040004040404040400000B9
:10F7A0000000204000404040404040000000004039
:10F7B000A0004040404040400000000000A0004049
:10F7C00040404040400000000000305008788888E9
:10F7D000887000000000685800F0888888888800D9
:10F7E00000000040200070888888887000000000B9
:10F7F0001020007088888888700000000030480061
:10F8000070888888887000000000685800708888B8
:10F810008888700000000000500070888888887018
:10F82000000000000000101000FE0010100000009A
:10F83000000000087098A8A8C87080000000402050
:10F840000088888888887800000000102000888858
:10F850008888887800000000304800888888888878
:10F8600078000000000050008888888888780000B0
:10F870000000102000888850502020404000008068
:10F880008080F088888888F08080000000500088A0
:10F890008850502020404000030301005CF3000822
:10F8A0000404010069F300080606010076F300086D
:10F8B0000606010083F300080606010090F3000825
:10F8C000060601009DF3000804040100AAF30008E5
:10F8D00006060100B7F3000806060100C4F300089D
:10F8E0000A0A0200D1F3000805050100EBF3000845
:10F8F00006060100F8F300080808010005F40008F6
:10F900000404010012F400080A0A02001FF40008AF
:10F910000606010039F400080505010046F4000858
:10F920000808010053F400080505010060F4000810
:10F93000050501006DF40008060601007AF40008D0
:10F940000606010087F400080606010094F400088A
:10F9500003030100A1F4000806060100AEF400084C
:10F9600005050100BBF4000805050100C8F4000806
:10F9700006060100D5F400080B0B0200E2F40008B3
:10F980000B0B0200FCF400080B0B020016F500083C
:10F990000505010030F50008070701003DF50008E6
:10F9A000070701004AF500080707010057F500089E
:10F9B0000707010064F500080707010071F500085A
:10F9C000070701007EF500080A0A02008BF500080F
:10F9D00007070100A5F5000806060100B2F50008BA
:10F9E00006060100BFF5000806060100CCF5000878
:10F9F00006060100D9F5000804040100E6F5000838
:10FA000004040100F3F500080404010000F60008F6
:10FA1000040401000DF60008080801001AF60008A9
:10FA20000707010027F600080808010034F600085F
:10FA30000808010041F60008080801004EF6000819
:10FA4000080801005BF600080808010068F60008D5
:10FA50000808010075F600080808010082F6000891
:10FA6000070701008FF60008070701009CF6000851
:10FA700007070100A9F6000807070100B6F600080D
:10FA800006060100C3F6000806060100D0F60008CD
:10FA900006060100DDF6000806060100EAF6000889
:10FAA00006060100F7F600080606010004F7000844
:10FAB0000606010011F70008060601001EF70008FF
:10FAC000060601002BF700080A0A020038F70008B2
:10FAD0000505010052F70008060601005FF700085F
:10FAE000060601006CF700080606010079F7000819
:10FAF0000606010086F700080303010093F70008DB
:10FB000003030100A0F7000803030100ADF700089C
:10FB100003030100BAF7000806060100C7F7000852
:10FB200006060100D4F7000806060100E1F7000808
:10FB300006060100EEF7000806060100FBF70008C4
:10FB40000606010008F800080606010015F800087E
:10FB50000808010022F80008060601002FF8000836
:10FB6000060601003CF800080606010049F80008F6
:10FB70000606010056F800080606010063F80008B2
:10FB80000606010070F80008060601007DF800086E
:10FB9000060601008AF80008A000FF0098F8000897
:10FBA000A8050108FD130008C91400080D15000878
:10FBB0001315000800000000000000000D0D0101F9
:10FBC00098FB00080B060800000000000100000080
:10FBD0000200000003000000040000000500000017
:10FBE00006000000070000000800000009000000F7
:10FBF0000A0000000B0000000C0000000D000000D7
:10FC00000E0000000F00000004000000F19E00083C
:10FC10002BA6000805A80008A1AB00084BB30008FC
:10FC2000DDC2000861CD0008D7C10008D1B00008CE
:10FC30002DB2000841B0000897B30008440200202C
:10FC400000000000A9A70008BBA7000843A4000803
:10FC500055A4000891A40008000000000100000065
:10FC60000A00000064000000E80300001027000004
:10FC7000A086010040420F008096980000E1F50543
:10FC800000CA9A3BED8C0008F7B4000889B200085E
:10FC9000000000000000000000000000418D00088E
:10FCA000A7580008DBB2000800000000DD8C000847
:10FCB000E9B40008008040C020A060E0109050D05F
:10FCC00030B070F0088848C828A868E8189858D854
:10FCD00038B878F8048444C424A464E4149454D454
:10FCE00034B474F40C8C4CCC2CAC6CEC1C9C5CDCF4
:10FCF0003CBC7CFC028242C222A262E2129252D23C
:10FD000032B272F20A8A4ACA2AAA6AEA1A9A5ADAF3
:10FD10003ABA7AFA068646C626A666E6169656D6F3
:10FD200036B676F60E8E4ECE2EAE6EEE1E9E5EDE93
:10FD30003EBE7EFE018141C121A161E1119151D1FF
:10FD400031B171F1098949C929A969E9199959D9C3
:10FD500039B979F9058545C525A565E5159555D5C3
:10FD600035B575F50D8D4DCD2DAD6DED1D9D5DDD63
:10FD70003DBD7DFD038343C323A363E3139353D3AB
:10FD800033B373F30B8B4BCB2BAB6BEB1B9B5BDB63
:10FD90003BBB7BFB078747C727A767E7179757D763
:10FDA00037B777F70F8F4FCF2FAF6FEF1F9F5FDF03
:10FDB0003FBF7FFF000000000000000000000000C7
:10FDC0000000000040404040404000400000000073
:10FDD000A0A0A0000000000000000000000014141B
:10FDE0007E2828FC505000000000202078A0A07041
:10FDF0002828F020200000000000006200920094FB
:10FE000000640009800A40124011800000000000D8
:10FE100000006090906494888C72000000008080E4
:10FE200080000000000000000000002040408080B2
:10FE30008080804040200000804040202020202002
:10FE4000404080000020A870A820000000000000B2
:10FE500000000000101010FE101010000000000044
:10FE60000000000000004040408000000000000052
:10FE700000E00000000000000000000000000000A2
:10FE80004040000000002020204040404040808052
:10FE900080000000708888888888887000000000D2
:10FEA00000206020202020207000000000007088CA
:10FEB0000810204080F8000000000070880830081A
:10FEC000088870000000000010305090F8101010EA
:10FED0000000000000F88080F00808887000000032
:10FEE0000000304080F0888888700000000000F832
:10FEF000081010202040400000000000708888702A
:10FF00008888887000000000007088888878081051
:10FF10006000000000000000404000004040000081
:10FF20000000000000404000004040408000000011
:10FF300000020C3040300C02000000000000000005
:10FF4000FE00FE000000000000000040300C020C2B
:10FF500030400000000000E0101020404000400051
:10FF6000000000000000003E0041009C80A480A42E
:10FF700080A4809F0040003C000000000000303062
:10FF8000484848FC84840000000000F08888F0881D
:10FF90008888F000000000003C4080808080403C69
:10FFA0000000000000F0888484848488F000000051
:10FFB0000000F88080F0808080F80000000000F8E9
:10FFC0008080F88080808000000000003C408080BD
:10FFD0009C84443C0000000000848484FC8484846D
:10FFE000840000000000E0404040404040E000004D
:10FFF00000000070101010101010E0000000000051
:020000040801F1
:100000008890A0C0C0A09088000000000080808080
:1000100080808080F00000000000C6C6AAAA9292EC
:1000200082820000000000C4C4A4A494948C8C00BC
:1000300000000000384482828282443800000000C0
:1000400000F0888888F0808080000000000038443C
:100050008282828244380806000000F0888888F096
:10006000908884000000000078808070080808F004
:100070000000000000F820202020202020000000A8
:1000800000008484848484848478000000000088D4
:100090008888505050202000000000000000008898
:1000A000808880888055005500550022002200007D
:1000B0000000000000008888502020508888000040
:1000C0000000008888505020202020000000000000
:1000D000F8081020204080F800000000E0808080B8
:1000E000808080808080E0000080808040404040B0
:1000F000402020200000E020202020202020202060
:10010000E000000010284482000000000000000011
:1001100000000000000000000000FC000040200083
:1001200000000000000000000000000000700878DF
:1001300088887800000000808080F088888888F0B7
:1001400000000000000000708080808070000000CF
:100150000008080878888888887800000000000077
:10016000007088F880887000000000608080E08067
:1001700080808080000000000000007888888888E7
:100180007808700000808080F08888888888000067
:1001900000000080008080808080800000000000DF
:1001A0004000C0404040404040800000808080903F
:1001B000A0C0A090880000000080808080808080A7
:1001C000808000000000000000EC92929292920069
:1001D000000000000000F088888888880000000087
:1001E000000000708888888870000000000000000F
:1001F000F088888888F08080000000000078888877
:1002000088887808080000000000A0C080808080F6
:10021000000000000000007080C03010E00000000E
:1002200000008080E080808080600000000000008E
:10023000008888888888780000000000000088888E
:1002400050502020000000000000009292AAAA4412
:10025000440000000000000088502020508800006A
:10026000000000000088885050202040400000001E
:100270000000F010204080F000000000102020203E
:1002800020C020202020100000404040404040403E
:1002900040404040000080404040403040404040AE
:1002A0008000000000000062928C0000000000004E
:1002B00003030100B4FD000804040100C1FD0008AF
:1002C00004040100CEFD000808080100DBFD000861
:1002D00006060100E8FD00080B0B0200F5FD000812
:1002E000070701000FFE0008020201001CFE0008C3
:1002F0000404010029FE00080404010036FE000881
:100300000606010043FE00080808010050FE000830
:10031000040401005DFE0008040401006AFE0008F8
:100320000404010077FE00080404010084FE0008B4
:100330000606010091FE0008060601009EFE000868
:1003400006060100ABFE000806060100B8FE000824
:1003500006060100C5FE000806060100D2FE0008E0
:1003600006060100DFFE000806060100ECFE00089C
:1003700006060100F9FE00080606010006FF000857
:100380000404010013FF00080404010020FF00081A
:10039000080801002DFF0008080801003AFF0008C6
:1003A0000808010047FF00080505010054FF000888
:1003B0000A0A020061FF0008070701007BFF00082E
:1003C0000606010088FF00080707010095FF0008E6
:1003D00007070100A2FF000806060100AFFF0008A2
:1003E00006060100BCFF000807070100C9FF00085E
:1003F00007070100D6FF000804040100E3FF00081E
:1004000005050100F0FF000806060100FDFF0008D9
:10041000050501000A00010808080100170001088D
:100420000707010024000108080801003100010845
:10043000060601003E000108080801004B00010803
:1004400007070100580001080606010065000108C1
:100450000606010072000108070701007F0001087D
:10046000060601008C0001080A0A02009900010832
:1004700006060100B300010806060100C0000108DD
:1004800006060100CD00010804040100DA0001089D
:1004900004040100E700010804040100F40001085D
:1004A0000808010001010108060601000E0101080B
:1004B000060601001B0101080606010028010108CB
:1004C0000606010035010108050501004201010889
:1004D000060601004F010108060601005C01010843
:1004E0000404010069010108060601007601010803
:1004F00006060100830101080202010090010108C3
:10050000030301009D01010805050100AA0101087E
:1005100002020100B701010808080100C401010836
:1005200006060100D101010806060100DE010108EE
:1005300006060100EB01010806060100F8010108AA
:10054000040401000502010805050100120201086A
:10055000040401001F020108060601002C02010824
:1005600006060100390201080808010046020108D8
:100570000606010053020108060601006002010898
:10058000050501006D020108050501007A02010858
:100590000404010087020108050501009402010816
:1005A00008080100A102010820007E00B002010835
:1005B0000000000000000000010000000200000038
:1005C0000300000004000000050000000600000019
:1005D0000700000008000000090000000A000000F9
:1005E0000B0000000C0000000D0000000E000000D9
:1005F0000F0000000400000099A1000835A60008C3
:10060000C5A8000855AC000859B3000825C3000868
:10061000B5CD0008E5C10008E1B000083DB2000812
:1006200051B00008C7B30008DD2D0008692D00088F
:10063000092E000800000000DDAF00086D2E000844
:10064000000000000100000001000000ABA700084E
:10065000BDA7000845A4000859A400080000000038
:100660000000000050726F676261720050726F6329
:100670006573736261720000980601080000002033
:10068000C0020000040300087C070108C00200202B
:10069000505700001CCE000851031D093D133D5862
:1006A000140830D81408E848026420134BBD1B0816
:1006B000F704320513D4011420A4FB350840404050
:1006C00092FF14FFFFFF13190C1408690622081289
:1006D0000332011338022A20A8145555553CAAAA02
:1006E000AA2439DF2A652401A21370492A2004C1F3
:1006F0004B612FBC1B50F30829E5011729EA13E1D0
:10070000AF14086906140829B914080D8E4C08CCDA
:10071000014C14FFFFFF3C9AB6D20414B9D1EA721F
:100720000529082904320232043C4C4C4C2C3CC0B4
:10073000CEDC040C17D7E4F22C1337BA1B08336451
:1007400022E41520CDFFCD249CEEAC13D429141C3B
:10075000E23314FCFCFC14DADADA14CBCBCB14D57C
:10076000D5D554A0A0A03C480601CC4113193B1B91
:0C077000087F0401200B1811B72429ACED
:040000050800018D61
:00000001FF
