Component: ARM Compiler 5.06 update 6 (build 750) Tool: armlink [4d35ed]

==============================================================================

Section Cross References

    startup_stm32l431xx.o(RESET) refers to startup_stm32l431xx.o(STACK) for __initial_sp
    startup_stm32l431xx.o(RESET) refers to startup_stm32l431xx.o(.text) for Reset_Handler
    startup_stm32l431xx.o(RESET) refers to stm32l4xx_it.o(i.NMI_Handler) for NMI_Handler
    startup_stm32l431xx.o(RESET) refers to stm32l4xx_it.o(i.HardFault_Handler) for HardFault_Handler
    startup_stm32l431xx.o(RESET) refers to stm32l4xx_it.o(i.MemManage_Handler) for MemManage_Handler
    startup_stm32l431xx.o(RESET) refers to stm32l4xx_it.o(i.BusFault_Handler) for BusFault_Handler
    startup_stm32l431xx.o(RESET) refers to stm32l4xx_it.o(i.UsageFault_Handler) for UsageFault_Handler
    startup_stm32l431xx.o(RESET) refers to stm32l4xx_it.o(i.SVC_Handler) for SVC_Handler
    startup_stm32l431xx.o(RESET) refers to stm32l4xx_it.o(i.DebugMon_Handler) for DebugMon_Handler
    startup_stm32l431xx.o(RESET) refers to stm32l4xx_it.o(i.PendSV_Handler) for PendSV_Handler
    startup_stm32l431xx.o(RESET) refers to stm32l4xx_it.o(i.SysTick_Handler) for SysTick_Handler
    startup_stm32l431xx.o(.text) refers to system_stm32l4xx.o(i.SystemInit) for SystemInit
    startup_stm32l431xx.o(.text) refers to entry.o(.ARM.Collect$$$$00000000) for __main
    main.o(i.SystemClock_Config) refers to stm32l4xx_hal_rcc.o(i.HAL_RCC_OscConfig) for HAL_RCC_OscConfig
    main.o(i.SystemClock_Config) refers to main.o(i._Error_Handler) for _Error_Handler
    main.o(i.SystemClock_Config) refers to stm32l4xx_hal_rcc.o(i.HAL_RCC_ClockConfig) for HAL_RCC_ClockConfig
    main.o(i.SystemClock_Config) refers to stm32l4xx_hal_rcc_ex.o(i.HAL_RCCEx_PeriphCLKConfig) for HAL_RCCEx_PeriphCLKConfig
    main.o(i.SystemClock_Config) refers to stm32l4xx_hal_pwr_ex.o(i.HAL_PWREx_ControlVoltageScaling) for HAL_PWREx_ControlVoltageScaling
==============================================================================

Removing Unused input sections from the image.

    Removing startup_stm32l431xx.o(HEAP), (512 bytes).
    Removing main.o(.rev16_text), (4 bytes).
    Removing main.o(.revsh_text), (4 bytes).
    Removing main.o(.rrx_text), (6 bytes).
    Removing gpio.o(.rev16_text), (4 bytes).
    Removing gpio.o(.revsh_text), (4 bytes).
    Removing gpio.o(.rrx_text), (6 bytes).
    Removing spi.o(.rev16_text), (4 bytes).
    Removing spi.o(.revsh_text), (4 bytes).
    Removing spi.o(.rrx_text), (6 bytes).
    Removing spi.o(i.HAL_SPI_MspDeInit), (60 bytes).
    Removing usart.o(.rev16_text), (4 bytes).
    Removing usart.o(.revsh_text), (4 bytes).
    Removing usart.o(.rrx_text), (6 bytes).
    Removing usart.o(i.HAL_UART_MspDeInit), (48 bytes).
    Removing usart.o(i.fputc), (32 bytes).
    Removing stm32l4xx_it.o(.rev16_text), (4 bytes).
    Removing stm32l4xx_it.o(.revsh_text), (4 bytes).
==============================================================================

Image Symbol Table

    Local Symbols

    Symbol Name                              Value     Ov Type        Size  Object(Section)

    ..//Src/system_stm32l4xx.c               0x00000000   Number         0  system_stm32l4xx.o ABSOLUTE
    ../Drivers/STM32L4xx_HAL_Driver/Src/stm32l4xx_hal.c 0x00000000   Number         0  stm32l4xx_hal.o ABSOLUTE
    ../Drivers/STM32L4xx_HAL_Driver/Src/stm32l4xx_hal_cortex.c 0x00000000   Number         0  stm32l4xx_hal_cortex.o ABSOLUTE
    ../Drivers/STM32L4xx_HAL_Driver/Src/stm32l4xx_hal_dma.c 0x00000000   Number         0  stm32l4xx_hal_dma.o ABSOLUTE
    ../Drivers/STM32L4xx_HAL_Driver/Src/stm32l4xx_hal_dma_ex.c 0x00000000   Number         0  stm32l4xx_hal_dma_ex.o ABSOLUTE
    ../Drivers/STM32L4xx_HAL_Driver/Src/stm32l4xx_hal_flash.c 0x00000000   Number         0  stm32l4xx_hal_flash.o ABSOLUTE
    ../Drivers/STM32L4xx_HAL_Driver/Src/stm32l4xx_hal_flash_ex.c 0x00000000   Number         0  stm32l4xx_hal_flash_ex.o ABSOLUTE
    ../Drivers/STM32L4xx_HAL_Driver/Src/stm32l4xx_hal_flash_ramfunc.c 0x00000000   Number         0  stm32l4xx_hal_flash_ramfunc.o ABSOLUTE
    ../Drivers/STM32L4xx_HAL_Driver/Src/stm32l4xx_hal_gpio.c 0x00000000   Number         0  stm32l4xx_hal_gpio.o ABSOLUTE
    ../Drivers/STM32L4xx_HAL_Driver/Src/stm32l4xx_hal_i2c.c 0x00000000   Number         0  stm32l4xx_hal_i2c.o ABSOLUTE
    ../Drivers/STM32L4xx_HAL_Driver/Src/stm32l4xx_hal_i2c_ex.c 0x00000000   Number         0  stm32l4xx_hal_i2c_ex.o ABSOLUTE
    ../Drivers/STM32L4xx_HAL_Driver/Src/stm32l4xx_hal_pwr.c 0x00000000   Number         0  stm32l4xx_hal_pwr.o ABSOLUTE
    ../Drivers/STM32L4xx_HAL_Driver/Src/stm32l4xx_hal_pwr_ex.c 0x00000000   Number         0  stm32l4xx_hal_pwr_ex.o ABSOLUTE
    ../Drivers/STM32L4xx_HAL_Driver/Src/stm32l4xx_hal_rcc.c 0x00000000   Number         0  stm32l4xx_hal_rcc.o ABSOLUTE
    ../Drivers/STM32L4xx_HAL_Driver/Src/stm32l4xx_hal_rcc_ex.c 0x00000000   Number         0  stm32l4xx_hal_rcc_ex.o ABSOLUTE
    ../Drivers/STM32L4xx_HAL_Driver/Src/stm32l4xx_hal_spi.c 0x00000000   Number         0  stm32l4xx_hal_spi.o ABSOLUTE
    ../Drivers/STM32L4xx_HAL_Driver/Src/stm32l4xx_hal_spi_ex.c 0x00000000   Number         0  stm32l4xx_hal_spi_ex.o ABSOLUTE
    ../Drivers/STM32L4xx_HAL_Driver/Src/stm32l4xx_hal_tim.c 0x00000000   Number         0  stm32l4xx_hal_tim.o ABSOLUTE
    ../Drivers/STM32L4xx_HAL_Driver/Src/stm32l4xx_hal_tim_ex.c 0x00000000   Number         0  stm32l4xx_hal_tim_ex.o ABSOLUTE
    ../Drivers/STM32L4xx_HAL_Driver/Src/stm32l4xx_hal_uart.c 0x00000000   Number         0  stm32l4xx_hal_uart.o ABSOLUTE
    ../Drivers/STM32L4xx_HAL_Driver/Src/stm32l4xx_hal_uart_ex.c 0x00000000   Number         0  stm32l4xx_hal_uart_ex.o ABSOLUTE
    ../Src/gpio.c                            0x00000000   Number         0  gpio.o ABSOLUTE
    ../Src/main.c                            0x00000000   Number         0  main.o ABSOLUTE
    ../Src/spi.c                             0x00000000   Number         0  spi.o ABSOLUTE
    ../Src/stm32l4xx_hal_msp.c               0x00000000   Number         0  stm32l4xx_hal_msp.o ABSOLUTE
    ../Src/stm32l4xx_it.c                    0x00000000   Number         0  stm32l4xx_it.o ABSOLUTE
    ../Src/usart.c                           0x00000000   Number         0  usart.o ABSOLUTE
    ../clib/../cmprslib/zerorunl2.c          0x00000000   Number         0  __dczerorl2.o ABSOLUTE
    ../clib/microlib/division.c              0x00000000   Number         0  uldiv.o ABSOLUTE
    ../clib/microlib/init/entry.s            0x00000000   Number         0  entry5.o ABSOLUTE
    ../clib/microlib/init/entry.s            0x00000000   Number         0  entry.o ABSOLUTE
    ../clib/microlib/init/entry.s            0x00000000   Number         0  entry9b.o ABSOLUTE
    ../clib/microlib/init/entry.s            0x00000000   Number         0  entry7a.o ABSOLUTE
    ../clib/microlib/init/entry.s            0x00000000   Number         0  entry10a.o ABSOLUTE
    ../clib/microlib/init/entry.s            0x00000000   Number         0  entry11b.o ABSOLUTE
    ../clib/microlib/init/entry.s            0x00000000   Number         0  entry7b.o ABSOLUTE
    ../clib/microlib/init/entry.s            0x00000000   Number         0  entry10b.o ABSOLUTE
    ../clib/microlib/init/entry.s            0x00000000   Number         0  entry11a.o ABSOLUTE
    ../clib/microlib/init/entry.s            0x00000000   Number         0  entry8a.o ABSOLUTE
    ../clib/microlib/init/entry.s            0x00000000   Number         0  entry8b.o ABSOLUTE
    ../clib/microlib/init/entry.s            0x00000000   Number         0  entry2.o ABSOLUTE
    ../clib/microlib/init/entry.s            0x00000000   Number         0  entry9a.o ABSOLUTE
    ../clib/microlib/longlong.c              0x00000000   Number         0  llshl.o ABSOLUTE
    ../clib/microlib/longlong.c              0x00000000   Number         0  llushr.o ABSOLUTE
    ../clib/microlib/string/memcpy.c         0x00000000   Number         0  memmovea.o ABSOLUTE
    ../clib/microlib/string/memcpy.c         0x00000000   Number         0  memmoveb.o ABSOLUTE
    ../clib/microlib/string/memcpy.c         0x00000000   Number         0  memcpyb.o ABSOLUTE
    ../clib/microlib/string/memcpy.c         0x00000000   Number         0  memcpya.o ABSOLUTE
    ../clib/microlib/string/memset.c         0x00000000   Number         0  memseta.o ABSOLUTE
    ../clib/microlib/string/strcpy.c         0x00000000   Number         0  strcpy.o ABSOLUTE
    ../clib/microlib/string/strlen.c         0x00000000   Number         0  strlen.o ABSOLUTE
    ..\..\..\Utilities\Third_Party\STemWin532_20160205\GUI\Core\GUICC_0.c 0x00000000   Number         0  guicc_0.o ABSOLUTE
    ..\..\..\Utilities\Third_Party\STemWin532_20160205\GUI\Core\GUICC_8888.c 0x00000000   Number         0  guicc_8888.o ABSOLUTE
    ..\..\..\Utilities\Third_Party\STemWin532_20160205\GUI\Core\GUICC_8888_Index2Color.c 0x00000000   Number         0  guicc_8888_index2color.o ABSOLUTE
    ..\..\..\Utilities\Third_Party\STemWin532_20160205\GUI\Core\GUICC_888_Index2Color.c 0x00000000   Number         0  guicc_888_index2color.o ABSOLUTE
    ..\..\..\Utilities\Third_Party\STemWin532_20160205\GUI\Core\GUICC_M565.c 0x00000000   Number         0  guicc_m565.o ABSOLUTE
    ..\..\..\Utilities\Third_Party\STemWin532_20160205\GUI\Core\GUI_2DLib.c 0x00000000   Number         0  gui_2dlib.o ABSOLUTE
    ..\..\..\Utilities\Third_Party\STemWin532_20160205\GUI\Core\GUI_ALLOC_AllocZero.c 0x00000000   Number         0  gui_alloc_alloczero.o ABSOLUTE
    ..\..\..\Utilities\Third_Party\STemWin532_20160205\GUI\Core\GUI_AddDecMin.c 0x00000000   Number         0  gui_adddecmin.o ABSOLUTE
    ..\..\..\Utilities\Third_Party\STemWin532_20160205\GUI\Core\GUI_AddDecShift.c 0x00000000   Number         0  gui_adddecshift.o ABSOLUTE
    ..\..\..\Utilities\Third_Party\STemWin532_20160205\GUI\Core\GUI_Alloc.c 0x00000000   Number         0  gui_alloc.o ABSOLUTE
    ..\..\..\Utilities\Third_Party\STemWin532_20160205\GUI\Core\GUI_CalcColorDist.c 0x00000000   Number         0  gui_calccolordist.o ABSOLUTE
    ..\..\..\Utilities\Third_Party\STemWin532_20160205\GUI\Core\GUI_Char.c 0x00000000   Number         0  gui_char.o ABSOLUTE
    ..\..\..\Utilities\Third_Party\STemWin532_20160205\GUI\Core\GUI_CharLine.c 0x00000000   Number         0  gui_charline.o ABSOLUTE
    ..\..\..\Utilities\Third_Party\STemWin532_20160205\GUI\Core\GUI_CharM.c 0x00000000   Number         0  gui_charm.o ABSOLUTE
    ..\..\..\Utilities\Third_Party\STemWin532_20160205\GUI\Core\GUI_CharP.c 0x00000000   Number         0  gui_charp.o ABSOLUTE
    ..\..\..\Utilities\Third_Party\STemWin532_20160205\GUI\Core\GUI_Core.c 0x00000000   Number         0  gui_core.o ABSOLUTE
    ..\..\..\Utilities\Third_Party\STemWin532_20160205\GUI\Core\GUI_Curs1.c 0x00000000   Number         0  gui_curs1.o ABSOLUTE
    ..\..\..\Utilities\Third_Party\STemWin532_20160205\GUI\Core\GUI_CursorArrowM.c 0x00000000   Number         0  gui_cursorarrowm.o ABSOLUTE
    ..\..\..\Utilities\Third_Party\STemWin532_20160205\GUI\Core\GUI_CursorArrowMPx.c 0x00000000   Number         0  gui_cursorarrowmpx.o ABSOLUTE
    ..\..\..\Utilities\Third_Party\STemWin532_20160205\GUI\Core\GUI_CursorPal.c 0x00000000   Number         0  gui_cursorpal.o ABSOLUTE
    ..\..\..\Utilities\Third_Party\STemWin532_20160205\GUI\Core\GUI_Device.c 0x00000000   Number         0  gui_device.o ABSOLUTE
    ..\..\..\Utilities\Third_Party\STemWin532_20160205\GUI\Core\GUI_DispString.c 0x00000000   Number         0  gui_dispstring.o ABSOLUTE
    ..\..\..\Utilities\Third_Party\STemWin532_20160205\GUI\Core\GUI_DispStringAt.c 0x00000000   Number         0  gui_dispstringat.o ABSOLUTE
    ..\..\..\Utilities\Third_Party\STemWin532_20160205\GUI\Core\GUI_DispStringInRect.c 0x00000000   Number         0  gui_dispstringinrect.o ABSOLUTE
    ..\..\..\Utilities\Third_Party\STemWin532_20160205\GUI\Core\GUI_DrawBitmap.c 0x00000000   Number         0  gui_drawbitmap.o ABSOLUTE
    ..\..\..\Utilities\Third_Party\STemWin532_20160205\GUI\Core\GUI_DrawFocusRect.c 0x00000000   Number         0  gui_drawfocusrect.o ABSOLUTE
    ..\..\..\Utilities\Third_Party\STemWin532_20160205\GUI\Core\GUI_DrawGradient.c 0x00000000   Number         0  gui_drawgradient.o ABSOLUTE
    ..\..\..\Utilities\Third_Party\STemWin532_20160205\GUI\Core\GUI_DrawHLine.c 0x00000000   Number         0  gui_drawhline.o ABSOLUTE
    ..\..\..\Utilities\Third_Party\STemWin532_20160205\GUI\Core\GUI_DrawPixel.c 0x00000000   Number         0  gui_drawpixel.o ABSOLUTE
    ..\..\..\Utilities\Third_Party\STemWin532_20160205\GUI\Core\GUI_DrawVLine.c 0x00000000   Number         0  gui_drawvline.o ABSOLUTE
    ..\..\..\Utilities\Third_Party\STemWin532_20160205\GUI\Core\GUI_Exec.c 0x00000000   Number         0  gui_exec.o ABSOLUTE
    ..\..\..\Utilities\Third_Party\STemWin532_20160205\GUI\Core\GUI_FillRect.c 0x00000000   Number         0  gui_fillrect.o ABSOLUTE
    ..\..\..\Utilities\Third_Party\STemWin532_20160205\GUI\Core\GUI_FillRectEx.c 0x00000000   Number         0  gui_fillrectex.o ABSOLUTE
    ..\..\..\Utilities\Third_Party\STemWin532_20160205\GUI\Core\GUI_GetBitmapPixelIndex.c 0x00000000   Number         0  gui_getbitmappixelindex.o ABSOLUTE
    ..\..\..\Utilities\Third_Party\STemWin532_20160205\GUI\Core\GUI_GetClientRect.c 0x00000000   Number         0  gui_getclientrect.o ABSOLUTE
    ..\..\..\Utilities\Third_Party\STemWin532_20160205\GUI\Core\GUI_GetColor.c 0x00000000   Number         0  gui_getcolor.o ABSOLUTE
    ..\..\..\Utilities\Third_Party\STemWin532_20160205\GUI\Core\GUI_GetFontSizeY.c 0x00000000   Number         0  gui_getfontsizey.o ABSOLUTE
    ..\..\..\Utilities\Third_Party\STemWin532_20160205\GUI\Core\GUI_GetOrg.c 0x00000000   Number         0  gui_getorg.o ABSOLUTE
    ..\..\..\Utilities\Third_Party\STemWin532_20160205\GUI\Core\GUI_GetStringDistX.c 0x00000000   Number         0  gui_getstringdistx.o ABSOLUTE
    ..\..\..\Utilities\Third_Party\STemWin532_20160205\GUI\Core\GUI_GetYSizeOfFont.c 0x00000000   Number         0  gui_getysizeoffont.o ABSOLUTE
    ..\..\..\Utilities\Third_Party\STemWin532_20160205\GUI\Core\GUI_Goto.c 0x00000000   Number         0  gui_goto.o ABSOLUTE
    ..\..\..\Utilities\Third_Party\STemWin532_20160205\GUI\Core\GUI_MULTIBUF.c 0x00000000   Number         0  gui_multibuf.o ABSOLUTE
    ..\..\..\Utilities\Third_Party\STemWin532_20160205\GUI\Core\GUI_MergeRect.c 0x00000000   Number         0  gui_mergerect.o ABSOLUTE
    ..\..\..\Utilities\Third_Party\STemWin532_20160205\GUI\Core\GUI_MoveRect.c 0x00000000   Number         0  gui_moverect.o ABSOLUTE
    ..\..\..\Utilities\Third_Party\STemWin532_20160205\GUI\Core\GUI_OnKey.c 0x00000000   Number         0  gui_onkey.o ABSOLUTE
    ..\..\..\Utilities\Third_Party\STemWin532_20160205\GUI\Core\GUI_PID.c 0x00000000   Number         0  gui_pid.o ABSOLUTE
    ..\..\..\Utilities\Third_Party\STemWin532_20160205\GUI\Core\GUI_Pen.c 0x00000000   Number         0  gui_pen.o ABSOLUTE
    ..\..\..\Utilities\Third_Party\STemWin532_20160205\GUI\Core\GUI_Realloc.c 0x00000000   Number         0  gui_realloc.o ABSOLUTE
    ..\..\..\Utilities\Third_Party\STemWin532_20160205\GUI\Core\GUI_RectsIntersect.c 0x00000000   Number         0  gui_rectsintersect.o ABSOLUTE
    ..\..\..\Utilities\Third_Party\STemWin532_20160205\GUI\Core\GUI_SPRITE.c 0x00000000   Number         0  gui_sprite.o ABSOLUTE
    ..\..\..\Utilities\Third_Party\STemWin532_20160205\GUI\Core\GUI_SaveContext.c 0x00000000   Number         0  gui_savecontext.o ABSOLUTE
    ..\..\..\Utilities\Third_Party\STemWin532_20160205\GUI\Core\GUI_SelectLCD.c 0x00000000   Number         0  gui_selectlcd.o ABSOLUTE
    ..\..\..\Utilities\Third_Party\STemWin532_20160205\GUI\Core\GUI_SelectLayer.c 0x00000000   Number         0  gui_selectlayer.o ABSOLUTE
    ..\..\..\Utilities\Third_Party\STemWin532_20160205\GUI\Core\GUI_SetAlpha.c 0x00000000   Number         0  gui_setalpha.o ABSOLUTE
    ..\..\..\Utilities\Third_Party\STemWin532_20160205\GUI\Core\GUI_SetColor.c 0x00000000   Number         0  gui_setcolor.o ABSOLUTE
    ..\..\..\Utilities\Third_Party\STemWin532_20160205\GUI\Core\GUI_SetDefault.c 0x00000000   Number         0  gui_setdefault.o ABSOLUTE
    ..\..\..\Utilities\Third_Party\STemWin532_20160205\GUI\Core\GUI_SetDrawMode.c 0x00000000   Number         0  gui_setdrawmode.o ABSOLUTE
    ..\..\..\Utilities\Third_Party\STemWin532_20160205\GUI\Core\GUI_SetFont.c 0x00000000   Number         0  gui_setfont.o ABSOLUTE
    ..\..\..\Utilities\Third_Party\STemWin532_20160205\GUI\Core\GUI_SetLineStyle.c 0x00000000   Number         0  gui_setlinestyle.o ABSOLUTE
    ..\..\..\Utilities\Third_Party\STemWin532_20160205\GUI\Core\GUI_SetOrg.c 0x00000000   Number         0  gui_setorg.o ABSOLUTE
    ..\..\..\Utilities\Third_Party\STemWin532_20160205\GUI\Core\GUI_SetTextAlign.c 0x00000000   Number         0  gui_settextalign.o ABSOLUTE
    ..\..\..\Utilities\Third_Party\STemWin532_20160205\GUI\Core\GUI_SetTextMode.c 0x00000000   Number         0  gui_settextmode.o ABSOLUTE
    ..\..\..\Utilities\Third_Party\STemWin532_20160205\GUI\Core\GUI_Time.c 0x00000000   Number         0  gui_time.o ABSOLUTE
    ..\..\..\Utilities\Third_Party\STemWin532_20160205\GUI\Core\GUI_Timer.c 0x00000000   Number         0  gui_timer.o ABSOLUTE
    ..\..\..\Utilities\Third_Party\STemWin532_20160205\GUI\Core\GUI_UC.c 0x00000000   Number         0  gui_uc.o ABSOLUTE
    ..\..\..\Utilities\Third_Party\STemWin532_20160205\GUI\Core\GUI_UC_EncodeNone.c 0x00000000   Number         0  gui_uc_encodenone.o ABSOLUTE
    ..\..\..\Utilities\Third_Party\STemWin532_20160205\GUI\Core\GUI_WaitEvent.c 0x00000000   Number         0  gui_waitevent.o ABSOLUTE
    ..\..\..\Utilities\Third_Party\STemWin532_20160205\GUI\Core\GUI__Alpha.c 0x00000000   Number         0  gui__alpha.o ABSOLUTE
    ..\..\..\Utilities\Third_Party\STemWin532_20160205\GUI\Core\GUI__CompactPixelIndices.c 0x00000000   Number         0  gui__compactpixelindices.o ABSOLUTE
    ..\..\..\Utilities\Third_Party\STemWin532_20160205\GUI\Core\GUI__DivTbl_255_31.c 0x00000000   Number         0  gui__divtbl_255_31.o ABSOLUTE
    ..\..\..\Utilities\Third_Party\STemWin532_20160205\GUI\Core\GUI__DivTbl_255_63.c 0x00000000   Number         0  gui__divtbl_255_63.o ABSOLUTE
    ..\..\..\Utilities\Third_Party\STemWin532_20160205\GUI\Core\GUI__DivTbl_31_255.c 0x00000000   Number         0  gui__divtbl_31_255.o ABSOLUTE
    ..\..\..\Utilities\Third_Party\STemWin532_20160205\GUI\Core\GUI__DivTbl_63_255.c 0x00000000   Number         0  gui__divtbl_63_255.o ABSOLUTE
    ..\..\..\Utilities\Third_Party\STemWin532_20160205\GUI\Core\GUI__DrawTwinArc.c 0x00000000   Number         0  gui__drawtwinarc.o ABSOLUTE
    ..\..\..\Utilities\Third_Party\STemWin532_20160205\GUI\Core\GUI__ExpandPixelIndices.c 0x00000000   Number         0  gui__expandpixelindices.o ABSOLUTE
    ..\..\..\Utilities\Third_Party\STemWin532_20160205\GUI\Core\GUI__GetFontSizeY.c 0x00000000   Number         0  gui__getfontsizey.o ABSOLUTE
    ..\..\..\Utilities\Third_Party\STemWin532_20160205\GUI\Core\GUI__GetNumChars.c 0x00000000   Number         0  gui__getnumchars.o ABSOLUTE
    ..\..\..\Utilities\Third_Party\STemWin532_20160205\GUI\Core\GUI__HandleEOLine.c 0x00000000   Number         0  gui__handleeoline.o ABSOLUTE
    ..\..\..\Utilities\Third_Party\STemWin532_20160205\GUI\Core\GUI__IntersectRect.c 0x00000000   Number         0  gui__intersectrect.o ABSOLUTE
    ..\..\..\Utilities\Third_Party\STemWin532_20160205\GUI\Core\GUI__IntersectRects.c 0x00000000   Number         0  gui__intersectrects.o ABSOLUTE
    ..\..\..\Utilities\Third_Party\STemWin532_20160205\GUI\Core\GUI__ManageCache.c 0x00000000   Number         0  gui__managecache.o ABSOLUTE
    ..\..\..\Utilities\Third_Party\STemWin532_20160205\GUI\Core\GUI__ReduceRect.c 0x00000000   Number         0  gui__reducerect.o ABSOLUTE
    ..\..\..\Utilities\Third_Party\STemWin532_20160205\GUI\Core\GUI__SetText.c 0x00000000   Number         0  gui__settext.o ABSOLUTE
    ..\..\..\Utilities\Third_Party\STemWin532_20160205\GUI\Core\GUI__memset.c 0x00000000   Number         0  gui__memset.o ABSOLUTE
    ..\..\..\Utilities\Third_Party\STemWin532_20160205\GUI\Core\GUI__memset16.c 0x00000000   Number         0  gui__memset16.o ABSOLUTE
    ..\..\..\Utilities\Third_Party\STemWin532_20160205\GUI\Core\GUI__sqrt32.c 0x00000000   Number         0  gui__sqrt32.o ABSOLUTE
    ..\..\..\Utilities\Third_Party\STemWin532_20160205\GUI\Core\GUI__strcmp.c 0x00000000   Number         0  gui__strcmp.o ABSOLUTE
    ..\..\..\Utilities\Third_Party\STemWin532_20160205\GUI\Core\GUI__strlen.c 0x00000000   Number         0  gui__strlen.o ABSOLUTE
    ..\..\..\Utilities\Third_Party\STemWin532_20160205\GUI\Core\LCD.c 0x00000000   Number         0  lcd.o ABSOLUTE
    ..\..\..\Utilities\Third_Party\STemWin532_20160205\GUI\Core\LCD_AA.c 0x00000000   Number         0  lcd_aa.o ABSOLUTE
    ..\..\..\Utilities\Third_Party\STemWin532_20160205\GUI\Core\LCD_Color.c 0x00000000   Number         0  lcd_color.o ABSOLUTE
    ..\..\..\Utilities\Third_Party\STemWin532_20160205\GUI\Core\LCD_GetColorIndex.c 0x00000000   Number         0  lcd_getcolorindex.o ABSOLUTE
    ..\..\..\Utilities\Third_Party\STemWin532_20160205\GUI\Core\LCD_GetEx.c 0x00000000   Number         0  lcd_getex.o ABSOLUTE
    ..\..\..\Utilities\Third_Party\STemWin532_20160205\GUI\Core\LCD_GetNumDisplays.c 0x00000000   Number         0  lcd_getnumdisplays.o ABSOLUTE
    ..\..\..\Utilities\Third_Party\STemWin532_20160205\GUI\Core\LCD_GetP.c 0x00000000   Number         0  lcd_getp.o ABSOLUTE
    ..\..\..\Utilities\Third_Party\STemWin532_20160205\GUI\Core\LCD_GetPixelColor.c 0x00000000   Number         0  lcd_getpixelcolor.o ABSOLUTE
    ..\..\..\Utilities\Third_Party\STemWin532_20160205\GUI\Core\LCD_Mirror.c 0x00000000   Number         0  lcd_mirror.o ABSOLUTE
    ..\..\..\Utilities\Third_Party\STemWin532_20160205\GUI\Core\LCD_ReadRect.c 0x00000000   Number         0  lcd_readrect.o ABSOLUTE
    ..\..\..\Utilities\Third_Party\STemWin532_20160205\GUI\Core\LCD_SelectLCD.c 0x00000000   Number         0  lcd_selectlcd.o ABSOLUTE
    ..\..\..\Utilities\Third_Party\STemWin532_20160205\GUI\Core\LCD_Set.c 0x00000000   Number         0  lcd_set.o ABSOLUTE
    ..\..\..\Utilities\Third_Party\STemWin532_20160205\GUI\Core\LCD_SetClipRectEx.c 0x00000000   Number         0  lcd_setcliprectex.o ABSOLUTE
    ..\..\..\Utilities\Third_Party\STemWin532_20160205\GUI\Core\LCD_UpdateColorIndices.c 0x00000000   Number         0  lcd_updatecolorindices.o ABSOLUTE
    ..\..\..\Utilities\Third_Party\STemWin532_20160205\GUI\DisplayDriver\GUIDRV_FlexColor.c 0x00000000   Number         0  guidrv_flexcolor.o ABSOLUTE
    ..\..\..\Utilities\Third_Party\STemWin532_20160205\GUI\DisplayDriver\GUIDRV_FlexColor_16bpp_C0B8.c 0x00000000   Number         0  guidrv_flexcolor_16bpp_c0b8.o ABSOLUTE
    ..\..\..\Utilities\Third_Party\STemWin532_20160205\GUI\DisplayDriver\GUIDRV_FlexColor_Func66709.c 0x00000000   Number         0  guidrv_flexcolor_func66709.o ABSOLUTE
    ..\..\..\Utilities\Third_Party\STemWin532_20160205\GUI\Font\F13_1.c 0x00000000   Number         0  f13_1.o ABSOLUTE
    ..\..\..\Utilities\Third_Party\STemWin532_20160205\GUI\Font\F13_ASCII.c 0x00000000   Number         0  f13_ascii.o ABSOLUTE
    ..\..\..\Utilities\Third_Party\STemWin532_20160205\GUI\Font\F16B_ASCII.c 0x00000000   Number         0  f16b_ascii.o ABSOLUTE
    ..\..\..\Utilities\Third_Party\STemWin532_20160205\GUI\Font\F6x8.c 0x00000000   Number         0  f6x8.o ABSOLUTE
    ..\..\..\Utilities\Third_Party\STemWin532_20160205\GUI\Font\FComic18B_ASCII.c 0x00000000   Number         0  fcomic18b_ascii.o ABSOLUTE
    ..\..\..\Utilities\Third_Party\STemWin532_20160205\GUI\MemDev\GUIDEV.c 0x00000000   Number         0  guidev.o ABSOLUTE
    ..\..\..\Utilities\Third_Party\STemWin532_20160205\GUI\MemDev\GUIDEV_16.c 0x00000000   Number         0  guidev_16.o ABSOLUTE
    ..\..\..\Utilities\Third_Party\STemWin532_20160205\GUI\MemDev\GUIDEV_32.c 0x00000000   Number         0  guidev_32.o ABSOLUTE
    ..\..\..\Utilities\Third_Party\STemWin532_20160205\GUI\MemDev\GUIDEV_Banding.c 0x00000000   Number         0  guidev_banding.o ABSOLUTE
    ..\..\..\Utilities\Third_Party\STemWin532_20160205\GUI\MemDev\GUIDEV_Clear.c 0x00000000   Number         0  guidev_clear.o ABSOLUTE
    ..\..\..\Utilities\Third_Party\STemWin532_20160205\GUI\MemDev\GUIDEV_CreateFixed.c 0x00000000   Number         0  guidev_createfixed.o ABSOLUTE
    ..\..\..\Utilities\Third_Party\STemWin532_20160205\GUI\MemDev\GUIDEV_GetDataPtr.c 0x00000000   Number         0  guidev_getdataptr.o ABSOLUTE
    ..\..\..\Utilities\Third_Party\STemWin532_20160205\GUI\MemDev\GUIDEV_GetPos.c 0x00000000   Number         0  guidev_getpos.o ABSOLUTE
    ..\..\..\Utilities\Third_Party\STemWin532_20160205\GUI\MemDev\GUIDEV_GetXSize.c 0x00000000   Number         0  guidev_getxsize.o ABSOLUTE
    ..\..\..\Utilities\Third_Party\STemWin532_20160205\GUI\MemDev\GUIDEV_GetYSize.c 0x00000000   Number         0  guidev_getysize.o ABSOLUTE
    ..\..\..\Utilities\Third_Party\STemWin532_20160205\GUI\MemDev\GUIDEV_ReduceYSize.c 0x00000000   Number         0  guidev_reduceysize.o ABSOLUTE
    ..\..\..\Utilities\Third_Party\STemWin532_20160205\GUI\MemDev\GUIDEV_SetOrg.c 0x00000000   Number         0  guidev_setorg.o ABSOLUTE
    ..\..\..\Utilities\Third_Party\STemWin532_20160205\GUI\MemDev\GUIDEV_StaticDevices.c 0x00000000   Number         0  guidev_staticdevices.o ABSOLUTE
    ..\..\..\Utilities\Third_Party\STemWin532_20160205\GUI\MemDev\GUIDEV_Usage.c 0x00000000   Number         0  guidev_usage.o ABSOLUTE
    ..\..\..\Utilities\Third_Party\STemWin532_20160205\GUI\MemDev\GUIDEV_UsageBM.c 0x00000000   Number         0  guidev_usagebm.o ABSOLUTE
    ..\..\..\Utilities\Third_Party\STemWin532_20160205\GUI\MemDev\GUIDEV_Write.c 0x00000000   Number         0  guidev_write.o ABSOLUTE
    ..\..\..\Utilities\Third_Party\STemWin532_20160205\GUI\MemDev\GUIDEV_WriteToActiveAlpha.c 0x00000000   Number         0  guidev_writetoactivealpha.o ABSOLUTE
    ..\..\..\Utilities\Third_Party\STemWin532_20160205\GUI\MemDev\GUIDEV_WriteToActiveOpaque.c 0x00000000   Number         0  guidev_writetoactiveopaque.o ABSOLUTE
    ..\..\..\Utilities\Third_Party\STemWin532_20160205\GUI\WM\WM.c 0x00000000   Number         0  wm.o ABSOLUTE
    ..\..\..\Utilities\Third_Party\STemWin532_20160205\GUI\WM\WM_BringToBottom.c 0x00000000   Number         0  wm_bringtobottom.o ABSOLUTE
    ..\..\..\Utilities\Third_Party\STemWin532_20160205\GUI\WM\WM_BringToTop.c 0x00000000   Number         0  wm_bringtotop.o ABSOLUTE
    ..\..\..\Utilities\Third_Party\STemWin532_20160205\GUI\WM\WM_CriticalHandle.c 0x00000000   Number         0  wm_criticalhandle.o ABSOLUTE
    ..\..\..\Utilities\Third_Party\STemWin532_20160205\GUI\WM\WM_ForEachDesc.c 0x00000000   Number         0  wm_foreachdesc.o ABSOLUTE
    ..\..\..\Utilities\Third_Party\STemWin532_20160205\GUI\WM\WM_GetBkColor.c 0x00000000   Number         0  wm_getbkcolor.o ABSOLUTE
    ..\..\..\Utilities\Third_Party\STemWin532_20160205\GUI\WM\WM_GetClientRect.c 0x00000000   Number         0  wm_getclientrect.o ABSOLUTE
    ..\..\..\Utilities\Third_Party\STemWin532_20160205\GUI\WM\WM_GetClientWindow.c 0x00000000   Number         0  wm_getclientwindow.o ABSOLUTE
    ..\..\..\Utilities\Third_Party\STemWin532_20160205\GUI\WM\WM_GetDesktopWindow.c 0x00000000   Number         0  wm_getdesktopwindow.o ABSOLUTE
    ..\..\..\Utilities\Third_Party\STemWin532_20160205\GUI\WM\WM_GetDesktopWindowEx.c 0x00000000   Number         0  wm_getdesktopwindowex.o ABSOLUTE
    ..\..\..\Utilities\Third_Party\STemWin532_20160205\GUI\WM\WM_GetDialogItem.c 0x00000000   Number         0  wm_getdialogitem.o ABSOLUTE
    ..\..\..\Utilities\Third_Party\STemWin532_20160205\GUI\WM\WM_GetFirstChild.c 0x00000000   Number         0  wm_getfirstchild.o ABSOLUTE
    ..\..\..\Utilities\Third_Party\STemWin532_20160205\GUI\WM\WM_GetFocussedWindow.c 0x00000000   Number         0  wm_getfocussedwindow.o ABSOLUTE
    ..\..\..\Utilities\Third_Party\STemWin532_20160205\GUI\WM\WM_GetId.c 0x00000000   Number         0  wm_getid.o ABSOLUTE
    ..\..\..\Utilities\Third_Party\STemWin532_20160205\GUI\WM\WM_GetNextSibling.c 0x00000000   Number         0  wm_getnextsibling.o ABSOLUTE
    ..\..\..\Utilities\Third_Party\STemWin532_20160205\GUI\WM\WM_GetOrg.c 0x00000000   Number         0  wm_getorg.o ABSOLUTE
    ..\..\..\Utilities\Third_Party\STemWin532_20160205\GUI\WM\WM_GetParent.c 0x00000000   Number         0  wm_getparent.o ABSOLUTE
    ..\..\..\Utilities\Third_Party\STemWin532_20160205\GUI\WM\WM_GetWindowRect.c 0x00000000   Number         0  wm_getwindowrect.o ABSOLUTE
    ..\..\..\Utilities\Third_Party\STemWin532_20160205\GUI\WM\WM_GetWindowSize.c 0x00000000   Number         0  wm_getwindowsize.o ABSOLUTE
    ..\..\..\Utilities\Third_Party\STemWin532_20160205\GUI\WM\WM_HasCaptured.c 0x00000000   Number         0  wm_hascaptured.o ABSOLUTE
    ..\..\..\Utilities\Third_Party\STemWin532_20160205\GUI\WM\WM_HasFocus.c 0x00000000   Number         0  wm_hasfocus.o ABSOLUTE
    ..\..\..\Utilities\Third_Party\STemWin532_20160205\GUI\WM\WM_IsFocussable.c 0x00000000   Number         0  wm_isfocussable.o ABSOLUTE
    ..\..\..\Utilities\Third_Party\STemWin532_20160205\GUI\WM\WM_IsWindow.c 0x00000000   Number         0  wm_iswindow.o ABSOLUTE
    ..\..\..\Utilities\Third_Party\STemWin532_20160205\GUI\WM\WM_MULTIBUF.c 0x00000000   Number         0  wm_multibuf.o ABSOLUTE
    ..\..\..\Utilities\Third_Party\STemWin532_20160205\GUI\WM\WM_MemDev.c 0x00000000   Number         0  wm_memdev.o ABSOLUTE
    ..\..\..\Utilities\Third_Party\STemWin532_20160205\GUI\WM\WM_Move.c 0x00000000   Number         0  wm_move.o ABSOLUTE
    ..\..\..\Utilities\Third_Party\STemWin532_20160205\GUI\WM\WM_MoveChildTo.c 0x00000000   Number         0  wm_movechildto.o ABSOLUTE
    ..\..\..\Utilities\Third_Party\STemWin532_20160205\GUI\WM\WM_NotifyParent.c 0x00000000   Number         0  wm_notifyparent.o ABSOLUTE
    ..\..\..\Utilities\Third_Party\STemWin532_20160205\GUI\WM\WM_OnKey.c 0x00000000   Number         0  wm_onkey.o ABSOLUTE
    ..\..\..\Utilities\Third_Party\STemWin532_20160205\GUI\WM\WM_PID__GetPrevState.c 0x00000000   Number         0  wm_pid__getprevstate.o ABSOLUTE
    ..\..\..\Utilities\Third_Party\STemWin532_20160205\GUI\WM\WM_ResizeWindow.c 0x00000000   Number         0  wm_resizewindow.o ABSOLUTE
    ..\..\..\Utilities\Third_Party\STemWin532_20160205\GUI\WM\WM_Screen2Win.c 0x00000000   Number         0  wm_screen2win.o ABSOLUTE
    ..\..\..\Utilities\Third_Party\STemWin532_20160205\GUI\WM\WM_SendMessageNoPara.c 0x00000000   Number         0  wm_sendmessagenopara.o ABSOLUTE
    ..\..\..\Utilities\Third_Party\STemWin532_20160205\GUI\WM\WM_SendToParent.c 0x00000000   Number         0  wm_sendtoparent.o ABSOLUTE
    ..\..\..\Utilities\Third_Party\STemWin532_20160205\GUI\WM\WM_SetCapture.c 0x00000000   Number         0  wm_setcapture.o ABSOLUTE
    ..\..\..\Utilities\Third_Party\STemWin532_20160205\GUI\WM\WM_SetCaptureMove.c 0x00000000   Number         0  wm_setcapturemove.o ABSOLUTE
    ..\..\..\Utilities\Third_Party\STemWin532_20160205\GUI\WM\WM_SetFocus.c 0x00000000   Number         0  wm_setfocus.o ABSOLUTE
    ..\..\..\Utilities\Third_Party\STemWin532_20160205\GUI\WM\WM_SetFocusOnNextChild.c 0x00000000   Number         0  wm_setfocusonnextchild.o ABSOLUTE
    ..\..\..\Utilities\Third_Party\STemWin532_20160205\GUI\WM\WM_SetFocusOnPrevChild.c 0x00000000   Number         0  wm_setfocusonprevchild.o ABSOLUTE
    ..\..\..\Utilities\Third_Party\STemWin532_20160205\GUI\WM\WM_SetScrollState.c 0x00000000   Number         0  wm_setscrollstate.o ABSOLUTE
    ..\..\..\Utilities\Third_Party\STemWin532_20160205\GUI\WM\WM_SetSize.c 0x00000000   Number         0  wm_setsize.o ABSOLUTE
    ..\..\..\Utilities\Third_Party\STemWin532_20160205\GUI\WM\WM_SetTrans.c 0x00000000   Number         0  wm_settrans.o ABSOLUTE
    ..\..\..\Utilities\Third_Party\STemWin532_20160205\GUI\WM\WM_SetUserClipRect.c 0x00000000   Number         0  wm_setusercliprect.o ABSOLUTE
    ..\..\..\Utilities\Third_Party\STemWin532_20160205\GUI\WM\WM_Show.c 0x00000000   Number         0  wm_show.o ABSOLUTE
    ..\..\..\Utilities\Third_Party\STemWin532_20160205\GUI\WM\WM_Timer.c 0x00000000   Number         0  wm_timer.o ABSOLUTE
    ..\..\..\Utilities\Third_Party\STemWin532_20160205\GUI\WM\WM_Touch.c 0x00000000   Number         0  wm_touch.o ABSOLUTE
    ..\..\..\Utilities\Third_Party\STemWin532_20160205\GUI\WM\WM_UserData.c 0x00000000   Number         0  wm_userdata.o ABSOLUTE
    ..\..\..\Utilities\Third_Party\STemWin532_20160205\GUI\WM\WM_ValidateWindow.c 0x00000000   Number         0  wm_validatewindow.o ABSOLUTE
    ..\..\..\Utilities\Third_Party\STemWin532_20160205\GUI\WM\WM__ForEachDesc.c 0x00000000   Number         0  wm__foreachdesc.o ABSOLUTE
    ..\..\..\Utilities\Third_Party\STemWin532_20160205\GUI\WM\WM__GetFirstSibling.c 0x00000000   Number         0  wm__getfirstsibling.o ABSOLUTE
    ..\..\..\Utilities\Third_Party\STemWin532_20160205\GUI\WM\WM__GetFocussedChild.c 0x00000000   Number         0  wm__getfocussedchild.o ABSOLUTE
    ..\..\..\Utilities\Third_Party\STemWin532_20160205\GUI\WM\WM__GetLastSibling.c 0x00000000   Number         0  wm__getlastsibling.o ABSOLUTE
    ..\..\..\Utilities\Third_Party\STemWin532_20160205\GUI\WM\WM__GetPrevSibling.c 0x00000000   Number         0  wm__getprevsibling.o ABSOLUTE
    ..\..\..\Utilities\Third_Party\STemWin532_20160205\GUI\WM\WM__IsAncestor.c 0x00000000   Number         0  wm__isancestor.o ABSOLUTE
    ..\..\..\Utilities\Third_Party\STemWin532_20160205\GUI\WM\WM__IsChild.c 0x00000000   Number         0  wm__ischild.o ABSOLUTE
    ..\..\..\Utilities\Third_Party\STemWin532_20160205\GUI\WM\WM__IsEnabled.c 0x00000000   Number         0  wm__isenabled.o ABSOLUTE
    ..\..\..\Utilities\Third_Party\STemWin532_20160205\GUI\WM\WM__Screen2Client.c 0x00000000   Number         0  wm__screen2client.o ABSOLUTE
    ..\..\..\Utilities\Third_Party\STemWin532_20160205\GUI\WM\WM__SendMessage.c 0x00000000   Number         0  wm__sendmessage.o ABSOLUTE
    ..\..\..\Utilities\Third_Party\STemWin532_20160205\GUI\WM\WM__SendMessageIfEnabled.c 0x00000000   Number         0  wm__sendmessageifenabled.o ABSOLUTE
    ..\..\..\Utilities\Third_Party\STemWin532_20160205\GUI\WM\WM__SendMessageNoPara.c 0x00000000   Number         0  wm__sendmessagenopara.o ABSOLUTE
    ..\..\..\Utilities\Third_Party\STemWin532_20160205\GUI\WM\WM__UpdateChildPositions.c 0x00000000   Number         0  wm__updatechildpositions.o ABSOLUTE
    ..\..\..\Utilities\Third_Party\STemWin532_20160205\GUI\Widget\DIALOG.c 0x00000000   Number         0  dialog.o ABSOLUTE
    ..\..\..\Utilities\Third_Party\STemWin532_20160205\GUI\Widget\FRAMEWIN.c 0x00000000   Number         0  framewin.o ABSOLUTE
    ..\..\..\Utilities\Third_Party\STemWin532_20160205\GUI\Widget\FRAMEWIN_CreateIndirect.c 0x00000000   Number         0  framewin_createindirect.o ABSOLUTE
    ..\..\..\Utilities\Third_Party\STemWin532_20160205\GUI\Widget\FRAMEWIN_Get.c 0x00000000   Number         0  framewin_get.o ABSOLUTE
    ..\..\..\Utilities\Third_Party\STemWin532_20160205\GUI\Widget\FRAMEWIN_SetFont.c 0x00000000   Number         0  framewin_setfont.o ABSOLUTE
    ..\..\..\Utilities\Third_Party\STemWin532_20160205\GUI\Widget\FRAMEWIN_SetTitleHeight.c 0x00000000   Number         0  framewin_settitleheight.o ABSOLUTE
    ..\..\..\Utilities\Third_Party\STemWin532_20160205\GUI\Widget\FRAMEWIN_Skin.c 0x00000000   Number         0  framewin_skin.o ABSOLUTE
    ..\..\..\Utilities\Third_Party\STemWin532_20160205\GUI\Widget\FRAMEWIN_SkinFlex.c 0x00000000   Number         0  framewin_skinflex.o ABSOLUTE
    ..\..\..\Utilities\Third_Party\STemWin532_20160205\GUI\Widget\FRAMEWIN__UpdateButtons.c 0x00000000   Number         0  framewin__updatebuttons.o ABSOLUTE
    ..\..\..\Utilities\Third_Party\STemWin532_20160205\GUI\Widget\PROGBAR.c 0x00000000   Number         0  progbar.o ABSOLUTE
    ..\..\..\Utilities\Third_Party\STemWin532_20160205\GUI\Widget\PROGBAR_CreateIndirect.c 0x00000000   Number         0  progbar_createindirect.o ABSOLUTE
    ..\..\..\Utilities\Third_Party\STemWin532_20160205\GUI\Widget\PROGBAR_SetFont.c 0x00000000   Number         0  progbar_setfont.o ABSOLUTE
    ..\..\..\Utilities\Third_Party\STemWin532_20160205\GUI\Widget\PROGBAR_SetMinMax.c 0x00000000   Number         0  progbar_setminmax.o ABSOLUTE
    ..\..\..\Utilities\Third_Party\STemWin532_20160205\GUI\Widget\PROGBAR_Skin.c 0x00000000   Number         0  progbar_skin.o ABSOLUTE
    ..\..\..\Utilities\Third_Party\STemWin532_20160205\GUI\Widget\PROGBAR_SkinFlex.c 0x00000000   Number         0  progbar_skinflex.o ABSOLUTE
    ..\..\..\Utilities\Third_Party\STemWin532_20160205\GUI\Widget\WIDGET.c 0x00000000   Number         0  widget.o ABSOLUTE
    ..\..\..\Utilities\Third_Party\STemWin532_20160205\GUI\Widget\WIDGET_Effect_None.c 0x00000000   Number         0  widget_effect_none.o ABSOLUTE
    ..\..\..\Utilities\Third_Party\STemWin532_20160205\GUI\Widget\WIDGET_Effect_Simple.c 0x00000000   Number         0  widget_effect_simple.o ABSOLUTE
    ..\..\..\Utilities\Third_Party\STemWin532_20160205\GUI\Widget\WIDGET_SetEffect.c 0x00000000   Number         0  widget_seteffect.o ABSOLUTE
    ..\Drivers\STM32L4xx_HAL_Driver\Src\stm32l4xx_hal.c 0x00000000   Number         0  stm32l4xx_hal.o ABSOLUTE
    ..\Drivers\STM32L4xx_HAL_Driver\Src\stm32l4xx_hal_cortex.c 0x00000000   Number         0  stm32l4xx_hal_cortex.o ABSOLUTE
    ..\Drivers\STM32L4xx_HAL_Driver\Src\stm32l4xx_hal_dma.c 0x00000000   Number         0  stm32l4xx_hal_dma.o ABSOLUTE
    ..\Drivers\STM32L4xx_HAL_Driver\Src\stm32l4xx_hal_dma_ex.c 0x00000000   Number         0  stm32l4xx_hal_dma_ex.o ABSOLUTE
    ..\Drivers\STM32L4xx_HAL_Driver\Src\stm32l4xx_hal_flash.c 0x00000000   Number         0  stm32l4xx_hal_flash.o ABSOLUTE
    ..\Drivers\STM32L4xx_HAL_Driver\Src\stm32l4xx_hal_flash_ex.c 0x00000000   Number         0  stm32l4xx_hal_flash_ex.o ABSOLUTE
    ..\Drivers\STM32L4xx_HAL_Driver\Src\stm32l4xx_hal_flash_ramfunc.c 0x00000000   Number         0  stm32l4xx_hal_flash_ramfunc.o ABSOLUTE
    ..\Drivers\STM32L4xx_HAL_Driver\Src\stm32l4xx_hal_gpio.c 0x00000000   Number         0  stm32l4xx_hal_gpio.o ABSOLUTE
    ..\Drivers\STM32L4xx_HAL_Driver\Src\stm32l4xx_hal_i2c.c 0x00000000   Number         0  stm32l4xx_hal_i2c.o ABSOLUTE
    ..\Drivers\STM32L4xx_HAL_Driver\Src\stm32l4xx_hal_i2c_ex.c 0x00000000   Number         0  stm32l4xx_hal_i2c_ex.o ABSOLUTE
    ..\Drivers\STM32L4xx_HAL_Driver\Src\stm32l4xx_hal_pwr.c 0x00000000   Number         0  stm32l4xx_hal_pwr.o ABSOLUTE
    ..\Drivers\STM32L4xx_HAL_Driver\Src\stm32l4xx_hal_pwr_ex.c 0x00000000   Number         0  stm32l4xx_hal_pwr_ex.o ABSOLUTE
    ..\Drivers\STM32L4xx_HAL_Driver\Src\stm32l4xx_hal_rcc.c 0x00000000   Number         0  stm32l4xx_hal_rcc.o ABSOLUTE
    ..\Drivers\STM32L4xx_HAL_Driver\Src\stm32l4xx_hal_rcc_ex.c 0x00000000   Number         0  stm32l4xx_hal_rcc_ex.o ABSOLUTE
    ..\Drivers\STM32L4xx_HAL_Driver\Src\stm32l4xx_hal_spi.c 0x00000000   Number         0  stm32l4xx_hal_spi.o ABSOLUTE
    ..\Drivers\STM32L4xx_HAL_Driver\Src\stm32l4xx_hal_spi_ex.c 0x00000000   Number         0  stm32l4xx_hal_spi_ex.o ABSOLUTE
    ..\Drivers\STM32L4xx_HAL_Driver\Src\stm32l4xx_hal_tim.c 0x00000000   Number         0  stm32l4xx_hal_tim.o ABSOLUTE
    ..\Drivers\STM32L4xx_HAL_Driver\Src\stm32l4xx_hal_tim_ex.c 0x00000000   Number         0  stm32l4xx_hal_tim_ex.o ABSOLUTE
    ..\Drivers\STM32L4xx_HAL_Driver\Src\stm32l4xx_hal_uart.c 0x00000000   Number         0  stm32l4xx_hal_uart.o ABSOLUTE
    ..\Drivers\STM32L4xx_HAL_Driver\Src\stm32l4xx_hal_uart_ex.c 0x00000000   Number         0  stm32l4xx_hal_uart_ex.o ABSOLUTE
    ..\EMWIN\STemWinLibrary532\Config\GUIConf.c 0x00000000   Number         0  guiconf.o ABSOLUTE
    ..\EMWIN\STemWinLibrary532\Config\LCDConf_FlexColor_Template.c 0x00000000   Number         0  lcdconf_flexcolor_template.o ABSOLUTE
    ..\EMWIN\STemWinLibrary532\OS\GUI_X.c    0x00000000   Number         0  gui_x.o ABSOLUTE
    ..\EMWIN\STemWinLibrary532\Software\ProcessbarDLG.c 0x00000000   Number         0  processbardlg.o ABSOLUTE
    ..\Hardware\LCD\HzLib.c                  0x00000000   Number         0  hzlib.o ABSOLUTE
    ..\Hardware\LCD\lcd.c                    0x00000000   Number         0  lcd.o ABSOLUTE
    ..\Src\gpio.c                            0x00000000   Number         0  gpio.o ABSOLUTE
    ..\Src\main.c                            0x00000000   Number         0  main.o ABSOLUTE
    ..\Src\spi.c                             0x00000000   Number         0  spi.o ABSOLUTE
    ..\Src\stm32l4xx_hal_msp.c               0x00000000   Number         0  stm32l4xx_hal_msp.o ABSOLUTE
    ..\Src\stm32l4xx_it.c                    0x00000000   Number         0  stm32l4xx_it.o ABSOLUTE
    ..\Src\usart.c                           0x00000000   Number         0  usart.o ABSOLUTE
    ..\\EMWIN\\STemWinLibrary532\\Config\\LCDConf_FlexColor_Template.c 0x00000000   Number         0  lcdconf_flexcolor_template.o ABSOLUTE
    ..\\Hardware\\LCD\\lcd.c                 0x00000000   Number         0  lcd.o ABSOLUTE
    ..\\Src\system_stm32l4xx.c               0x00000000   Number         0  system_stm32l4xx.o ABSOLUTE
    dc.s                                     0x00000000   Number         0  dc.o ABSOLUTE
    handlers.s                               0x00000000   Number         0  handlers.o ABSOLUTE
    init.s                                   0x00000000   Number         0  init.o ABSOLUTE
    startup_stm32l431xx.s                    0x00000000   Number         0  startup_stm32l431xx.o ABSOLUTE
    RESET                                    0x08000000   Section      396  startup_stm32l431xx.o(RESET)
    .ARM.Collect$$$$00000000                 0x0800018c   Section        0  entry.o(.ARM.Collect$$$$00000000)
    .ARM.Collect$$$$00000001                 0x0800018c   Section        4  entry2.o(.ARM.Collect$$$$00000001)
    .ARM.Collect$$$$00000004                 0x08000190   Section        4  entry5.o(.ARM.Collect$$$$00000004)
    .ARM.Collect$$$$00000008                 0x08000194   Section        0  entry7b.o(.ARM.Collect$$$$00000008)
    .ARM.Collect$$$$0000000A                 0x08000194   Section        0  entry8b.o(.ARM.Collect$$$$0000000A)
    .ARM.Collect$$$$0000000B                 0x08000194   Section        8  entry9a.o(.ARM.Collect$$$$0000000B)
    .ARM.Collect$$$$0000000D                 0x0800019c   Section        0  entry10a.o(.ARM.Collect$$$$0000000D)
    .ARM.Collect$$$$0000000F                 0x0800019c   Section        0  entry11a.o(.ARM.Collect$$$$0000000F)
    .ARM.Collect$$$$00002712                 0x0800019c   Section        4  entry2.o(.ARM.Collect$$$$00002712)
    __lit__00000000                          0x0800019c   Data           4  entry2.o(.ARM.Collect$$$$00002712)
    .text                                    0x080001a0   Section       36  startup_stm32l431xx.o(.text)
    $v0                                      0x080001a0   Number         0  startup_stm32l431xx.o(.text)
    .text                                    0x080001c4   Section        0  uldiv.o(.text)
    .text                                    0x0800022c   Section        0  memmovea.o(.text)
    .text                                    0x0800026c   Section        0  memseta.o(.text)
    .text                                    0x08000290   Section        0  strcpy.o(.text)
    .text                                    0x080002a2   Section        0  llshl.o(.text)
    .text                                    0x080002c0   Section        0  llushr.o(.text)
    .text                                    0x080002e0   Section       36  init.o(.text)
    .text                                    0x08000304   Section        0  __dczerorl2.o(.text)
    i.BusFault_Handler                       0x0800035a   Section        0  stm32l4xx_it.o(i.BusFault_Handler)
    i.CreateProcessbar                       0x08000360   Section        0  processbardlg.o(i.CreateProcessbar)
    i.DebugMon_Handler                       0x08000388   Section        0  stm32l4xx_it.o(i.DebugMon_Handler)
    i.FRAMEWIN_Callback                      0x0800038a   Section        0  framewin.o(i.FRAMEWIN_Callback)
    i.FRAMEWIN_CreateIndirect                0x08000542   Section        0  framewin_createindirect.o(i.FRAMEWIN_CreateIndirect)
    i.FRAMEWIN_CreateUser                    0x08000584   Section        0  framewin.o(i.FRAMEWIN_CreateUser)
    i.FRAMEWIN_DrawSkinFlex                  0x08000668   Section        0  framewin_skinflex.o(i.FRAMEWIN_DrawSkinFlex)
    i.FRAMEWIN_GetActive                     0x080009e4   Section        0  framewin_get.o(i.FRAMEWIN_GetActive)
    i.FRAMEWIN_SetActive                     0x08000a04   Section        0  framewin.o(i.FRAMEWIN_SetActive)
    i.FRAMEWIN_SetFont                       0x08000a0e   Section        0  framewin_setfont.o(i.FRAMEWIN_SetFont)
    i.FRAMEWIN_SetText                       0x08000a6e   Section        0  framewin.o(i.FRAMEWIN_SetText)
    i.FRAMEWIN_SetTitleHeight                0x08000aac   Section        0  framewin_settitleheight.o(i.FRAMEWIN_SetTitleHeight)
    i.FRAMEWIN__CalcPositions                0x08000b24   Section        0  framewin.o(i.FRAMEWIN__CalcPositions)
    i.FRAMEWIN__CalcTitleHeight              0x08000bf8   Section        0  framewin.o(i.FRAMEWIN__CalcTitleHeight)
    i.FRAMEWIN__GetBorderSize                0x08000c18   Section        0  framewin.o(i.FRAMEWIN__GetBorderSize)
    i.FRAMEWIN__GetTitleLimits               0x08000c5c   Section        0  framewin.o(i.FRAMEWIN__GetTitleLimits)
    i.FRAMEWIN__UpdateButtons                0x08000ce2   Section        0  framewin__updatebuttons.o(i.FRAMEWIN__UpdateButtons)
    i.FRAMEWIN__UpdatePositions              0x08000dc8   Section        0  framewin.o(i.FRAMEWIN__UpdatePositions)
    i.FRAMEWIN__cbClient                     0x08000e36   Section        0  framewin.o(i.FRAMEWIN__cbClient)
    FRAMEWIN__cbClient                       0x08000e37   Thumb Code   222  framewin.o(i.FRAMEWIN__cbClient)
    i.GL_SetDefault                          0x08000f14   Section        0  gui_setdefault.o(i.GL_SetDefault)
    i.GUIDRV_FlexColor_Config                0x08000f54   Section        0  guidrv_flexcolor.o(i.GUIDRV_FlexColor_Config)
    i.GUIDRV_FlexColor_SetFunc               0x08000f94   Section        0  guidrv_flexcolor.o(i.GUIDRV_FlexColor_SetFunc)
    i.GUIDRV_FlexColor_SetFunc66709          0x08000fc8   Section        0  guidrv_flexcolor_func66709.o(i.GUIDRV_FlexColor_SetFunc66709)
    i.GUIDRV_FlexColor_SetMode16bppC0B8      0x08001034   Section        0  guidrv_flexcolor_16bpp_c0b8.o(i.GUIDRV_FlexColor_SetMode16bppC0B8)
    i.GUIDRV_FlexColor__GetPixelIndexNoCache 0x0800109c   Section        0  guidrv_flexcolor.o(i.GUIDRV_FlexColor__GetPixelIndexNoCache)
    i.GUIDRV_FlexColor__InitOnce             0x0800115c   Section        0  guidrv_flexcolor.o(i.GUIDRV_FlexColor__InitOnce)
    i.GUIDRV_FlexColor__SetLog2Phys          0x08001194   Section        0  guidrv_flexcolor.o(i.GUIDRV_FlexColor__SetLog2Phys)
    i.GUIDRV_FlexColor__SetPixelIndexNoCache 0x080011cc   Section        0  guidrv_flexcolor.o(i.GUIDRV_FlexColor__SetPixelIndexNoCache)
    i.GUIMONO_DispChar                       0x08001268   Section        0  gui_charm.o(i.GUIMONO_DispChar)
    i.GUIMONO_GetCharDistX                   0x080013a4   Section        0  gui_charm.o(i.GUIMONO_GetCharDistX)
    i.GUIMONO_GetFontInfo                    0x080013bc   Section        0  gui_charm.o(i.GUIMONO_GetFontInfo)
    i.GUIMONO_IsInFont                       0x080013c2   Section        0  gui_charm.o(i.GUIMONO_IsInFont)
    i.GUIPROP_DispChar                       0x080013fc   Section        0  gui_charp.o(i.GUIPROP_DispChar)
    i.GUIPROP_GetCharDistX                   0x080014c8   Section        0  gui_charp.o(i.GUIPROP_GetCharDistX)
    i.GUIPROP_GetFontInfo                    0x0800150c   Section        0  gui_charp.o(i.GUIPROP_GetFontInfo)
    i.GUIPROP_IsInFont                       0x08001512   Section        0  gui_charp.o(i.GUIPROP_IsInFont)
    i.GUIPROP__FindChar                      0x08001522   Section        0  gui_charp.o(i.GUIPROP__FindChar)
    i.GUI_ALLOC_AllocNoInit                  0x08001538   Section        0  gui_alloc.o(i.GUI_ALLOC_AllocNoInit)
    i.GUI_ALLOC_AllocZero                    0x08001542   Section        0  gui_alloc_alloczero.o(i.GUI_ALLOC_AllocZero)
    i.GUI_ALLOC_AssignMemory                 0x08001568   Section        0  gui_alloc.o(i.GUI_ALLOC_AssignMemory)
    i.GUI_ALLOC_Free                         0x08001578   Section        0  gui_alloc.o(i.GUI_ALLOC_Free)
    i.GUI_ALLOC_FreeFixedBlock               0x080015b0   Section        0  gui_alloc.o(i.GUI_ALLOC_FreeFixedBlock)
    i.GUI_ALLOC_FreePtr                      0x080015c8   Section        0  gui_alloc.o(i.GUI_ALLOC_FreePtr)
    i.GUI_ALLOC_GetFixedBlock                0x080015d8   Section        0  gui_alloc.o(i.GUI_ALLOC_GetFixedBlock)
    i.GUI_ALLOC_GetMaxSize                   0x08001688   Section        0  gui_alloc.o(i.GUI_ALLOC_GetMaxSize)
    i.GUI_ALLOC_GetSize                      0x080016c8   Section        0  gui_alloc.o(i.GUI_ALLOC_GetSize)
    i.GUI_ALLOC_LockH                        0x080016e4   Section        0  gui_alloc.o(i.GUI_ALLOC_LockH)
    i.GUI_ALLOC_Realloc                      0x08001700   Section        0  gui_realloc.o(i.GUI_ALLOC_Realloc)
    i.GUI_ALLOC_RequestSize                  0x08001750   Section        0  gui_alloc.o(i.GUI_ALLOC_RequestSize)
    i.GUI_ALLOC_UnlockH                      0x08001778   Section        0  gui_alloc.o(i.GUI_ALLOC_UnlockH)
    i.GUI_ALLOC_h2p                          0x080017a8   Section        0  gui_alloc.o(i.GUI_ALLOC_h2p)
    i.GUI_AddDecMin                          0x080017c0   Section        0  gui_adddecmin.o(i.GUI_AddDecMin)
    i.GUI_AddDecShift                        0x080017dc   Section        0  gui_adddecshift.o(i.GUI_AddDecShift)
    i.GUI_CalcColorDist                      0x08001874   Section        0  gui_calccolordist.o(i.GUI_CalcColorDist)
    i.GUI_Clear                              0x080018b0   Section        0  gui_core.o(i.GUI_Clear)
    i.GUI_ClearRect                          0x080018cc   Section        0  gui_core.o(i.GUI_ClearRect)
    i.GUI_CreateDialogBox                    0x0800192c   Section        0  dialog.o(i.GUI_CreateDialogBox)
    i.GUI_DEVICE_Create                      0x080019d0   Section        0  gui_device.o(i.GUI_DEVICE_Create)
    i.GUI_DEVICE_CreateAndLink               0x08001a20   Section        0  gui_device.o(i.GUI_DEVICE_CreateAndLink)
    i.GUI_DEVICE_Delete                      0x08001a48   Section        0  gui_device.o(i.GUI_DEVICE_Delete)
    i.GUI_DEVICE_Link                        0x08001a4c   Section        0  gui_device.o(i.GUI_DEVICE_Link)
    i.GUI_DEVICE_Unlink                      0x08001ad4   Section        0  gui_device.o(i.GUI_DEVICE_Unlink)
    i.GUI_DEVICE__GetpDriver                 0x08001b04   Section        0  gui_device.o(i.GUI_DEVICE__GetpDriver)
    i.GUI_Delay                              0x08001b28   Section        0  gui_time.o(i.GUI_Delay)
    i.GUI_DispString                         0x08001b54   Section        0  gui_dispstring.o(i.GUI_DispString)
    i.GUI_DispStringAt                       0x08001c5c   Section        0  gui_dispstringat.o(i.GUI_DispStringAt)
    i.GUI_DispStringInRect                   0x08001c6c   Section        0  gui_dispstringinrect.o(i.GUI_DispStringInRect)
    i.GUI_DispStringInRectMax                0x08001c74   Section        0  gui_dispstringinrect.o(i.GUI_DispStringInRectMax)
    i.GUI_DrawGradientH                      0x08001cb8   Section        0  gui_drawgradient.o(i.GUI_DrawGradientH)
    i.GUI_DrawGradientV                      0x08001d28   Section        0  gui_drawgradient.o(i.GUI_DrawGradientV)
    i.GUI_DrawHLine                          0x08001d98   Section        0  gui_drawhline.o(i.GUI_DrawHLine)
    i.GUI_DrawPixel                          0x08001de4   Section        0  gui_drawpixel.o(i.GUI_DrawPixel)
    i.GUI_DrawRect                           0x08001e24   Section        0  gui_2dlib.o(i.GUI_DrawRect)
    i.GUI_DrawVLine                          0x08001ea0   Section        0  gui_drawvline.o(i.GUI_DrawVLine)
    i.GUI_Exec                               0x08001ee0   Section        0  gui_exec.o(i.GUI_Exec)
    i.GUI_Exec1                              0x08001ef4   Section        0  gui_exec.o(i.GUI_Exec1)
    i.GUI_FillRect                           0x08001f24   Section        0  gui_fillrect.o(i.GUI_FillRect)
    i.GUI_FillRectEx                         0x08001f6c   Section        0  gui_fillrectex.o(i.GUI_FillRectEx)
    i.GUI_GetBitsPerPixelEx                  0x08001f80   Section        0  lcd_getex.o(i.GUI_GetBitsPerPixelEx)
    i.GUI_GetBkColor                         0x08001f94   Section        0  gui_getcolor.o(i.GUI_GetBkColor)
    i.GUI_GetCharDistX                       0x08001fa4   Section        0  gui_char.o(i.GUI_GetCharDistX)
    i.GUI_GetCharDistXEx                     0x08001fb4   Section        0  gui_char.o(i.GUI_GetCharDistXEx)
    i.GUI_GetClientRect                      0x08001fc4   Section        0  gui_getclientrect.o(i.GUI_GetClientRect)
    i.GUI_GetColor                           0x08001fce   Section        0  gui_getcolor.o(i.GUI_GetColor)
    i.GUI_GetFontDistY                       0x08001fdc   Section        0  gui_char.o(i.GUI_GetFontDistY)
    i.GUI_GetFontSizeY                       0x08001fec   Section        0  gui_getfontsizey.o(i.GUI_GetFontSizeY)
    i.GUI_GetOrg                             0x08001ff0   Section        0  gui_getorg.o(i.GUI_GetOrg)
    i.GUI_GetStringDistX                     0x08001ff4   Section        0  gui_getstringdistx.o(i.GUI_GetStringDistX)
    i.GUI_GetYAdjust                         0x08002008   Section        0  gui_char.o(i.GUI_GetYAdjust)
    i.GUI_GetYSizeOfFont                     0x08002038   Section        0  gui_getysizeoffont.o(i.GUI_GetYSizeOfFont)
    i.GUI_GetpfColor2IndexEx                 0x08002044   Section        0  lcd_getex.o(i.GUI_GetpfColor2IndexEx)
    i.GUI_GetpfIndex2ColorEx                 0x08002054   Section        0  lcd_getex.o(i.GUI_GetpfIndex2ColorEx)
    i.GUI_GotoXY                             0x08002064   Section        0  gui_goto.o(i.GUI_GotoXY)
    i.GUI_Init                               0x08002078   Section        0  gui_core.o(i.GUI_Init)
    i.GUI_Long2Len                           0x080020fc   Section        0  gui_adddecshift.o(i.GUI_Long2Len)
    i.GUI_MEMDEV_Clear                       0x08002128   Section        0  guidev_clear.o(i.GUI_MEMDEV_Clear)
    i.GUI_MEMDEV_CopyToLCD                   0x08002164   Section        0  guidev.o(i.GUI_MEMDEV_CopyToLCD)
    i.GUI_MEMDEV_CopyToLCDAt                 0x08002170   Section        0  guidev.o(i.GUI_MEMDEV_CopyToLCDAt)
    i.GUI_MEMDEV_CreateEx                    0x08002210   Section        0  guidev.o(i.GUI_MEMDEV_CreateEx)
    i.GUI_MEMDEV_Delete                      0x08002294   Section        0  guidev.o(i.GUI_MEMDEV_Delete)
    i.GUI_MEMDEV_Draw                        0x080022d4   Section        0  guidev_banding.o(i.GUI_MEMDEV_Draw)
    i.GUI_MEMDEV_GetBitsPerPixel             0x08002426   Section        0  guidev.o(i.GUI_MEMDEV_GetBitsPerPixel)
    i.GUI_MEMDEV_GetDataPtr                  0x0800244a   Section        0  guidev_getdataptr.o(i.GUI_MEMDEV_GetDataPtr)
    i.GUI_MEMDEV_GetYSize                    0x08002464   Section        0  guidev_getysize.o(i.GUI_MEMDEV_GetYSize)
    i.GUI_MEMDEV_Paint1Static                0x0800248c   Section        0  guidev_staticdevices.o(i.GUI_MEMDEV_Paint1Static)
    i.GUI_MEMDEV_ReduceYSize                 0x080024ac   Section        0  guidev_reduceysize.o(i.GUI_MEMDEV_ReduceYSize)
    i.GUI_MEMDEV_Select                      0x080024d8   Section        0  guidev.o(i.GUI_MEMDEV_Select)
    i.GUI_MEMDEV_SetOrg                      0x0800251c   Section        0  guidev_setorg.o(i.GUI_MEMDEV_SetOrg)
    i.GUI_MEMDEV_Write                       0x08002574   Section        0  guidev_write.o(i.GUI_MEMDEV_Write)
    i.GUI_MEMDEV_WriteAt                     0x08002580   Section        0  guidev_write.o(i.GUI_MEMDEV_WriteAt)
    i.GUI_MEMDEV__CreateFixed                0x080025e0   Section        0  guidev.o(i.GUI_MEMDEV__CreateFixed)
    i.GUI_MEMDEV__WriteToActiveAlpha         0x080026dc   Section        0  guidev_writetoactivealpha.o(i.GUI_MEMDEV__WriteToActiveAlpha)
    i.GUI_MEMDEV__WriteToActiveAt            0x08002872   Section        0  guidev.o(i.GUI_MEMDEV__WriteToActiveAt)
    i.GUI_MEMDEV__WriteToActiveOpaque        0x080028a2   Section        0  guidev_writetoactiveopaque.o(i.GUI_MEMDEV__WriteToActiveOpaque)
    i.GUI_MULTIBUF_Begin                     0x080028e0   Section        0  gui_multibuf.o(i.GUI_MULTIBUF_Begin)
    i.GUI_MULTIBUF_BeginEx                   0x080028f0   Section        0  gui_multibuf.o(i.GUI_MULTIBUF_BeginEx)
    i.GUI_MULTIBUF_End                       0x08002970   Section        0  gui_multibuf.o(i.GUI_MULTIBUF_End)
    i.GUI_MULTIBUF_EndEx                     0x08002980   Section        0  gui_multibuf.o(i.GUI_MULTIBUF_EndEx)
    i.GUI_MergeRect                          0x080029dc   Section        0  gui_mergerect.o(i.GUI_MergeRect)
    i.GUI_MoveRect                           0x08002a34   Section        0  gui_moverect.o(i.GUI_MoveRect)
    i.GUI_PollKeyMsg                         0x08002a54   Section        0  gui_onkey.o(i.GUI_PollKeyMsg)
    i.GUI_ReadRectEx                         0x08002a80   Section        0  lcd_readrect.o(i.GUI_ReadRectEx)
    i.GUI_RectsIntersect                     0x08002ae0   Section        0  gui_rectsintersect.o(i.GUI_RectsIntersect)
    i.GUI_RestoreContext                     0x08002b18   Section        0  gui_savecontext.o(i.GUI_RestoreContext)
    i.GUI_SaveContext_W                      0x08002b28   Section        0  gui_savecontext.o(i.GUI_SaveContext_W)
    i.GUI_SelectLCD                          0x08002b38   Section        0  gui_selectlcd.o(i.GUI_SelectLCD)
    i.GUI_SelectLayer                        0x08002b4c   Section        0  gui_selectlayer.o(i.GUI_SelectLayer)
    i.GUI_SetBkColor                         0x08002b7c   Section        0  gui_setcolor.o(i.GUI_SetBkColor)
    i.GUI_SetColor                           0x08002b80   Section        0  gui_setcolor.o(i.GUI_SetColor)
    i.GUI_SetDefaultFont                     0x08002b84   Section        0  gui_core.o(i.GUI_SetDefaultFont)
    i.GUI_SetDrawMode                        0x08002b90   Section        0  gui_setdrawmode.o(i.GUI_SetDrawMode)
    i.GUI_SetFont                            0x08002b94   Section        0  gui_setfont.o(i.GUI_SetFont)
    i.GUI_SetLineStyle                       0x08002ba8   Section        0  gui_setlinestyle.o(i.GUI_SetLineStyle)
    i.GUI_SetOrg                             0x08002bb8   Section        0  gui_setorg.o(i.GUI_SetOrg)
    i.GUI_SetPenSize                         0x08002bf0   Section        0  gui_pen.o(i.GUI_SetPenSize)
    i.GUI_SetTextAlign                       0x08002c00   Section        0  gui_settextalign.o(i.GUI_SetTextAlign)
    i.GUI_SetTextMode                        0x08002c14   Section        0  gui_settextmode.o(i.GUI_SetTextMode)
    i.GUI_SignalEvent                        0x08002c28   Section        0  gui_waitevent.o(i.GUI_SignalEvent)
    i.GUI_StoreKey                           0x08002c38   Section        0  gui_onkey.o(i.GUI_StoreKey)
    i.GUI_TIMER_Delete                       0x08002c48   Section        0  gui_timer.o(i.GUI_TIMER_Delete)
    i.GUI_TIMER_GetFlag                      0x08002c64   Section        0  gui_timer.o(i.GUI_TIMER_GetFlag)
    i.GUI_TIMER__GetFirstTimer               0x08002c8c   Section        0  gui_timer.o(i.GUI_TIMER__GetFirstTimer)
    i.GUI_TIMER__GetNextTimerLin             0x08002cb4   Section        0  gui_timer.o(i.GUI_TIMER__GetNextTimerLin)
    i.GUI_UC__GetCharCodeInc                 0x08002cec   Section        0  gui_uc.o(i.GUI_UC__GetCharCodeInc)
    i.GUI_UC__NumChars2NumBytes              0x08002d18   Section        0  gui_uc.o(i.GUI_UC__NumChars2NumBytes)
    i.GUI_USAGE_AddRect                      0x08002d40   Section        0  guidev_usage.o(i.GUI_USAGE_AddRect)
    i.GUI_USAGE_BM_AddHLine                  0x08002d68   Section        0  guidev_usagebm.o(i.GUI_USAGE_BM_AddHLine)
    GUI_USAGE_BM_AddHLine                    0x08002d69   Thumb Code   116  guidev_usagebm.o(i.GUI_USAGE_BM_AddHLine)
    i.GUI_USAGE_BM_AddPixel                  0x08002ddc   Section        0  guidev_usagebm.o(i.GUI_USAGE_BM_AddPixel)
    GUI_USAGE_BM_AddPixel                    0x08002ddd   Thumb Code    44  guidev_usagebm.o(i.GUI_USAGE_BM_AddPixel)
    i.GUI_USAGE_BM_Clear                     0x08002e08   Section        0  guidev_usagebm.o(i.GUI_USAGE_BM_Clear)
    GUI_USAGE_BM_Clear                       0x08002e09   Thumb Code    14  guidev_usagebm.o(i.GUI_USAGE_BM_Clear)
    i.GUI_USAGE_BM_Create                    0x08002e18   Section        0  guidev_usagebm.o(i.GUI_USAGE_BM_Create)
    i.GUI_USAGE_BM_GetNextDirty              0x08002e6c   Section        0  guidev_usagebm.o(i.GUI_USAGE_BM_GetNextDirty)
    GUI_USAGE_BM_GetNextDirty                0x08002e6d   Thumb Code   154  guidev_usagebm.o(i.GUI_USAGE_BM_GetNextDirty)
    i.GUI_USAGE_DecUseCnt                    0x08002f06   Section        0  guidev_usage.o(i.GUI_USAGE_DecUseCnt)
    i.GUI_X_Config                           0x08002f2c   Section        0  guiconf.o(i.GUI_X_Config)
    i.GUI_X_Delay                            0x08002f48   Section        0  gui_x.o(i.GUI_X_Delay)
    i.GUI_X_ExecIdle                         0x08002f60   Section        0  gui_x.o(i.GUI_X_ExecIdle)
    i.GUI_X_GetTime                          0x08002f64   Section        0  gui_x.o(i.GUI_X_GetTime)
    i.GUI_X_Init                             0x08002f70   Section        0  gui_x.o(i.GUI_X_Init)
    i.GUI__AllocAlphaBuffer                  0x08002f72   Section        0  gui__alpha.o(i.GUI__AllocAlphaBuffer)
    i.GUI__AlphaPreserveTrans                0x08002f88   Section        0  gui_setalpha.o(i.GUI__AlphaPreserveTrans)
    i.GUI__CompactPixelIndices               0x08002fac   Section        0  gui__compactpixelindices.o(i.GUI__CompactPixelIndices)
    i.GUI__CompactPixelIndicesEx             0x080030d0   Section        0  gui__compactpixelindices.o(i.GUI__CompactPixelIndicesEx)
    i.GUI__Config                            0x080030dc   Section        0  gui_core.o(i.GUI__Config)
    i.GUI__ConvertColor2Index                0x08003110   Section        0  gui__compactpixelindices.o(i.GUI__ConvertColor2Index)
    i.GUI__DispLine                          0x08003278   Section        0  gui_charline.o(i.GUI__DispLine)
    i.GUI__DispStringInRect                  0x08003328   Section        0  gui_dispstringinrect.o(i.GUI__DispStringInRect)
    i.GUI__DoAlphaBlending                   0x08003474   Section        0  gui__alpha.o(i.GUI__DoAlphaBlending)
    i.GUI__DrawTwinArc2                      0x0800364c   Section        0  gui__drawtwinarc.o(i.GUI__DrawTwinArc2)
    i.GUI__ExpandPixelIndicesEx              0x080036b0   Section        0  gui__expandpixelindices.o(i.GUI__ExpandPixelIndicesEx)
    i.GUI__GetAlphaBuffer                    0x08003804   Section        0  gui__alpha.o(i.GUI__GetAlphaBuffer)
    i.GUI__GetFontSizeY                      0x080038a0   Section        0  gui__getfontsizey.o(i.GUI__GetFontSizeY)
    i.GUI__GetLineDistX                      0x080038b4   Section        0  gui_charline.o(i.GUI__GetLineDistX)
    i.GUI__GetLineNumChars                   0x08003908   Section        0  gui_charline.o(i.GUI__GetLineNumChars)
    i.GUI__GetNumChars                       0x08003940   Section        0  gui__getnumchars.o(i.GUI__GetNumChars)
    i.GUI__GetOrg                            0x0800395c   Section        0  gui_getorg.o(i.GUI__GetOrg)
    i.GUI__GetOverlap                        0x08003978   Section        0  gui_charline.o(i.GUI__GetOverlap)
    i.GUI__HandleEOLine                      0x08003990   Section        0  gui__handleeoline.o(i.GUI__HandleEOLine)
    i.GUI__IntersectRect                     0x080039a8   Section        0  gui__intersectrect.o(i.GUI__IntersectRect)
    i.GUI__IntersectRects                    0x080039e2   Section        0  gui__intersectrects.o(i.GUI__IntersectRects)
    i.GUI__ManageCache                       0x08003a34   Section        0  gui__managecache.o(i.GUI__ManageCache)
    i.GUI__ManageCacheEx                     0x08003a44   Section        0  gui__managecache.o(i.GUI__ManageCacheEx)
    i.GUI__MixColors                         0x08003b18   Section        0  gui__alpha.o(i.GUI__MixColors)
    i.GUI__MixColorsBulk                     0x08003b7e   Section        0  gui__alpha.o(i.GUI__MixColorsBulk)
    i.GUI__ReduceRect                        0x08003bd2   Section        0  gui__reducerect.o(i.GUI__ReduceRect)
    i.GUI__RegisterExit                      0x08003bec   Section        0  gui_core.o(i.GUI__RegisterExit)
    i.GUI__SetText                           0x08003bfc   Section        0  gui__settext.o(i.GUI__SetText)
    i.GUI__memset                            0x08003c68   Section        0  gui__memset.o(i.GUI__memset)
    i.GUI__memset16                          0x08003cb4   Section        0  gui__memset16.o(i.GUI__memset16)
    i.GUI__sqrt32                            0x08003cf0   Section        0  gui__sqrt32.o(i.GUI__sqrt32)
    i.GUI__strcmp                            0x08003d0c   Section        0  gui__strcmp.o(i.GUI__strcmp)
    i.GUI__strcmp_hp                         0x08003d30   Section        0  gui__strcmp.o(i.GUI__strcmp_hp)
    i.GUI__strlen                            0x08003d50   Section        0  gui__strlen.o(i.GUI__strlen)
    i.HAL_Delay                              0x08003d66   Section        0  stm32l4xx_hal.o(i.HAL_Delay)
    i.HAL_GPIO_Init                          0x08003d88   Section        0  stm32l4xx_hal_gpio.o(i.HAL_GPIO_Init)
    i.HAL_GPIO_WritePin                      0x08003f50   Section        0  stm32l4xx_hal_gpio.o(i.HAL_GPIO_WritePin)
    i.HAL_GetTick                            0x08003f5c   Section        0  stm32l4xx_hal.o(i.HAL_GetTick)
    i.HAL_IncTick                            0x08003f68   Section        0  stm32l4xx_hal.o(i.HAL_IncTick)
    i.HAL_Init                               0x08003f78   Section        0  stm32l4xx_hal.o(i.HAL_Init)
    i.HAL_InitTick                           0x08003f98   Section        0  stm32l4xx_hal.o(i.HAL_InitTick)
    i.HAL_MspInit                            0x08003fc8   Section        0  stm32l4xx_hal_msp.o(i.HAL_MspInit)
    i.HAL_NVIC_SetPriority                   0x08004058   Section        0  stm32l4xx_hal_cortex.o(i.HAL_NVIC_SetPriority)
    i.HAL_NVIC_SetPriorityGrouping           0x080040dc   Section        0  stm32l4xx_hal_cortex.o(i.HAL_NVIC_SetPriorityGrouping)
    i.HAL_PWREx_ControlVoltageScaling        0x08004104   Section        0  stm32l4xx_hal_pwr_ex.o(i.HAL_PWREx_ControlVoltageScaling)
    i.HAL_PWREx_GetVoltageRange              0x08004190   Section        0  stm32l4xx_hal_pwr_ex.o(i.HAL_PWREx_GetVoltageRange)
    i.HAL_RCCEx_PeriphCLKConfig              0x080041a0   Section        0  stm32l4xx_hal_rcc_ex.o(i.HAL_RCCEx_PeriphCLKConfig)
    i.HAL_RCC_ClockConfig                    0x08004528   Section        0  stm32l4xx_hal_rcc.o(i.HAL_RCC_ClockConfig)
    i.HAL_RCC_GetHCLKFreq                    0x080046a0   Section        0  stm32l4xx_hal_rcc.o(i.HAL_RCC_GetHCLKFreq)
    i.HAL_RCC_GetPCLK1Freq                   0x080046ac   Section        0  stm32l4xx_hal_rcc.o(i.HAL_RCC_GetPCLK1Freq)
    i.HAL_RCC_GetPCLK2Freq                   0x080046d0   Section        0  stm32l4xx_hal_rcc.o(i.HAL_RCC_GetPCLK2Freq)
    i.HAL_RCC_GetSysClockFreq                0x080046f4   Section        0  stm32l4xx_hal_rcc.o(i.HAL_RCC_GetSysClockFreq)
    i.HAL_RCC_OscConfig                      0x08004810   Section        0  stm32l4xx_hal_rcc.o(i.HAL_RCC_OscConfig)
    i.HAL_SPI_Init                           0x08004e98   Section        0  stm32l4xx_hal_spi.o(i.HAL_SPI_Init)
    i.HAL_SPI_MspInit                        0x08004f58   Section        0  spi.o(i.HAL_SPI_MspInit)
    i.HAL_SPI_Transmit                       0x08004fd0   Section        0  stm32l4xx_hal_spi.o(i.HAL_SPI_Transmit)
    i.HAL_SYSTICK_CLKSourceConfig            0x080051b4   Section        0  stm32l4xx_hal_cortex.o(i.HAL_SYSTICK_CLKSourceConfig)
    i.HAL_SYSTICK_Callback                   0x080051dc   Section        0  stm32l4xx_hal_cortex.o(i.HAL_SYSTICK_Callback)
    i.HAL_SYSTICK_Config                     0x080051de   Section        0  stm32l4xx_hal_cortex.o(i.HAL_SYSTICK_Config)
    i.HAL_SYSTICK_IRQHandler                 0x08005212   Section        0  stm32l4xx_hal_cortex.o(i.HAL_SYSTICK_IRQHandler)
    i.HAL_UART_Init                          0x0800521a   Section        0  stm32l4xx_hal_uart.o(i.HAL_UART_Init)
    i.HAL_UART_MspInit                       0x08005294   Section        0  usart.o(i.HAL_UART_MspInit)
    i.HardFault_Handler                      0x080052ec   Section        0  stm32l4xx_it.o(i.HardFault_Handler)
    i.LCD_AA_SetAndMask                      0x080052f0   Section        0  lcd_aa.o(i.LCD_AA_SetAndMask)
    i.LCD_Address_Set                        0x08005300   Section        0  lcd.o(i.LCD_Address_Set)
    i.LCD_Clear                              0x08005354   Section        0  lcd.o(i.LCD_Clear)
    i.LCD_Color2Index                        0x080053c4   Section        0  lcd.o(i.LCD_Color2Index)
    i.LCD_DrawBitmap                         0x080053e0   Section        0  lcd.o(i.LCD_DrawBitmap)
    i.LCD_DrawHLine                          0x080055ec   Section        0  lcd.o(i.LCD_DrawHLine)
    i.LCD_DrawPixel                          0x08005644   Section        0  lcd.o(i.LCD_DrawPixel)
    i.LCD_DrawVLine                          0x080056ac   Section        0  lcd.o(i.LCD_DrawVLine)
    i.LCD_FillRect                           0x08005700   Section        0  lcd.o(i.LCD_FillRect)
    i.LCD_GetBitsPerPixelEx                  0x08005758   Section        0  lcd_getex.o(i.LCD_GetBitsPerPixelEx)
    i.LCD_GetBkColorIndex                    0x08005760   Section        0  lcd_getcolorindex.o(i.LCD_GetBkColorIndex)
    i.LCD_GetColorIndex                      0x08005770   Section        0  lcd_getcolorindex.o(i.LCD_GetColorIndex)
    i.LCD_GetNumColors                       0x08005780   Section        0  lcd_getex.o(i.LCD_GetNumColors)
    i.LCD_GetNumColorsEx                     0x08005790   Section        0  lcd_getex.o(i.LCD_GetNumColorsEx)
    i.LCD_GetNumLayers                       0x08005796   Section        0  lcd_getnumdisplays.o(i.LCD_GetNumLayers)
    i.LCD_GetPalette                         0x080057b0   Section        0  lcd_getex.o(i.LCD_GetPalette)
    i.LCD_GetPaletteEx                       0x080057c0   Section        0  lcd_getex.o(i.LCD_GetPaletteEx)
    i.LCD_GetVXSizeEx                        0x080057d8   Section        0  lcd_getex.o(i.LCD_GetVXSizeEx)
    i.LCD_GetVXSizeMax                       0x080057de   Section        0  lcd_getex.o(i.LCD_GetVXSizeMax)
    i.LCD_GetVYSizeEx                        0x080057e4   Section        0  lcd_getex.o(i.LCD_GetVYSizeEx)
    i.LCD_GetXSize                           0x080057ec   Section        0  lcd_getex.o(i.LCD_GetXSize)
    i.LCD_GetXSizeDisplay                    0x080057fc   Section        0  lcd_getex.o(i.LCD_GetXSizeDisplay)
    i.LCD_GetXSizeEx                         0x08005808   Section        0  lcd_getex.o(i.LCD_GetXSizeEx)
    i.LCD_GetXSizeMax                        0x0800580e   Section        0  lcd_getex.o(i.LCD_GetXSizeMax)
    i.LCD_GetYSize                           0x08005814   Section        0  lcd_getex.o(i.LCD_GetYSize)
    i.LCD_GetYSizeDisplay                    0x08005824   Section        0  lcd_getex.o(i.LCD_GetYSizeDisplay)
    i.LCD_GetYSizeEx                         0x08005830   Section        0  lcd_getex.o(i.LCD_GetYSizeEx)
    i.LCD_GetYSizeMax                        0x08005836   Section        0  lcd_getex.o(i.LCD_GetYSizeMax)
    i.LCD_GetpPalConvTableBM                 0x0800583c   Section        0  lcd_color.o(i.LCD_GetpPalConvTableBM)
    i.LCD_GetpPalConvTableUncached           0x08005840   Section        0  lcd_color.o(i.LCD_GetpPalConvTableUncached)
    i.LCD_Index2Color                        0x08005888   Section        0  lcd.o(i.LCD_Index2Color)
    i.LCD_Index2Color_888                    0x080058a4   Section        0  guicc_888_index2color.o(i.LCD_Index2Color_888)
    i.LCD_Index2Color_8888                   0x080058a6   Section        0  guicc_8888_index2color.o(i.LCD_Index2Color_8888)
    i.LCD_Index2Color_M565                   0x080058a8   Section        0  guicc_m565.o(i.LCD_Index2Color_M565)
    i.LCD_Init                               0x080058d4   Section        0  lcd.o(i.LCD_Init)
    i.LCD_InitColors                         0x08005a98   Section        0  lcd_color.o(i.LCD_InitColors)
    i.LCD_InitLUT                            0x08005acc   Section        0  lcd_color.o(i.LCD_InitLUT)
    i.LCD_ReadRectEx                         0x08005b48   Section        0  lcd_readrect.o(i.LCD_ReadRectEx)
    LCD_ReadRectEx                           0x08005b49   Thumb Code   404  lcd_readrect.o(i.LCD_ReadRectEx)
    i.LCD_SPI_Send                           0x08005ce6   Section        0  lcd.o(i.LCD_SPI_Send)
    LCD_SPI_Send                             0x08005ce7   Thumb Code    16  lcd.o(i.LCD_SPI_Send)
    i.LCD_SelectLCD                          0x08005cf8   Section        0  lcd_selectlcd.o(i.LCD_SelectLCD)
    i.LCD_SetBkColor                         0x08005d38   Section        0  lcd.o(i.LCD_SetBkColor)
    i.LCD_SetBkColorIndex                    0x08005d44   Section        0  lcd.o(i.LCD_SetBkColorIndex)
    i.LCD_SetClipRectEx                      0x08005d5c   Section        0  lcd_setcliprectex.o(i.LCD_SetClipRectEx)
    i.LCD_SetClipRectMax                     0x08005d8c   Section        0  lcd.o(i.LCD_SetClipRectMax)
    i.LCD_SetColor                           0x08005da8   Section        0  lcd.o(i.LCD_SetColor)
    i.LCD_SetColorIndex                      0x08005db4   Section        0  lcd.o(i.LCD_SetColorIndex)
    i.LCD_SetDisplaySize                     0x08005dcc   Section        0  lcd_getex.o(i.LCD_SetDisplaySize)
    i.LCD_SetDrawMode                        0x08005dd8   Section        0  lcd.o(i.LCD_SetDrawMode)
    i.LCD_SetLUTEntryEx                      0x08005de4   Section        0  lcd_set.o(i.LCD_SetLUTEntryEx)
    i.LCD_SetSizeEx                          0x08005e10   Section        0  lcd_set.o(i.LCD_SetSizeEx)
    i.LCD_SetVSizeEx                         0x08005e3c   Section        0  lcd_set.o(i.LCD_SetVSizeEx)
    i.LCD_UpdateColorIndices                 0x08005e68   Section        0  lcd_updatecolorindices.o(i.LCD_UpdateColorIndices)
    i.LCD_Write_Cmd                          0x08005e8c   Section        0  lcd.o(i.LCD_Write_Cmd)
    i.LCD_Write_Data                         0x08005ea8   Section        0  lcd.o(i.LCD_Write_Data)
    i.LCD_X_Config                           0x08005ec4   Section        0  lcdconf_flexcolor_template.o(i.LCD_X_Config)
    i.LCD_X_DisplayDriver                    0x08005f44   Section        0  lcdconf_flexcolor_template.o(i.LCD_X_DisplayDriver)
    i.LCD__DrawBitmap_1bpp                   0x08005f68   Section        0  lcd.o(i.LCD__DrawBitmap_1bpp)
    i.LCD__GetBPP                            0x08006122   Section        0  lcd_getex.o(i.LCD__GetBPP)
    i.LCD__GetBPPDevice                      0x0800617e   Section        0  lcd_getex.o(i.LCD__GetBPPDevice)
    i.LcdWriteData                           0x080061b0   Section        0  lcdconf_flexcolor_template.o(i.LcdWriteData)
    LcdWriteData                             0x080061b1   Thumb Code    12  lcdconf_flexcolor_template.o(i.LcdWriteData)
    i.LcdWriteDataMultiple                   0x080061bc   Section        0  lcdconf_flexcolor_template.o(i.LcdWriteDataMultiple)
    LcdWriteDataMultiple                     0x080061bd   Thumb Code    26  lcdconf_flexcolor_template.o(i.LcdWriteDataMultiple)
    i.LcdWriteReg                            0x080061d6   Section        0  lcdconf_flexcolor_template.o(i.LcdWriteReg)
    LcdWriteReg                              0x080061d7   Thumb Code    12  lcdconf_flexcolor_template.o(i.LcdWriteReg)
    i.MX_GPIO_Init                           0x080061e4   Section        0  gpio.o(i.MX_GPIO_Init)
    i.MX_SPI2_Init                           0x08006290   Section        0  spi.o(i.MX_SPI2_Init)
    i.MX_USART1_UART_Init                    0x080062f4   Section        0  usart.o(i.MX_USART1_UART_Init)
    i.MainTask                               0x08006348   Section        0  processbardlg.o(i.MainTask)
    i.MemManage_Handler                      0x0800638c   Section        0  stm32l4xx_it.o(i.MemManage_Handler)
    i.NMI_Handler                            0x08006390   Section        0  stm32l4xx_it.o(i.NMI_Handler)
    i.NVIC_GetPriorityGrouping               0x08006394   Section        0  stm32l4xx_hal_cortex.o(i.NVIC_GetPriorityGrouping)
    NVIC_GetPriorityGrouping                 0x08006395   Thumb Code    10  stm32l4xx_hal_cortex.o(i.NVIC_GetPriorityGrouping)
    i.NVIC_SetPriority                       0x080063a4   Section        0  stm32l4xx_hal_cortex.o(i.NVIC_SetPriority)
    NVIC_SetPriority                         0x080063a5   Thumb Code    32  stm32l4xx_hal_cortex.o(i.NVIC_SetPriority)
    i.PROGBAR_Callback                       0x080063cc   Section        0  progbar.o(i.PROGBAR_Callback)
    i.PROGBAR_CreateIndirect                 0x08006422   Section        0  progbar_createindirect.o(i.PROGBAR_CreateIndirect)
    i.PROGBAR_CreateUser                     0x0800645c   Section        0  progbar.o(i.PROGBAR_CreateUser)
    i.PROGBAR_DrawSkinFlex                   0x08006508   Section        0  progbar_skinflex.o(i.PROGBAR_DrawSkinFlex)
    i.PROGBAR_GetValue                       0x0800658c   Section        0  progbar.o(i.PROGBAR_GetValue)
    i.PROGBAR_SetFont                        0x080065a4   Section        0  progbar_setfont.o(i.PROGBAR_SetFont)
    i.PROGBAR_SetMinMax                      0x080065c2   Section        0  progbar_setminmax.o(i.PROGBAR_SetMinMax)
    i.PROGBAR_SetValue                       0x080065f4   Section        0  progbar.o(i.PROGBAR_SetValue)
    i.PROGBAR__GetTextLocked                 0x08006734   Section        0  progbar.o(i.PROGBAR__GetTextLocked)
    i.PROGBAR__GetTextRect                   0x0800673a   Section        0  progbar.o(i.PROGBAR__GetTextRect)
    i.PROGBAR__Value2Pos                     0x080067b8   Section        0  progbar.o(i.PROGBAR__Value2Pos)
    i.PendSV_Handler                         0x08006808   Section        0  stm32l4xx_it.o(i.PendSV_Handler)
    i.RCCEx_PLLSAI1_Config                   0x0800680c   Section        0  stm32l4xx_hal_rcc_ex.o(i.RCCEx_PLLSAI1_Config)
    RCCEx_PLLSAI1_Config                     0x0800680d   Thumb Code   376  stm32l4xx_hal_rcc_ex.o(i.RCCEx_PLLSAI1_Config)
    i.RCC_SetFlashLatencyFromMSIRange        0x08006994   Section        0  stm32l4xx_hal_rcc.o(i.RCC_SetFlashLatencyFromMSIRange)
    RCC_SetFlashLatencyFromMSIRange          0x08006995   Thumb Code   148  stm32l4xx_hal_rcc.o(i.RCC_SetFlashLatencyFromMSIRange)
    i.SPI2_WriteByte                         0x08006a30   Section        0  spi.o(i.SPI2_WriteByte)
    i.SPI_EndRxTxTransaction                 0x08006a48   Section        0  stm32l4xx_hal_spi.o(i.SPI_EndRxTxTransaction)
    SPI_EndRxTxTransaction                   0x08006a49   Thumb Code   100  stm32l4xx_hal_spi.o(i.SPI_EndRxTxTransaction)
    i.SPI_WaitFifoStateUntilTimeout          0x08006aac   Section        0  stm32l4xx_hal_spi.o(i.SPI_WaitFifoStateUntilTimeout)
    SPI_WaitFifoStateUntilTimeout            0x08006aad   Thumb Code   170  stm32l4xx_hal_spi.o(i.SPI_WaitFifoStateUntilTimeout)
    i.SPI_WaitFlagStateUntilTimeout          0x08006b56   Section        0  stm32l4xx_hal_spi.o(i.SPI_WaitFlagStateUntilTimeout)
    SPI_WaitFlagStateUntilTimeout            0x08006b57   Thumb Code   168  stm32l4xx_hal_spi.o(i.SPI_WaitFlagStateUntilTimeout)
    i.SVC_Handler                            0x08006bfe   Section        0  stm32l4xx_it.o(i.SVC_Handler)
    i.SysTick_Handler                        0x08006c00   Section        0  stm32l4xx_it.o(i.SysTick_Handler)
    i.SystemClock_Config                     0x08006c1c   Section        0  main.o(i.SystemClock_Config)
    i.SystemInit                             0x08006cdc   Section        0  system_stm32l4xx.o(i.SystemInit)
    i.UART_AdvFeatureConfig                  0x08006d2c   Section        0  stm32l4xx_hal_uart.o(i.UART_AdvFeatureConfig)
    i.UART_CheckIdleState                    0x08006e24   Section        0  stm32l4xx_hal_uart.o(i.UART_CheckIdleState)
    i.UART_SetConfig                         0x08006e98   Section        0  stm32l4xx_hal_uart.o(i.UART_SetConfig)
    i.UART_WaitOnFlagUntilTimeout            0x080072aa   Section        0  stm32l4xx_hal_uart.o(i.UART_WaitOnFlagUntilTimeout)
    i.UsageFault_Handler                     0x08007316   Section        0  stm32l4xx_it.o(i.UsageFault_Handler)
    i.WIDGET_HandleActive                    0x0800731a   Section        0  widget.o(i.WIDGET_HandleActive)
    i.WIDGET_OrState                         0x0800743a   Section        0  widget.o(i.WIDGET_OrState)
    i.WIDGET_SetEffect                       0x08007462   Section        0  widget_seteffect.o(i.WIDGET_SetEffect)
    i.WIDGET_SetState                        0x08007478   Section        0  widget.o(i.WIDGET_SetState)
    i.WIDGET__GetInsideRect                  0x0800749a   Section        0  widget.o(i.WIDGET__GetInsideRect)
    i.WIDGET__Init                           0x080074b4   Section        0  widget.o(i.WIDGET__Init)
    i.WM_Activate                            0x080074c4   Section        0  wm.o(i.WM_Activate)
    i.WM_BringToBottom                       0x080074d4   Section        0  wm_bringtobottom.o(i.WM_BringToBottom)
    i.WM_BringToTop                          0x08007552   Section        0  wm_bringtotop.o(i.WM_BringToTop)
    i.WM_CreateWindowAsChild                 0x08007558   Section        0  wm.o(i.WM_CreateWindowAsChild)
    i.WM_Deactivate                          0x080076a8   Section        0  wm.o(i.WM_Deactivate)
    i.WM_DefaultProc                         0x080076bc   Section        0  wm.o(i.WM_DefaultProc)
    i.WM_DeleteTimer                         0x08007702   Section        0  wm_timer.o(i.WM_DeleteTimer)
    i.WM_DeleteWindow                        0x08007724   Section        0  wm.o(i.WM_DeleteWindow)
    i.WM_DisableMemdev                       0x0800780c   Section        0  wm_memdev.o(i.WM_DisableMemdev)
    i.WM_Exec                                0x08007824   Section        0  wm.o(i.WM_Exec)
    i.WM_ForEachDesc                         0x0800789c   Section        0  wm_foreachdesc.o(i.WM_ForEachDesc)
    i.WM_GetActiveWindow                     0x080078a0   Section        0  wm.o(i.WM_GetActiveWindow)
    i.WM_GetClientRect                       0x080078ac   Section        0  wm_getclientrect.o(i.WM_GetClientRect)
    i.WM_GetClientRectEx                     0x080078c8   Section        0  wm_getclientrect.o(i.WM_GetClientRectEx)
    i.WM_GetClientWindow                     0x080078cc   Section        0  wm_getclientwindow.o(i.WM_GetClientWindow)
    i.WM_GetDesktopWindow                    0x080078e4   Section        0  wm_getdesktopwindow.o(i.WM_GetDesktopWindow)
    i.WM_GetDialogItem                       0x080078fc   Section        0  wm_getdialogitem.o(i.WM_GetDialogItem)
    i.WM_GetFirstChild                       0x0800790c   Section        0  wm_getfirstchild.o(i.WM_GetFirstChild)
    i.WM_GetFocussedWindow                   0x0800791c   Section        0  wm_getfocussedwindow.o(i.WM_GetFocussedWindow)
    i.WM_GetId                               0x08007930   Section        0  wm_getid.o(i.WM_GetId)
    i.WM_GetNextSibling                      0x0800794a   Section        0  wm_getnextsibling.o(i.WM_GetNextSibling)
    i.WM_GetParent                           0x08007958   Section        0  wm_getparent.o(i.WM_GetParent)
    i.WM_GetWindowOrgX                       0x08007966   Section        0  wm_getorg.o(i.WM_GetWindowOrgX)
    i.WM_GetWindowRectEx                     0x0800797c   Section        0  wm_getwindowrect.o(i.WM_GetWindowRectEx)
    i.WM_GetWindowSizeX                      0x08007996   Section        0  wm_getwindowsize.o(i.WM_GetWindowSizeX)
    i.WM_GetWindowSizeY                      0x080079b8   Section        0  wm_getwindowsize.o(i.WM_GetWindowSizeY)
    i.WM_HasCaptured                         0x080079dc   Section        0  wm_hascaptured.o(i.WM_HasCaptured)
    i.WM_HasFocus                            0x080079fc   Section        0  wm_hasfocus.o(i.WM_HasFocus)
    i.WM_Init                                0x08007a1c   Section        0  wm.o(i.WM_Init)
    i.WM_InvalidateRect                      0x08007b00   Section        0  wm.o(i.WM_InvalidateRect)
    i.WM_InvalidateWindow                    0x08007b76   Section        0  wm.o(i.WM_InvalidateWindow)
    i.WM_InvalidateWindowAndDescs            0x08007b7c   Section        0  wm_show.o(i.WM_InvalidateWindowAndDescs)
    i.WM_InvalidateWindowAndDescsEx          0x08007ba4   Section        0  wm.o(i.WM_InvalidateWindowAndDescsEx)
    i.WM_IsFocussable                        0x08007c02   Section        0  wm_isfocussable.o(i.WM_IsFocussable)
    i.WM_IsWindow                            0x08007c32   Section        0  wm_iswindow.o(i.WM_IsWindow)
    i.WM_MULTIBUF_Enable                     0x08007c38   Section        0  wm_multibuf.o(i.WM_MULTIBUF_Enable)
    i.WM_MoveChildTo                         0x08007c54   Section        0  wm_movechildto.o(i.WM_MoveChildTo)
    i.WM_MoveWindow                          0x08007ca6   Section        0  wm_move.o(i.WM_MoveWindow)
    i.WM_NotifyParent                        0x08007caa   Section        0  wm_notifyparent.o(i.WM_NotifyParent)
    i.WM_OnKey                               0x08007cbc   Section        0  wm_onkey.o(i.WM_OnKey)
    i.WM_ResizeWindow                        0x08007cf4   Section        0  wm_resizewindow.o(i.WM_ResizeWindow)
    i.WM_SelectWindow                        0x08007de0   Section        0  wm.o(i.WM_SelectWindow)
    i.WM_SendMessage                         0x08007e1c   Section        0  wm.o(i.WM_SendMessage)
    i.WM_SendMessageNoPara                   0x08007e26   Section        0  wm_sendmessagenopara.o(i.WM_SendMessageNoPara)
    i.WM_SendToParent                        0x08007e2a   Section        0  wm_sendtoparent.o(i.WM_SendToParent)
    i.WM_SetCapture                          0x08007e48   Section        0  wm_setcapture.o(i.WM_SetCapture)
    i.WM_SetCaptureMove                      0x08007e7c   Section        0  wm_setcapturemove.o(i.WM_SetCaptureMove)
    i.WM_SetDefault                          0x08007f2c   Section        0  wm.o(i.WM_SetDefault)
    i.WM_SetFocus                            0x08007f40   Section        0  wm_setfocus.o(i.WM_SetFocus)
    i.WM_SetFocusOnNextChild                 0x08007fdc   Section        0  wm_setfocusonnextchild.o(i.WM_SetFocusOnNextChild)
    i.WM_SetFocusOnPrevChild                 0x08007fec   Section        0  wm_setfocusonprevchild.o(i.WM_SetFocusOnPrevChild)
    i.WM_SetHasTrans                         0x0800802c   Section        0  wm_settrans.o(i.WM_SetHasTrans)
    i.WM_SetSize                             0x0800806c   Section        0  wm_setsize.o(i.WM_SetSize)
    i.WM_SetUserClipRect                     0x080080ac   Section        0  wm_setusercliprect.o(i.WM_SetUserClipRect)
    i.WM_ShowWindow                          0x080080c4   Section        0  wm_show.o(i.WM_ShowWindow)
    i.WM_ValidateWindow                      0x080080ec   Section        0  wm_validatewindow.o(i.WM_ValidateWindow)
    i.WM__ActivateClipRect                   0x08008118   Section        0  wm.o(i.WM__ActivateClipRect)
    i.WM__AddCriticalHandle                  0x08008160   Section        0  wm_criticalhandle.o(i.WM__AddCriticalHandle)
    i.WM__Client2Screen                      0x08008170   Section        0  wm.o(i.WM__Client2Screen)
    i.WM__ClipAtParentBorders                0x08008180   Section        0  wm.o(i.WM__ClipAtParentBorders)
    i.WM__DeleteAssocTimer                   0x080081ce   Section        0  wm_timer.o(i.WM__DeleteAssocTimer)
    i.WM__DetachWindow                       0x08008218   Section        0  wm.o(i.WM__DetachWindow)
    i.WM__ForEachDesc                        0x08008240   Section        0  wm__foreachdesc.o(i.WM__ForEachDesc)
    i.WM__GetClientRectEx                    0x0800826c   Section        0  wm_getclientrect.o(i.WM__GetClientRectEx)
    i.WM__GetClientRectWin                   0x0800828c   Section        0  wm.o(i.WM__GetClientRectWin)
    i.WM__GetFirstSibling                    0x080082a4   Section        0  wm__getfirstsibling.o(i.WM__GetFirstSibling)
    i.WM__GetFocussedChild                   0x080082b8   Section        0  wm__getfocussedchild.o(i.WM__GetFocussedChild)
    i.WM__GetLastSibling                     0x080082e0   Section        0  wm__getlastsibling.o(i.WM__GetLastSibling)
    i.WM__GetNextIVR                         0x080082f8   Section        0  wm.o(i.WM__GetNextIVR)
    i.WM__GetPrevSibling                     0x08008338   Section        0  wm__getprevsibling.o(i.WM__GetPrevSibling)
    i.WM__GetTopLevelLayer                   0x0800835c   Section        0  wm.o(i.WM__GetTopLevelLayer)
    i.WM__GetWindowSizeX                     0x08008374   Section        0  wm_getwindowsize.o(i.WM__GetWindowSizeX)
    i.WM__GetWindowSizeY                     0x08008382   Section        0  wm_getwindowsize.o(i.WM__GetWindowSizeY)
    i.WM__InitIVRSearch                      0x08008390   Section        0  wm.o(i.WM__InitIVRSearch)
    i.WM__InsertWindowIntoList               0x08008480   Section        0  wm.o(i.WM__InsertWindowIntoList)
    i.WM__Invalidate1Abs                     0x08008524   Section        0  wm.o(i.WM__Invalidate1Abs)
    i.WM__InvalidateDrawAndDescs             0x0800852c   Section        0  wm.o(i.WM__InvalidateDrawAndDescs)
    i.WM__InvalidateParent                   0x08008580   Section        0  wm.o(i.WM__InvalidateParent)
    i.WM__InvalidateRect                     0x080085aa   Section        0  wm.o(i.WM__InvalidateRect)
    i.WM__InvalidateRectEx                   0x08008626   Section        0  wm.o(i.WM__InvalidateRectEx)
    i.WM__IsAncestor                         0x0800862c   Section        0  wm__isancestor.o(i.WM__IsAncestor)
    i.WM__IsAncestorOrSelf                   0x0800864e   Section        0  wm__isancestor.o(i.WM__IsAncestorOrSelf)
    i.WM__IsChild                            0x0800865a   Section        0  wm__ischild.o(i.WM__IsChild)
    i.WM__IsWindow                           0x0800867c   Section        0  wm.o(i.WM__IsWindow)
    i.WM__MoveWindow                         0x080086a0   Section        0  wm_move.o(i.WM__MoveWindow)
    i.WM__Paint                              0x0800873c   Section        0  wm.o(i.WM__Paint)
    i.WM__Paint1                             0x080087dc   Section        0  wm.o(i.WM__Paint1)
    i.WM__PaintWinAndOverlays                0x08008868   Section        0  wm.o(i.WM__PaintWinAndOverlays)
    WM__PaintWinAndOverlays                  0x08008869   Thumb Code   116  wm.o(i.WM__PaintWinAndOverlays)
    i.WM__RectIsNZ                           0x080088e0   Section        0  wm.o(i.WM__RectIsNZ)
    i.WM__ReleaseCapture                     0x08008900   Section        0  wm_setcapture.o(i.WM__ReleaseCapture)
    WM__ReleaseCapture                       0x08008901   Thumb Code    36  wm_setcapture.o(i.WM__ReleaseCapture)
    i.WM__RemoveWindowFromList               0x0800892c   Section        0  wm.o(i.WM__RemoveWindowFromList)
    i.WM__SelectTopLevelLayer                0x0800896c   Section        0  wm.o(i.WM__SelectTopLevelLayer)
    i.WM__SendMessage                        0x08008980   Section        0  wm__sendmessage.o(i.WM__SendMessage)
    i.WM__SendMessageNoPara                  0x080089bc   Section        0  wm__sendmessagenopara.o(i.WM__SendMessageNoPara)
    i.WM__SendMsgNoData                      0x080089e2   Section        0  wm.o(i.WM__SendMsgNoData)
    i.WM__UpdateChildPositions               0x080089f0   Section        0  wm__updatechildpositions.o(i.WM__UpdateChildPositions)
    i._AddFreeMemory                         0x08008ad4   Section        0  gui_alloc.o(i._AddFreeMemory)
    _AddFreeMemory                           0x08008ad5   Thumb Code   140  gui_alloc.o(i._AddFreeMemory)
    i._Alloc                                 0x08008b64   Section        0  gui_alloc.o(i._Alloc)
    _Alloc                                   0x08008b65   Thumb Code   178  gui_alloc.o(i._Alloc)
    i._BringToTop                            0x08008c1c   Section        0  wm_bringtotop.o(i._BringToTop)
    _BringToTop                              0x08008c1d   Thumb Code   106  wm_bringtotop.o(i._BringToTop)
    i._CalcSizeOfChar                        0x08008c8c   Section        0  gui_uc_encodenone.o(i._CalcSizeOfChar)
    _CalcSizeOfChar                          0x08008c8d   Thumb Code     4  gui_uc_encodenone.o(i._CalcSizeOfChar)
    i._Color2IndexBulk                       0x08008c90   Section        0  guicc_m565.o(i._Color2IndexBulk)
    _Color2IndexBulk                         0x08008c91   Thumb Code    62  guicc_m565.o(i._Color2IndexBulk)
    i._Color2IndexBulk                       0x08008cdc   Section        0  guicc_8888.o(i._Color2IndexBulk)
    _Color2IndexBulk                         0x08008cdd   Thumb Code    14  guicc_8888.o(i._Color2IndexBulk)
    i._Color2Index_0                         0x08008cec   Section        0  guicc_0.o(i._Color2Index_0)
    _Color2Index_0                           0x08008ced   Thumb Code    84  guicc_0.o(i._Color2Index_0)
    i._Color2Index_8888                      0x08008d40   Section        0  guicc_8888.o(i._Color2Index_8888)
    _Color2Index_8888                        0x08008d41   Thumb Code     2  guicc_8888.o(i._Color2Index_8888)
    i._Color2Index_M565                      0x08008d44   Section        0  guicc_m565.o(i._Color2Index_M565)
    _Color2Index_M565                        0x08008d45   Thumb Code    34  guicc_m565.o(i._Color2Index_M565)
    i._Convert16                             0x08008d70   Section        0  guidev_writetoactiveopaque.o(i._Convert16)
    _Convert16                               0x08008d71   Thumb Code    62  guidev_writetoactiveopaque.o(i._Convert16)
    i._Convert8                              0x08008dbe   Section        0  guidev_writetoactiveopaque.o(i._Convert8)
    _Convert8                                0x08008dbf   Thumb Code    62  guidev_writetoactiveopaque.o(i._Convert8)
    i._Create                                0x08008e0c   Section        0  framewin_skin.o(i._Create)
    _Create                                  0x08008e0d   Thumb Code    38  framewin_skin.o(i._Create)
    i._Create                                0x08008e32   Section        0  progbar_skin.o(i._Create)
    _Create                                  0x08008e33   Thumb Code    38  progbar_skin.o(i._Create)
    i._CreateStaticDevice                    0x08008e58   Section        0  guidev_staticdevices.o(i._CreateStaticDevice)
    _CreateStaticDevice                      0x08008e59   Thumb Code   308  guidev_staticdevices.o(i._CreateStaticDevice)
    i._Data2Index_16bpp_B16                  0x08008fa0   Section        0  guidrv_flexcolor_func66709.o(i._Data2Index_16bpp_B16)
    _Data2Index_16bpp_B16                    0x08008fa1   Thumb Code    28  guidrv_flexcolor_func66709.o(i._Data2Index_16bpp_B16)
    i._Data2Index_16bpp_B8                   0x08008fbc   Section        0  guidrv_flexcolor_func66709.o(i._Data2Index_16bpp_B8)
    _Data2Index_16bpp_B8                     0x08008fbd   Thumb Code    22  guidrv_flexcolor_func66709.o(i._Data2Index_16bpp_B8)
    i._DeleteAllChildren                     0x08008fd2   Section        0  wm.o(i._DeleteAllChildren)
    _DeleteAllChildren                       0x08008fd3   Thumb Code    18  wm.o(i._DeleteAllChildren)
    i._DesktopHandle2Index                   0x08008fe4   Section        0  wm.o(i._DesktopHandle2Index)
    _DesktopHandle2Index                     0x08008fe5   Thumb Code    28  wm.o(i._DesktopHandle2Index)
    i._DispLine                              0x08009004   Section        0  gui_charline.o(i._DispLine)
    _DispLine                                0x08009005   Thumb Code   104  gui_charline.o(i._DispLine)
    i._DrawBackground                        0x08009078   Section        0  progbar_skinflex.o(i._DrawBackground)
    _DrawBackground                          0x08009079   Thumb Code   254  progbar_skinflex.o(i._DrawBackground)
    i._DrawBitLine1BPP                       0x08009184   Section        0  guidrv_flexcolor_16bpp_c0b8.o(i._DrawBitLine1BPP)
    _DrawBitLine1BPP                         0x08009185   Thumb Code   310  guidrv_flexcolor_16bpp_c0b8.o(i._DrawBitLine1BPP)
    i._DrawBitLine1BPP                       0x080092d0   Section        0  guidev_16.o(i._DrawBitLine1BPP)
    _DrawBitLine1BPP                         0x080092d1   Thumb Code   320  guidev_16.o(i._DrawBitLine1BPP)
    i._DrawBitLine1BPP                       0x08009420   Section        0  guidev_32.o(i._DrawBitLine1BPP)
    _DrawBitLine1BPP                         0x08009421   Thumb Code   276  guidev_32.o(i._DrawBitLine1BPP)
    i._DrawBitLine2BPP                       0x08009544   Section        0  guidrv_flexcolor_16bpp_c0b8.o(i._DrawBitLine2BPP)
    _DrawBitLine2BPP                         0x08009545   Thumb Code   282  guidrv_flexcolor_16bpp_c0b8.o(i._DrawBitLine2BPP)
    i._DrawBitLine2BPP                       0x08009674   Section        0  guidev_16.o(i._DrawBitLine2BPP)
    _DrawBitLine2BPP                         0x08009675   Thumb Code   220  guidev_16.o(i._DrawBitLine2BPP)
    i._DrawBitLine2BPP                       0x0800975c   Section        0  guidev_32.o(i._DrawBitLine2BPP)
    _DrawBitLine2BPP                         0x0800975d   Thumb Code   218  guidev_32.o(i._DrawBitLine2BPP)
    i._DrawBitLine32BPP_DDB                  0x08009842   Section        0  guidev_32.o(i._DrawBitLine32BPP_DDB)
    _DrawBitLine32BPP_DDB                    0x08009843   Thumb Code   160  guidev_32.o(i._DrawBitLine32BPP_DDB)
    i._DrawBitLine4BPP                       0x080098e4   Section        0  guidrv_flexcolor_16bpp_c0b8.o(i._DrawBitLine4BPP)
    _DrawBitLine4BPP                         0x080098e5   Thumb Code   282  guidrv_flexcolor_16bpp_c0b8.o(i._DrawBitLine4BPP)
    i._DrawBitLine4BPP                       0x08009a14   Section        0  guidev_16.o(i._DrawBitLine4BPP)
    _DrawBitLine4BPP                         0x08009a15   Thumb Code   346  guidev_16.o(i._DrawBitLine4BPP)
    i._DrawBitLine4BPP                       0x08009b84   Section        0  guidev_32.o(i._DrawBitLine4BPP)
    _DrawBitLine4BPP                         0x08009b85   Thumb Code   340  guidev_32.o(i._DrawBitLine4BPP)
    i._DrawBitLine8BPP                       0x08009cec   Section        0  guidrv_flexcolor_16bpp_c0b8.o(i._DrawBitLine8BPP)
    _DrawBitLine8BPP                         0x08009ced   Thumb Code   206  guidrv_flexcolor_16bpp_c0b8.o(i._DrawBitLine8BPP)
    i._DrawBitmap                            0x08009dd0   Section        0  guidrv_flexcolor.o(i._DrawBitmap)
    _DrawBitmap                              0x08009dd1   Thumb Code    34  guidrv_flexcolor.o(i._DrawBitmap)
    i._DrawBitmap                            0x08009df4   Section        0  guidrv_flexcolor_16bpp_c0b8.o(i._DrawBitmap)
    _DrawBitmap                              0x08009df5   Thumb Code   240  guidrv_flexcolor_16bpp_c0b8.o(i._DrawBitmap)
    i._DrawBitmap                            0x08009ef0   Section        0  guidev_16.o(i._DrawBitmap)
    _DrawBitmap                              0x08009ef1   Thumb Code   664  guidev_16.o(i._DrawBitmap)
    i._DrawBitmap                            0x0800a198   Section        0  guidev_32.o(i._DrawBitmap)
    _DrawBitmap                              0x0800a199   Thumb Code   666  guidev_32.o(i._DrawBitmap)
    i._DrawDown                              0x0800a442   Section        0  widget_effect_none.o(i._DrawDown)
    _DrawDown                                0x0800a443   Thumb Code     2  widget_effect_none.o(i._DrawDown)
    i._DrawDown                              0x0800a444   Section        0  widget_effect_simple.o(i._DrawDown)
    _DrawDown                                0x0800a445   Thumb Code    16  widget_effect_simple.o(i._DrawDown)
    i._DrawDownRect                          0x0800a454   Section        0  widget_effect_none.o(i._DrawDownRect)
    _DrawDownRect                            0x0800a455   Thumb Code     2  widget_effect_none.o(i._DrawDownRect)
    i._DrawDownRect                          0x0800a458   Section        0  widget_effect_simple.o(i._DrawDownRect)
    _DrawDownRect                            0x0800a459   Thumb Code    50  widget_effect_simple.o(i._DrawDownRect)
    i._DrawFlat                              0x0800a490   Section        0  widget_effect_none.o(i._DrawFlat)
    _DrawFlat                                0x0800a491   Thumb Code     2  widget_effect_none.o(i._DrawFlat)
    i._DrawGradient                          0x0800a494   Section        0  gui_drawgradient.o(i._DrawGradient)
    _DrawGradient                            0x0800a495   Thumb Code   382  gui_drawgradient.o(i._DrawGradient)
    i._DrawHLine                             0x0800a61c   Section        0  guidrv_flexcolor.o(i._DrawHLine)
    _DrawHLine                               0x0800a61d   Thumb Code    14  guidrv_flexcolor.o(i._DrawHLine)
    i._DrawHLine                             0x0800a62a   Section        0  guidev_16.o(i._DrawHLine)
    _DrawHLine                               0x0800a62b   Thumb Code    10  guidev_16.o(i._DrawHLine)
    i._DrawHLine                             0x0800a634   Section        0  guidev_32.o(i._DrawHLine)
    _DrawHLine                               0x0800a635   Thumb Code    10  guidev_32.o(i._DrawHLine)
    i._DrawNext                              0x0800a640   Section        0  wm.o(i._DrawNext)
    _DrawNext                                0x0800a641   Thumb Code    82  wm.o(i._DrawNext)
    i._DrawTwinArc2                          0x0800a69c   Section        0  gui__drawtwinarc.o(i._DrawTwinArc2)
    _DrawTwinArc2                            0x0800a69d   Thumb Code   262  gui__drawtwinarc.o(i._DrawTwinArc2)
    i._DrawUp                                0x0800a7a8   Section        0  widget_effect_none.o(i._DrawUp)
    _DrawUp                                  0x0800a7a9   Thumb Code     2  widget_effect_none.o(i._DrawUp)
    i._DrawUp                                0x0800a7aa   Section        0  widget_effect_simple.o(i._DrawUp)
    _DrawUp                                  0x0800a7ab   Thumb Code    16  widget_effect_simple.o(i._DrawUp)
    i._DrawUpRect                            0x0800a7ba   Section        0  widget_effect_none.o(i._DrawUpRect)
    _DrawUpRect                              0x0800a7bb   Thumb Code     2  widget_effect_none.o(i._DrawUpRect)
    i._DrawUpRect                            0x0800a7bc   Section        0  widget_effect_simple.o(i._DrawUpRect)
    _DrawUpRect                              0x0800a7bd   Thumb Code    50  widget_effect_simple.o(i._DrawUpRect)
    i._DrawVLine                             0x0800a7f4   Section        0  guidrv_flexcolor.o(i._DrawVLine)
    _DrawVLine                               0x0800a7f5   Thumb Code    16  guidrv_flexcolor.o(i._DrawVLine)
    i._DrawVLine                             0x0800a804   Section        0  guidev_16.o(i._DrawVLine)
    _DrawVLine                               0x0800a805   Thumb Code   180  guidev_16.o(i._DrawVLine)
    i._DrawVLine                             0x0800a8c4   Section        0  guidev_32.o(i._DrawVLine)
    _DrawVLine                               0x0800a8c5   Thumb Code   166  guidev_32.o(i._DrawVLine)
    i._Encode                                0x0800a976   Section        0  gui_uc_encodenone.o(i._Encode)
    _Encode                                  0x0800a977   Thumb Code     6  gui_uc_encodenone.o(i._Encode)
    i._EnlargeBlocks                         0x0800a97c   Section        0  gui_alloc.o(i._EnlargeBlocks)
    _EnlargeBlocks                           0x0800a97d   Thumb Code   146  gui_alloc.o(i._EnlargeBlocks)
    i._Error_Handler                         0x0800aa14   Section        0  main.o(i._Error_Handler)
    i._Exec1Input                            0x0800aa18   Section        0  wm.o(i._Exec1Input)
    _Exec1Input                              0x0800aa19   Thumb Code   100  wm.o(i._Exec1Input)
    i._FillRect                              0x0800aa88   Section        0  guidrv_flexcolor.o(i._FillRect)
    _FillRect                                0x0800aa89   Thumb Code    16  guidrv_flexcolor.o(i._FillRect)
    i._FillRect                              0x0800aa98   Section        0  guidrv_flexcolor_16bpp_c0b8.o(i._FillRect)
    _FillRect                                0x0800aa99   Thumb Code   252  guidrv_flexcolor_16bpp_c0b8.o(i._FillRect)
    i._FillRect                              0x0800aba0   Section        0  guidev_16.o(i._FillRect)
    _FillRect                                0x0800aba1   Thumb Code   166  guidev_16.o(i._FillRect)
    i._FillRect                              0x0800ac54   Section        0  guidev_32.o(i._FillRect)
    _FillRect                                0x0800ac55   Thumb Code   160  guidev_32.o(i._FillRect)
    i._FindNext_IVR                          0x0800ad00   Section        0  wm.o(i._FindNext_IVR)
    _FindNext_IVR                            0x0800ad01   Thumb Code   318  wm.o(i._FindNext_IVR)
    i._Findx0                                0x0800ae48   Section        0  wm.o(i._Findx0)
    _Findx0                                  0x0800ae49   Thumb Code   124  wm.o(i._Findx0)
    i._Findx1                                0x0800aec4   Section        0  wm.o(i._Findx1)
    _Findx1                                  0x0800aec5   Thumb Code   114  wm.o(i._Findx1)
    i._Findy1                                0x0800af36   Section        0  wm.o(i._Findy1)
    _Findy1                                  0x0800af37   Thumb Code   166  wm.o(i._Findy1)
    i._GUI_USAGE_BM_Delete                   0x0800afdc   Section        0  guidev_usagebm.o(i._GUI_USAGE_BM_Delete)
    _GUI_USAGE_BM_Delete                     0x0800afdd   Thumb Code     4  guidev_usagebm.o(i._GUI_USAGE_BM_Delete)
    i._GetBorderSize                         0x0800afe0   Section        0  framewin_skin.o(i._GetBorderSize)
    _GetBorderSize                           0x0800afe1   Thumb Code    64  framewin_skin.o(i._GetBorderSize)
    i._GetCharCode                           0x0800b020   Section        0  gui_uc_encodenone.o(i._GetCharCode)
    _GetCharCode                             0x0800b021   Thumb Code     4  gui_uc_encodenone.o(i._GetCharCode)
    i._GetCharSize                           0x0800b024   Section        0  gui_uc_encodenone.o(i._GetCharSize)
    _GetCharSize                             0x0800b025   Thumb Code     4  gui_uc_encodenone.o(i._GetCharSize)
    i._GetDefaultWin                         0x0800b028   Section        0  wm_getwindowsize.o(i._GetDefaultWin)
    _GetDefaultWin                           0x0800b029   Thumb Code    10  wm_getwindowsize.o(i._GetDefaultWin)
    i._GetDevData                            0x0800b032   Section        0  guidrv_flexcolor.o(i._GetDevData)
    _GetDevData                              0x0800b033   Thumb Code    14  guidrv_flexcolor.o(i._GetDevData)
    i._GetDevData                            0x0800b040   Section        0  guidev_16.o(i._GetDevData)
    _GetDevData                              0x0800b041   Thumb Code    12  guidev_16.o(i._GetDevData)
    i._GetDevData                            0x0800b050   Section        0  guidev_32.o(i._GetDevData)
    _GetDevData                              0x0800b051   Thumb Code    12  guidev_32.o(i._GetDevData)
    i._GetDevFunc                            0x0800b060   Section        0  guidrv_flexcolor.o(i._GetDevFunc)
    _GetDevFunc                              0x0800b061   Thumb Code    90  guidrv_flexcolor.o(i._GetDevFunc)
    i._GetDevFunc                            0x0800b0d0   Section        0  guidev_16.o(i._GetDevFunc)
    _GetDevFunc                              0x0800b0d1   Thumb Code    12  guidev_16.o(i._GetDevFunc)
    i._GetDevFunc                            0x0800b0e0   Section        0  guidev_32.o(i._GetDevFunc)
    _GetDevFunc                              0x0800b0e1   Thumb Code    12  guidev_32.o(i._GetDevFunc)
    i._GetDevFunc_Init                       0x0800b0f0   Section        0  guidrv_flexcolor.o(i._GetDevFunc_Init)
    _GetDevFunc_Init                         0x0800b0f1   Thumb Code    76  guidrv_flexcolor.o(i._GetDevFunc_Init)
    i._GetDevFunc_SetRect                    0x0800b13c   Section        0  guidrv_flexcolor.o(i._GetDevFunc_SetRect)
    _GetDevFunc_SetRect                      0x0800b13d   Thumb Code     2  guidrv_flexcolor.o(i._GetDevFunc_SetRect)
    i._GetDevFunc_SetRectOutside             0x0800b140   Section        0  guidrv_flexcolor.o(i._GetDevFunc_SetRectOutside)
    _GetDevFunc_SetRectOutside               0x0800b141   Thumb Code    54  guidrv_flexcolor.o(i._GetDevFunc_SetRectOutside)
    i._GetDevFunc_SetSize                    0x0800b180   Section        0  guidrv_flexcolor.o(i._GetDevFunc_SetSize)
    _GetDevFunc_SetSize                      0x0800b181   Thumb Code    20  guidrv_flexcolor.o(i._GetDevFunc_SetSize)
    i._GetDevFunc_SetVSize                   0x0800b194   Section        0  guidrv_flexcolor.o(i._GetDevFunc_SetVSize)
    _GetDevFunc_SetVSize                     0x0800b195   Thumb Code    20  guidrv_flexcolor.o(i._GetDevFunc_SetVSize)
    i._GetDevProp                            0x0800b1a8   Section        0  guidrv_flexcolor.o(i._GetDevProp)
    _GetDevProp                              0x0800b1a9   Thumb Code   102  guidrv_flexcolor.o(i._GetDevProp)
    i._GetDevProp                            0x0800b20e   Section        0  lcd_getex.o(i._GetDevProp)
    _GetDevProp                              0x0800b20f   Thumb Code    30  lcd_getex.o(i._GetDevProp)
    i._GetDevProp                            0x0800b22c   Section        0  guidev_16.o(i._GetDevProp)
    _GetDevProp                              0x0800b22d   Thumb Code    16  guidev_16.o(i._GetDevProp)
    i._GetDevProp                            0x0800b23c   Section        0  guidev_32.o(i._GetDevProp)
    _GetDevProp                              0x0800b23d   Thumb Code    12  guidev_32.o(i._GetDevProp)
    i._GetDialogItem                         0x0800b248   Section        0  wm_getdialogitem.o(i._GetDialogItem)
    _GetDialogItem                           0x0800b249   Thumb Code    64  wm_getdialogitem.o(i._GetDialogItem)
    i._GetIndexMask_0                        0x0800b288   Section        0  guicc_0.o(i._GetIndexMask_0)
    _GetIndexMask_0                          0x0800b289   Thumb Code    82  guicc_0.o(i._GetIndexMask_0)
    i._GetIndexMask_8888                     0x0800b2da   Section        0  guicc_8888.o(i._GetIndexMask_8888)
    _GetIndexMask_8888                       0x0800b2db   Thumb Code     6  guicc_8888.o(i._GetIndexMask_8888)
    i._GetIndexMask_M565                     0x0800b2e0   Section        0  guicc_m565.o(i._GetIndexMask_M565)
    _GetIndexMask_M565                       0x0800b2e1   Thumb Code     6  guicc_m565.o(i._GetIndexMask_M565)
    i._GetMaxValue                           0x0800b2e6   Section        0  lcd_getex.o(i._GetMaxValue)
    _GetMaxValue                             0x0800b2e7   Thumb Code    30  lcd_getex.o(i._GetMaxValue)
    i._GetMinIndex                           0x0800b304   Section        0  gui_alloc.o(i._GetMinIndex)
    _GetMinIndex                             0x0800b305   Thumb Code    24  gui_alloc.o(i._GetMinIndex)
    i._GetNextChild                          0x0800b320   Section        0  wm_setfocusonnextchild.o(i._GetNextChild)
    _GetNextChild                            0x0800b321   Thumb Code    34  wm_setfocusonnextchild.o(i._GetNextChild)
    i._GetPixelIndex                         0x0800b342   Section        0  guidrv_flexcolor.o(i._GetPixelIndex)
    _GetPixelIndex                           0x0800b343   Thumb Code     8  guidrv_flexcolor.o(i._GetPixelIndex)
    i._GetPixelIndex                         0x0800b34a   Section        0  guidev_16.o(i._GetPixelIndex)
    _GetPixelIndex                           0x0800b34b   Thumb Code    14  guidev_16.o(i._GetPixelIndex)
    i._GetPixelIndex                         0x0800b358   Section        0  guidev_32.o(i._GetPixelIndex)
    _GetPixelIndex                           0x0800b359   Thumb Code    14  guidev_32.o(i._GetPixelIndex)
    i._GetPrevChild                          0x0800b366   Section        0  wm_setfocusonprevchild.o(i._GetPrevChild)
    _GetPrevChild                            0x0800b367   Thumb Code    26  wm_setfocusonprevchild.o(i._GetPrevChild)
    i._GetRect                               0x0800b380   Section        0  guidrv_flexcolor.o(i._GetRect)
    _GetRect                                 0x0800b381   Thumb Code    22  guidrv_flexcolor.o(i._GetRect)
    i._GetRect                               0x0800b396   Section        0  guidev_16.o(i._GetRect)
    _GetRect                                 0x0800b397   Thumb Code    48  guidev_16.o(i._GetRect)
    i._GetRect                               0x0800b3c6   Section        0  guidev_32.o(i._GetRect)
    _GetRect                                 0x0800b3c7   Thumb Code    48  guidev_32.o(i._GetRect)
    i._GetTwinArcPara                        0x0800b3f6   Section        0  gui__drawtwinarc.o(i._GetTwinArcPara)
    _GetTwinArcPara                          0x0800b3f7   Thumb Code    84  gui__drawtwinarc.o(i._GetTwinArcPara)
    i._GotoX                                 0x0800b44c   Section        0  gui_goto.o(i._GotoX)
    _GotoX                                   0x0800b44d   Thumb Code    10  gui_goto.o(i._GotoX)
    i._GotoY                                 0x0800b45c   Section        0  gui_goto.o(i._GotoY)
    _GotoY                                   0x0800b45d   Thumb Code    10  gui_goto.o(i._GotoY)
    i._IncPointer                            0x0800b46c   Section        0  gui_onkey.o(i._IncPointer)
    _IncPointer                              0x0800b46d   Thumb Code    24  gui_onkey.o(i._IncPointer)
    i._IncReadPointer                        0x0800b488   Section        0  gui_onkey.o(i._IncReadPointer)
    _IncReadPointer                          0x0800b489   Thumb Code     6  gui_onkey.o(i._IncReadPointer)
    i._Index2ColorBulk                       0x0800b490   Section        0  guicc_m565.o(i._Index2ColorBulk)
    _Index2ColorBulk                         0x0800b491   Thumb Code    76  guicc_m565.o(i._Index2ColorBulk)
    i._Index2ColorBulk                       0x0800b4e8   Section        0  guicc_8888.o(i._Index2ColorBulk)
    _Index2ColorBulk                         0x0800b4e9   Thumb Code    14  guicc_8888.o(i._Index2ColorBulk)
    i._Index2Color_0                         0x0800b4f6   Section        0  guicc_0.o(i._Index2Color_0)
    _Index2Color_0                           0x0800b4f7   Thumb Code    32  guicc_0.o(i._Index2Color_0)
    i._InitContext                           0x0800b518   Section        0  gui_core.o(i._InitContext)
    _InitContext                             0x0800b519   Thumb Code    98  gui_core.o(i._InitContext)
    i._InitOnce                              0x0800b588   Section        0  gui_alloc.o(i._InitOnce)
    _InitOnce                                0x0800b589   Thumb Code   156  gui_alloc.o(i._InitOnce)
    i._Invalidate1Abs                        0x0800b630   Section        0  wm.o(i._Invalidate1Abs)
    _Invalidate1Abs                          0x0800b631   Thumb Code   122  wm.o(i._Invalidate1Abs)
    i._Log2PhysX_X0Y0S0                      0x0800b6b0   Section        0  guidrv_flexcolor.o(i._Log2PhysX_X0Y0S0)
    _Log2PhysX_X0Y0S0                        0x0800b6b1   Thumb Code     4  guidrv_flexcolor.o(i._Log2PhysX_X0Y0S0)
    i._Log2PhysX_X0Y0S1                      0x0800b6b4   Section        0  guidrv_flexcolor.o(i._Log2PhysX_X0Y0S1)
    _Log2PhysX_X0Y0S1                        0x0800b6b5   Thumb Code     4  guidrv_flexcolor.o(i._Log2PhysX_X0Y0S1)
    i._Log2PhysX_X0Y1S0                      0x0800b6b8   Section        0  guidrv_flexcolor.o(i._Log2PhysX_X0Y1S0)
    _Log2PhysX_X0Y1S0                        0x0800b6b9   Thumb Code     4  guidrv_flexcolor.o(i._Log2PhysX_X0Y1S0)
    i._Log2PhysX_X0Y1S1                      0x0800b6bc   Section        0  guidrv_flexcolor.o(i._Log2PhysX_X0Y1S1)
    _Log2PhysX_X0Y1S1                        0x0800b6bd   Thumb Code     4  guidrv_flexcolor.o(i._Log2PhysX_X0Y1S1)
    i._Log2PhysX_X1Y0S0                      0x0800b6c0   Section        0  guidrv_flexcolor.o(i._Log2PhysX_X1Y0S0)
    _Log2PhysX_X1Y0S0                        0x0800b6c1   Thumb Code     8  guidrv_flexcolor.o(i._Log2PhysX_X1Y0S0)
    i._Log2PhysX_X1Y0S1                      0x0800b6c8   Section        0  guidrv_flexcolor.o(i._Log2PhysX_X1Y0S1)
    _Log2PhysX_X1Y0S1                        0x0800b6c9   Thumb Code     8  guidrv_flexcolor.o(i._Log2PhysX_X1Y0S1)
    i._Log2PhysX_X1Y1S0                      0x0800b6d0   Section        0  guidrv_flexcolor.o(i._Log2PhysX_X1Y1S0)
    _Log2PhysX_X1Y1S0                        0x0800b6d1   Thumb Code     8  guidrv_flexcolor.o(i._Log2PhysX_X1Y1S0)
    i._Log2PhysX_X1Y1S1                      0x0800b6d8   Section        0  guidrv_flexcolor.o(i._Log2PhysX_X1Y1S1)
    _Log2PhysX_X1Y1S1                        0x0800b6d9   Thumb Code     8  guidrv_flexcolor.o(i._Log2PhysX_X1Y1S1)
    i._Log2PhysY_X0Y0S0                      0x0800b6e0   Section        0  guidrv_flexcolor.o(i._Log2PhysY_X0Y0S0)
    _Log2PhysY_X0Y0S0                        0x0800b6e1   Thumb Code     4  guidrv_flexcolor.o(i._Log2PhysY_X0Y0S0)
    i._Log2PhysY_X0Y0S1                      0x0800b6e4   Section        0  guidrv_flexcolor.o(i._Log2PhysY_X0Y0S1)
    _Log2PhysY_X0Y0S1                        0x0800b6e5   Thumb Code     4  guidrv_flexcolor.o(i._Log2PhysY_X0Y0S1)
    i._Log2PhysY_X0Y1S0                      0x0800b6e8   Section        0  guidrv_flexcolor.o(i._Log2PhysY_X0Y1S0)
    _Log2PhysY_X0Y1S0                        0x0800b6e9   Thumb Code     8  guidrv_flexcolor.o(i._Log2PhysY_X0Y1S0)
    i._Log2PhysY_X0Y1S1                      0x0800b6f0   Section        0  guidrv_flexcolor.o(i._Log2PhysY_X0Y1S1)
    _Log2PhysY_X0Y1S1                        0x0800b6f1   Thumb Code     8  guidrv_flexcolor.o(i._Log2PhysY_X0Y1S1)
    i._Log2PhysY_X1Y0S0                      0x0800b6f8   Section        0  guidrv_flexcolor.o(i._Log2PhysY_X1Y0S0)
    _Log2PhysY_X1Y0S0                        0x0800b6f9   Thumb Code     4  guidrv_flexcolor.o(i._Log2PhysY_X1Y0S0)
    i._Log2PhysY_X1Y0S1                      0x0800b6fc   Section        0  guidrv_flexcolor.o(i._Log2PhysY_X1Y0S1)
    _Log2PhysY_X1Y0S1                        0x0800b6fd   Thumb Code     4  guidrv_flexcolor.o(i._Log2PhysY_X1Y0S1)
    i._Log2PhysY_X1Y1S0                      0x0800b700   Section        0  guidrv_flexcolor.o(i._Log2PhysY_X1Y1S0)
    _Log2PhysY_X1Y1S0                        0x0800b701   Thumb Code     8  guidrv_flexcolor.o(i._Log2PhysY_X1Y1S0)
    i._Log2PhysY_X1Y1S1                      0x0800b708   Section        0  guidrv_flexcolor.o(i._Log2PhysY_X1Y1S1)
    _Log2PhysY_X1Y1S1                        0x0800b709   Thumb Code     8  guidrv_flexcolor.o(i._Log2PhysY_X1Y1S1)
    i._Log2VisBuffered                       0x0800b710   Section        0  gui_charline.o(i._Log2VisBuffered)
    _Log2VisBuffered                         0x0800b711   Thumb Code     2  gui_charline.o(i._Log2VisBuffered)
    i._Min                                   0x0800b712   Section        0  guidev_banding.o(i._Min)
    _Min                                     0x0800b713   Thumb Code     8  guidev_banding.o(i._Min)
    i._MoveDescendents                       0x0800b71a   Section        0  wm_move.o(i._MoveDescendents)
    _MoveDescendents                         0x0800b71b   Thumb Code   110  wm_move.o(i._MoveDescendents)
    i._OnChildHasFocus                       0x0800b788   Section        0  framewin.o(i._OnChildHasFocus)
    _OnChildHasFocus                         0x0800b789   Thumb Code    94  framewin.o(i._OnChildHasFocus)
    i._OnExit                                0x0800b7e8   Section        0  gui_alloc.o(i._OnExit)
    _OnExit                                  0x0800b7e9   Thumb Code    48  gui_alloc.o(i._OnExit)
    i._OnExit                                0x0800b81c   Section        0  gui_core.o(i._OnExit)
    _OnExit                                  0x0800b81d   Thumb Code    34  gui_core.o(i._OnExit)
    i._OnExit                                0x0800b848   Section        0  wm.o(i._OnExit)
    _OnExit                                  0x0800b849   Thumb Code    48  wm.o(i._OnExit)
    i._OnExit                                0x0800b87c   Section        0  lcd_color.o(i._OnExit)
    _OnExit                                  0x0800b87d   Thumb Code    16  lcd_color.o(i._OnExit)
    i._OnExit                                0x0800b890   Section        0  gui__alpha.o(i._OnExit)
    _OnExit                                  0x0800b891   Thumb Code    36  gui__alpha.o(i._OnExit)
    i._OnTouch                               0x0800b8b8   Section        0  framewin.o(i._OnTouch)
    _OnTouch                                 0x0800b8b9   Thumb Code   106  framewin.o(i._OnTouch)
    i._Paint                                 0x0800b928   Section        0  framewin_skin.o(i._Paint)
    _Paint                                   0x0800b929   Thumb Code   264  framewin_skin.o(i._Paint)
    i._Paint                                 0x0800ba36   Section        0  progbar_skin.o(i._Paint)
    _Paint                                   0x0800ba37   Thumb Code   320  progbar_skin.o(i._Paint)
    i._Paint1                                0x0800bb78   Section        0  wm.o(i._Paint1)
    _Paint1                                  0x0800bb79   Thumb Code    28  wm.o(i._Paint1)
    i._Paint1Trans                           0x0800bb9c   Section        0  wm.o(i._Paint1Trans)
    _Paint1Trans                             0x0800bb9d   Thumb Code   130  wm.o(i._Paint1Trans)
    i._PaintTransChildren                    0x0800bc28   Section        0  wm.o(i._PaintTransChildren)
    _PaintTransChildren                      0x0800bc29   Thumb Code   154  wm.o(i._PaintTransChildren)
    i._PopFreeBlock                          0x0800bcc4   Section        0  gui_alloc.o(i._PopFreeBlock)
    _PopFreeBlock                            0x0800bcc5   Thumb Code    60  gui_alloc.o(i._PopFreeBlock)
    i._PushFreeBlock                         0x0800bd04   Section        0  gui_alloc.o(i._PushFreeBlock)
    _PushFreeBlock                           0x0800bd05   Thumb Code    34  gui_alloc.o(i._PushFreeBlock)
    i._ReadData                              0x0800bd2c   Section        0  guidrv_flexcolor_16bpp_c0b8.o(i._ReadData)
    _ReadData                                0x0800bd2d   Thumb Code     6  guidrv_flexcolor_16bpp_c0b8.o(i._ReadData)
    i._ReadPixelCust_16bpp                   0x0800bd32   Section        0  guidrv_flexcolor.o(i._ReadPixelCust_16bpp)
    _ReadPixelCust_16bpp                     0x0800bd33   Thumb Code    12  guidrv_flexcolor.o(i._ReadPixelCust_16bpp)
    i._ReadPixelCust_18bpp                   0x0800bd3e   Section        0  guidrv_flexcolor.o(i._ReadPixelCust_18bpp)
    _ReadPixelCust_18bpp                     0x0800bd3f   Thumb Code    12  guidrv_flexcolor.o(i._ReadPixelCust_18bpp)
    i._ReadPixel_16bpp_B16_I                 0x0800bd4a   Section        0  guidrv_flexcolor_func66709.o(i._ReadPixel_16bpp_B16_I)
    _ReadPixel_16bpp_B16_I                   0x0800bd4b   Thumb Code    40  guidrv_flexcolor_func66709.o(i._ReadPixel_16bpp_B16_I)
    i._ReadPixel_16bpp_B8                    0x0800bd72   Section        0  guidrv_flexcolor_func66709.o(i._ReadPixel_16bpp_B8)
    _ReadPixel_16bpp_B8                      0x0800bd73   Thumb Code    36  guidrv_flexcolor_func66709.o(i._ReadPixel_16bpp_B8)
    i._ReadRectCust_16bpp                    0x0800bd96   Section        0  guidrv_flexcolor.o(i._ReadRectCust_16bpp)
    _ReadRectCust_16bpp                      0x0800bd97   Thumb Code    48  guidrv_flexcolor.o(i._ReadRectCust_16bpp)
    i._ReadRectCust_18bpp                    0x0800bdc6   Section        0  guidrv_flexcolor.o(i._ReadRectCust_18bpp)
    _ReadRectCust_18bpp                      0x0800bdc7   Thumb Code    48  guidrv_flexcolor.o(i._ReadRectCust_18bpp)
    i._ReadRect_16bpp_B16_I                  0x0800bdf6   Section        0  guidrv_flexcolor_func66709.o(i._ReadRect_16bpp_B16_I)
    _ReadRect_16bpp_B16_I                    0x0800bdf7   Thumb Code    76  guidrv_flexcolor_func66709.o(i._ReadRect_16bpp_B16_I)
    i._ReadRect_16bpp_B8                     0x0800be42   Section        0  guidrv_flexcolor_func66709.o(i._ReadRect_16bpp_B8)
    _ReadRect_16bpp_B8                       0x0800be43   Thumb Code    72  guidrv_flexcolor_func66709.o(i._ReadRect_16bpp_B8)
    i._RemoveFreeBlock                       0x0800be8c   Section        0  gui_alloc.o(i._RemoveFreeBlock)
    _RemoveFreeBlock                         0x0800be8d   Thumb Code    48  gui_alloc.o(i._RemoveFreeBlock)
    i._RemoveFromLinList                     0x0800bec0   Section        0  gui_timer.o(i._RemoveFromLinList)
    _RemoveFromLinList                       0x0800bec1   Thumb Code    86  gui_timer.o(i._RemoveFromLinList)
    i._RemoveHoles                           0x0800bf1c   Section        0  gui_alloc.o(i._RemoveHoles)
    _RemoveHoles                             0x0800bf1d   Thumb Code   156  gui_alloc.o(i._RemoveHoles)
    i._SetActive                             0x0800bfc2   Section        0  framewin.o(i._SetActive)
    _SetActive                               0x0800bfc3   Thumb Code    58  framewin.o(i._SetActive)
    i._SetBkColor                            0x0800bffc   Section        0  lcd.o(i._SetBkColor)
    _SetBkColor                              0x0800bffd   Thumb Code    28  lcd.o(i._SetBkColor)
    i._SetClipRectUserIntersect              0x0800c01c   Section        0  wm.o(i._SetClipRectUserIntersect)
    _SetClipRectUserIntersect                0x0800c01d   Thumb Code    68  wm.o(i._SetClipRectUserIntersect)
    i._SetColor                              0x0800c068   Section        0  lcd.o(i._SetColor)
    _SetColor                                0x0800c069   Thumb Code    28  lcd.o(i._SetColor)
    i._SetDevFunc                            0x0800c088   Section        0  guidrv_flexcolor.o(i._SetDevFunc)
    _SetDevFunc                              0x0800c089   Thumb Code   110  guidrv_flexcolor.o(i._SetDevFunc)
    i._SetDrawMode                           0x0800c108   Section        0  lcd.o(i._SetDrawMode)
    _SetDrawMode                             0x0800c109   Thumb Code    40  lcd.o(i._SetDrawMode)
    i._SetFocusOnNextChild                   0x0800c134   Section        0  wm_setfocusonnextchild.o(i._SetFocusOnNextChild)
    _SetFocusOnNextChild                     0x0800c135   Thumb Code    90  wm_setfocusonnextchild.o(i._SetFocusOnNextChild)
    i._SetInterface                          0x0800c194   Section        0  guidrv_flexcolor_func66709.o(i._SetInterface)
    _SetInterface                            0x0800c195   Thumb Code    30  guidrv_flexcolor_func66709.o(i._SetInterface)
    i._SetOrg                                0x0800c1c4   Section        0  guidrv_flexcolor.o(i._SetOrg)
    _SetOrg                                  0x0800c1c5   Thumb Code    18  guidrv_flexcolor.o(i._SetOrg)
    i._SetOrg                                0x0800c1d6   Section        0  guidev_16.o(i._SetOrg)
    _SetOrg                                  0x0800c1d7   Thumb Code    14  guidev_16.o(i._SetOrg)
    i._SetOrg                                0x0800c1e4   Section        0  guidev_32.o(i._SetOrg)
    _SetOrg                                  0x0800c1e5   Thumb Code     8  guidev_32.o(i._SetOrg)
    i._SetOrientation                        0x0800c1ec   Section        0  guidrv_flexcolor_func66709.o(i._SetOrientation)
    _SetOrientation                          0x0800c1ed   Thumb Code    48  guidrv_flexcolor_func66709.o(i._SetOrientation)
    i._SetPhysRAMAddr                        0x0800c224   Section        0  guidrv_flexcolor_func66709.o(i._SetPhysRAMAddr)
    _SetPhysRAMAddr                          0x0800c225   Thumb Code   168  guidrv_flexcolor_func66709.o(i._SetPhysRAMAddr)
    i._SetPixelIndex                         0x0800c2cc   Section        0  guidrv_flexcolor.o(i._SetPixelIndex)
    _SetPixelIndex                           0x0800c2cd   Thumb Code    14  guidrv_flexcolor.o(i._SetPixelIndex)
    i._SetPixelIndex                         0x0800c2dc   Section        0  guidev_16.o(i._SetPixelIndex)
    _SetPixelIndex                           0x0800c2dd   Thumb Code    66  guidev_16.o(i._SetPixelIndex)
    i._SetPixelIndex                         0x0800c324   Section        0  guidev_32.o(i._SetPixelIndex)
    _SetPixelIndex                           0x0800c325   Thumb Code    66  guidev_32.o(i._SetPixelIndex)
    i._SetRect                               0x0800c36c   Section        0  guidrv_flexcolor_func66709.o(i._SetRect)
    _SetRect                                 0x0800c36d   Thumb Code   180  guidrv_flexcolor_func66709.o(i._SetRect)
    i._SetReg_B16                            0x0800c420   Section        0  guidrv_flexcolor_func66709.o(i._SetReg_B16)
    _SetReg_B16                              0x0800c421   Thumb Code     8  guidrv_flexcolor_func66709.o(i._SetReg_B16)
    i._SetReg_B8                             0x0800c428   Section        0  guidrv_flexcolor_func66709.o(i._SetReg_B8)
    _SetReg_B8                               0x0800c429   Thumb Code    26  guidrv_flexcolor_func66709.o(i._SetReg_B8)
    i._SetValue                              0x0800c442   Section        0  progbar.o(i._SetValue)
    _SetValue                                0x0800c443   Thumb Code    44  progbar.o(i._SetValue)
    i._TestRAM                               0x0800c470   Section        0  gui_alloc.o(i._TestRAM)
    _TestRAM                                 0x0800c471   Thumb Code   234  gui_alloc.o(i._TestRAM)
    i._Unlink                                0x0800c55c   Section        0  gui_timer.o(i._Unlink)
    _Unlink                                  0x0800c55d   Thumb Code    74  gui_timer.o(i._Unlink)
    i._WriteData                             0x0800c5ac   Section        0  guidrv_flexcolor_16bpp_c0b8.o(i._WriteData)
    _WriteData                               0x0800c5ad   Thumb Code     6  guidrv_flexcolor_16bpp_c0b8.o(i._WriteData)
    i._WriteDataMP                           0x0800c5b4   Section        0  guidrv_flexcolor_16bpp_c0b8.o(i._WriteDataMP)
    _WriteDataMP                             0x0800c5b5   Thumb Code    74  guidrv_flexcolor_16bpp_c0b8.o(i._WriteDataMP)
    i._WritePara_B16                         0x0800c5fe   Section        0  guidrv_flexcolor_func66709.o(i._WritePara_B16)
    _WritePara_B16                           0x0800c5ff   Thumb Code     8  guidrv_flexcolor_func66709.o(i._WritePara_B16)
    i._WritePara_B8                          0x0800c606   Section        0  guidrv_flexcolor_func66709.o(i._WritePara_B8)
    _WritePara_B8                            0x0800c607   Thumb Code    10  guidrv_flexcolor_func66709.o(i._WritePara_B8)
    i._WriteTagData                          0x0800c610   Section        0  gui_alloc.o(i._WriteTagData)
    _WriteTagData                            0x0800c611   Thumb Code    14  gui_alloc.o(i._WriteTagData)
    i._WriteToActiveOpaque_8                 0x0800c620   Section        0  guidev_writetoactiveopaque.o(i._WriteToActiveOpaque_8)
    _WriteToActiveOpaque_8                   0x0800c621   Thumb Code   824  guidev_writetoactiveopaque.o(i._WriteToActiveOpaque_8)
    i._WriteToActiveOpaque_HT                0x0800c968   Section        0  guidev_writetoactiveopaque.o(i._WriteToActiveOpaque_HT)
    _WriteToActiveOpaque_HT                  0x0800c969   Thumb Code   826  guidev_writetoactiveopaque.o(i._WriteToActiveOpaque_HT)
    i._WriteU16_A1                           0x0800ccb2   Section        0  guidrv_flexcolor_16bpp_c0b8.o(i._WriteU16_A1)
    _WriteU16_A1                             0x0800ccb3   Thumb Code    16  guidrv_flexcolor_16bpp_c0b8.o(i._WriteU16_A1)
    i._XY2PTR                                0x0800ccc4   Section        0  guidev_16.o(i._XY2PTR)
    _XY2PTR                                  0x0800ccc5   Thumb Code    56  guidev_16.o(i._XY2PTR)
    i._XY2PTR                                0x0800cd00   Section        0  guidev_32.o(i._XY2PTR)
    _XY2PTR                                  0x0800cd01   Thumb Code    56  guidev_32.o(i._XY2PTR)
    i._XorPixel                              0x0800cd3c   Section        0  guidrv_flexcolor.o(i._XorPixel)
    _XorPixel                                0x0800cd3d   Thumb Code    36  guidrv_flexcolor.o(i._XorPixel)
    i._XorPixel                              0x0800cd60   Section        0  guidev_16.o(i._XorPixel)
    _XorPixel                                0x0800cd61   Thumb Code    78  guidev_16.o(i._XorPixel)
    i._XorPixel                              0x0800cdb4   Section        0  guidev_32.o(i._XorPixel)
    _XorPixel                                0x0800cdb5   Thumb Code    82  guidev_32.o(i._XorPixel)
    i.__scatterload_copy                     0x0800ce0c   Section       14  handlers.o(i.__scatterload_copy)
    i.__scatterload_null                     0x0800ce1a   Section        2  handlers.o(i.__scatterload_null)
    i.__scatterload_zeroinit                 0x0800ce1c   Section       14  handlers.o(i.__scatterload_zeroinit)
    i._cbBackWin                             0x0800ce2c   Section        0  wm.o(i._cbBackWin)
    _cbBackWin                               0x0800ce2d   Thumb Code    74  wm.o(i._cbBackWin)
    i._cbDialog                              0x0800ce7c   Section        0  processbardlg.o(i._cbDialog)
    _cbDialog                                0x0800ce7d   Thumb Code    96  processbardlg.o(i._cbDialog)
    i._cbInvalidateOne                       0x0800cf04   Section        0  wm_bringtotop.o(i._cbInvalidateOne)
    _cbInvalidateOne                         0x0800cf05   Thumb Code     4  wm_bringtotop.o(i._cbInvalidateOne)
    i._cbPaintMemDev                         0x0800cf08   Section        0  wm.o(i._cbPaintMemDev)
    _cbPaintMemDev                           0x0800cf09   Thumb Code    64  wm.o(i._cbPaintMemDev)
    i.emWin_LCD_Init                         0x0800cf4c   Section        0  lcd.o(i.emWin_LCD_Init)
    i.main                                   0x0800cfd8   Section        0  main.o(i.main)
    .constdata                               0x0800d028   Section       72  system_stm32l4xx.o(.constdata)
    .constdata                               0x0800d070   Section       56  processbardlg.o(.constdata)
    _aDialogCreate                           0x0800d070   Data          56  processbardlg.o(.constdata)
    .constdata                               0x0800d0a8   Section        8  gui_core.o(.constdata)
    _HL_APIList                              0x0800d0a8   Data           8  gui_core.o(.constdata)
    .constdata                               0x0800d0b0   Section       24  guicc_m565.o(.constdata)
    .constdata                               0x0800d0c8   Section       52  guidrv_flexcolor.o(.constdata)
    .constdata                               0x0800d0fc   Section       64  guidrv_flexcolor.o(.constdata)
    .constdata                               0x0800d13c   Section     1304  f6x8.o(.constdata)
    GUI_acFont6x8                            0x0800d13c   Data        1304  f6x8.o(.constdata)
    .constdata                               0x0800d654   Section      448  f6x8.o(.constdata)
    GUI_F6x8_TL8859_1                        0x0800d654   Data         448  f6x8.o(.constdata)
    .constdata                               0x0800d814   Section        8  f6x8.o(.constdata)
    GUI_F6x8_TI8859_1                        0x0800d814   Data           8  f6x8.o(.constdata)
    .constdata                               0x0800d81c   Section       20  f6x8.o(.constdata)
    GUI_F6x8_Mono                            0x0800d81c   Data          20  f6x8.o(.constdata)
    .constdata                               0x0800d830   Section       36  f6x8.o(.constdata)
    .constdata                               0x0800d854   Section       16  f16b_ascii.o(.constdata)
    acFont16B_ASCII_0020                     0x0800d854   Data          16  f16b_ascii.o(.constdata)
    .constdata                               0x0800d864   Section       16  f16b_ascii.o(.constdata)
    acFont16B_ASCII_0021                     0x0800d864   Data          16  f16b_ascii.o(.constdata)
    .constdata                               0x0800d874   Section       16  f16b_ascii.o(.constdata)
    acFont16B_ASCII_0022                     0x0800d874   Data          16  f16b_ascii.o(.constdata)
    .constdata                               0x0800d884   Section       16  f16b_ascii.o(.constdata)
    acFont16B_ASCII_0023                     0x0800d884   Data          16  f16b_ascii.o(.constdata)
    .constdata                               0x0800d894   Section       16  f16b_ascii.o(.constdata)
    acFont16B_ASCII_0024                     0x0800d894   Data          16  f16b_ascii.o(.constdata)
    .constdata                               0x0800d8a4   Section       32  f16b_ascii.o(.constdata)
    acFont16B_ASCII_0025                     0x0800d8a4   Data          32  f16b_ascii.o(.constdata)
    .constdata                               0x0800d8c4   Section       32  f16b_ascii.o(.constdata)
    acFont16B_ASCII_0026                     0x0800d8c4   Data          32  f16b_ascii.o(.constdata)
    .constdata                               0x0800d8e4   Section       16  f16b_ascii.o(.constdata)
    acFont16B_ASCII_0027                     0x0800d8e4   Data          16  f16b_ascii.o(.constdata)
    .constdata                               0x0800d8f4   Section       16  f16b_ascii.o(.constdata)
    acFont16B_ASCII_0028                     0x0800d8f4   Data          16  f16b_ascii.o(.constdata)
    .constdata                               0x0800d904   Section       16  f16b_ascii.o(.constdata)
    acFont16B_ASCII_0029                     0x0800d904   Data          16  f16b_ascii.o(.constdata)
    .constdata                               0x0800d914   Section       16  f16b_ascii.o(.constdata)
    acFont16B_ASCII_002A                     0x0800d914   Data          16  f16b_ascii.o(.constdata)
    .constdata                               0x0800d924   Section       16  f16b_ascii.o(.constdata)
    acFont16B_ASCII_002B                     0x0800d924   Data          16  f16b_ascii.o(.constdata)
    .constdata                               0x0800d934   Section       16  f16b_ascii.o(.constdata)
    acFont16B_ASCII_002C                     0x0800d934   Data          16  f16b_ascii.o(.constdata)
    .constdata                               0x0800d944   Section       16  f16b_ascii.o(.constdata)
    acFont16B_ASCII_002D                     0x0800d944   Data          16  f16b_ascii.o(.constdata)
    .constdata                               0x0800d954   Section       16  f16b_ascii.o(.constdata)
    acFont16B_ASCII_002E                     0x0800d954   Data          16  f16b_ascii.o(.constdata)
    .constdata                               0x0800d964   Section       16  f16b_ascii.o(.constdata)
    acFont16B_ASCII_002F                     0x0800d964   Data          16  f16b_ascii.o(.constdata)
    .constdata                               0x0800d974   Section       16  f16b_ascii.o(.constdata)
    acFont16B_ASCII_0030                     0x0800d974   Data          16  f16b_ascii.o(.constdata)
    .constdata                               0x0800d984   Section       16  f16b_ascii.o(.constdata)
    acFont16B_ASCII_0031                     0x0800d984   Data          16  f16b_ascii.o(.constdata)
    .constdata                               0x0800d994   Section       16  f16b_ascii.o(.constdata)
    acFont16B_ASCII_0032                     0x0800d994   Data          16  f16b_ascii.o(.constdata)
    .constdata                               0x0800d9a4   Section       16  f16b_ascii.o(.constdata)
    acFont16B_ASCII_0033                     0x0800d9a4   Data          16  f16b_ascii.o(.constdata)
    .constdata                               0x0800d9b4   Section       16  f16b_ascii.o(.constdata)
    acFont16B_ASCII_0034                     0x0800d9b4   Data          16  f16b_ascii.o(.constdata)
    .constdata                               0x0800d9c4   Section       16  f16b_ascii.o(.constdata)
    acFont16B_ASCII_0035                     0x0800d9c4   Data          16  f16b_ascii.o(.constdata)
    .constdata                               0x0800d9d4   Section       16  f16b_ascii.o(.constdata)
    acFont16B_ASCII_0036                     0x0800d9d4   Data          16  f16b_ascii.o(.constdata)
    .constdata                               0x0800d9e4   Section       16  f16b_ascii.o(.constdata)
    acFont16B_ASCII_0037                     0x0800d9e4   Data          16  f16b_ascii.o(.constdata)
    .constdata                               0x0800d9f4   Section       16  f16b_ascii.o(.constdata)
    acFont16B_ASCII_0038                     0x0800d9f4   Data          16  f16b_ascii.o(.constdata)
    .constdata                               0x0800da04   Section       16  f16b_ascii.o(.constdata)
    acFont16B_ASCII_0039                     0x0800da04   Data          16  f16b_ascii.o(.constdata)
    .constdata                               0x0800da14   Section       16  f16b_ascii.o(.constdata)
    acFont16B_ASCII_003A                     0x0800da14   Data          16  f16b_ascii.o(.constdata)
    .constdata                               0x0800da24   Section       16  f16b_ascii.o(.constdata)
    acFont16B_ASCII_003B                     0x0800da24   Data          16  f16b_ascii.o(.constdata)
    .constdata                               0x0800da34   Section       16  f16b_ascii.o(.constdata)
    acFont16B_ASCII_003C                     0x0800da34   Data          16  f16b_ascii.o(.constdata)
    .constdata                               0x0800da44   Section       16  f16b_ascii.o(.constdata)
    acFont16B_ASCII_003D                     0x0800da44   Data          16  f16b_ascii.o(.constdata)
    .constdata                               0x0800da54   Section       16  f16b_ascii.o(.constdata)
    acFont16B_ASCII_003E                     0x0800da54   Data          16  f16b_ascii.o(.constdata)
    .constdata                               0x0800da64   Section       16  f16b_ascii.o(.constdata)
    acFont16B_ASCII_003F                     0x0800da64   Data          16  f16b_ascii.o(.constdata)
    .constdata                               0x0800da74   Section       32  f16b_ascii.o(.constdata)
    acFont16B_ASCII_0040                     0x0800da74   Data          32  f16b_ascii.o(.constdata)
    .constdata                               0x0800da94   Section       32  f16b_ascii.o(.constdata)
    acFont16B_ASCII_0041                     0x0800da94   Data          32  f16b_ascii.o(.constdata)
    .constdata                               0x0800dab4   Section       32  f16b_ascii.o(.constdata)
    acFont16B_ASCII_0042                     0x0800dab4   Data          32  f16b_ascii.o(.constdata)
    .constdata                               0x0800dad4   Section       32  f16b_ascii.o(.constdata)
    acFont16B_ASCII_0043                     0x0800dad4   Data          32  f16b_ascii.o(.constdata)
    .constdata                               0x0800daf4   Section       32  f16b_ascii.o(.constdata)
    acFont16B_ASCII_0044                     0x0800daf4   Data          32  f16b_ascii.o(.constdata)
    .constdata                               0x0800db14   Section       16  f16b_ascii.o(.constdata)
    acFont16B_ASCII_0045                     0x0800db14   Data          16  f16b_ascii.o(.constdata)
    .constdata                               0x0800db24   Section       16  f16b_ascii.o(.constdata)
    acFont16B_ASCII_0046                     0x0800db24   Data          16  f16b_ascii.o(.constdata)
    .constdata                               0x0800db34   Section       32  f16b_ascii.o(.constdata)
    acFont16B_ASCII_0047                     0x0800db34   Data          32  f16b_ascii.o(.constdata)
    .constdata                               0x0800db54   Section       32  f16b_ascii.o(.constdata)
    acFont16B_ASCII_0048                     0x0800db54   Data          32  f16b_ascii.o(.constdata)
    .constdata                               0x0800db74   Section       16  f16b_ascii.o(.constdata)
    acFont16B_ASCII_0049                     0x0800db74   Data          16  f16b_ascii.o(.constdata)
    .constdata                               0x0800db84   Section       16  f16b_ascii.o(.constdata)
    acFont16B_ASCII_004A                     0x0800db84   Data          16  f16b_ascii.o(.constdata)
    .constdata                               0x0800db94   Section       32  f16b_ascii.o(.constdata)
    acFont16B_ASCII_004B                     0x0800db94   Data          32  f16b_ascii.o(.constdata)
    .constdata                               0x0800dbb4   Section       16  f16b_ascii.o(.constdata)
    acFont16B_ASCII_004C                     0x0800dbb4   Data          16  f16b_ascii.o(.constdata)
    .constdata                               0x0800dbc4   Section       32  f16b_ascii.o(.constdata)
    acFont16B_ASCII_004D                     0x0800dbc4   Data          32  f16b_ascii.o(.constdata)
    .constdata                               0x0800dbe4   Section       32  f16b_ascii.o(.constdata)
    acFont16B_ASCII_004E                     0x0800dbe4   Data          32  f16b_ascii.o(.constdata)
    .constdata                               0x0800dc04   Section       32  f16b_ascii.o(.constdata)
    acFont16B_ASCII_004F                     0x0800dc04   Data          32  f16b_ascii.o(.constdata)
    .constdata                               0x0800dc24   Section       32  f16b_ascii.o(.constdata)
    acFont16B_ASCII_0050                     0x0800dc24   Data          32  f16b_ascii.o(.constdata)
    .constdata                               0x0800dc44   Section       32  f16b_ascii.o(.constdata)
    acFont16B_ASCII_0051                     0x0800dc44   Data          32  f16b_ascii.o(.constdata)
    .constdata                               0x0800dc64   Section       32  f16b_ascii.o(.constdata)
    acFont16B_ASCII_0052                     0x0800dc64   Data          32  f16b_ascii.o(.constdata)
    .constdata                               0x0800dc84   Section       32  f16b_ascii.o(.constdata)
    acFont16B_ASCII_0053                     0x0800dc84   Data          32  f16b_ascii.o(.constdata)
    .constdata                               0x0800dca4   Section       16  f16b_ascii.o(.constdata)
    acFont16B_ASCII_0054                     0x0800dca4   Data          16  f16b_ascii.o(.constdata)
    .constdata                               0x0800dcb4   Section       32  f16b_ascii.o(.constdata)
    acFont16B_ASCII_0055                     0x0800dcb4   Data          32  f16b_ascii.o(.constdata)
    .constdata                               0x0800dcd4   Section       32  f16b_ascii.o(.constdata)
    acFont16B_ASCII_0056                     0x0800dcd4   Data          32  f16b_ascii.o(.constdata)
    .constdata                               0x0800dcf4   Section       32  f16b_ascii.o(.constdata)
    acFont16B_ASCII_0057                     0x0800dcf4   Data          32  f16b_ascii.o(.constdata)
    .constdata                               0x0800dd14   Section       32  f16b_ascii.o(.constdata)
    acFont16B_ASCII_0058                     0x0800dd14   Data          32  f16b_ascii.o(.constdata)
    .constdata                               0x0800dd34   Section       16  f16b_ascii.o(.constdata)
    acFont16B_ASCII_0059                     0x0800dd34   Data          16  f16b_ascii.o(.constdata)
    .constdata                               0x0800dd44   Section       16  f16b_ascii.o(.constdata)
    acFont16B_ASCII_005A                     0x0800dd44   Data          16  f16b_ascii.o(.constdata)
    .constdata                               0x0800dd54   Section       16  f16b_ascii.o(.constdata)
    acFont16B_ASCII_005B                     0x0800dd54   Data          16  f16b_ascii.o(.constdata)
    .constdata                               0x0800dd64   Section       16  f16b_ascii.o(.constdata)
    acFont16B_ASCII_005C                     0x0800dd64   Data          16  f16b_ascii.o(.constdata)
    .constdata                               0x0800dd74   Section       16  f16b_ascii.o(.constdata)
    acFont16B_ASCII_005D                     0x0800dd74   Data          16  f16b_ascii.o(.constdata)
    .constdata                               0x0800dd84   Section       16  f16b_ascii.o(.constdata)
    acFont16B_ASCII_005E                     0x0800dd84   Data          16  f16b_ascii.o(.constdata)
    .constdata                               0x0800dd94   Section       16  f16b_ascii.o(.constdata)
    acFont16B_ASCII_005F                     0x0800dd94   Data          16  f16b_ascii.o(.constdata)
    .constdata                               0x0800dda4   Section       16  f16b_ascii.o(.constdata)
    acFont16B_ASCII_0060                     0x0800dda4   Data          16  f16b_ascii.o(.constdata)
    .constdata                               0x0800ddb4   Section       16  f16b_ascii.o(.constdata)
    acFont16B_ASCII_0061                     0x0800ddb4   Data          16  f16b_ascii.o(.constdata)
    .constdata                               0x0800ddc4   Section       16  f16b_ascii.o(.constdata)
    acFont16B_ASCII_0062                     0x0800ddc4   Data          16  f16b_ascii.o(.constdata)
    .constdata                               0x0800ddd4   Section       16  f16b_ascii.o(.constdata)
    acFont16B_ASCII_0063                     0x0800ddd4   Data          16  f16b_ascii.o(.constdata)
    .constdata                               0x0800dde4   Section       16  f16b_ascii.o(.constdata)
    acFont16B_ASCII_0064                     0x0800dde4   Data          16  f16b_ascii.o(.constdata)
    .constdata                               0x0800ddf4   Section       16  f16b_ascii.o(.constdata)
    acFont16B_ASCII_0065                     0x0800ddf4   Data          16  f16b_ascii.o(.constdata)
    .constdata                               0x0800de04   Section       16  f16b_ascii.o(.constdata)
    acFont16B_ASCII_0066                     0x0800de04   Data          16  f16b_ascii.o(.constdata)
    .constdata                               0x0800de14   Section       16  f16b_ascii.o(.constdata)
    acFont16B_ASCII_0067                     0x0800de14   Data          16  f16b_ascii.o(.constdata)
    .constdata                               0x0800de24   Section       16  f16b_ascii.o(.constdata)
    acFont16B_ASCII_0068                     0x0800de24   Data          16  f16b_ascii.o(.constdata)
    .constdata                               0x0800de34   Section       16  f16b_ascii.o(.constdata)
    acFont16B_ASCII_0069                     0x0800de34   Data          16  f16b_ascii.o(.constdata)
    .constdata                               0x0800de44   Section       16  f16b_ascii.o(.constdata)
    acFont16B_ASCII_006A                     0x0800de44   Data          16  f16b_ascii.o(.constdata)
    .constdata                               0x0800de54   Section       16  f16b_ascii.o(.constdata)
    acFont16B_ASCII_006B                     0x0800de54   Data          16  f16b_ascii.o(.constdata)
    .constdata                               0x0800de64   Section       16  f16b_ascii.o(.constdata)
    acFont16B_ASCII_006C                     0x0800de64   Data          16  f16b_ascii.o(.constdata)
    .constdata                               0x0800de74   Section       32  f16b_ascii.o(.constdata)
    acFont16B_ASCII_006D                     0x0800de74   Data          32  f16b_ascii.o(.constdata)
    .constdata                               0x0800de94   Section       16  f16b_ascii.o(.constdata)
    acFont16B_ASCII_006E                     0x0800de94   Data          16  f16b_ascii.o(.constdata)
    .constdata                               0x0800dea4   Section       16  f16b_ascii.o(.constdata)
    acFont16B_ASCII_006F                     0x0800dea4   Data          16  f16b_ascii.o(.constdata)
    .constdata                               0x0800deb4   Section       16  f16b_ascii.o(.constdata)
    acFont16B_ASCII_0070                     0x0800deb4   Data          16  f16b_ascii.o(.constdata)
    .constdata                               0x0800dec4   Section       16  f16b_ascii.o(.constdata)
    acFont16B_ASCII_0071                     0x0800dec4   Data          16  f16b_ascii.o(.constdata)
    .constdata                               0x0800ded4   Section       16  f16b_ascii.o(.constdata)
    acFont16B_ASCII_0072                     0x0800ded4   Data          16  f16b_ascii.o(.constdata)
    .constdata                               0x0800dee4   Section       16  f16b_ascii.o(.constdata)
    acFont16B_ASCII_0073                     0x0800dee4   Data          16  f16b_ascii.o(.constdata)
    .constdata                               0x0800def4   Section       16  f16b_ascii.o(.constdata)
    acFont16B_ASCII_0074                     0x0800def4   Data          16  f16b_ascii.o(.constdata)
    .constdata                               0x0800df04   Section       16  f16b_ascii.o(.constdata)
    acFont16B_ASCII_0075                     0x0800df04   Data          16  f16b_ascii.o(.constdata)
    .constdata                               0x0800df14   Section       16  f16b_ascii.o(.constdata)
    acFont16B_ASCII_0076                     0x0800df14   Data          16  f16b_ascii.o(.constdata)
    .constdata                               0x0800df24   Section       32  f16b_ascii.o(.constdata)
    acFont16B_ASCII_0077                     0x0800df24   Data          32  f16b_ascii.o(.constdata)
    .constdata                               0x0800df44   Section       16  f16b_ascii.o(.constdata)
    acFont16B_ASCII_0078                     0x0800df44   Data          16  f16b_ascii.o(.constdata)
    .constdata                               0x0800df54   Section       16  f16b_ascii.o(.constdata)
    acFont16B_ASCII_0079                     0x0800df54   Data          16  f16b_ascii.o(.constdata)
    .constdata                               0x0800df64   Section       16  f16b_ascii.o(.constdata)
    acFont16B_ASCII_007A                     0x0800df64   Data          16  f16b_ascii.o(.constdata)
    .constdata                               0x0800df74   Section       16  f16b_ascii.o(.constdata)
    acFont16B_ASCII_007B                     0x0800df74   Data          16  f16b_ascii.o(.constdata)
    .constdata                               0x0800df84   Section       16  f16b_ascii.o(.constdata)
    acFont16B_ASCII_007C                     0x0800df84   Data          16  f16b_ascii.o(.constdata)
    .constdata                               0x0800df94   Section       16  f16b_ascii.o(.constdata)
    acFont16B_ASCII_007D                     0x0800df94   Data          16  f16b_ascii.o(.constdata)
    .constdata                               0x0800dfa4   Section       16  f16b_ascii.o(.constdata)
    acFont16B_ASCII_007E                     0x0800dfa4   Data          16  f16b_ascii.o(.constdata)
    .constdata                               0x0800dfb4   Section      760  f16b_ascii.o(.constdata)
    .constdata                               0x0800e2ac   Section       12  f16b_ascii.o(.constdata)
    .constdata                               0x0800e2b8   Section       36  f16b_ascii.o(.constdata)
    .constdata                               0x0800e2dc   Section       18  fcomic18b_ascii.o(.constdata)
    acFontComic18B_ASCII_32                  0x0800e2dc   Data          18  fcomic18b_ascii.o(.constdata)
    .constdata                               0x0800e2ee   Section       18  fcomic18b_ascii.o(.constdata)
    acFontComic18B_ASCII_33                  0x0800e2ee   Data          18  fcomic18b_ascii.o(.constdata)
    .constdata                               0x0800e300   Section       18  fcomic18b_ascii.o(.constdata)
    acFontComic18B_ASCII_34                  0x0800e300   Data          18  fcomic18b_ascii.o(.constdata)
    .constdata                               0x0800e312   Section       36  fcomic18b_ascii.o(.constdata)
    acFontComic18B_ASCII_35                  0x0800e312   Data          36  fcomic18b_ascii.o(.constdata)
    .constdata                               0x0800e336   Section       36  fcomic18b_ascii.o(.constdata)
    acFontComic18B_ASCII_36                  0x0800e336   Data          36  fcomic18b_ascii.o(.constdata)
    .constdata                               0x0800e35a   Section       36  fcomic18b_ascii.o(.constdata)
    acFontComic18B_ASCII_37                  0x0800e35a   Data          36  fcomic18b_ascii.o(.constdata)
    .constdata                               0x0800e37e   Section       36  fcomic18b_ascii.o(.constdata)
    acFontComic18B_ASCII_38                  0x0800e37e   Data          36  fcomic18b_ascii.o(.constdata)
    .constdata                               0x0800e3a2   Section       18  fcomic18b_ascii.o(.constdata)
    acFontComic18B_ASCII_39                  0x0800e3a2   Data          18  fcomic18b_ascii.o(.constdata)
    .constdata                               0x0800e3b4   Section       18  fcomic18b_ascii.o(.constdata)
    acFontComic18B_ASCII_40                  0x0800e3b4   Data          18  fcomic18b_ascii.o(.constdata)
    .constdata                               0x0800e3c6   Section       18  fcomic18b_ascii.o(.constdata)
    acFontComic18B_ASCII_41                  0x0800e3c6   Data          18  fcomic18b_ascii.o(.constdata)
    .constdata                               0x0800e3d8   Section       36  fcomic18b_ascii.o(.constdata)
    acFontComic18B_ASCII_42                  0x0800e3d8   Data          36  fcomic18b_ascii.o(.constdata)
    .constdata                               0x0800e3fc   Section       18  fcomic18b_ascii.o(.constdata)
    acFontComic18B_ASCII_43                  0x0800e3fc   Data          18  fcomic18b_ascii.o(.constdata)
    .constdata                               0x0800e40e   Section       18  fcomic18b_ascii.o(.constdata)
    acFontComic18B_ASCII_44                  0x0800e40e   Data          18  fcomic18b_ascii.o(.constdata)
    .constdata                               0x0800e420   Section       18  fcomic18b_ascii.o(.constdata)
    acFontComic18B_ASCII_45                  0x0800e420   Data          18  fcomic18b_ascii.o(.constdata)
    .constdata                               0x0800e432   Section       18  fcomic18b_ascii.o(.constdata)
    acFontComic18B_ASCII_46                  0x0800e432   Data          18  fcomic18b_ascii.o(.constdata)
    .constdata                               0x0800e444   Section       36  fcomic18b_ascii.o(.constdata)
    acFontComic18B_ASCII_47                  0x0800e444   Data          36  fcomic18b_ascii.o(.constdata)
    .constdata                               0x0800e468   Section       36  fcomic18b_ascii.o(.constdata)
    acFontComic18B_ASCII_48                  0x0800e468   Data          36  fcomic18b_ascii.o(.constdata)
    .constdata                               0x0800e48c   Section       18  fcomic18b_ascii.o(.constdata)
    acFontComic18B_ASCII_49                  0x0800e48c   Data          18  fcomic18b_ascii.o(.constdata)
    .constdata                               0x0800e49e   Section       36  fcomic18b_ascii.o(.constdata)
    acFontComic18B_ASCII_50                  0x0800e49e   Data          36  fcomic18b_ascii.o(.constdata)
    .constdata                               0x0800e4c2   Section       36  fcomic18b_ascii.o(.constdata)
    acFontComic18B_ASCII_51                  0x0800e4c2   Data          36  fcomic18b_ascii.o(.constdata)
    .constdata                               0x0800e4e6   Section       36  fcomic18b_ascii.o(.constdata)
    acFontComic18B_ASCII_52                  0x0800e4e6   Data          36  fcomic18b_ascii.o(.constdata)
    .constdata                               0x0800e50a   Section       36  fcomic18b_ascii.o(.constdata)
    acFontComic18B_ASCII_53                  0x0800e50a   Data          36  fcomic18b_ascii.o(.constdata)
    .constdata                               0x0800e52e   Section       36  fcomic18b_ascii.o(.constdata)
    acFontComic18B_ASCII_54                  0x0800e52e   Data          36  fcomic18b_ascii.o(.constdata)
    .constdata                               0x0800e552   Section       36  fcomic18b_ascii.o(.constdata)
    acFontComic18B_ASCII_55                  0x0800e552   Data          36  fcomic18b_ascii.o(.constdata)
    .constdata                               0x0800e576   Section       36  fcomic18b_ascii.o(.constdata)
    acFontComic18B_ASCII_56                  0x0800e576   Data          36  fcomic18b_ascii.o(.constdata)
    .constdata                               0x0800e59a   Section       36  fcomic18b_ascii.o(.constdata)
    acFontComic18B_ASCII_57                  0x0800e59a   Data          36  fcomic18b_ascii.o(.constdata)
    .constdata                               0x0800e5be   Section       18  fcomic18b_ascii.o(.constdata)
    acFontComic18B_ASCII_58                  0x0800e5be   Data          18  fcomic18b_ascii.o(.constdata)
    .constdata                               0x0800e5d0   Section       18  fcomic18b_ascii.o(.constdata)
    acFontComic18B_ASCII_59                  0x0800e5d0   Data          18  fcomic18b_ascii.o(.constdata)
    .constdata                               0x0800e5e2   Section       18  fcomic18b_ascii.o(.constdata)
    acFontComic18B_ASCII_60                  0x0800e5e2   Data          18  fcomic18b_ascii.o(.constdata)
    .constdata                               0x0800e5f4   Section       18  fcomic18b_ascii.o(.constdata)
    acFontComic18B_ASCII_61                  0x0800e5f4   Data          18  fcomic18b_ascii.o(.constdata)
    .constdata                               0x0800e606   Section       18  fcomic18b_ascii.o(.constdata)
    acFontComic18B_ASCII_62                  0x0800e606   Data          18  fcomic18b_ascii.o(.constdata)
    .constdata                               0x0800e618   Section       36  fcomic18b_ascii.o(.constdata)
    acFontComic18B_ASCII_63                  0x0800e618   Data          36  fcomic18b_ascii.o(.constdata)
    .constdata                               0x0800e63c   Section       36  fcomic18b_ascii.o(.constdata)
    acFontComic18B_ASCII_64                  0x0800e63c   Data          36  fcomic18b_ascii.o(.constdata)
    .constdata                               0x0800e660   Section       36  fcomic18b_ascii.o(.constdata)
    acFontComic18B_ASCII_65                  0x0800e660   Data          36  fcomic18b_ascii.o(.constdata)
    .constdata                               0x0800e684   Section       36  fcomic18b_ascii.o(.constdata)
    acFontComic18B_ASCII_66                  0x0800e684   Data          36  fcomic18b_ascii.o(.constdata)
    .constdata                               0x0800e6a8   Section       36  fcomic18b_ascii.o(.constdata)
    acFontComic18B_ASCII_67                  0x0800e6a8   Data          36  fcomic18b_ascii.o(.constdata)
    .constdata                               0x0800e6cc   Section       36  fcomic18b_ascii.o(.constdata)
    acFontComic18B_ASCII_68                  0x0800e6cc   Data          36  fcomic18b_ascii.o(.constdata)
    .constdata                               0x0800e6f0   Section       36  fcomic18b_ascii.o(.constdata)
    acFontComic18B_ASCII_69                  0x0800e6f0   Data          36  fcomic18b_ascii.o(.constdata)
    .constdata                               0x0800e714   Section       36  fcomic18b_ascii.o(.constdata)
    acFontComic18B_ASCII_70                  0x0800e714   Data          36  fcomic18b_ascii.o(.constdata)
    .constdata                               0x0800e738   Section       36  fcomic18b_ascii.o(.constdata)
    acFontComic18B_ASCII_71                  0x0800e738   Data          36  fcomic18b_ascii.o(.constdata)
    .constdata                               0x0800e75c   Section       36  fcomic18b_ascii.o(.constdata)
    acFontComic18B_ASCII_72                  0x0800e75c   Data          36  fcomic18b_ascii.o(.constdata)
    .constdata                               0x0800e780   Section       36  fcomic18b_ascii.o(.constdata)
    acFontComic18B_ASCII_73                  0x0800e780   Data          36  fcomic18b_ascii.o(.constdata)
    .constdata                               0x0800e7a4   Section       36  fcomic18b_ascii.o(.constdata)
    acFontComic18B_ASCII_74                  0x0800e7a4   Data          36  fcomic18b_ascii.o(.constdata)
    .constdata                               0x0800e7c8   Section       36  fcomic18b_ascii.o(.constdata)
    acFontComic18B_ASCII_75                  0x0800e7c8   Data          36  fcomic18b_ascii.o(.constdata)
    .constdata                               0x0800e7ec   Section       36  fcomic18b_ascii.o(.constdata)
    acFontComic18B_ASCII_76                  0x0800e7ec   Data          36  fcomic18b_ascii.o(.constdata)
    .constdata                               0x0800e810   Section       36  fcomic18b_ascii.o(.constdata)
    acFontComic18B_ASCII_77                  0x0800e810   Data          36  fcomic18b_ascii.o(.constdata)
    .constdata                               0x0800e834   Section       36  fcomic18b_ascii.o(.constdata)
    acFontComic18B_ASCII_78                  0x0800e834   Data          36  fcomic18b_ascii.o(.constdata)
    .constdata                               0x0800e858   Section       36  fcomic18b_ascii.o(.constdata)
    acFontComic18B_ASCII_79                  0x0800e858   Data          36  fcomic18b_ascii.o(.constdata)
    .constdata                               0x0800e87c   Section       18  fcomic18b_ascii.o(.constdata)
    acFontComic18B_ASCII_80                  0x0800e87c   Data          18  fcomic18b_ascii.o(.constdata)
    .constdata                               0x0800e88e   Section       36  fcomic18b_ascii.o(.constdata)
    acFontComic18B_ASCII_81                  0x0800e88e   Data          36  fcomic18b_ascii.o(.constdata)
    .constdata                               0x0800e8b2   Section       36  fcomic18b_ascii.o(.constdata)
    acFontComic18B_ASCII_82                  0x0800e8b2   Data          36  fcomic18b_ascii.o(.constdata)
    .constdata                               0x0800e8d6   Section       36  fcomic18b_ascii.o(.constdata)
    acFontComic18B_ASCII_83                  0x0800e8d6   Data          36  fcomic18b_ascii.o(.constdata)
    .constdata                               0x0800e8fa   Section       36  fcomic18b_ascii.o(.constdata)
    acFontComic18B_ASCII_84                  0x0800e8fa   Data          36  fcomic18b_ascii.o(.constdata)
    .constdata                               0x0800e91e   Section       36  fcomic18b_ascii.o(.constdata)
    acFontComic18B_ASCII_85                  0x0800e91e   Data          36  fcomic18b_ascii.o(.constdata)
    .constdata                               0x0800e942   Section       36  fcomic18b_ascii.o(.constdata)
    acFontComic18B_ASCII_86                  0x0800e942   Data          36  fcomic18b_ascii.o(.constdata)
    .constdata                               0x0800e966   Section       54  fcomic18b_ascii.o(.constdata)
    acFontComic18B_ASCII_87                  0x0800e966   Data          54  fcomic18b_ascii.o(.constdata)
    .constdata                               0x0800e99c   Section       36  fcomic18b_ascii.o(.constdata)
    acFontComic18B_ASCII_88                  0x0800e99c   Data          36  fcomic18b_ascii.o(.constdata)
    .constdata                               0x0800e9c0   Section       36  fcomic18b_ascii.o(.constdata)
    acFontComic18B_ASCII_89                  0x0800e9c0   Data          36  fcomic18b_ascii.o(.constdata)
    .constdata                               0x0800e9e4   Section       36  fcomic18b_ascii.o(.constdata)
    acFontComic18B_ASCII_90                  0x0800e9e4   Data          36  fcomic18b_ascii.o(.constdata)
    .constdata                               0x0800ea08   Section       18  fcomic18b_ascii.o(.constdata)
    acFontComic18B_ASCII_91                  0x0800ea08   Data          18  fcomic18b_ascii.o(.constdata)
    .constdata                               0x0800ea1a   Section       18  fcomic18b_ascii.o(.constdata)
    acFontComic18B_ASCII_92                  0x0800ea1a   Data          18  fcomic18b_ascii.o(.constdata)
    .constdata                               0x0800ea2c   Section       18  fcomic18b_ascii.o(.constdata)
    acFontComic18B_ASCII_93                  0x0800ea2c   Data          18  fcomic18b_ascii.o(.constdata)
    .constdata                               0x0800ea3e   Section       18  fcomic18b_ascii.o(.constdata)
    acFontComic18B_ASCII_94                  0x0800ea3e   Data          18  fcomic18b_ascii.o(.constdata)
    .constdata                               0x0800ea50   Section       36  fcomic18b_ascii.o(.constdata)
    acFontComic18B_ASCII_95                  0x0800ea50   Data          36  fcomic18b_ascii.o(.constdata)
    .constdata                               0x0800ea74   Section       36  fcomic18b_ascii.o(.constdata)
    acFontComic18B_ASCII_96                  0x0800ea74   Data          36  fcomic18b_ascii.o(.constdata)
    .constdata                               0x0800ea98   Section       18  fcomic18b_ascii.o(.constdata)
    acFontComic18B_ASCII_97                  0x0800ea98   Data          18  fcomic18b_ascii.o(.constdata)
    .constdata                               0x0800eaaa   Section       36  fcomic18b_ascii.o(.constdata)
    acFontComic18B_ASCII_98                  0x0800eaaa   Data          36  fcomic18b_ascii.o(.constdata)
    .constdata                               0x0800eace   Section       18  fcomic18b_ascii.o(.constdata)
    acFontComic18B_ASCII_99                  0x0800eace   Data          18  fcomic18b_ascii.o(.constdata)
    .constdata                               0x0800eae0   Section       36  fcomic18b_ascii.o(.constdata)
    acFontComic18B_ASCII_100                 0x0800eae0   Data          36  fcomic18b_ascii.o(.constdata)
    .constdata                               0x0800eb04   Section       18  fcomic18b_ascii.o(.constdata)
    acFontComic18B_ASCII_101                 0x0800eb04   Data          18  fcomic18b_ascii.o(.constdata)
    .constdata                               0x0800eb16   Section       18  fcomic18b_ascii.o(.constdata)
    acFontComic18B_ASCII_102                 0x0800eb16   Data          18  fcomic18b_ascii.o(.constdata)
    .constdata                               0x0800eb28   Section       18  fcomic18b_ascii.o(.constdata)
    acFontComic18B_ASCII_103                 0x0800eb28   Data          18  fcomic18b_ascii.o(.constdata)
    .constdata                               0x0800eb3a   Section       18  fcomic18b_ascii.o(.constdata)
    acFontComic18B_ASCII_104                 0x0800eb3a   Data          18  fcomic18b_ascii.o(.constdata)
    .constdata                               0x0800eb4c   Section       18  fcomic18b_ascii.o(.constdata)
    acFontComic18B_ASCII_105                 0x0800eb4c   Data          18  fcomic18b_ascii.o(.constdata)
    .constdata                               0x0800eb5e   Section       18  fcomic18b_ascii.o(.constdata)
    acFontComic18B_ASCII_106                 0x0800eb5e   Data          18  fcomic18b_ascii.o(.constdata)
    .constdata                               0x0800eb70   Section       36  fcomic18b_ascii.o(.constdata)
    acFontComic18B_ASCII_107                 0x0800eb70   Data          36  fcomic18b_ascii.o(.constdata)
    .constdata                               0x0800eb94   Section       18  fcomic18b_ascii.o(.constdata)
    acFontComic18B_ASCII_108                 0x0800eb94   Data          18  fcomic18b_ascii.o(.constdata)
    .constdata                               0x0800eba6   Section       36  fcomic18b_ascii.o(.constdata)
    acFontComic18B_ASCII_109                 0x0800eba6   Data          36  fcomic18b_ascii.o(.constdata)
    .constdata                               0x0800ebca   Section       18  fcomic18b_ascii.o(.constdata)
    acFontComic18B_ASCII_110                 0x0800ebca   Data          18  fcomic18b_ascii.o(.constdata)
    .constdata                               0x0800ebdc   Section       18  fcomic18b_ascii.o(.constdata)
    acFontComic18B_ASCII_111                 0x0800ebdc   Data          18  fcomic18b_ascii.o(.constdata)
    .constdata                               0x0800ebee   Section       36  fcomic18b_ascii.o(.constdata)
    acFontComic18B_ASCII_112                 0x0800ebee   Data          36  fcomic18b_ascii.o(.constdata)
    .constdata                               0x0800ec12   Section       18  fcomic18b_ascii.o(.constdata)
    acFontComic18B_ASCII_113                 0x0800ec12   Data          18  fcomic18b_ascii.o(.constdata)
    .constdata                               0x0800ec24   Section       18  fcomic18b_ascii.o(.constdata)
    acFontComic18B_ASCII_114                 0x0800ec24   Data          18  fcomic18b_ascii.o(.constdata)
    .constdata                               0x0800ec36   Section       18  fcomic18b_ascii.o(.constdata)
    acFontComic18B_ASCII_115                 0x0800ec36   Data          18  fcomic18b_ascii.o(.constdata)
    .constdata                               0x0800ec48   Section       18  fcomic18b_ascii.o(.constdata)
    acFontComic18B_ASCII_116                 0x0800ec48   Data          18  fcomic18b_ascii.o(.constdata)
    .constdata                               0x0800ec5a   Section       18  fcomic18b_ascii.o(.constdata)
    acFontComic18B_ASCII_117                 0x0800ec5a   Data          18  fcomic18b_ascii.o(.constdata)
    .constdata                               0x0800ec6c   Section       18  fcomic18b_ascii.o(.constdata)
    acFontComic18B_ASCII_118                 0x0800ec6c   Data          18  fcomic18b_ascii.o(.constdata)
    .constdata                               0x0800ec7e   Section       36  fcomic18b_ascii.o(.constdata)
    acFontComic18B_ASCII_119                 0x0800ec7e   Data          36  fcomic18b_ascii.o(.constdata)
    .constdata                               0x0800eca2   Section       36  fcomic18b_ascii.o(.constdata)
    acFontComic18B_ASCII_120                 0x0800eca2   Data          36  fcomic18b_ascii.o(.constdata)
    .constdata                               0x0800ecc6   Section       36  fcomic18b_ascii.o(.constdata)
    acFontComic18B_ASCII_121                 0x0800ecc6   Data          36  fcomic18b_ascii.o(.constdata)
    .constdata                               0x0800ecea   Section       36  fcomic18b_ascii.o(.constdata)
    acFontComic18B_ASCII_122                 0x0800ecea   Data          36  fcomic18b_ascii.o(.constdata)
    .constdata                               0x0800ed0e   Section       18  fcomic18b_ascii.o(.constdata)
    acFontComic18B_ASCII_123                 0x0800ed0e   Data          18  fcomic18b_ascii.o(.constdata)
    .constdata                               0x0800ed20   Section       18  fcomic18b_ascii.o(.constdata)
    acFontComic18B_ASCII_124                 0x0800ed20   Data          18  fcomic18b_ascii.o(.constdata)
    .constdata                               0x0800ed32   Section       18  fcomic18b_ascii.o(.constdata)
    acFontComic18B_ASCII_125                 0x0800ed32   Data          18  fcomic18b_ascii.o(.constdata)
    .constdata                               0x0800ed44   Section       36  fcomic18b_ascii.o(.constdata)
    acFontComic18B_ASCII_126                 0x0800ed44   Data          36  fcomic18b_ascii.o(.constdata)
    .constdata                               0x0800ed68   Section       18  fcomic18b_ascii.o(.constdata)
    acFontComic18B_ASCII_127                 0x0800ed68   Data          18  fcomic18b_ascii.o(.constdata)
    .constdata                               0x0800ed7a   Section       36  fcomic18b_ascii.o(.constdata)
    acFontComic18B_ASCII_128                 0x0800ed7a   Data          36  fcomic18b_ascii.o(.constdata)
    .constdata                               0x0800eda0   Section      776  fcomic18b_ascii.o(.constdata)
    .constdata                               0x0800f0a8   Section       12  fcomic18b_ascii.o(.constdata)
    .constdata                               0x0800f0b4   Section       36  fcomic18b_ascii.o(.constdata)
    .constdata                               0x0800f0d8   Section       32  gui__divtbl_31_255.o(.constdata)
    .constdata                               0x0800f0f8   Section       64  gui__divtbl_63_255.o(.constdata)
    .constdata                               0x0800f138   Section      256  gui__divtbl_255_31.o(.constdata)
    .constdata                               0x0800f238   Section      256  gui__divtbl_255_63.o(.constdata)
    .constdata                               0x0800f338   Section        8  gui_multibuf.o(.constdata)
    .constdata                               0x0800f340   Section       16  gui_uc_encodenone.o(.constdata)
    .constdata                               0x0800f350   Section       12  lcd.o(.constdata)
    _SetColorAPI                             0x0800f350   Data          12  lcd.o(.constdata)
    .constdata                               0x0800f35c   Section       13  f13_1.o(.constdata)
    acFont13_1_00A0                          0x0800f35c   Data          13  f13_1.o(.constdata)
    .constdata                               0x0800f369   Section       13  f13_1.o(.constdata)
    acFont13_1_00A1                          0x0800f369   Data          13  f13_1.o(.constdata)
    .constdata                               0x0800f376   Section       13  f13_1.o(.constdata)
    acFont13_1_00A2                          0x0800f376   Data          13  f13_1.o(.constdata)
    .constdata                               0x0800f383   Section       13  f13_1.o(.constdata)
    acFont13_1_00A3                          0x0800f383   Data          13  f13_1.o(.constdata)
    .constdata                               0x0800f390   Section       13  f13_1.o(.constdata)
    acFont13_1_00A4                          0x0800f390   Data          13  f13_1.o(.constdata)
    .constdata                               0x0800f39d   Section       13  f13_1.o(.constdata)
    acFont13_1_00A5                          0x0800f39d   Data          13  f13_1.o(.constdata)
    .constdata                               0x0800f3aa   Section       13  f13_1.o(.constdata)
    acFont13_1_00A6                          0x0800f3aa   Data          13  f13_1.o(.constdata)
    .constdata                               0x0800f3b7   Section       13  f13_1.o(.constdata)
    acFont13_1_00A7                          0x0800f3b7   Data          13  f13_1.o(.constdata)
    .constdata                               0x0800f3c4   Section       13  f13_1.o(.constdata)
    acFont13_1_00A8                          0x0800f3c4   Data          13  f13_1.o(.constdata)
    .constdata                               0x0800f3d1   Section       26  f13_1.o(.constdata)
    acFont13_1_00A9                          0x0800f3d1   Data          26  f13_1.o(.constdata)
    .constdata                               0x0800f3eb   Section       13  f13_1.o(.constdata)
    acFont13_1_00AA                          0x0800f3eb   Data          13  f13_1.o(.constdata)
    .constdata                               0x0800f3f8   Section       13  f13_1.o(.constdata)
    acFont13_1_00AB                          0x0800f3f8   Data          13  f13_1.o(.constdata)
    .constdata                               0x0800f405   Section       13  f13_1.o(.constdata)
    acFont13_1_00AC                          0x0800f405   Data          13  f13_1.o(.constdata)
    .constdata                               0x0800f412   Section       13  f13_1.o(.constdata)
    acFont13_1_00AD                          0x0800f412   Data          13  f13_1.o(.constdata)
    .constdata                               0x0800f41f   Section       26  f13_1.o(.constdata)
    acFont13_1_00AE                          0x0800f41f   Data          26  f13_1.o(.constdata)
    .constdata                               0x0800f439   Section       13  f13_1.o(.constdata)
    acFont13_1_00AF                          0x0800f439   Data          13  f13_1.o(.constdata)
    .constdata                               0x0800f446   Section       13  f13_1.o(.constdata)
    acFont13_1_00B0                          0x0800f446   Data          13  f13_1.o(.constdata)
    .constdata                               0x0800f453   Section       13  f13_1.o(.constdata)
    acFont13_1_00B1                          0x0800f453   Data          13  f13_1.o(.constdata)
    .constdata                               0x0800f460   Section       13  f13_1.o(.constdata)
    acFont13_1_00B2                          0x0800f460   Data          13  f13_1.o(.constdata)
    .constdata                               0x0800f46d   Section       13  f13_1.o(.constdata)
    acFont13_1_00B3                          0x0800f46d   Data          13  f13_1.o(.constdata)
    .constdata                               0x0800f47a   Section       13  f13_1.o(.constdata)
    acFont13_1_00B4                          0x0800f47a   Data          13  f13_1.o(.constdata)
    .constdata                               0x0800f487   Section       13  f13_1.o(.constdata)
    acFont13_1_00B5                          0x0800f487   Data          13  f13_1.o(.constdata)
    .constdata                               0x0800f494   Section       13  f13_1.o(.constdata)
    acFont13_1_00B6                          0x0800f494   Data          13  f13_1.o(.constdata)
    .constdata                               0x0800f4a1   Section       13  f13_1.o(.constdata)
    acFont13_1_00B7                          0x0800f4a1   Data          13  f13_1.o(.constdata)
    .constdata                               0x0800f4ae   Section       13  f13_1.o(.constdata)
    acFont13_1_00B8                          0x0800f4ae   Data          13  f13_1.o(.constdata)
    .constdata                               0x0800f4bb   Section       13  f13_1.o(.constdata)
    acFont13_1_00B9                          0x0800f4bb   Data          13  f13_1.o(.constdata)
    .constdata                               0x0800f4c8   Section       13  f13_1.o(.constdata)
    acFont13_1_00BA                          0x0800f4c8   Data          13  f13_1.o(.constdata)
    .constdata                               0x0800f4d5   Section       13  f13_1.o(.constdata)
    acFont13_1_00BB                          0x0800f4d5   Data          13  f13_1.o(.constdata)
    .constdata                               0x0800f4e2   Section       26  f13_1.o(.constdata)
    acFont13_1_00BC                          0x0800f4e2   Data          26  f13_1.o(.constdata)
    .constdata                               0x0800f4fc   Section       26  f13_1.o(.constdata)
    acFont13_1_00BD                          0x0800f4fc   Data          26  f13_1.o(.constdata)
    .constdata                               0x0800f516   Section       26  f13_1.o(.constdata)
    acFont13_1_00BE                          0x0800f516   Data          26  f13_1.o(.constdata)
    .constdata                               0x0800f530   Section       13  f13_1.o(.constdata)
    acFont13_1_00BF                          0x0800f530   Data          13  f13_1.o(.constdata)
    .constdata                               0x0800f53d   Section       13  f13_1.o(.constdata)
    acFont13_1_00C0                          0x0800f53d   Data          13  f13_1.o(.constdata)
    .constdata                               0x0800f54a   Section       13  f13_1.o(.constdata)
    acFont13_1_00C1                          0x0800f54a   Data          13  f13_1.o(.constdata)
    .constdata                               0x0800f557   Section       13  f13_1.o(.constdata)
    acFont13_1_00C2                          0x0800f557   Data          13  f13_1.o(.constdata)
    .constdata                               0x0800f564   Section       13  f13_1.o(.constdata)
    acFont13_1_00C3                          0x0800f564   Data          13  f13_1.o(.constdata)
    .constdata                               0x0800f571   Section       13  f13_1.o(.constdata)
    acFont13_1_00C4                          0x0800f571   Data          13  f13_1.o(.constdata)
    .constdata                               0x0800f57e   Section       13  f13_1.o(.constdata)
    acFont13_1_00C5                          0x0800f57e   Data          13  f13_1.o(.constdata)
    .constdata                               0x0800f58b   Section       26  f13_1.o(.constdata)
    acFont13_1_00C6                          0x0800f58b   Data          26  f13_1.o(.constdata)
    .constdata                               0x0800f5a5   Section       13  f13_1.o(.constdata)
    acFont13_1_00C7                          0x0800f5a5   Data          13  f13_1.o(.constdata)
    .constdata                               0x0800f5b2   Section       13  f13_1.o(.constdata)
    acFont13_1_00C8                          0x0800f5b2   Data          13  f13_1.o(.constdata)
    .constdata                               0x0800f5bf   Section       13  f13_1.o(.constdata)
    acFont13_1_00C9                          0x0800f5bf   Data          13  f13_1.o(.constdata)
    .constdata                               0x0800f5cc   Section       13  f13_1.o(.constdata)
    acFont13_1_00CA                          0x0800f5cc   Data          13  f13_1.o(.constdata)
    .constdata                               0x0800f5d9   Section       13  f13_1.o(.constdata)
    acFont13_1_00CB                          0x0800f5d9   Data          13  f13_1.o(.constdata)
    .constdata                               0x0800f5e6   Section       13  f13_1.o(.constdata)
    acFont13_1_00CC                          0x0800f5e6   Data          13  f13_1.o(.constdata)
    .constdata                               0x0800f5f3   Section       13  f13_1.o(.constdata)
    acFont13_1_00CD                          0x0800f5f3   Data          13  f13_1.o(.constdata)
    .constdata                               0x0800f600   Section       13  f13_1.o(.constdata)
    acFont13_1_00CE                          0x0800f600   Data          13  f13_1.o(.constdata)
    .constdata                               0x0800f60d   Section       13  f13_1.o(.constdata)
    acFont13_1_00CF                          0x0800f60d   Data          13  f13_1.o(.constdata)
    .constdata                               0x0800f61a   Section       13  f13_1.o(.constdata)
    acFont13_1_00D0                          0x0800f61a   Data          13  f13_1.o(.constdata)
    .constdata                               0x0800f627   Section       13  f13_1.o(.constdata)
    acFont13_1_00D1                          0x0800f627   Data          13  f13_1.o(.constdata)
    .constdata                               0x0800f634   Section       13  f13_1.o(.constdata)
    acFont13_1_00D2                          0x0800f634   Data          13  f13_1.o(.constdata)
    .constdata                               0x0800f641   Section       13  f13_1.o(.constdata)
    acFont13_1_00D3                          0x0800f641   Data          13  f13_1.o(.constdata)
    .constdata                               0x0800f64e   Section       13  f13_1.o(.constdata)
    acFont13_1_00D4                          0x0800f64e   Data          13  f13_1.o(.constdata)
    .constdata                               0x0800f65b   Section       13  f13_1.o(.constdata)
    acFont13_1_00D5                          0x0800f65b   Data          13  f13_1.o(.constdata)
    .constdata                               0x0800f668   Section       13  f13_1.o(.constdata)
    acFont13_1_00D6                          0x0800f668   Data          13  f13_1.o(.constdata)
    .constdata                               0x0800f675   Section       13  f13_1.o(.constdata)
    acFont13_1_00D7                          0x0800f675   Data          13  f13_1.o(.constdata)
    .constdata                               0x0800f682   Section       13  f13_1.o(.constdata)
    acFont13_1_00D8                          0x0800f682   Data          13  f13_1.o(.constdata)
    .constdata                               0x0800f68f   Section       13  f13_1.o(.constdata)
    acFont13_1_00D9                          0x0800f68f   Data          13  f13_1.o(.constdata)
    .constdata                               0x0800f69c   Section       13  f13_1.o(.constdata)
    acFont13_1_00DA                          0x0800f69c   Data          13  f13_1.o(.constdata)
    .constdata                               0x0800f6a9   Section       13  f13_1.o(.constdata)
    acFont13_1_00DB                          0x0800f6a9   Data          13  f13_1.o(.constdata)
    .constdata                               0x0800f6b6   Section       13  f13_1.o(.constdata)
    acFont13_1_00DC                          0x0800f6b6   Data          13  f13_1.o(.constdata)
    .constdata                               0x0800f6c3   Section       13  f13_1.o(.constdata)
    acFont13_1_00DD                          0x0800f6c3   Data          13  f13_1.o(.constdata)
    .constdata                               0x0800f6d0   Section       13  f13_1.o(.constdata)
    acFont13_1_00DE                          0x0800f6d0   Data          13  f13_1.o(.constdata)
    .constdata                               0x0800f6dd   Section       13  f13_1.o(.constdata)
    acFont13_1_00DF                          0x0800f6dd   Data          13  f13_1.o(.constdata)
    .constdata                               0x0800f6ea   Section       13  f13_1.o(.constdata)
    acFont13_1_00E0                          0x0800f6ea   Data          13  f13_1.o(.constdata)
    .constdata                               0x0800f6f7   Section       13  f13_1.o(.constdata)
    acFont13_1_00E1                          0x0800f6f7   Data          13  f13_1.o(.constdata)
    .constdata                               0x0800f704   Section       13  f13_1.o(.constdata)
    acFont13_1_00E2                          0x0800f704   Data          13  f13_1.o(.constdata)
    .constdata                               0x0800f711   Section       13  f13_1.o(.constdata)
    acFont13_1_00E3                          0x0800f711   Data          13  f13_1.o(.constdata)
    .constdata                               0x0800f71e   Section       13  f13_1.o(.constdata)
    acFont13_1_00E4                          0x0800f71e   Data          13  f13_1.o(.constdata)
    .constdata                               0x0800f72b   Section       13  f13_1.o(.constdata)
    acFont13_1_00E5                          0x0800f72b   Data          13  f13_1.o(.constdata)
    .constdata                               0x0800f738   Section       26  f13_1.o(.constdata)
    acFont13_1_00E6                          0x0800f738   Data          26  f13_1.o(.constdata)
    .constdata                               0x0800f752   Section       13  f13_1.o(.constdata)
    acFont13_1_00E7                          0x0800f752   Data          13  f13_1.o(.constdata)
    .constdata                               0x0800f75f   Section       13  f13_1.o(.constdata)
    acFont13_1_00E8                          0x0800f75f   Data          13  f13_1.o(.constdata)
    .constdata                               0x0800f76c   Section       13  f13_1.o(.constdata)
    acFont13_1_00E9                          0x0800f76c   Data          13  f13_1.o(.constdata)
    .constdata                               0x0800f779   Section       13  f13_1.o(.constdata)
    acFont13_1_00EA                          0x0800f779   Data          13  f13_1.o(.constdata)
    .constdata                               0x0800f786   Section       13  f13_1.o(.constdata)
    acFont13_1_00EB                          0x0800f786   Data          13  f13_1.o(.constdata)
    .constdata                               0x0800f793   Section       13  f13_1.o(.constdata)
    acFont13_1_00EC                          0x0800f793   Data          13  f13_1.o(.constdata)
    .constdata                               0x0800f7a0   Section       13  f13_1.o(.constdata)
    acFont13_1_00ED                          0x0800f7a0   Data          13  f13_1.o(.constdata)
    .constdata                               0x0800f7ad   Section       13  f13_1.o(.constdata)
    acFont13_1_00EE                          0x0800f7ad   Data          13  f13_1.o(.constdata)
    .constdata                               0x0800f7ba   Section       13  f13_1.o(.constdata)
    acFont13_1_00EF                          0x0800f7ba   Data          13  f13_1.o(.constdata)
    .constdata                               0x0800f7c7   Section       13  f13_1.o(.constdata)
    acFont13_1_00F0                          0x0800f7c7   Data          13  f13_1.o(.constdata)
    .constdata                               0x0800f7d4   Section       13  f13_1.o(.constdata)
    acFont13_1_00F1                          0x0800f7d4   Data          13  f13_1.o(.constdata)
    .constdata                               0x0800f7e1   Section       13  f13_1.o(.constdata)
    acFont13_1_00F2                          0x0800f7e1   Data          13  f13_1.o(.constdata)
    .constdata                               0x0800f7ee   Section       13  f13_1.o(.constdata)
    acFont13_1_00F3                          0x0800f7ee   Data          13  f13_1.o(.constdata)
    .constdata                               0x0800f7fb   Section       13  f13_1.o(.constdata)
    acFont13_1_00F4                          0x0800f7fb   Data          13  f13_1.o(.constdata)
    .constdata                               0x0800f808   Section       13  f13_1.o(.constdata)
    acFont13_1_00F5                          0x0800f808   Data          13  f13_1.o(.constdata)
    .constdata                               0x0800f815   Section       13  f13_1.o(.constdata)
    acFont13_1_00F6                          0x0800f815   Data          13  f13_1.o(.constdata)
    .constdata                               0x0800f822   Section       13  f13_1.o(.constdata)
    acFont13_1_00F7                          0x0800f822   Data          13  f13_1.o(.constdata)
    .constdata                               0x0800f82f   Section       13  f13_1.o(.constdata)
    acFont13_1_00F8                          0x0800f82f   Data          13  f13_1.o(.constdata)
    .constdata                               0x0800f83c   Section       13  f13_1.o(.constdata)
    acFont13_1_00F9                          0x0800f83c   Data          13  f13_1.o(.constdata)
    .constdata                               0x0800f849   Section       13  f13_1.o(.constdata)
    acFont13_1_00FA                          0x0800f849   Data          13  f13_1.o(.constdata)
    .constdata                               0x0800f856   Section       13  f13_1.o(.constdata)
    acFont13_1_00FB                          0x0800f856   Data          13  f13_1.o(.constdata)
    .constdata                               0x0800f863   Section       13  f13_1.o(.constdata)
    acFont13_1_00FC                          0x0800f863   Data          13  f13_1.o(.constdata)
    .constdata                               0x0800f870   Section       13  f13_1.o(.constdata)
    acFont13_1_00FD                          0x0800f870   Data          13  f13_1.o(.constdata)
    .constdata                               0x0800f87d   Section       13  f13_1.o(.constdata)
    acFont13_1_00FE                          0x0800f87d   Data          13  f13_1.o(.constdata)
    .constdata                               0x0800f88a   Section       13  f13_1.o(.constdata)
    acFont13_1_00FF                          0x0800f88a   Data          13  f13_1.o(.constdata)
    .constdata                               0x0800f898   Section      768  f13_1.o(.constdata)
    GUI_Font13_1_CharInfo                    0x0800f898   Data         768  f13_1.o(.constdata)
    .constdata                               0x0800fb98   Section       12  f13_1.o(.constdata)
    GUI_Font13_1_Prop1                       0x0800fb98   Data          12  f13_1.o(.constdata)
    .constdata                               0x0800fba4   Section       36  f13_1.o(.constdata)
    .constdata                               0x0800fbc8   Section      116  guidev_16.o(.constdata)
    _aID                                     0x0800fbc8   Data          64  guidev_16.o(.constdata)
    .constdata                               0x0800fc3c   Section        4  progbar_skinflex.o(.constdata)
    _pProps                                  0x0800fc3c   Data           4  progbar_skinflex.o(.constdata)
    .constdata                               0x0800fc40   Section       28  widget_effect_none.o(.constdata)
    .constdata                               0x0800fc5c   Section       40  gui_adddecshift.o(.constdata)
    .constdata                               0x0800fc84   Section       24  guicc_0.o(.constdata)
    .constdata                               0x0800fc9c   Section       24  guicc_8888.o(.constdata)
    .constdata                               0x0800fcb4   Section      256  lcd_mirror.o(.constdata)
    .constdata                               0x0800fdb4   Section       13  f13_ascii.o(.constdata)
    acFont13ASCII_0020                       0x0800fdb4   Data          13  f13_ascii.o(.constdata)
    .constdata                               0x0800fdc1   Section       13  f13_ascii.o(.constdata)
    acFont13ASCII_0021                       0x0800fdc1   Data          13  f13_ascii.o(.constdata)
    .constdata                               0x0800fdce   Section       13  f13_ascii.o(.constdata)
    acFont13ASCII_0022                       0x0800fdce   Data          13  f13_ascii.o(.constdata)
    .constdata                               0x0800fddb   Section       13  f13_ascii.o(.constdata)
    acFont13ASCII_0023                       0x0800fddb   Data          13  f13_ascii.o(.constdata)
    .constdata                               0x0800fde8   Section       13  f13_ascii.o(.constdata)
    acFont13ASCII_0024                       0x0800fde8   Data          13  f13_ascii.o(.constdata)
    .constdata                               0x0800fdf5   Section       26  f13_ascii.o(.constdata)
    acFont13ASCII_0025                       0x0800fdf5   Data          26  f13_ascii.o(.constdata)
    .constdata                               0x0800fe0f   Section       13  f13_ascii.o(.constdata)
