Component: ARM Compiler 5.06 update 6 (build 750) Tool: armlink [4d35ed]

==============================================================================

Section Cross References

    startup_stm32l431xx.o(RESET) refers to startup_stm32l431xx.o(STACK) for __initial_sp
    startup_stm32l431xx.o(RESET) refers to startup_stm32l431xx.o(.text) for Reset_Handler
    startup_stm32l431xx.o(RESET) refers to stm32l4xx_it.o(i.NMI_Handler) for NMI_Handler
    startup_stm32l431xx.o(RESET) refers to stm32l4xx_it.o(i.HardFault_Handler) for HardFault_Handler
    startup_stm32l431xx.o(RESET) refers to stm32l4xx_it.o(i.MemManage_Handler) for MemManage_Handler
    startup_stm32l431xx.o(RESET) refers to stm32l4xx_it.o(i.BusFault_Handler) for BusFault_Handler
    startup_stm32l431xx.o(RESET) refers to stm32l4xx_it.o(i.UsageFault_Handler) for UsageFault_Handler
    startup_stm32l431xx.o(RESET) refers to stm32l4xx_it.o(i.SVC_Handler) for SVC_Handler
    startup_stm32l431xx.o(RESET) refers to stm32l4xx_it.o(i.DebugMon_Handler) for DebugMon_Handler
    startup_stm32l431xx.o(RESET) refers to stm32l4xx_it.o(i.PendSV_Handler) for PendSV_Handler
    startup_stm32l431xx.o(RESET) refers to stm32l4xx_it.o(i.SysTick_Handler) for SysTick_Handler
    startup_stm32l431xx.o(.text) refers to system_stm32l4xx.o(i.SystemInit) for SystemInit
    startup_stm32l431xx.o(.text) refers to entry.o(.ARM.Collect$$$$00000000) for __main
    main.o(i.SystemClock_Config) refers to memseta.o(.text) for __aeabi_memclr4
    main.o(i.SystemClock_Config) refers to stm32l4xx_hal_rcc.o(i.HAL_RCC_OscConfig) for HAL_RCC_OscConfig
    main.o(i.SystemClock_Config) refers to stm32l4xx_hal_rcc.o(i.HAL_RCC_ClockConfig) for HAL_RCC_ClockConfig
    main.o(i.SystemClock_Config) refers to stm32l4xx_hal_rcc_ex.o(i.HAL_RCCEx_PeriphCLKConfig) for HAL_RCCEx_PeriphCLKConfig
    main.o(i.SystemClock_Config) refers to stm32l4xx_hal_pwr_ex.o(i.HAL_PWREx_ControlVoltageScaling) for HAL_PWREx_ControlVoltageScaling
==============================================================================

Removing Unused input sections from the image.

    Removing startup_stm32l431xx.o(HEAP), (512 bytes).
    Removing main.o(.rev16_text), (4 bytes).
    Removing main.o(.revsh_text), (4 bytes).
    Removing main.o(.rrx_text), (6 bytes).
    Removing gpio.o(.rev16_text), (4 bytes).
    Removing gpio.o(.revsh_text), (4 bytes).
    Removing gpio.o(.rrx_text), (6 bytes).
    Removing adc.o(.rev16_text), (4 bytes).
    Removing adc.o(.revsh_text), (4 bytes).
    Removing adc.o(.rrx_text), (6 bytes).
    Removing adc.o(i.HAL_ADC_MspDeInit), (40 bytes).
    Removing spi.o(.rev16_text), (4 bytes).
    Removing spi.o(.revsh_text), (4 bytes).
    Removing spi.o(.rrx_text), (6 bytes).
    Removing spi.o(i.HAL_SPI_MspDeInit), (60 bytes).
    Removing tim.o(.rev16_text), (4 bytes).
    Removing tim.o(.revsh_text), (4 bytes).
    Removing tim.o(.rrx_text), (6 bytes).
==============================================================================

Image Symbol Table

    Local Symbols

    Symbol Name                              Value     Ov Type        Size  Object(Section)

    ../Drivers/STM32L4xx_HAL_Driver/Src/stm32l4xx_hal.c 0x00000000   Number         0  stm32l4xx_hal.o ABSOLUTE
    ../Drivers/STM32L4xx_HAL_Driver/Src/stm32l4xx_hal_adc.c 0x00000000   Number         0  stm32l4xx_hal_adc.o ABSOLUTE
    ../Drivers/STM32L4xx_HAL_Driver/Src/stm32l4xx_hal_adc_ex.c 0x00000000   Number         0  stm32l4xx_hal_adc_ex.o ABSOLUTE
    ../Drivers/STM32L4xx_HAL_Driver/Src/stm32l4xx_hal_cortex.c 0x00000000   Number         0  stm32l4xx_hal_cortex.o ABSOLUTE
    ../Drivers/STM32L4xx_HAL_Driver/Src/stm32l4xx_hal_dma.c 0x00000000   Number         0  stm32l4xx_hal_dma.o ABSOLUTE
    ../Drivers/STM32L4xx_HAL_Driver/Src/stm32l4xx_hal_dma_ex.c 0x00000000   Number         0  stm32l4xx_hal_dma_ex.o ABSOLUTE
    ../Drivers/STM32L4xx_HAL_Driver/Src/stm32l4xx_hal_exti.c 0x00000000   Number         0  stm32l4xx_hal_exti.o ABSOLUTE
    ../Drivers/STM32L4xx_HAL_Driver/Src/stm32l4xx_hal_flash.c 0x00000000   Number         0  stm32l4xx_hal_flash.o ABSOLUTE
    ../Drivers/STM32L4xx_HAL_Driver/Src/stm32l4xx_hal_flash_ex.c 0x00000000   Number         0  stm32l4xx_hal_flash_ex.o ABSOLUTE
    ../Drivers/STM32L4xx_HAL_Driver/Src/stm32l4xx_hal_flash_ramfunc.c 0x00000000   Number         0  stm32l4xx_hal_flash_ramfunc.o ABSOLUTE
    ../Drivers/STM32L4xx_HAL_Driver/Src/stm32l4xx_hal_gpio.c 0x00000000   Number         0  stm32l4xx_hal_gpio.o ABSOLUTE
    ../Drivers/STM32L4xx_HAL_Driver/Src/stm32l4xx_hal_i2c.c 0x00000000   Number         0  stm32l4xx_hal_i2c.o ABSOLUTE
    ../Drivers/STM32L4xx_HAL_Driver/Src/stm32l4xx_hal_i2c_ex.c 0x00000000   Number         0  stm32l4xx_hal_i2c_ex.o ABSOLUTE
    ../Drivers/STM32L4xx_HAL_Driver/Src/stm32l4xx_hal_pwr.c 0x00000000   Number         0  stm32l4xx_hal_pwr.o ABSOLUTE
    ../Drivers/STM32L4xx_HAL_Driver/Src/stm32l4xx_hal_pwr_ex.c 0x00000000   Number         0  stm32l4xx_hal_pwr_ex.o ABSOLUTE
    ../Drivers/STM32L4xx_HAL_Driver/Src/stm32l4xx_hal_rcc.c 0x00000000   Number         0  stm32l4xx_hal_rcc.o ABSOLUTE
    ../Drivers/STM32L4xx_HAL_Driver/Src/stm32l4xx_hal_rcc_ex.c 0x00000000   Number         0  stm32l4xx_hal_rcc_ex.o ABSOLUTE
    ../Drivers/STM32L4xx_HAL_Driver/Src/stm32l4xx_hal_spi.c 0x00000000   Number         0  stm32l4xx_hal_spi.o ABSOLUTE
    ../Drivers/STM32L4xx_HAL_Driver/Src/stm32l4xx_hal_spi_ex.c 0x00000000   Number         0  stm32l4xx_hal_spi_ex.o ABSOLUTE
    ../Drivers/STM32L4xx_HAL_Driver/Src/stm32l4xx_hal_tim.c 0x00000000   Number         0  stm32l4xx_hal_tim.o ABSOLUTE
    ../Drivers/STM32L4xx_HAL_Driver/Src/stm32l4xx_hal_tim_ex.c 0x00000000   Number         0  stm32l4xx_hal_tim_ex.o ABSOLUTE
    ../Drivers/STM32L4xx_HAL_Driver/Src/stm32l4xx_hal_uart.c 0x00000000   Number         0  stm32l4xx_hal_uart.o ABSOLUTE
    ../Drivers/STM32L4xx_HAL_Driver/Src/stm32l4xx_hal_uart_ex.c 0x00000000   Number         0  stm32l4xx_hal_uart_ex.o ABSOLUTE
    ../Src/adc.c                             0x00000000   Number         0  adc.o ABSOLUTE
    ../Src/gpio.c                            0x00000000   Number         0  gpio.o ABSOLUTE
    ../Src/main.c                            0x00000000   Number         0  main.o ABSOLUTE
    ../Src/spi.c                             0x00000000   Number         0  spi.o ABSOLUTE
    ../Src/stm32l4xx_hal_msp.c               0x00000000   Number         0  stm32l4xx_hal_msp.o ABSOLUTE
    ../Src/stm32l4xx_it.c                    0x00000000   Number         0  stm32l4xx_it.o ABSOLUTE
    ../Src/system_stm32l4xx.c                0x00000000   Number         0  system_stm32l4xx.o ABSOLUTE
    ../Src/tim.c                             0x00000000   Number         0  tim.o ABSOLUTE
    ../Src/usart.c                           0x00000000   Number         0  usart.o ABSOLUTE
    ../clib/microlib/division.c              0x00000000   Number         0  uldiv.o ABSOLUTE
    ../clib/microlib/division.c              0x00000000   Number         0  uidiv.o ABSOLUTE
    ../clib/microlib/init/entry.s            0x00000000   Number         0  entry9b.o ABSOLUTE
    ../clib/microlib/init/entry.s            0x00000000   Number         0  entry.o ABSOLUTE
    ../clib/microlib/init/entry.s            0x00000000   Number         0  entry10a.o ABSOLUTE
    ../clib/microlib/init/entry.s            0x00000000   Number         0  entry11b.o ABSOLUTE
    ../clib/microlib/init/entry.s            0x00000000   Number         0  entry10b.o ABSOLUTE
    ../clib/microlib/init/entry.s            0x00000000   Number         0  entry11a.o ABSOLUTE
    ../clib/microlib/init/entry.s            0x00000000   Number         0  entry8b.o ABSOLUTE
    ../clib/microlib/init/entry.s            0x00000000   Number         0  entry7a.o ABSOLUTE
    ../clib/microlib/init/entry.s            0x00000000   Number         0  entry8a.o ABSOLUTE
    ../clib/microlib/init/entry.s            0x00000000   Number         0  entry2.o ABSOLUTE
    ../clib/microlib/init/entry.s            0x00000000   Number         0  entry9a.o ABSOLUTE
    ../clib/microlib/init/entry.s            0x00000000   Number         0  entry5.o ABSOLUTE
    ../clib/microlib/init/entry.s            0x00000000   Number         0  entry7b.o ABSOLUTE
    ../clib/microlib/longlong.c              0x00000000   Number         0  llsshr.o ABSOLUTE
    ../clib/microlib/longlong.c              0x00000000   Number         0  llushr.o ABSOLUTE
    ../clib/microlib/longlong.c              0x00000000   Number         0  llshl.o ABSOLUTE
    ../clib/microlib/printf/printf.c         0x00000000   Number         0  printf6.o ABSOLUTE
    ../clib/microlib/printf/printf.c         0x00000000   Number         0  printf5.o ABSOLUTE
    ../clib/microlib/printf/printf.c         0x00000000   Number         0  printf4.o ABSOLUTE
    ../clib/microlib/printf/printf.c         0x00000000   Number         0  printf3.o ABSOLUTE
    ../clib/microlib/printf/printf.c         0x00000000   Number         0  printf2.o ABSOLUTE
    ../clib/microlib/printf/printf.c         0x00000000   Number         0  printfb.o ABSOLUTE
    ../clib/microlib/printf/printf.c         0x00000000   Number         0  printfa.o ABSOLUTE
    ../clib/microlib/printf/printf.c         0x00000000   Number         0  printf8.o ABSOLUTE
    ../clib/microlib/printf/printf.c         0x00000000   Number         0  printf0.o ABSOLUTE
    ../clib/microlib/printf/printf.c         0x00000000   Number         0  printf1.o ABSOLUTE
    ../clib/microlib/printf/printf.c         0x00000000   Number         0  printf7.o ABSOLUTE
    ../clib/microlib/printf/stubs.s          0x00000000   Number         0  stubs.o ABSOLUTE
    ../clib/microlib/stdio/streams.c         0x00000000   Number         0  stdout.o ABSOLUTE
    ../clib/microlib/string/memcpy.c         0x00000000   Number         0  memcpya.o ABSOLUTE
    ../clib/microlib/string/memcpy.c         0x00000000   Number         0  memcpyb.o ABSOLUTE
    ../clib/microlib/string/memset.c         0x00000000   Number         0  memseta.o ABSOLUTE
    ../clib/microlib/stubs.s                 0x00000000   Number         0  iusefp.o ABSOLUTE
    ../fplib/microlib/fpadd.c                0x00000000   Number         0  dadd.o ABSOLUTE
    ../fplib/microlib/fpdiv.c                0x00000000   Number         0  ddiv.o ABSOLUTE
    ../fplib/microlib/fpepilogue.c           0x00000000   Number         0  depilogue.o ABSOLUTE
    ../fplib/microlib/fpfix.c                0x00000000   Number         0  dfixul.o ABSOLUTE
    ../fplib/microlib/fpmul.c                0x00000000   Number         0  dmul.o ABSOLUTE
    ..\Drivers\STM32L4xx_HAL_Driver\Src\stm32l4xx_hal.c 0x00000000   Number         0  stm32l4xx_hal.o ABSOLUTE
    ..\Drivers\STM32L4xx_HAL_Driver\Src\stm32l4xx_hal_adc.c 0x00000000   Number         0  stm32l4xx_hal_adc.o ABSOLUTE
    ..\Drivers\STM32L4xx_HAL_Driver\Src\stm32l4xx_hal_adc_ex.c 0x00000000   Number         0  stm32l4xx_hal_adc_ex.o ABSOLUTE
    ..\Drivers\STM32L4xx_HAL_Driver\Src\stm32l4xx_hal_cortex.c 0x00000000   Number         0  stm32l4xx_hal_cortex.o ABSOLUTE
    ..\Drivers\STM32L4xx_HAL_Driver\Src\stm32l4xx_hal_dma.c 0x00000000   Number         0  stm32l4xx_hal_dma.o ABSOLUTE
    ..\Drivers\STM32L4xx_HAL_Driver\Src\stm32l4xx_hal_dma_ex.c 0x00000000   Number         0  stm32l4xx_hal_dma_ex.o ABSOLUTE
    ..\Drivers\STM32L4xx_HAL_Driver\Src\stm32l4xx_hal_exti.c 0x00000000   Number         0  stm32l4xx_hal_exti.o ABSOLUTE
    ..\Drivers\STM32L4xx_HAL_Driver\Src\stm32l4xx_hal_flash.c 0x00000000   Number         0  stm32l4xx_hal_flash.o ABSOLUTE
    ..\Drivers\STM32L4xx_HAL_Driver\Src\stm32l4xx_hal_flash_ex.c 0x00000000   Number         0  stm32l4xx_hal_flash_ex.o ABSOLUTE
    ..\Drivers\STM32L4xx_HAL_Driver\Src\stm32l4xx_hal_flash_ramfunc.c 0x00000000   Number         0  stm32l4xx_hal_flash_ramfunc.o ABSOLUTE
    ..\Drivers\STM32L4xx_HAL_Driver\Src\stm32l4xx_hal_gpio.c 0x00000000   Number         0  stm32l4xx_hal_gpio.o ABSOLUTE
    ..\Drivers\STM32L4xx_HAL_Driver\Src\stm32l4xx_hal_i2c.c 0x00000000   Number         0  stm32l4xx_hal_i2c.o ABSOLUTE
    ..\Drivers\STM32L4xx_HAL_Driver\Src\stm32l4xx_hal_i2c_ex.c 0x00000000   Number         0  stm32l4xx_hal_i2c_ex.o ABSOLUTE
    ..\Drivers\STM32L4xx_HAL_Driver\Src\stm32l4xx_hal_pwr.c 0x00000000   Number         0  stm32l4xx_hal_pwr.o ABSOLUTE
    ..\Drivers\STM32L4xx_HAL_Driver\Src\stm32l4xx_hal_pwr_ex.c 0x00000000   Number         0  stm32l4xx_hal_pwr_ex.o ABSOLUTE
    ..\Drivers\STM32L4xx_HAL_Driver\Src\stm32l4xx_hal_rcc.c 0x00000000   Number         0  stm32l4xx_hal_rcc.o ABSOLUTE
    ..\Drivers\STM32L4xx_HAL_Driver\Src\stm32l4xx_hal_rcc_ex.c 0x00000000   Number         0  stm32l4xx_hal_rcc_ex.o ABSOLUTE
    ..\Drivers\STM32L4xx_HAL_Driver\Src\stm32l4xx_hal_spi.c 0x00000000   Number         0  stm32l4xx_hal_spi.o ABSOLUTE
    ..\Drivers\STM32L4xx_HAL_Driver\Src\stm32l4xx_hal_spi_ex.c 0x00000000   Number         0  stm32l4xx_hal_spi_ex.o ABSOLUTE
    ..\Drivers\STM32L4xx_HAL_Driver\Src\stm32l4xx_hal_tim.c 0x00000000   Number         0  stm32l4xx_hal_tim.o ABSOLUTE
    ..\Drivers\STM32L4xx_HAL_Driver\Src\stm32l4xx_hal_tim_ex.c 0x00000000   Number         0  stm32l4xx_hal_tim_ex.o ABSOLUTE
    ..\Drivers\STM32L4xx_HAL_Driver\Src\stm32l4xx_hal_uart.c 0x00000000   Number         0  stm32l4xx_hal_uart.o ABSOLUTE
    ..\Drivers\STM32L4xx_HAL_Driver\Src\stm32l4xx_hal_uart_ex.c 0x00000000   Number         0  stm32l4xx_hal_uart_ex.o ABSOLUTE
    ..\Src\LCD\HzLib.c                       0x00000000   Number         0  hzlib.o ABSOLUTE
    ..\Src\LCD\lcd.c                         0x00000000   Number         0  lcd.o ABSOLUTE
    ..\Src\PLOT\lcd_plot_display.c           0x00000000   Number         0  lcd_plot_display.o ABSOLUTE
    ..\Src\SENSOR\sensor.c                   0x00000000   Number         0  sensor.o ABSOLUTE
    ..\Src\adc.c                             0x00000000   Number         0  adc.o ABSOLUTE
    ..\Src\gpio.c                            0x00000000   Number         0  gpio.o ABSOLUTE
    ..\Src\main.c                            0x00000000   Number         0  main.o ABSOLUTE
    ..\Src\spi.c                             0x00000000   Number         0  spi.o ABSOLUTE
    ..\Src\stm32l4xx_hal_msp.c               0x00000000   Number         0  stm32l4xx_hal_msp.o ABSOLUTE
    ..\Src\stm32l4xx_it.c                    0x00000000   Number         0  stm32l4xx_it.o ABSOLUTE
    ..\Src\system_stm32l4xx.c                0x00000000   Number         0  system_stm32l4xx.o ABSOLUTE
    ..\Src\tim.c                             0x00000000   Number         0  tim.o ABSOLUTE
    ..\Src\usart.c                           0x00000000   Number         0  usart.o ABSOLUTE
    ..\\Src\\LCD\\lcd.c                      0x00000000   Number         0  lcd.o ABSOLUTE
    ..\\Src\\PLOT\\lcd_plot_display.c        0x00000000   Number         0  lcd_plot_display.o ABSOLUTE
    ..\\Src\\SENSOR\\sensor.c                0x00000000   Number         0  sensor.o ABSOLUTE
    cdrcmple.s                               0x00000000   Number         0  cdrcmple.o ABSOLUTE
    dc.s                                     0x00000000   Number         0  dc.o ABSOLUTE
    handlers.s                               0x00000000   Number         0  handlers.o ABSOLUTE
    init.s                                   0x00000000   Number         0  init.o ABSOLUTE
    startup_stm32l431xx.s                    0x00000000   Number         0  startup_stm32l431xx.o ABSOLUTE
    RESET                                    0x08000000   Section      396  startup_stm32l431xx.o(RESET)
    .ARM.Collect$$$$00000000                 0x0800018c   Section        0  entry.o(.ARM.Collect$$$$00000000)
    .ARM.Collect$$$$00000001                 0x0800018c   Section        4  entry2.o(.ARM.Collect$$$$00000001)
    .ARM.Collect$$$$00000004                 0x08000190   Section        4  entry5.o(.ARM.Collect$$$$00000004)
    .ARM.Collect$$$$00000008                 0x08000194   Section        0  entry7b.o(.ARM.Collect$$$$00000008)
    .ARM.Collect$$$$0000000A                 0x08000194   Section        0  entry8b.o(.ARM.Collect$$$$0000000A)
    .ARM.Collect$$$$0000000B                 0x08000194   Section        8  entry9a.o(.ARM.Collect$$$$0000000B)
    .ARM.Collect$$$$0000000D                 0x0800019c   Section        0  entry10a.o(.ARM.Collect$$$$0000000D)
    .ARM.Collect$$$$0000000F                 0x0800019c   Section        0  entry11a.o(.ARM.Collect$$$$0000000F)
    .ARM.Collect$$$$00002712                 0x0800019c   Section        4  entry2.o(.ARM.Collect$$$$00002712)
    __lit__00000000                          0x0800019c   Data           4  entry2.o(.ARM.Collect$$$$00002712)
    .text                                    0x080001a0   Section       36  startup_stm32l431xx.o(.text)
    $v0                                      0x080001a0   Number         0  startup_stm32l431xx.o(.text)
    .text                                    0x080001c4   Section        0  uldiv.o(.text)
    .text                                    0x0800022c   Section        0  memcpya.o(.text)
    .text                                    0x08000250   Section        0  memseta.o(.text)
    .text                                    0x08000274   Section        0  uidiv.o(.text)
    .text                                    0x080002a0   Section        0  llshl.o(.text)
    .text                                    0x080002be   Section        0  llushr.o(.text)
    .text                                    0x080002e0   Section       36  init.o(.text)
    i.ADC_Enable                             0x08000304   Section        0  stm32l4xx_hal_adc.o(i.ADC_Enable)
    i.BusFault_Handler                       0x0800036c   Section        0  stm32l4xx_it.o(i.BusFault_Handler)
    i.DebugMon_Handler                       0x0800036e   Section        0  stm32l4xx_it.o(i.DebugMon_Handler)
    i.Error_Handler                          0x08000370   Section        0  main.o(i.Error_Handler)
    i.GetGBKCode                             0x08000374   Section        0  hzlib.o(i.GetGBKCode)
    i.HAL_ADC_ConfigChannel                  0x0800039c   Section        0  stm32l4xx_hal_adc.o(i.HAL_ADC_ConfigChannel)
    i.HAL_ADC_GetValue                       0x0800078e   Section        0  stm32l4xx_hal_adc.o(i.HAL_ADC_GetValue)
    i.HAL_ADC_Init                           0x08000794   Section        0  stm32l4xx_hal_adc.o(i.HAL_ADC_Init)
    i.HAL_ADC_MspInit                        0x08000940   Section        0  adc.o(i.HAL_ADC_MspInit)
    i.HAL_ADC_PollForConversion              0x0800099c   Section        0  stm32l4xx_hal_adc.o(i.HAL_ADC_PollForConversion)
    i.HAL_ADC_Start                          0x08000a44   Section        0  stm32l4xx_hal_adc.o(i.HAL_ADC_Start)
    i.HAL_Delay                              0x08000acc   Section        0  stm32l4xx_hal.o(i.HAL_Delay)
    i.HAL_GPIO_Init                          0x08000af0   Section        0  stm32l4xx_hal_gpio.o(i.HAL_GPIO_Init)
    i.HAL_GPIO_WritePin                      0x08000cae   Section        0  stm32l4xx_hal_gpio.o(i.HAL_GPIO_WritePin)
    i.HAL_GetTick                            0x08000cb8   Section        0  stm32l4xx_hal.o(i.HAL_GetTick)
    i.HAL_IncTick                            0x08000cc4   Section        0  stm32l4xx_hal.o(i.HAL_IncTick)
    i.HAL_Init                               0x08000cd4   Section        0  stm32l4xx_hal.o(i.HAL_Init)
    i.HAL_InitTick                           0x08000cf4   Section        0  stm32l4xx_hal.o(i.HAL_InitTick)
    i.HAL_MspInit                            0x08000d38   Section        0  stm32l4xx_hal_msp.o(i.HAL_MspInit)
    i.HAL_NVIC_SetPriority                   0x08000d64   Section        0  stm32l4xx_hal_cortex.o(i.HAL_NVIC_SetPriority)
    i.HAL_NVIC_SetPriorityGrouping           0x08000da4   Section        0  stm32l4xx_hal_cortex.o(i.HAL_NVIC_SetPriorityGrouping)
    i.HAL_PWREx_ControlVoltageScaling        0x08000dc8   Section        0  stm32l4xx_hal_pwr_ex.o(i.HAL_PWREx_ControlVoltageScaling)
    i.HAL_PWREx_GetVoltageRange              0x08000e30   Section        0  stm32l4xx_hal_pwr_ex.o(i.HAL_PWREx_GetVoltageRange)
    i.HAL_RCCEx_PeriphCLKConfig              0x08000e40   Section        0  stm32l4xx_hal_rcc_ex.o(i.HAL_RCCEx_PeriphCLKConfig)
    i.HAL_RCC_ClockConfig                    0x080010fc   Section        0  stm32l4xx_hal_rcc.o(i.HAL_RCC_ClockConfig)
    i.HAL_RCC_GetPCLK1Freq                   0x0800121c   Section        0  stm32l4xx_hal_rcc.o(i.HAL_RCC_GetPCLK1Freq)
    i.HAL_RCC_GetPCLK2Freq                   0x08001240   Section        0  stm32l4xx_hal_rcc.o(i.HAL_RCC_GetPCLK2Freq)
    i.HAL_RCC_GetSysClockFreq                0x08001264   Section        0  stm32l4xx_hal_rcc.o(i.HAL_RCC_GetSysClockFreq)
    i.HAL_RCC_OscConfig                      0x08001308   Section        0  stm32l4xx_hal_rcc.o(i.HAL_RCC_OscConfig)
    i.HAL_SPI_Init                           0x08001874   Section        0  stm32l4xx_hal_spi.o(i.HAL_SPI_Init)
    i.HAL_SPI_MspInit                        0x08001920   Section        0  spi.o(i.HAL_SPI_MspInit)
    i.HAL_SYSTICK_Config                     0x080019a0   Section        0  stm32l4xx_hal_cortex.o(i.HAL_SYSTICK_Config)
    i.HAL_TIMEx_ConfigBreakDeadTime          0x080019c8   Section        0  stm32l4xx_hal_tim_ex.o(i.HAL_TIMEx_ConfigBreakDeadTime)
    i.HAL_TIM_Base_Init                      0x08001a4c   Section        0  stm32l4xx_hal_tim.o(i.HAL_TIM_Base_Init)
    i.HAL_TIM_Base_MspInit                   0x08001a84   Section        0  tim.o(i.HAL_TIM_Base_MspInit)
    i.HAL_TIM_MspPostInit                    0x08001aac   Section        0  tim.o(i.HAL_TIM_MspPostInit)
    i.HAL_TIM_PWM_ConfigChannel              0x08001b00   Section        0  stm32l4xx_hal_tim.o(i.HAL_TIM_PWM_ConfigChannel)
    i.HAL_TIM_PWM_Init                       0x08001c28   Section        0  stm32l4xx_hal_tim.o(i.HAL_TIM_PWM_Init)
    i.HAL_TIM_PWM_MspInit                    0x08001c5e   Section        0  stm32l4xx_hal_tim.o(i.HAL_TIM_PWM_MspInit)
    i.HAL_TIM_PWM_Start                      0x08001c60   Section        0  stm32l4xx_hal_tim.o(i.HAL_TIM_PWM_Start)
    i.HAL_TIM_PWM_Stop                       0x08001cb8   Section        0  stm32l4xx_hal_tim.o(i.HAL_TIM_PWM_Stop)
    i.HAL_UART_Init                          0x08001d20   Section        0  stm32l4xx_hal_uart.o(i.HAL_UART_Init)
    i.HAL_UART_MspInit                       0x08001d88   Section        0  usart.o(i.HAL_UART_MspInit)
    i.HardFault_Handler                      0x08001dec   Section        0  stm32l4xx_it.o(i.HardFault_Handler)
    i.LCD_Address_Set                        0x08001dee   Section        0  lcd.o(i.LCD_Address_Set)
    i.LCD_Clear                              0x08001e40   Section        0  lcd.o(i.LCD_Clear)
    i.LCD_Draw_ColorPoint                    0x08001e98   Section        0  lcd.o(i.LCD_Draw_ColorPoint)
    i.LCD_Draw_Point                         0x08001eb0   Section        0  lcd.o(i.LCD_Draw_Point)
    i.LCD_Init                               0x08001ecc   Section        0  lcd.o(i.LCD_Init)
    i.LCD_Plot_Display                       0x080020b4   Section        0  lcd_plot_display.o(i.LCD_Plot_Display)
    i.LCD_Plot_Remap                         0x08002178   Section        0  lcd_plot_display.o(i.LCD_Plot_Remap)
    i.LCD_SPI_Send                           0x08002340   Section        0  lcd.o(i.LCD_SPI_Send)
    LCD_SPI_Send                             0x08002341   Thumb Code    32  lcd.o(i.LCD_SPI_Send)
    i.LCD_ShowChar                           0x08002364   Section        0  lcd.o(i.LCD_ShowChar)
    i.LCD_ShowString                         0x080024a6   Section        0  lcd.o(i.LCD_ShowString)
    i.LCD_Write_Cmd                          0x080024f4   Section        0  lcd.o(i.LCD_Write_Cmd)
    LCD_Write_Cmd                            0x080024f5   Thumb Code    22  lcd.o(i.LCD_Write_Cmd)
    i.LCD_Write_Data                         0x08002510   Section        0  lcd.o(i.LCD_Write_Data)
    LCD_Write_Data                           0x08002511   Thumb Code    22  lcd.o(i.LCD_Write_Data)
    i.LCD_Write_HalfWord                     0x0800252c   Section        0  lcd.o(i.LCD_Write_HalfWord)
    i.LL_ADC_GetOffsetChannel                0x08002554   Section        0  stm32l4xx_hal_adc.o(i.LL_ADC_GetOffsetChannel)
    LL_ADC_GetOffsetChannel                  0x08002555   Thumb Code    12  stm32l4xx_hal_adc.o(i.LL_ADC_GetOffsetChannel)
    i.LL_ADC_INJ_IsConversionOngoing         0x08002560   Section        0  stm32l4xx_hal_adc.o(i.LL_ADC_INJ_IsConversionOngoing)
    LL_ADC_INJ_IsConversionOngoing           0x08002561   Thumb Code     8  stm32l4xx_hal_adc.o(i.LL_ADC_INJ_IsConversionOngoing)
    i.LL_ADC_REG_IsConversionOngoing         0x08002568   Section        0  stm32l4xx_hal_adc.o(i.LL_ADC_REG_IsConversionOngoing)
    LL_ADC_REG_IsConversionOngoing           0x08002569   Thumb Code     8  stm32l4xx_hal_adc.o(i.LL_ADC_REG_IsConversionOngoing)
    i.LL_ADC_REG_IsTriggerSourceSWStart      0x08002570   Section        0  stm32l4xx_hal_adc.o(i.LL_ADC_REG_IsTriggerSourceSWStart)
    LL_ADC_REG_IsTriggerSourceSWStart        0x08002571   Thumb Code    16  stm32l4xx_hal_adc.o(i.LL_ADC_REG_IsTriggerSourceSWStart)
    i.LL_ADC_SetChannelSamplingTime          0x08002580   Section        0  stm32l4xx_hal_adc.o(i.LL_ADC_SetChannelSamplingTime)
    LL_ADC_SetChannelSamplingTime            0x08002581   Thumb Code    30  stm32l4xx_hal_adc.o(i.LL_ADC_SetChannelSamplingTime)
    i.LL_ADC_SetOffsetState                  0x0800259e   Section        0  stm32l4xx_hal_adc.o(i.LL_ADC_SetOffsetState)
    LL_ADC_SetOffsetState                    0x0800259f   Thumb Code    16  stm32l4xx_hal_adc.o(i.LL_ADC_SetOffsetState)
    i.MX_ADC1_Init                           0x080025b0   Section        0  adc.o(i.MX_ADC1_Init)
    i.MX_GPIO_Init                           0x0800262c   Section        0  gpio.o(i.MX_GPIO_Init)
    i.MX_SPI2_Init                           0x080026f0   Section        0  spi.o(i.MX_SPI2_Init)
    i.MX_TIM16_Init                          0x08002740   Section        0  tim.o(i.MX_TIM16_Init)
    i.MX_USART1_UART_Init                    0x080027dc   Section        0  usart.o(i.MX_USART1_UART_Init)
    i.MemManage_Handler                      0x08002818   Section        0  stm32l4xx_it.o(i.MemManage_Handler)
    i.NMI_Handler                            0x0800281a   Section        0  stm32l4xx_it.o(i.NMI_Handler)
    i.PendSV_Handler                         0x0800281c   Section        0  stm32l4xx_it.o(i.PendSV_Handler)
    i.PutChinese                             0x08002820   Section        0  lcd.o(i.PutChinese)
    i.PutChinese_strings                     0x080028a6   Section        0  lcd.o(i.PutChinese_strings)
    i.RCCEx_PLLSAI1_Config                   0x080028d0   Section        0  stm32l4xx_hal_rcc_ex.o(i.RCCEx_PLLSAI1_Config)
    RCCEx_PLLSAI1_Config                     0x080028d1   Thumb Code   278  stm32l4xx_hal_rcc_ex.o(i.RCCEx_PLLSAI1_Config)
    i.RCC_SetFlashLatencyFromMSIRange        0x080029fc   Section        0  stm32l4xx_hal_rcc.o(i.RCC_SetFlashLatencyFromMSIRange)
    RCC_SetFlashLatencyFromMSIRange          0x080029fd   Thumb Code   116  stm32l4xx_hal_rcc.o(i.RCC_SetFlashLatencyFromMSIRange)
    i.SVC_Handler                            0x08002a78   Section        0  stm32l4xx_it.o(i.SVC_Handler)
    i.Sensor_Register                        0x08002a7c   Section        0  sensor.o(i.Sensor_Register)
    i.SysTick_Handler                        0x08002aa4   Section        0  stm32l4xx_it.o(i.SysTick_Handler)
    i.SystemClock_Config                     0x08002ab4   Section        0  main.o(i.SystemClock_Config)
    i.SystemInit                             0x08002b40   Section        0  system_stm32l4xx.o(i.SystemInit)
    i.TIM_Base_SetConfig                     0x08002b84   Section        0  stm32l4xx_hal_tim.o(i.TIM_Base_SetConfig)
    i.TIM_CCxChannelCmd                      0x08002bf0   Section        0  stm32l4xx_hal_tim.o(i.TIM_CCxChannelCmd)
    i.TIM_OC1_SetConfig                      0x08002c0c   Section        0  stm32l4xx_hal_tim.o(i.TIM_OC1_SetConfig)
    TIM_OC1_SetConfig                        0x08002c0d   Thumb Code   104  stm32l4xx_hal_tim.o(i.TIM_OC1_SetConfig)
    i.TIM_OC2_SetConfig                      0x08002c84   Section        0  stm32l4xx_hal_tim.o(i.TIM_OC2_SetConfig)
    i.TIM_OC3_SetConfig                      0x08002cfc   Section        0  stm32l4xx_hal_tim.o(i.TIM_OC3_SetConfig)
    TIM_OC3_SetConfig                        0x08002cfd   Thumb Code   100  stm32l4xx_hal_tim.o(i.TIM_OC3_SetConfig)
    i.TIM_OC4_SetConfig                      0x08002d70   Section        0  stm32l4xx_hal_tim.o(i.TIM_OC4_SetConfig)
    TIM_OC4_SetConfig                        0x08002d71   Thumb Code    80  stm32l4xx_hal_tim.o(i.TIM_OC4_SetConfig)
    i.TIM_OC5_SetConfig                      0x08002dd0   Section        0  stm32l4xx_hal_tim.o(i.TIM_OC5_SetConfig)
    TIM_OC5_SetConfig                        0x08002dd1   Thumb Code    74  stm32l4xx_hal_tim.o(i.TIM_OC5_SetConfig)
    i.TIM_OC6_SetConfig                      0x08002e2c   Section        0  stm32l4xx_hal_tim.o(i.TIM_OC6_SetConfig)
    TIM_OC6_SetConfig                        0x08002e2d   Thumb Code    76  stm32l4xx_hal_tim.o(i.TIM_OC6_SetConfig)
    i.UART_AdvFeatureConfig                  0x08002e88   Section        0  stm32l4xx_hal_uart.o(i.UART_AdvFeatureConfig)
    i.UART_CheckIdleState                    0x08002f50   Section        0  stm32l4xx_hal_uart.o(i.UART_CheckIdleState)
    i.UART_SetConfig                         0x08002fa8   Section        0  stm32l4xx_hal_uart.o(i.UART_SetConfig)
    i.UART_WaitOnFlagUntilTimeout            0x080031f0   Section        0  stm32l4xx_hal_uart.o(i.UART_WaitOnFlagUntilTimeout)
    i.UsageFault_Handler                     0x08003294   Section        0  stm32l4xx_it.o(i.UsageFault_Handler)
    i.__0sprintf$6                           0x08003298   Section        0  printf6.o(i.__0sprintf$6)
    i.__NVIC_SetPriority                     0x080032c0   Section        0  stm32l4xx_hal_cortex.o(i.__NVIC_SetPriority)
    __NVIC_SetPriority                       0x080032c1   Thumb Code    32  stm32l4xx_hal_cortex.o(i.__NVIC_SetPriority)
    i.__scatterload_copy                     0x080032e0   Section       14  handlers.o(i.__scatterload_copy)
    i.__scatterload_null                     0x080032ee   Section        2  handlers.o(i.__scatterload_null)
    i.__scatterload_zeroinit                 0x080032f0   Section       14  handlers.o(i.__scatterload_zeroinit)
    i._printf_core                           0x08003300   Section        0  printf6.o(i._printf_core)
    _printf_core                             0x08003301   Thumb Code   748  printf6.o(i._printf_core)
    i._printf_post_padding                   0x080035f6   Section        0  printf6.o(i._printf_post_padding)
    _printf_post_padding                     0x080035f7   Thumb Code    36  printf6.o(i._printf_post_padding)
    i._printf_pre_padding                    0x0800361a   Section        0  printf6.o(i._printf_pre_padding)
    _printf_pre_padding                      0x0800361b   Thumb Code    46  printf6.o(i._printf_pre_padding)
    i._sputc                                 0x08003648   Section        0  printf6.o(i._sputc)
    _sputc                                   0x08003649   Thumb Code    10  printf6.o(i._sputc)
    i.alarm_buzzer_control                   0x08003654   Section        0  sensor.o(i.alarm_buzzer_control)
    i.alarm_led_control                      0x08003674   Section        0  sensor.o(i.alarm_led_control)
    i.get_buzzer_status                      0x08003690   Section        0  sensor.o(i.get_buzzer_status)
    i.get_led_status                         0x08003698   Section        0  sensor.o(i.get_led_status)
    i.get_smoke_value                        0x080036a0   Section        0  sensor.o(i.get_smoke_value)
    i.main                                   0x080036c0   Section        0  main.o(i.main)
    .constdata                               0x080037a0   Section    216576  hzlib.o(.constdata)
    Hz_song_Lib                              0x080037a0   Data       216576  hzlib.o(.constdata)
    .constdata                               0x080385a0   Section    19380  lcd.o(.constdata)
    .constdata                               0x0803d154   Section       64  system_stm32l4xx.o(.constdata)
    .constdata                               0x0803d194   Section        8  system_stm32l4xx.o(.constdata)
    .data                                    0x20000000   Section        4  stm32l4xx_it.o(.data)
    .data                                    0x20000004   Section        4  lcd.o(.data)
    .data                                    0x20000008   Section        4  sensor.o(.data)
    .data                                    0x2000000c   Section       28  sensor.o(.data)
    .data                                    0x20000028   Section       12  stm32l4xx_hal.o(.data)
    .data                                    0x20000034   Section        4  system_stm32l4xx.o(.data)
    .bss                                     0x20000038   Section      100  adc.o(.bss)
    .bss                                     0x2000009c   Section      100  spi.o(.bss)
    .bss                                     0x20000100   Section       64  tim.o(.bss)
    .bss                                     0x20000140   Section      128  usart.o(.bss)
    .bss                                     0x200001c0   Section     1152  lcd.o(.bss)
    lcd_buf                                  0x200001c0   Data        1152  lcd.o(.bss)
    .bss                                     0x20000640   Section     1440  lcd_plot_display.o(.bss)
    STACK                                    0x20000be0   Section     1024  startup_stm32l431xx.o(STACK)

    Global Symbols

    Symbol Name                              Value     Ov Type        Size  Object(Section)

    BuildAttributes$$THM_ISAv4$E$P$D$K$B$S$7EM$VFPi3$EXTD16$VFPS$VFMA$PE$A:L22UL41UL21$X:L11$S22US41US21$IEEE1$IW$USESV6$~STKCKD$USESV7$~SHL$OSPACE$ROPI$EBA8$MICROLIB$REQ8$PRES8$EABIv2 0x00000000   Number         0  anon$$obj.o ABSOLUTE
    __ARM_use_no_argv                        0x00000000   Number         0  main.o ABSOLUTE
    _printf_a                                0x00000000   Number         0  stubs.o ABSOLUTE
    _printf_c                                0x00000000   Number         0  stubs.o ABSOLUTE
    _printf_charcount                        0x00000000   Number         0  stubs.o ABSOLUTE
    _printf_d                                0x00000000   Number         0  stubs.o ABSOLUTE
    _printf_e                                0x00000000   Number         0  stubs.o ABSOLUTE
    _printf_f                                0x00000000   Number         0  stubs.o ABSOLUTE
    _printf_flags                            0x00000000   Number         0  stubs.o ABSOLUTE
    _printf_fp_dec                           0x00000000   Number         0  stubs.o ABSOLUTE
    _printf_fp_hex                           0x00000000   Number         0  stubs.o ABSOLUTE
    _printf_g                                0x00000000   Number         0  stubs.o ABSOLUTE
    _printf_i                                0x00000000   Number         0  stubs.o ABSOLUTE
    _printf_int_dec                          0x00000000   Number         0  stubs.o ABSOLUTE
    _printf_l                                0x00000000   Number         0  stubs.o ABSOLUTE
    _printf_lc                               0x00000000   Number         0  stubs.o ABSOLUTE
    _printf_ll                               0x00000000   Number         0  stubs.o ABSOLUTE
    _printf_lld                              0x00000000   Number         0  stubs.o ABSOLUTE
    _printf_lli                              0x00000000   Number         0  stubs.o ABSOLUTE
    _printf_llo                              0x00000000   Number         0  stubs.o ABSOLUTE
    _printf_llu                              0x00000000   Number         0  stubs.o ABSOLUTE
    _printf_llx                              0x00000000   Number         0  stubs.o ABSOLUTE
    _printf_longlong_dec                     0x00000000   Number         0  stubs.o ABSOLUTE
    _printf_longlong_hex                     0x00000000   Number         0  stubs.o ABSOLUTE
    _printf_longlong_oct                     0x00000000   Number         0  stubs.o ABSOLUTE
    _printf_ls                               0x00000000   Number         0  stubs.o ABSOLUTE
    _printf_mbtowc                           0x00000000   Number         0  stubs.o ABSOLUTE
    _printf_n                                0x00000000   Number         0  stubs.o ABSOLUTE
    _printf_o                                0x00000000   Number         0  stubs.o ABSOLUTE
    _printf_p                                0x00000000   Number         0  stubs.o ABSOLUTE
    _printf_percent                          0x00000000   Number         0  stubs.o ABSOLUTE
    _printf_pre_padding                      0x00000000   Number         0  stubs.o ABSOLUTE
    _printf_return_value                     0x00000000   Number         0  stubs.o ABSOLUTE
    _printf_s                                0x00000000   Number         0  stubs.o ABSOLUTE
    _printf_sizespec                         0x00000000   Number         0  stubs.o ABSOLUTE
    _printf_str                              0x00000000   Number         0  stubs.o ABSOLUTE
    _printf_truncate_signed                  0x00000000   Number         0  stubs.o ABSOLUTE
    _printf_truncate_unsigned                0x00000000   Number         0  stubs.o ABSOLUTE
    _printf_u                                0x00000000   Number         0  stubs.o ABSOLUTE
    _printf_wc                               0x00000000   Number         0  stubs.o ABSOLUTE
    _printf_wctomb                           0x00000000   Number         0  stubs.o ABSOLUTE
    _printf_widthprec                        0x00000000   Number         0  stubs.o ABSOLUTE
    _printf_x                                0x00000000   Number         0  stubs.o ABSOLUTE
    __cpp_initialize__aeabi_                  - Undefined Weak Reference
    __cxa_finalize                            - Undefined Weak Reference
    __decompress                              - Undefined Weak Reference
    _clock_init                               - Undefined Weak Reference
    _microlib_exit                            - Undefined Weak Reference
    __Vectors_Size                           0x0000018c   Number         0  startup_stm32l431xx.o ABSOLUTE
    __Vectors                                0x08000000   Data           4  startup_stm32l431xx.o(RESET)
    __Vectors_End                            0x0800018c   Data           0  startup_stm32l431xx.o(RESET)
    __main                                   0x0800018d   Thumb Code     0  entry.o(.ARM.Collect$$$$00000000)
    _main_stk                                0x0800018d   Thumb Code     0  entry2.o(.ARM.Collect$$$$00000001)
    _main_scatterload                        0x08000191   Thumb Code     0  entry5.o(.ARM.Collect$$$$00000004)
    __main_after_scatterload                 0x08000195   Thumb Code     0  entry5.o(.ARM.Collect$$$$00000004)
    _main_clock                              0x08000195   Thumb Code     0  entry7b.o(.ARM.Collect$$$$00000008)
    _main_cpp_init                           0x08000195   Thumb Code     0  entry8b.o(.ARM.Collect$$$$0000000A)
    _main_init                               0x08000195   Thumb Code     0  entry9a.o(.ARM.Collect$$$$0000000B)
    __rt_final_cpp                           0x0800019d   Thumb Code     0  entry10a.o(.ARM.Collect$$$$0000000D)
    __rt_final_exit                          0x0800019d   Thumb Code     0  entry11a.o(.ARM.Collect$$$$0000000F)
    Reset_Handler                            0x080001a1   Thumb Code     8  startup_stm32l431xx.o(.text)
    ADC1_IRQHandler                          0x080001bb   Thumb Code     0  startup_stm32l431xx.o(.text)
    CAN1_RX0_IRQHandler                      0x080001bb   Thumb Code     0  startup_stm32l431xx.o(.text)
    CAN1_RX1_IRQHandler                      0x080001bb   Thumb Code     0  startup_stm32l431xx.o(.text)
    CAN1_SCE_IRQHandler                      0x080001bb   Thumb Code     0  startup_stm32l431xx.o(.text)
    CAN1_TX_IRQHandler                       0x080001bb   Thumb Code     0  startup_stm32l431xx.o(.text)
    COMP_IRQHandler                          0x080001bb   Thumb Code     0  startup_stm32l431xx.o(.text)
    CRS_IRQHandler                           0x080001bb   Thumb Code     0  startup_stm32l431xx.o(.text)
    DMA1_Channel1_IRQHandler                 0x080001bb   Thumb Code     0  startup_stm32l431xx.o(.text)
    DMA1_Channel2_IRQHandler                 0x080001bb   Thumb Code     0  startup_stm32l431xx.o(.text)
    DMA1_Channel3_IRQHandler                 0x080001bb   Thumb Code     0  startup_stm32l431xx.o(.text)
    DMA1_Channel4_IRQHandler                 0x080001bb   Thumb Code     0  startup_stm32l431xx.o(.text)
    DMA1_Channel5_IRQHandler                 0x080001bb   Thumb Code     0  startup_stm32l431xx.o(.text)
    DMA1_Channel6_IRQHandler                 0x080001bb   Thumb Code     0  startup_stm32l431xx.o(.text)
    DMA1_Channel7_IRQHandler                 0x080001bb   Thumb Code     0  startup_stm32l431xx.o(.text)
    DMA2_Channel1_IRQHandler                 0x080001bb   Thumb Code     0  startup_stm32l431xx.o(.text)
    DMA2_Channel2_IRQHandler                 0x080001bb   Thumb Code     0  startup_stm32l431xx.o(.text)
    DMA2_Channel3_IRQHandler                 0x080001bb   Thumb Code     0  startup_stm32l431xx.o(.text)
    DMA2_Channel4_IRQHandler                 0x080001bb   Thumb Code     0  startup_stm32l431xx.o(.text)
    DMA2_Channel5_IRQHandler                 0x080001bb   Thumb Code     0  startup_stm32l431xx.o(.text)
    DMA2_Channel6_IRQHandler                 0x080001bb   Thumb Code     0  startup_stm32l431xx.o(.text)
    DMA2_Channel7_IRQHandler                 0x080001bb   Thumb Code     0  startup_stm32l431xx.o(.text)
    EXTI0_IRQHandler                         0x080001bb   Thumb Code     0  startup_stm32l431xx.o(.text)
    EXTI15_10_IRQHandler                     0x080001bb   Thumb Code     0  startup_stm32l431xx.o(.text)
    EXTI1_IRQHandler                         0x080001bb   Thumb Code     0  startup_stm32l431xx.o(.text)
    EXTI2_IRQHandler                         0x080001bb   Thumb Code     0  startup_stm32l431xx.o(.text)
    EXTI3_IRQHandler                         0x080001bb   Thumb Code     0  startup_stm32l431xx.o(.text)
    EXTI4_IRQHandler                         0x080001bb   Thumb Code     0  startup_stm32l431xx.o(.text)
    EXTI9_5_IRQHandler                       0x080001bb   Thumb Code     0  startup_stm32l431xx.o(.text)
    FLASH_IRQHandler                         0x080001bb   Thumb Code     0  startup_stm32l431xx.o(.text)
    FPU_IRQHandler                           0x080001bb   Thumb Code     0  startup_stm32l431xx.o(.text)
    I2C1_ER_IRQHandler                       0x080001bb   Thumb Code     0  startup_stm32l431xx.o(.text)
    I2C1_EV_IRQHandler                       0x080001bb   Thumb Code     0  startup_stm32l431xx.o(.text)
    I2C2_ER_IRQHandler                       0x080001bb   Thumb Code     0  startup_stm32l431xx.o(.text)
    I2C2_EV_IRQHandler                       0x080001bb   Thumb Code     0  startup_stm32l431xx.o(.text)
    I2C3_ER_IRQHandler                       0x080001bb   Thumb Code     0  startup_stm32l431xx.o(.text)
    I2C3_EV_IRQHandler                       0x080001bb   Thumb Code     0  startup_stm32l431xx.o(.text)
    LPTIM1_IRQHandler                        0x080001bb   Thumb Code     0  startup_stm32l431xx.o(.text)
    LPTIM2_IRQHandler                        0x080001bb   Thumb Code     0  startup_stm32l431xx.o(.text)
    LPUART1_IRQHandler                       0x080001bb   Thumb Code     0  startup_stm32l431xx.o(.text)
    PVD_PVM_IRQHandler                       0x080001bb   Thumb Code     0  startup_stm32l431xx.o(.text)
    QUADSPI_IRQHandler                       0x080001bb   Thumb Code     0  startup_stm32l431xx.o(.text)
    RCC_IRQHandler                           0x080001bb   Thumb Code     0  startup_stm32l431xx.o(.text)
    RNG_IRQHandler                           0x080001bb   Thumb Code     0  startup_stm32l431xx.o(.text)
    RTC_Alarm_IRQHandler                     0x080001bb   Thumb Code     0  startup_stm32l431xx.o(.text)
    RTC_WKUP_IRQHandler                      0x080001bb   Thumb Code     0  startup_stm32l431xx.o(.text)
    SAI1_IRQHandler                          0x080001bb   Thumb Code     0  startup_stm32l431xx.o(.text)
    SDMMC1_IRQHandler                        0x080001bb   Thumb Code     0  startup_stm32l431xx.o(.text)
    SPI1_IRQHandler                          0x080001bb   Thumb Code     0  startup_stm32l431xx.o(.text)
    SPI2_IRQHandler                          0x080001bb   Thumb Code     0  startup_stm32l431xx.o(.text)
    SPI3_IRQHandler                          0x080001bb   Thumb Code     0  startup_stm32l431xx.o(.text)
    SWPMI1_IRQHandler                        0x080001bb   Thumb Code     0  startup_stm32l431xx.o(.text)
    TAMP_STAMP_IRQHandler                    0x080001bb   Thumb Code     0  startup_stm32l431xx.o(.text)
    TIM1_BRK_TIM15_IRQHandler                0x080001bb   Thumb Code     0  startup_stm32l431xx.o(.text)
    TIM1_CC_IRQHandler                       0x080001bb   Thumb Code     0  startup_stm32l431xx.o(.text)
    TIM1_TRG_COM_IRQHandler                  0x080001bb   Thumb Code     0  startup_stm32l431xx.o(.text)
    TIM1_UP_TIM16_IRQHandler                 0x080001bb   Thumb Code     0  startup_stm32l431xx.o(.text)
    TIM2_IRQHandler                          0x080001bb   Thumb Code     0  startup_stm32l431xx.o(.text)
    TIM6_DAC_IRQHandler                      0x080001bb   Thumb Code     0  startup_stm32l431xx.o(.text)
    TIM7_IRQHandler                          0x080001bb   Thumb Code     0  startup_stm32l431xx.o(.text)
    TSC_IRQHandler                           0x080001bb   Thumb Code     0  startup_stm32l431xx.o(.text)
    USART1_IRQHandler                        0x080001bb   Thumb Code     0  startup_stm32l431xx.o(.text)
    USART2_IRQHandler                        0x080001bb   Thumb Code     0  startup_stm32l431xx.o(.text)
    USART3_IRQHandler                        0x080001bb   Thumb Code     0  startup_stm32l431xx.o(.text)
    WWDG_IRQHandler                          0x080001bb   Thumb Code     0  startup_stm32l431xx.o(.text)
    __aeabi_uldivmod                         0x080001c5   Thumb Code    98  uldiv.o(.text)
    __aeabi_memcpy                           0x0800022d   Thumb Code    36  memcpya.o(.text)
    __aeabi_memcpy4                          0x0800022d   Thumb Code     0  memcpya.o(.text)
    __aeabi_memcpy8                          0x0800022d   Thumb Code     0  memcpya.o(.text)
    __aeabi_memset                           0x08000251   Thumb Code    14  memseta.o(.text)
    __aeabi_memset4                          0x08000251   Thumb Code     0  memseta.o(.text)
    __aeabi_memset8                          0x08000251   Thumb Code     0  memseta.o(.text)
    __aeabi_memclr                           0x0800025f   Thumb Code     4  memseta.o(.text)
    __aeabi_memclr4                          0x0800025f   Thumb Code     0  memseta.o(.text)
    __aeabi_memclr8                          0x0800025f   Thumb Code     0  memseta.o(.text)
    _memset$wrapper                          0x08000263   Thumb Code    18  memseta.o(.text)
    __aeabi_uidiv                            0x08000275   Thumb Code     0  uidiv.o(.text)
    __aeabi_uidivmod                         0x08000275   Thumb Code    44  uidiv.o(.text)
    __aeabi_llsl                             0x080002a1   Thumb Code    30  llshl.o(.text)
    _ll_shift_l                              0x080002a1   Thumb Code     0  llshl.o(.text)
    __aeabi_llsr                             0x080002bf   Thumb Code    32  llushr.o(.text)
    _ll_ushift_r                             0x080002bf   Thumb Code     0  llushr.o(.text)
    __scatterload                            0x080002e1   Thumb Code    28  init.o(.text)
    __scatterload_rt2                        0x080002e1   Thumb Code     0  init.o(.text)
    ADC_Enable                               0x08000305   Thumb Code   100  stm32l4xx_hal_adc.o(i.ADC_Enable)
    BusFault_Handler                         0x0800036d   Thumb Code     2  stm32l4xx_it.o(i.BusFault_Handler)
    DebugMon_Handler                         0x0800036f   Thumb Code     2  stm32l4xx_it.o(i.DebugMon_Handler)
    Error_Handler                            0x08000371   Thumb Code     2  main.o(i.Error_Handler)
    GetGBKCode                               0x08000375   Thumb Code    34  hzlib.o(i.GetGBKCode)
    HAL_ADC_ConfigChannel                    0x0800039d   Thumb Code   958  stm32l4xx_hal_adc.o(i.HAL_ADC_ConfigChannel)
    HAL_ADC_GetValue                         0x0800078f   Thumb Code     6  stm32l4xx_hal_adc.o(i.HAL_ADC_GetValue)
    HAL_ADC_Init                             0x08000795   Thumb Code   396  stm32l4xx_hal_adc.o(i.HAL_ADC_Init)
    HAL_ADC_MspInit                          0x08000941   Thumb Code    80  adc.o(i.HAL_ADC_MspInit)
    HAL_ADC_PollForConversion                0x0800099d   Thumb Code   168  stm32l4xx_hal_adc.o(i.HAL_ADC_PollForConversion)
    HAL_ADC_Start                            0x08000a45   Thumb Code   130  stm32l4xx_hal_adc.o(i.HAL_ADC_Start)
    HAL_Delay                                0x08000acd   Thumb Code    32  stm32l4xx_hal.o(i.HAL_Delay)
    HAL_GPIO_Init                            0x08000af1   Thumb Code   412  stm32l4xx_hal_gpio.o(i.HAL_GPIO_Init)
    HAL_GPIO_WritePin                        0x08000caf   Thumb Code    10  stm32l4xx_hal_gpio.o(i.HAL_GPIO_WritePin)
    HAL_GetTick                              0x08000cb9   Thumb Code     6  stm32l4xx_hal.o(i.HAL_GetTick)
    HAL_IncTick                              0x08000cc5   Thumb Code    12  stm32l4xx_hal.o(i.HAL_IncTick)
    HAL_Init                                 0x08000cd5   Thumb Code    30  stm32l4xx_hal.o(i.HAL_Init)
    HAL_InitTick                             0x08000cf5   Thumb Code    58  stm32l4xx_hal.o(i.HAL_InitTick)
    HAL_MspInit                              0x08000d39   Thumb Code    38  stm32l4xx_hal_msp.o(i.HAL_MspInit)
    HAL_NVIC_SetPriority                     0x08000d65   Thumb Code    60  stm32l4xx_hal_cortex.o(i.HAL_NVIC_SetPriority)
    HAL_NVIC_SetPriorityGrouping             0x08000da5   Thumb Code    26  stm32l4xx_hal_cortex.o(i.HAL_NVIC_SetPriorityGrouping)
    HAL_PWREx_ControlVoltageScaling          0x08000dc9   Thumb Code    90  stm32l4xx_hal_pwr_ex.o(i.HAL_PWREx_ControlVoltageScaling)
    HAL_PWREx_GetVoltageRange                0x08000e31   Thumb Code    10  stm32l4xx_hal_pwr_ex.o(i.HAL_PWREx_GetVoltageRange)
    HAL_RCCEx_PeriphCLKConfig                0x08000e41   Thumb Code   682  stm32l4xx_hal_rcc_ex.o(i.HAL_RCCEx_PeriphCLKConfig)
    HAL_RCC_ClockConfig                      0x080010fd   Thumb Code   266  stm32l4xx_hal_rcc.o(i.HAL_RCC_ClockConfig)
    HAL_RCC_GetPCLK1Freq                     0x0800121d   Thumb Code    24  stm32l4xx_hal_rcc.o(i.HAL_RCC_GetPCLK1Freq)
    HAL_RCC_GetPCLK2Freq                     0x08001241   Thumb Code    24  stm32l4xx_hal_rcc.o(i.HAL_RCC_GetPCLK2Freq)
    HAL_RCC_GetSysClockFreq                  0x08001265   Thumb Code   150  stm32l4xx_hal_rcc.o(i.HAL_RCC_GetSysClockFreq)
    HAL_RCC_OscConfig                        0x08001309   Thumb Code  1382  stm32l4xx_hal_rcc.o(i.HAL_RCC_OscConfig)
    HAL_SPI_Init                             0x08001875   Thumb Code   172  stm32l4xx_hal_spi.o(i.HAL_SPI_Init)
    HAL_SPI_MspInit                          0x08001921   Thumb Code   112  spi.o(i.HAL_SPI_MspInit)
    HAL_SYSTICK_Config                       0x080019a1   Thumb Code    40  stm32l4xx_hal_cortex.o(i.HAL_SYSTICK_Config)
    HAL_TIMEx_ConfigBreakDeadTime            0x080019c9   Thumb Code   126  stm32l4xx_hal_tim_ex.o(i.HAL_TIMEx_ConfigBreakDeadTime)
    HAL_TIM_Base_Init                        0x08001a4d   Thumb Code    54  stm32l4xx_hal_tim.o(i.HAL_TIM_Base_Init)
    HAL_TIM_Base_MspInit                     0x08001a85   Thumb Code    30  tim.o(i.HAL_TIM_Base_MspInit)
    HAL_TIM_MspPostInit                      0x08001aad   Thumb Code    72  tim.o(i.HAL_TIM_MspPostInit)
    HAL_TIM_PWM_ConfigChannel                0x08001b01   Thumb Code   296  stm32l4xx_hal_tim.o(i.HAL_TIM_PWM_ConfigChannel)
    HAL_TIM_PWM_Init                         0x08001c29   Thumb Code    54  stm32l4xx_hal_tim.o(i.HAL_TIM_PWM_Init)
    HAL_TIM_PWM_MspInit                      0x08001c5f   Thumb Code     2  stm32l4xx_hal_tim.o(i.HAL_TIM_PWM_MspInit)
    HAL_TIM_PWM_Start                        0x08001c61   Thumb Code    70  stm32l4xx_hal_tim.o(i.HAL_TIM_PWM_Start)
    HAL_TIM_PWM_Stop                         0x08001cb9   Thumb Code    90  stm32l4xx_hal_tim.o(i.HAL_TIM_PWM_Stop)
    HAL_UART_Init                            0x08001d21   Thumb Code   102  stm32l4xx_hal_uart.o(i.HAL_UART_Init)
    HAL_UART_MspInit                         0x08001d89   Thumb Code    92  usart.o(i.HAL_UART_MspInit)
    HardFault_Handler                        0x08001ded   Thumb Code     2  stm32l4xx_it.o(i.HardFault_Handler)
    LCD_Address_Set                          0x08001def   Thumb Code    82  lcd.o(i.LCD_Address_Set)
    LCD_Clear                                0x08001e41   Thumb Code    80  lcd.o(i.LCD_Clear)
    LCD_Draw_ColorPoint                      0x08001e99   Thumb Code    22  lcd.o(i.LCD_Draw_ColorPoint)
    LCD_Draw_Point                           0x08001eb1   Thumb Code    22  lcd.o(i.LCD_Draw_Point)
    LCD_Init                                 0x08001ecd   Thumb Code   474  lcd.o(i.LCD_Init)
    LCD_Plot_Display                         0x080020b5   Thumb Code   186  lcd_plot_display.o(i.LCD_Plot_Display)
    LCD_Plot_Remap                           0x08002179   Thumb Code   410  lcd_plot_display.o(i.LCD_Plot_Remap)
    LCD_ShowChar                             0x08002365   Thumb Code   300  lcd.o(i.LCD_ShowChar)
    LCD_ShowString                           0x080024a7   Thumb Code    76  lcd.o(i.LCD_ShowString)
    LCD_Write_HalfWord                       0x0800252d   Thumb Code    36  lcd.o(i.LCD_Write_HalfWord)
    MX_ADC1_Init                             0x080025b1   Thumb Code   110  adc.o(i.MX_ADC1_Init)
    MX_GPIO_Init                             0x0800262d   Thumb Code   182  gpio.o(i.MX_GPIO_Init)
    MX_SPI2_Init                             0x080026f1   Thumb Code    70  spi.o(i.MX_SPI2_Init)
    MX_TIM16_Init                            0x08002741   Thumb Code   146  tim.o(i.MX_TIM16_Init)
    MX_USART1_UART_Init                      0x080027dd   Thumb Code    52  usart.o(i.MX_USART1_UART_Init)
    MemManage_Handler                        0x08002819   Thumb Code     2  stm32l4xx_it.o(i.MemManage_Handler)
    NMI_Handler                              0x0800281b   Thumb Code     2  stm32l4xx_it.o(i.NMI_Handler)
    PendSV_Handler                           0x0800281d   Thumb Code     2  stm32l4xx_it.o(i.PendSV_Handler)
    PutChinese                               0x08002821   Thumb Code   124  lcd.o(i.PutChinese)
    PutChinese_strings                       0x080028a7   Thumb Code    42  lcd.o(i.PutChinese_strings)
    SVC_Handler                              0x08002a79   Thumb Code     2  stm32l4xx_it.o(i.SVC_Handler)
    Sensor_Register                          0x08002a7d   Thumb Code    36  sensor.o(i.Sensor_Register)
    SysTick_Handler                          0x08002aa5   Thumb Code    12  stm32l4xx_it.o(i.SysTick_Handler)
    SystemClock_Config                       0x08002ab5   Thumb Code   138  main.o(i.SystemClock_Config)
    SystemInit                               0x08002b41   Thumb Code    56  system_stm32l4xx.o(i.SystemInit)
    TIM_Base_SetConfig                       0x08002b85   Thumb Code    94  stm32l4xx_hal_tim.o(i.TIM_Base_SetConfig)
    TIM_CCxChannelCmd                        0x08002bf1   Thumb Code    26  stm32l4xx_hal_tim.o(i.TIM_CCxChannelCmd)
    TIM_OC2_SetConfig                        0x08002c85   Thumb Code   102  stm32l4xx_hal_tim.o(i.TIM_OC2_SetConfig)
    UART_AdvFeatureConfig                    0x08002e89   Thumb Code   200  stm32l4xx_hal_uart.o(i.UART_AdvFeatureConfig)
    UART_CheckIdleState                      0x08002f51   Thumb Code    88  stm32l4xx_hal_uart.o(i.UART_CheckIdleState)
    UART_SetConfig                           0x08002fa9   Thumb Code   544  stm32l4xx_hal_uart.o(i.UART_SetConfig)
    UART_WaitOnFlagUntilTimeout              0x080031f1   Thumb Code   164  stm32l4xx_hal_uart.o(i.UART_WaitOnFlagUntilTimeout)
    UsageFault_Handler                       0x08003295   Thumb Code     2  stm32l4xx_it.o(i.UsageFault_Handler)
    __0sprintf$6                             0x08003299   Thumb Code    34  printf6.o(i.__0sprintf$6)
    __1sprintf$6                             0x08003299   Thumb Code     0  printf6.o(i.__0sprintf$6)
    __2sprintf                               0x08003299   Thumb Code     0  printf6.o(i.__0sprintf$6)
    __scatterload_copy                       0x080032e1   Thumb Code    14  handlers.o(i.__scatterload_copy)
    __scatterload_null                       0x080032ef   Thumb Code     2  handlers.o(i.__scatterload_null)
    __scatterload_zeroinit                   0x080032f1   Thumb Code    14  handlers.o(i.__scatterload_zeroinit)
    alarm_buzzer_control                     0x08003655   Thumb Code    26  sensor.o(i.alarm_buzzer_control)
    alarm_led_control                        0x08003675   Thumb Code    28  sensor.o(i.alarm_led_control)
    get_buzzer_status                        0x08003691   Thumb Code     8  sensor.o(i.get_buzzer_status)
    get_led_status                           0x08003699   Thumb Code     8  sensor.o(i.get_led_status)
    get_smoke_value                          0x080036a1   Thumb Code    28  sensor.o(i.get_smoke_value)
    main                                     0x080036c1   Thumb Code   194  main.o(i.main)
    asc2_1206                                0x080385a0   Data        1140  lcd.o(.constdata)
    asc2_1608                                0x08038a14   Data        1520  lcd.o(.constdata)
    asc2_2412                                0x08039004   Data        4560  lcd.o(.constdata)
    asc2_3216                                0x0803a1d4   Data       12160  lcd.o(.constdata)
    AHBPrescTable                            0x0803d154   Data          16  system_stm32l4xx.o(.constdata)
    MSIRangeTable                            0x0803d164   Data          48  system_stm32l4xx.o(.constdata)
    APBPrescTable                            0x0803d194   Data           8  system_stm32l4xx.o(.constdata)
    Region$$Table$$Base                      0x0803d19c   Number         0  anon$$obj.o(Region$$Table)
    Region$$Table$$Limit                     0x0803d1bc   Number         0  anon$$obj.o(Region$$Table)
    Timer_Count                              0x20000000   Data           4  stm32l4xx_it.o(.data)
    POINT_COLOR                              0x20000004   Data           2  lcd.o(.data)
    BACK_COLOR                               0x20000006   Data           2  lcd.o(.data)
    MQ2_Sensor                               0x20000008   Data           4  sensor.o(.data)
    mq2_sensor_interface                     0x2000000c   Data          28  sensor.o(.data)
    uwTickPrio                               0x20000028   Data           4  stm32l4xx_hal.o(.data)
    uwTickFreq                               0x2000002c   Data           4  stm32l4xx_hal.o(.data)
    uwTick                                   0x20000030   Data           4  stm32l4xx_hal.o(.data)
    SystemCoreClock                          0x20000034   Data           4  system_stm32l4xx.o(.data)
    hadc1                                    0x20000038   Data         100  adc.o(.bss)
    hspi2                                    0x2000009c   Data         100  spi.o(.bss)
    htim16                                   0x20000100   Data          64  tim.o(.bss)
    huart1                                   0x20000140   Data         128  usart.o(.bss)
    plot_handler                             0x20000640   Data        1440  lcd_plot_display.o(.bss)
    __initial_sp                             0x20000fe0   Data           0  startup_stm32l431xx.o(STACK)



==============================================================================

Memory Map of the image

  Image Entry point : 0x0800018d

  Load Region LR_IROM1 (Base: 0x08000000, Size: 0x0003d1f4, Max: 0x00040000, ABSOLUTE)

    Execution Region ER_IROM1 (Exec base: 0x08000000, Load base: 0x08000000, Size: 0x0003d1bc, Max: 0x00040000, ABSOLUTE)

    Exec Addr    Load Addr    Size         Type   Attr      Idx    E Section Name        Object

    0x08000000   0x08000000   0x0000018c   Data   RO            3    RESET               startup_stm32l431xx.o
    0x0800018c   0x0800018c   0x00000000   Code   RO          816  * .ARM.Collect$$$$00000000  mc_w.l(entry.o)
    0x0800018c   0x0800018c   0x00000004   Code   RO          954    .ARM.Collect$$$$00000001  mc_w.l(entry2.o)
    0x08000190   0x08000190   0x00000004   Code   RO          957    .ARM.Collect$$$$00000004  mc_w.l(entry5.o)
    0x08000194   0x08000194   0x00000000   Code   RO          959    .ARM.Collect$$$$00000008  mc_w.l(entry7b.o)
    0x08000194   0x08000194   0x00000000   Code   RO          961    .ARM.Collect$$$$0000000A  mc_w.l(entry8b.o)
    0x08000194   0x08000194   0x00000008   Code   RO          962    .ARM.Collect$$$$0000000B  mc_w.l(entry9a.o)
    0x0800019c   0x0800019c   0x00000000   Code   RO          964    .ARM.Collect$$$$0000000D  mc_w.l(entry10a.o)
    0x0800019c   0x0800019c   0x00000000   Code   RO          966    .ARM.Collect$$$$0000000F  mc_w.l(entry11a.o)
    0x0800019c   0x0800019c   0x00000004   Code   RO          955    .ARM.Collect$$$$00002712  mc_w.l(entry2.o)
    0x080001a0   0x080001a0   0x00000024   Code   RO            4    .text               startup_stm32l431xx.o
    0x080001c4   0x080001c4   0x00000068   Code   RO          819    .text               mc_w.l(uldiv.o)
    0x0800022c   0x0800022c   0x00000024   Code   RO          820    .text               mc_w.l(memcpya.o)
    0x08000250   0x08000250   0x00000024   Code   RO          821    .text               mc_w.l(memseta.o)
    0x08000274   0x08000274   0x0000002c   Code   RO          969    .text               mc_w.l(uidiv.o)
    0x080002a0   0x080002a0   0x0000001e   Code   RO          970    .text               mc_w.l(llshl.o)
    0x080002be   0x080002be   0x00000020   Code   RO          971    .text               mc_w.l(llushr.o)
    0x080002de   0x080002de   0x00000002   PAD
    0x080002e0   0x080002e0   0x00000024   Code   RO          978    .text               mc_w.l(init.o)
    0x08000304   0x08000304   0x00000068   Code   RO          119    i.ADC_Enable        stm32l4xx_hal_adc.o
    0x0800036c   0x0800036c   0x00000002   Code   RO           48    i.BusFault_Handler  stm32l4xx_it.o
    0x0800036e   0x0800036e   0x00000002   Code   RO           49    i.DebugMon_Handler  stm32l4xx_it.o
    0x08000370   0x08000370   0x00000002   Code   RO            8    i.Error_Handler     main.o
    0x08000372   0x08000372   0x00000002   PAD
    0x08000374   0x08000374   0x00000028   Code   RO           62    i.GetGBKCode        hzlib.o
    0x0800039c   0x0800039c   0x000003f2   Code   RO          121    i.HAL_ADC_ConfigChannel  stm32l4xx_hal_adc.o
    0x0800078e   0x0800078e   0x00000006   Code   RO          128    i.HAL_ADC_GetValue  stm32l4xx_hal_adc.o
    0x08000794   0x08000794   0x000001ac   Code   RO          130    i.HAL_ADC_Init      stm32l4xx_hal_adc.o
    0x08000940   0x08000940   0x0000005c   Code   RO           19    i.HAL_ADC_MspInit   adc.o
    0x0800099c   0x0800099c   0x000000a8   Code   RO          134    i.HAL_ADC_PollForConversion  stm32l4xx_hal_adc.o
    0x08000a44   0x08000a44   0x00000088   Code   RO          136    i.HAL_ADC_Start     stm32l4xx_hal_adc.o
    0x08000acc   0x08000acc   0x00000024   Code   RO          190    i.HAL_Delay         stm32l4xx_hal.o
    0x08000af0   0x08000af0   0x000001be   Code   RO          398    i.HAL_GPIO_Init     stm32l4xx_hal_gpio.o
    0x08000cae   0x08000cae   0x0000000a   Code   RO          402    i.HAL_GPIO_WritePin  stm32l4xx_hal_gpio.o
    0x08000cb8   0x08000cb8   0x0000000c   Code   RO          194    i.HAL_GetTick       stm32l4xx_hal.o
    0x08000cc4   0x08000cc4   0x00000010   Code   RO          200    i.HAL_IncTick       stm32l4xx_hal.o
    0x08000cd4   0x08000cd4   0x0000001e   Code   RO          201    i.HAL_Init          stm32l4xx_hal.o
    0x08000cf2   0x08000cf2   0x00000002   PAD
    0x08000cf4   0x08000cf4   0x00000044   Code   RO          202    i.HAL_InitTick      stm32l4xx_hal.o
    0x08000d38   0x08000d38   0x0000002c   Code   RO           61    i.HAL_MspInit       stm32l4xx_hal_msp.o
    0x08000d64   0x08000d64   0x00000040   Code   RO          487    i.HAL_NVIC_SetPriority  stm32l4xx_hal_cortex.o
    0x08000da4   0x08000da4   0x00000024   Code   RO          488    i.HAL_NVIC_SetPriorityGrouping  stm32l4xx_hal_cortex.o
    0x08000dc8   0x08000dc8   0x00000068   Code   RO          445    i.HAL_PWREx_ControlVoltageScaling  stm32l4xx_hal_pwr_ex.o
    0x08000e30   0x08000e30   0x00000010   Code   RO          468    i.HAL_PWREx_GetVoltageRange  stm32l4xx_hal_pwr_ex.o
    0x08000e40   0x08000e40   0x000002ba   Code   RO          352    i.HAL_RCCEx_PeriphCLKConfig  stm32l4xx_hal_rcc_ex.o
    0x080010fa   0x080010fa   0x00000002   PAD
    0x080010fc   0x080010fc   0x00000120   Code   RO          314    i.HAL_RCC_ClockConfig  stm32l4xx_hal_rcc.o
    0x0800121c   0x0800121c   0x00000024   Code   RO          320    i.HAL_RCC_GetPCLK1Freq  stm32l4xx_hal_rcc.o
    0x08001240   0x08001240   0x00000024   Code   RO          321    i.HAL_RCC_GetPCLK2Freq  stm32l4xx_hal_rcc.o
    0x08001264   0x08001264   0x000000a4   Code   RO          322    i.HAL_RCC_GetSysClockFreq  stm32l4xx_hal_rcc.o
    0x08001308   0x08001308   0x0000056c   Code   RO          325    i.HAL_RCC_OscConfig  stm32l4xx_hal_rcc.o
    0x08001874   0x08001874   0x000000ac   Code   RO          521    i.HAL_SPI_Init      stm32l4xx_hal_spi.o
    0x08001920   0x08001920   0x00000080   Code   RO           26    i.HAL_SPI_MspInit   spi.o
    0x080019a0   0x080019a0   0x00000028   Code   RO          492    i.HAL_SYSTICK_Config  stm32l4xx_hal_cortex.o
    0x080019c8   0x080019c8   0x00000084   Code   RO          694    i.HAL_TIMEx_ConfigBreakDeadTime  stm32l4xx_hal_tim_ex.o
    0x08001a4c   0x08001a4c   0x00000036   Code   RO          575    i.HAL_TIM_Base_Init  stm32l4xx_hal_tim.o
    0x08001a82   0x08001a82   0x00000002   PAD
    0x08001a84   0x08001a84   0x00000028   Code   RO           33    i.HAL_TIM_Base_MspInit  tim.o
    0x08001aac   0x08001aac   0x00000054   Code   RO           34    i.HAL_TIM_MspPostInit  tim.o
    0x08001b00   0x08001b00   0x00000128   Code   RO          642    i.HAL_TIM_PWM_ConfigChannel  stm32l4xx_hal_tim.o
    0x08001c28   0x08001c28   0x00000036   Code   RO          645    i.HAL_TIM_PWM_Init  stm32l4xx_hal_tim.o
    0x08001c5e   0x08001c5e   0x00000002   Code   RO          647    i.HAL_TIM_PWM_MspInit  stm32l4xx_hal_tim.o
    0x08001c60   0x08001c60   0x00000058   Code   RO          650    i.HAL_TIM_PWM_Start  stm32l4xx_hal_tim.o
    0x08001cb8   0x08001cb8   0x00000068   Code   RO          653    i.HAL_TIM_PWM_Stop  stm32l4xx_hal_tim.o
    0x08001d20   0x08001d20   0x00000066   Code   RO          763    i.HAL_UART_Init     stm32l4xx_hal_uart.o
    0x08001d86   0x08001d86   0x00000002   PAD
    0x08001d88   0x08001d88   0x00000064   Code   RO           41    i.HAL_UART_MspInit  usart.o
    0x08001dec   0x08001dec   0x00000002   Code   RO           50    i.HardFault_Handler  stm32l4xx_it.o
    0x08001dee   0x08001dee   0x00000052   Code   RO           67    i.LCD_Address_Set   lcd.o
    0x08001e40   0x08001e40   0x00000058   Code   RO           68    i.LCD_Clear         lcd.o
    0x08001e98   0x08001e98   0x00000016   Code   RO           74    i.LCD_Draw_ColorPoint  lcd.o
    0x08001eae   0x08001eae   0x00000002   PAD
    0x08001eb0   0x08001eb0   0x0000001c   Code   RO           75    i.LCD_Draw_Point    lcd.o
    0x08001ecc   0x08001ecc   0x000001e8   Code   RO           77    i.LCD_Init          lcd.o
    0x080020b4   0x080020b4   0x000000c4   Code   RO          108    i.LCD_Plot_Display  lcd_plot_display.o
    0x08002178   0x08002178   0x000001c8   Code   RO          109    i.LCD_Plot_Remap    lcd_plot_display.o
    0x08002340   0x08002340   0x00000024   Code   RO           79    i.LCD_SPI_Send      lcd.o
    0x08002364   0x08002364   0x00000142   Code   RO           80    i.LCD_ShowChar      lcd.o
    0x080024a6   0x080024a6   0x0000004c   Code   RO           82    i.LCD_ShowString    lcd.o
    0x080024f2   0x080024f2   0x00000002   PAD
    0x080024f4   0x080024f4   0x0000001c   Code   RO           85    i.LCD_Write_Cmd     lcd.o
    0x08002510   0x08002510   0x0000001c   Code   RO           86    i.LCD_Write_Data    lcd.o
    0x0800252c   0x0800252c   0x00000028   Code   RO           87    i.LCD_Write_HalfWord  lcd.o
    0x08002554   0x08002554   0x0000000c   Code   RO          143    i.LL_ADC_GetOffsetChannel  stm32l4xx_hal_adc.o
    0x08002560   0x08002560   0x00000008   Code   RO          144    i.LL_ADC_INJ_IsConversionOngoing  stm32l4xx_hal_adc.o
    0x08002568   0x08002568   0x00000008   Code   RO          145    i.LL_ADC_REG_IsConversionOngoing  stm32l4xx_hal_adc.o
    0x08002570   0x08002570   0x00000010   Code   RO          146    i.LL_ADC_REG_IsTriggerSourceSWStart  stm32l4xx_hal_adc.o
    0x08002580   0x08002580   0x0000001e   Code   RO          148    i.LL_ADC_SetChannelSamplingTime  stm32l4xx_hal_adc.o
    0x0800259e   0x0800259e   0x00000010   Code   RO          149    i.LL_ADC_SetOffsetState  stm32l4xx_hal_adc.o
    0x080025ae   0x080025ae   0x00000002   PAD
    0x080025b0   0x080025b0   0x0000007c   Code   RO           20    i.MX_ADC1_Init      adc.o
    0x0800262c   0x0800262c   0x000000c4   Code   RO           14    i.MX_GPIO_Init      gpio.o
    0x080026f0   0x080026f0   0x00000050   Code   RO           27    i.MX_SPI2_Init      spi.o
    0x08002740   0x08002740   0x0000009c   Code   RO           35    i.MX_TIM16_Init     tim.o
    0x080027dc   0x080027dc   0x0000003c   Code   RO           42    i.MX_USART1_UART_Init  usart.o
    0x08002818   0x08002818   0x00000002   Code   RO           51    i.MemManage_Handler  stm32l4xx_it.o
    0x0800281a   0x0800281a   0x00000002   Code   RO           52    i.NMI_Handler       stm32l4xx_it.o
    0x0800281c   0x0800281c   0x00000002   Code   RO           53    i.PendSV_Handler    stm32l4xx_it.o
    0x0800281e   0x0800281e   0x00000002   PAD
    0x08002820   0x08002820   0x00000086   Code   RO           88    i.PutChinese        lcd.o
    0x080028a6   0x080028a6   0x0000002a   Code   RO           89    i.PutChinese_strings  lcd.o
    0x080028d0   0x080028d0   0x0000012c   Code   RO          356    i.RCCEx_PLLSAI1_Config  stm32l4xx_hal_rcc_ex.o
    0x080029fc   0x080029fc   0x0000007c   Code   RO          326    i.RCC_SetFlashLatencyFromMSIRange  stm32l4xx_hal_rcc.o
    0x08002a78   0x08002a78   0x00000002   Code   RO           54    i.SVC_Handler       stm32l4xx_it.o
    0x08002a7a   0x08002a7a   0x00000002   PAD
    0x08002a7c   0x08002a7c   0x00000028   Code   RO           97    i.Sensor_Register   sensor.o
    0x08002aa4   0x08002aa4   0x00000010   Code   RO           55    i.SysTick_Handler   stm32l4xx_it.o
    0x08002ab4   0x08002ab4   0x0000008a   Code   RO            9    i.SystemClock_Config  main.o
    0x08002b3e   0x08002b3e   0x00000002   PAD
    0x08002b40   0x08002b40   0x00000044   Code   RO          812    i.SystemInit        system_stm32l4xx.o
    0x08002b84   0x08002b84   0x0000006c   Code   RO          663    i.TIM_Base_SetConfig  stm32l4xx_hal_tim.o
    0x08002bf0   0x08002bf0   0x0000001a   Code   RO          664    i.TIM_CCxChannelCmd  stm32l4xx_hal_tim.o
    0x08002c0a   0x08002c0a   0x00000002   PAD
    0x08002c0c   0x08002c0c   0x00000078   Code   RO          676    i.TIM_OC1_SetConfig  stm32l4xx_hal_tim.o
    0x08002c84   0x08002c84   0x00000078   Code   RO          677    i.TIM_OC2_SetConfig  stm32l4xx_hal_tim.o
    0x08002cfc   0x08002cfc   0x00000074   Code   RO          678    i.TIM_OC3_SetConfig  stm32l4xx_hal_tim.o
    0x08002d70   0x08002d70   0x00000060   Code   RO          679    i.TIM_OC4_SetConfig  stm32l4xx_hal_tim.o
    0x08002dd0   0x08002dd0   0x0000005c   Code   RO          680    i.TIM_OC5_SetConfig  stm32l4xx_hal_tim.o
    0x08002e2c   0x08002e2c   0x0000005c   Code   RO          681    i.TIM_OC6_SetConfig  stm32l4xx_hal_tim.o
    0x08002e88   0x08002e88   0x000000c8   Code   RO          777    i.UART_AdvFeatureConfig  stm32l4xx_hal_uart.o
    0x08002f50   0x08002f50   0x00000058   Code   RO          778    i.UART_CheckIdleState  stm32l4xx_hal_uart.o
    0x08002fa8   0x08002fa8   0x00000248   Code   RO          793    i.UART_SetConfig    stm32l4xx_hal_uart.o
    0x080031f0   0x080031f0   0x000000a4   Code   RO          796    i.UART_WaitOnFlagUntilTimeout  stm32l4xx_hal_uart.o
    0x08003294   0x08003294   0x00000002   Code   RO           56    i.UsageFault_Handler  stm32l4xx_it.o
    0x08003296   0x08003296   0x00000002   PAD
    0x08003298   0x08003298   0x00000028   Code   RO          903    i.__0sprintf$6      mc_w.l(printf6.o)
    0x080032c0   0x080032c0   0x00000020   Code   RO          494    i.__NVIC_SetPriority  stm32l4xx_hal_cortex.o
    0x080032e0   0x080032e0   0x0000000e   Code   RO          983    i.__scatterload_copy  mc_w.l(handlers.o)
    0x080032ee   0x080032ee   0x00000002   Code   RO          984    i.__scatterload_null  mc_w.l(handlers.o)
    0x080032f0   0x080032f0   0x0000000e   Code   RO          985    i.__scatterload_zeroinit  mc_w.l(handlers.o)
    0x080032fe   0x080032fe   0x00000002   PAD
    0x08003300   0x08003300   0x000002f6   Code   RO          908    i._printf_core      mc_w.l(printf6.o)
    0x080035f6   0x080035f6   0x00000024   Code   RO          909    i._printf_post_padding  mc_w.l(printf6.o)
    0x0800361a   0x0800361a   0x0000002e   Code   RO          910    i._printf_pre_padding  mc_w.l(printf6.o)
    0x08003648   0x08003648   0x0000000a   Code   RO          912    i._sputc            mc_w.l(printf6.o)
    0x08003652   0x08003652   0x00000002   PAD
    0x08003654   0x08003654   0x00000020   Code   RO           98    i.alarm_buzzer_control  sensor.o
    0x08003674   0x08003674   0x0000001c   Code   RO           99    i.alarm_led_control  sensor.o
    0x08003690   0x08003690   0x00000008   Code   RO          100    i.get_buzzer_status  sensor.o
    0x08003698   0x08003698   0x00000008   Code   RO          101    i.get_led_status    sensor.o
    0x080036a0   0x080036a0   0x00000020   Code   RO          102    i.get_smoke_value   sensor.o
    0x080036c0   0x080036c0   0x000000e0   Code   RO           10    i.main              main.o
    0x080037a0   0x080037a0   0x00034e00   Data   RO           63    .constdata          hzlib.o
    0x080385a0   0x080385a0   0x00004bb4   Data   RO           92    .constdata          lcd.o
    0x0803d154   0x0803d154   0x00000040   Data   RO          813    .constdata          system_stm32l4xx.o
    0x0803d194   0x0803d194   0x00000008   Data   RO          814    .constdata          system_stm32l4xx.o
    0x0803d19c   0x0803d19c   0x00000020   Data   RO          981    Region$$Table       anon$$obj.o


    Execution Region RW_IRAM1 (Exec base: 0x20000000, Load base: 0x0803d1bc, Size: 0x00000fe0, Max: 0x00010000, ABSOLUTE)

    Exec Addr    Load Addr    Size         Type   Attr      Idx    E Section Name        Object

    0x20000000   0x0803d1bc   0x00000004   Data   RW           57    .data               stm32l4xx_it.o
    0x20000004   0x0803d1c0   0x00000004   Data   RW           93    .data               lcd.o
    0x20000008   0x0803d1c4   0x00000004   Data   RW          103    .data               sensor.o
    0x2000000c   0x0803d1c8   0x0000001c   Data   RW          104    .data               sensor.o
    0x20000028   0x0803d1e4   0x0000000c   Data   RW          218    .data               stm32l4xx_hal.o
    0x20000034   0x0803d1f0   0x00000004   Data   RW          815    .data               system_stm32l4xx.o
    0x20000038        -       0x00000064   Zero   RW           21    .bss                adc.o
    0x2000009c        -       0x00000064   Zero   RW           28    .bss                spi.o
    0x20000100        -       0x00000040   Zero   RW           36    .bss                tim.o
    0x20000140        -       0x00000080   Zero   RW           44    .bss                usart.o
    0x200001c0        -       0x00000480   Zero   RW           91    .bss                lcd.o
    0x20000640        -       0x000005a0   Zero   RW          110    .bss                lcd_plot_display.o
    0x20000be0        -       0x00000400   Zero   RW            1    STACK               startup_stm32l431xx.o


==============================================================================

Image component sizes


      Code (inc. data)   RO Data    RW Data    ZI Data      Debug   Object Name

       216         26          0          0        100          0   adc.o
       196         14          0          0          0          0   gpio.o
        40          6     216576          0          0          0   hzlib.o
      1414         68      19380          4       1152          0   lcd.o
       652         56          0          0       1440          0   lcd_plot_display.o
       364         30          0          0          0          0   main.o
       148         14          0         32          0          0   sensor.o
       208         26          0          0        100          0   spi.o
        36          8        396          0       1024          0   startup_stm32l431xx.o
       162         24          0         12          0          0   stm32l4xx_hal.o
      1942         88          0          0          0          0   stm32l4xx_hal_adc.o
       172         14          0          0          0          0   stm32l4xx_hal_cortex.o
       456         28          0          0          0          0   stm32l4xx_hal_gpio.o
        44          6          0          0          0          0   stm32l4xx_hal_msp.o
       120         20          0          0          0          0   stm32l4xx_hal_pwr_ex.o
      2036         98          0          0          0          0   stm32l4xx_hal_rcc.o
       998         32          0          0          0          0   stm32l4xx_hal_rcc_ex.o
       172          0          0          0          0          0   stm32l4xx_hal_spi.o
      1368        146          0          0          0          0   stm32l4xx_hal_tim.o
       132          6          0          0          0          0   stm32l4xx_hal_tim_ex.o
      1138         60          0          0          0          0   stm32l4xx_hal_uart.o
        32          4          0          4          0          0   stm32l4xx_it.o
        68         12         72          4          0          0   system_stm32l4xx.o
       280         32          0          0         64          0   tim.o
       160         16          0          0        128          0   usart.o

    ----------------------------------------------------------------------
     12580        834     236456         56       4008          0   Object Totals
         0          0         32          0          0          0   (incl. Generated)
        26          0          0          0          0          0   (incl. Padding)

    ----------------------------------------------------------------------

      Code (inc. data)   RO Data    RW Data    ZI Data      Debug   Library Member Name

         0          0          0          0          0          0   entry.o
         0          0          0          0          0          0   entry10a.o
         0          0          0          0          0          0   entry11a.o
         8          4          0          0          0          0   entry2.o
         4          0          0          0          0          0   entry5.o
         0          0          0          0          0          0   entry7b.o
         0          0          0          0          0          0   entry8b.o
         8          4          0          0          0          0   entry9a.o
        30          0          0          0          0          0   handlers.o
        36          8          0          0          0          0   init.o
        30          0          0          0          0          0   llshl.o
        32          0          0          0          0          0   llushr.o
        36          0          0          0          0          0   memcpya.o
        36          0          0          0          0          0   memseta.o
       890         10          0          0          0          0   printf6.o
        44          0          0          0          0          0   uidiv.o
       104          0          0          0          0          0   uldiv.o

    ----------------------------------------------------------------------
      1264         26          0          0          0          0   Library Totals
         6          0          0          0          0          0   (incl. Padding)

    ----------------------------------------------------------------------

      Code (inc. data)   RO Data    RW Data    ZI Data      Debug   Library Name

      1258         26          0          0          0          0   mc_w.l

    ----------------------------------------------------------------------
      1264         26          0          0          0          0   Library Totals

    ----------------------------------------------------------------------

==============================================================================


      Code (inc. data)   RO Data    RW Data    ZI Data      Debug   

     13844        860     236456         56       4008          0   Grand Totals
     13844        860     236456         56       4008          0   ELF Image Totals
     13844        860     236456         56          0          0   ROM Totals

==============================================================================

    Total RO  Size (Code + RO Data)               250300 ( 244.43kB)
    Total RW  Size (RW Data + ZI Data)              4064 (   3.97kB)
    Total ROM Size (Code + RO Data + RW Data)     250356 ( 244.49kB)

==============================================================================

