:020000040800F2
:10000000E00F0020A10100081B280008ED1D0008DA
:10001000192800086D030008953200080000000050
:10002000000000000000000000000000792A000825
:100030006F030008000000001D280008A52A000822
:10004000BB010008BB010008BB010008BB010008A0
:10005000BB010008BB010008BB010008BB01000890
:10006000BB010008BB010008BB010008BB01000880
:10007000BB010008BB010008BB010008BB01000870
:10008000BB010008BB010008BB010008BB01000860
:10009000BB010008BB010008BB010008BB01000850
:1000A000BB010008BB010008BB010008BB01000840
:1000B000BB0100080000000000000000BB010008B8
:1000C000BB010008BB010008BB010008BB01000820
:1000D000BB010008BB010008BB010008BB01000810
:1000E000BB010008BB010008000000000000000088
:1000F0000000000000000000000000000000000000
:1001000000000000BB01000800000000BB01000867
:100110000000000000000000BB010008BB01000857
:10012000BB010008BB010008BB010008BB010008BF
:10013000BB010008000000000000000000000000FB
:10014000BB010008BB010008BB0100080000000063
:10015000BB010008BB010008BB010008BB0100088F
:10016000BB010008BB010008BB0100080000000043
:10017000BB010008BB0100080000000000000000F7
:10018000BB010008BB010008BB010008DFF80CD070
:1001900000F0A6F800480047C1360008E00F002034
:1001A0000648804706480047FEE7FEE7FEE7FEE711
:1001B000FEE7FEE7FEE7FEE7FEE7FEE7412B00086D
:1001C0008D0100082DE9F05F0546002092469B4610
:1001D00088460646814640241BE02846414647465D
:1001E000224600F06CF853465A46C01A914110D38B
:1001F00011461846224600F053F82D1A67EB010805
:100200004F4622460120002100F04AF817EB000972
:100210004E41201EA4F10104DFDC484631462A4647
:10022000434600F000B830BCBDE8C09F40EA01037F
:100230009B0703D009E008C9121F08C0042AFAD29C
:1002400003E011F8013B00F8013B521EF9D2704760
:10025000D2B201E000F8012B491EFBD27047002208
:10026000F6E710B513460A4604461946FFF7F0FFB5
:10027000204610BD30B50B46014600202022012447
:1002800009E021FA02F59D4205D303FA02F5491B64
:1002900004FA02F52844151EA2F10102F1DC30BD7A
:1002A000202A04DB203A00FA02F100207047914036
:1002B000C2F1200320FA03F3194390407047202A2B
:1002C00004DB203A21FA02F00021704721FA02F300
:1002D000D040C2F120029140084319467047000007
:1002E000064C074D06E0E06840F0010394E8070083
:1002F00098471034AC42F6D3FFF74CFF9CD103086B
:10030000BCD1030870B504460068816811F0010F84
:1003100028D18168144A114215D18168D5432940FA
:10032000491C816000F0C8FC064616E0816811F0A7
:10033000010F03D181682940491C816000F0BCFC99
:10034000801B022809D9606D40F010006065A06D27
:1003500040F00100A065012070BD20680168C9431C
:10036000C907E3D1002070BD3F000080FEE7704761
:10037000704700000A784978B03AC2EB021303EBE9
:10038000421201EB4201044A02EB41112022A1F585
:10039000A151FFF74BBF0000A03700082DE9F84F2F
:1003A00000270446009790F85000DFF8B0930D4600
:1003B000B846012811D0012684F85060206802F068
:1003C000D3F860B1606D40F0200060655FF0010718
:1003D00084F85080384600F0D7B90220FBE76868FF
:1003E0000C23052812D8022807D0032807D0042898
:1003F00007D0052807D0062007E06B6006E0122032
:1004000003E0182001E04FF480706860D5E9002116
:10041000206803EA91131844036B01F01F014FF0A9
:100420001F0C0CFA01FCC2F3846223EA0C038A401D
:1004300013430363206802F097F88246206802F0B5
:100440008FF85AEA00001DD1AA682968206802F0D6
:1004500097F820686969C268C2F3C10252009140EE
:100460002A69042A0FD000EB82002B68026EDFF8A5
:10047000F0C203F0F84302EA0C020B431A4342F0C5
:100480000041016672E0002102F064F84003206838
:100490004FF0000172D002F05DF890FAA0F0B0FACF
:1004A00080F1286842036ED090FAA0F0B0FA80F094
:1004B000814204D100221146206802F070F8012127
:1004C000206802F047F8400320684FF001015DD03A
:1004D00002F040F890FAA0F0B0FA80F128684203E8
:1004E00059D090FAA0F0B0FA80F0814204D10022F5
:1004F0000121206802F053F80221206802F02AF856
:10050000400320684FF0020148D002F023F890FA2F
:10051000A0F0B0FA80F12868420344D090FAA0F02D
:10052000B0FA80F0814204D100220221206802F05A
:1005300036F80321206802F00DF8400320684FF0E0
:10054000030133D002F006F890FAA0F0B0FA80F17F
:10055000286842032FD090FAA0F0B0FA80F08142D0
:1005600004D100220321206802F019F82068816874
:1005700011F0010F22D0ACE000E004E001F0EAFF4E
:10058000C0F384618DE7C0F3846091E701F0E2FF7E
:10059000C0F38461A2E7C0F38460A6E701F0DAFF4C
:1005A000C0F38461B7E7C0F38460BBE701F0D2FF1A
:1005B000C0F38461CCE7C0F38460D0E72A7B29686C
:1005C00050F8B03FC1F3120C23EA0C0302F0180CF0
:1005D000644A22FA0CF20A4013430360E968494571
:1005E00077D1286841031CD090FAA0F1B1FA81F1CB
:1005F000491C01F01F0109294FEA403132D8002976
:1006000012D000BF90FAA0F1B1FA81F101F101011D
:1006100001F01F0106FA01F609D100BFC0F38461A1
:1006200009E0C0F38461E3E7C0F38461EEE790FA88
:10063000A0F1B1FA81F101F1010101F01F0146EAD7
:10064000816102D1C0F3846003E090FAA0F0B0FAB7
:1006500080F000F1010000F01F0000EB400041EAD3
:10066000005132E000290ED090FAA0F1B1FA81F1E8
:1006700001F1010101F01F0106FA01F606D100BFE8
:10068000C0F3846106E0C0F38461F1E790FAA0F161
:10069000B1FA81F101F1010101F01F0146EA816126
:1006A00002D1C0F3846003E090FAA0F0B0FA80F0C9
:1006B00000F1010000F01F002B4A00EB400002EBAC
:1006C000005041EA000141F00071AA68206801F081
:1006D00057FF26482A6802423FF47AAE24488168D0
:1006E000244D254B01F0E071AA421AD10D0218D415
:1006F00022689A427FF46CAE826841F4000122F0D5
:10070000E0720A4382601D481D490068B0FBF1F0A9
:1007100000EB4000800000E0401E00900028FBD16C
:1007200056E6184DAA4207D1CD0105D422689A4257
:10073000F6D141F080710AE06FF00045EA42EFD156
:100740004A02EDD422689A42EAD141F480018268DB
:1007500022F0E0720A4382603AE6000000007F4027
:1007600000F0FF03FFFF0700000020FE00000880EC
:1007700000030450000052C7000004503400002061
:10078000400D0300000084CB18BCBDE8E08F00687A
:10079000006C7047F8B54FF0000504002E46009538
:1007A00002D0606D10B107E00120F8BD204600F0D6
:1007B000C7F8A66584F8506020688168C1F340716D
:1007C00019B18168564A1140816020688168C1F37F
:1007D000007179B98168534A114041F080518160BC
:1007E000514852490068B0FBF1F000E0401E009013
:1007F0000028FBD120688168C1F3007141B9616DA7
:1008000041F010016165A16D41F00101A165012573
:1008100001F0AAFE616DC90600D430B1606D40F0F0
:100820001000606501252846F8BD606D20F48070D9
:1008300040F0020060652068806810F0010F0BD165
:100840003B48806810F0010F06D13A486168826821
:1008500022F47C120A438260E168606B627E084386
:10086000A16841EA4231084394F8201040EA01406F
:10087000012904D1A18C304A02EB41410843A16A0D
:1008800029B101F47071E26A014342EA0100216872
:10089000CA682A4B1A400243CA60206801F064FE0D
:1008A0000646206801F05CFE304315D1207E94F8A6
:1008B0003010800340EA41022068C16844F202031C
:1008C00099431143C16094F8380001280CD0206886
:1008D000016921F001010161206901282068016B93
:1008E00021F00F0111D013E0D4E90F010843D4E93E
:1008F00011121143084321680A6940F2FC739A43BC
:10090000104340F001000861E6E7E269521E11431E
:100910000163606D20F0020040F00100606582E735
:10092000C0FFFF5FC0FFFF7F34000020400D0300C9
:1009300000000450000304500000FEFF07C0F0FF59
:1009400010B586B0044614216846FFF788FC1049AC
:10095000206888421AD10F48C16C41F40051C1642B
:10096000C16C01F400510591C16C41F00401C164F6
:10097000C06C694600F004000590042000900B2034
:10098000019000200290044800F0B2F806B010BDBB
:100990000000045000100240000800482DE9F0411A
:1009A000044640690D4608280AD02068C068C00780
:1009B00008D0606D40F0200060650120BDE8F08146
:1009C000082600E0042600F077F9074607E0681CD7
:1009D00005D000F071F9C01BA8420FD875B120688E
:1009E00000683042F3D0606D40F4007060652068AC
:1009F00001F0BEFDD0B1607E48B117E0606D40F0FF
:100A000004006065002084F850000320D6E72068C9
:100A1000006800070AD5606D20F480706065606D25
:100A2000C00403D4606D40F0010060652068C168B7
:100A3000082E05D0490401D40C2101600020BDE737
:100A40000821FAE710B50446006801F08DFD10B1E9
:100A50000221084610BD94F8500001280CD0012056
:100A600084F850002046FFF74DFC01004FF00000D5
:100A700004D084F85000ECE7022010BD626D40F60F
:100A800001639A4342F480726265626DD20404D5B8
:100A9000A26D22F00602A26500E0A06523681C2278
:100AA0001A6084F850002068C268920105D5626D12
:100AB00022F4005242F4805262658268024B1A406E
:100AC000121D8260C5E70000C0FFFF7F70B50446BD
:100AD00000F0F2F80546601C02D004484068044467
:100AE00000F0EAF8401BA042FAD370BD28000020B5
:100AF0002DE9FC4FDFF894A1002301250AF1040B36
:100B000003244FF00F0C0BF1040EB8E005FA03F6C6
:100B100032406FD04F68012F05D0022F03D0112F24
:100B200001D0122F17D1D0F808905F0004FA07F80F
:100B300029EA08090097D1F80C8008FA07F848EA72
:100B40000908C0F808804768B7430E79C6F3001655
:100B50009E403E434660C6684FEA430804FA08F7E1
:100B6000BE4301978F6807FA08F73743C7604E689E
:100B7000022E01D0122E13D1DE0800EB860600965D
:100B8000366A5F07FF0E0CFA07F926EA0906D1F864
:100B9000109009FA07F949EA0609009EC6F8209064
:100BA0000668019FBE430F7907F0030707FA08F7AD
:100BB000374307604E68F60060D5354E376E47F014
:100BC00001073766366E23F0030706F0010600962C
:100BD000304E3E44B146B6689F074FEA17780CFA8C
:100BE00008F7BE43B0F1904F05D02B4FB84204D167
:100BF000012712E042E000270FE0284FB84201D160
:100C000002270AE0264FB84201D1032705E0254F0D
:100C1000B84201D1042700E0072707FA08F7374355
:100C2000C9F80870DAF800605746D1F80480964396
:100C30005FEAC83800D516433E60DBF800605F46C7
:100C4000D1F8048096435FEA883800D516433E60A9
:100C5000DEF800607746D1F8048096435FEAC82842
:100C600000D516433E60094F0C373E68D1F804802A
:100C700096435FEA882800D516433E605B1C0A68ED
:100C800032FA03F67FF442AF00F00EB800040140E0
:100C90000010024000000140000400480008004825
:100CA000000C0048001000481CBCBDE8E08F0AB1F1
:100CB0008161704781627047014880687047000019
:100CC0002800002002488168426811448160704712
:100CD0002800002010B50024032000F063F8002055
:100CE00000F008F808B1012401E000F025F82046E2
:100CF00010BD000070B50E4E05460024706898B116
:100D00004FF47A71B1FBF0F00A490968B1FBF0F0D9
:100D100000F046FE40B9102D06D200222946501E92
:100D200000F020F8356000E00124204670BD00008E
:100D30002800002034000020094808B5016E41F069
:100D400001010166016E01F001010091816D41F028
:100D500080518165806D00F08050009008BD0000DA
:100D600000100240F0B40E4B1B680C46C3F3022384
:100D7000C3F10705042D00D90425191D072901D247
:100D8000002300E0DB1E012606FA05F1491E214082
:100D900099409E40761E16403143F0BC02F090BA56
:100DA0000CED00E0064900F0070208684FF6FF036B
:100DB000184040EA0220034A1043086070470000D0
:100DC0000CED00E00000FA051649B0F5007F086858
:100DD000C0F3412009D0022805D0086820F4C06083
:100DE00040F480600860002070470128FBD008684C
:100DF00020F4C06040F4007008600B4832220068A4
:100E000050430A4AB0FBF2F0401C00E0401E4A6921
:100E1000520501D50028F9D148694005E3D50320E2
:100E200070470000007000403400002040420F0076
:100E30000248006800F4C060704700000070004085
:100E40002DE9F84F044600270088A84D3E460005CE
:100E500015D5606C60B1B0F5000F04D0B0F5400F4F
:100E60002BD001270AE0E86840F48030E86024E0F5
:100E70000021201D01F02CFD07001ED03E462068F9
:100E800080033AD5A86D4FF00008C00009D4A86DC2
:100E900040F08050A865A86D4FF0010800F0805028
:100EA0000090DFF84CA2DAF8001041F48071CAF823
:100EB0000010FFF701FF814610E0D5F88800616C53
:100EC00020F440000843C5F88800D8E7FFF7F4FE97
:100ED000A0EB0900022801D9032705E0DAF8000099
:100EE000C005F3D5002F7DD04FEA0706B8F1000FFB
:100EF00003D0A86D20F08050A8652078C00707D0E7
:100F0000D5F88800216A20F003000843C5F888005E
:100F10002078800707D5D5F88800616A20F00C009A
:100F20000843C5F888002078400707D5D5F8880021
:100F3000A16A20F030000843C5F8880020788006B8
:100F400007D5D5F88800E16A20F440600843C5F869
:100F500088002088800507D5D5F88800E16B20F44B
:100F600040200843C5F888002088400507D5D5F8FB
:100F70008800216C20F440100843C5F888002078D0
:100F8000400607D5D5F88800216B20F4405008436F
:100F9000C5F888002078000607D5D5F88800616B71
:100FA00020F440400843C5F888002088C00507D5D4
:100FB000D5F88800A16B20F440300843C5F88800BC
:100FC00020684FF0006700034FF0806850D5D5F8D7
:100FD0008800A16C20F040600843C5F88800A06C30
:100FE000B84200E005E03BD1E86840F48010E860DA
:100FF0003EE0D5F8900010F4407014D0A16D81420D
:1010000011D0D5F89000D5F8901020F4407041F43C
:101010008031C5F89010D5F8901021F48031C5F8D2
:101020009010C5F89000C00711D0FFF745FE0746A5
:1010300041F2883907E000BFFFF73EFEC11B49457A
:1010400001D9032652E7D5F890008007F4D5D5F8EA
:101050009000A16D20F440700843C5F8900045E76A
:10106000404505D10121201D01F032FC00B10646AA
:101070002068400317D5D5F88800E16C20F0406067
:101080000843C5F88800E06CB84204D1E86840F431
:101090008010E86007E0404505D10121201D01F0E6
:1010A00017FC00B106462088400411D5D5F8880009
:1010B000216D20F040500843C5F88800206DB0F144
:1010C000805F05D10221201D01F002FC00B106461F
:1010D0002088000406D555F8880F616D20F0804007
:1010E00008432860304600F005B8000000100240B8
:1010F0000070004018BCBDE8E08F00002DE9F0470B
:101100000F46050058D0404E306800F00700B84246
:1011100009D2306820F0070038433060306800F0B2
:101120000700B84248D12878384CC0072CD06868EE
:10113000032811D0022812D0216898B1490500294E
:101140003ADAA16821F003010143A160FFF7B4FD81
:10115000804641F2883910E021688901EFE7216873
:101160008903ECE78907EAE7FFF7A6FDA0EB080192
:10117000494502D90320BDE8F087A068696800F0FE
:101180000C00B0EB810FEFD12878800705D5A0685F
:10119000A96820F0F0000843A060306800F0070064
:1011A000B8420BD9306820F007003843306030680F
:1011B00000F00700B84201D00120DCE728784007A2
:1011C00005D5A068E96820F4E0600843A0602878AD
:1011D000000706D5A068296920F4605040EAC100E4
:1011E000A06000F03FF8A168094AC1F30311515C07
:1011F00001F01F01C8400749086007480068BDE8C2
:10120000F047FFF777BD00000020024000100240C9
:1012100054D1030834000020280000200548064966
:1012200000688968054AC1F30221515C01F01F0181
:10123000C8407047340000200010024094D10308D9
:101240000548064900688968054AC1F3C221515C16
:1012500001F01F01C8407047340000200010024018
:1012600094D1030870B52549002318468A68CC68D4
:1012700012F00C0204F00306214C4FEA640509D079
:101280000C2A05D0042A32D0082A00D1284670BD85
:10129000012E10D10B681B0704D4D1F89430C3F38E
:1012A000032302E00B68C3F30313164E56F82330F2
:1012B000DAB10C2AEBD1C86800F00300022818D07C
:1012C000032818D01846CA68CB68C2F30212C3F3C9
:1012D00006234343521CB3FBF2F2C868C0F34160DB
:1012E000401C4000B2FBF0F070BD184670BD2046B7
:1012F00070BD2046E7E72846E5E700000010024001
:101300000024F40064D103082DE9F84304006FD0F1
:10131000FE4DA86800F00C06E86800F0030720788E
:10132000C00664D576B10C2E01D1012F0AD0A06978
:10133000002828687AD040F001002860FFF7BCFC44
:1013400080465DE02868800702D5A0690028DED0CD
:10135000216A2868000703D5286800F0F00004E03F
:10136000D5F89400F02202EA1010814216D90846FE
:1013700001F044FB00283BD1286840F008002860B9
:101380002868216A20F0F000084328606868E16955
:1013900020F47F4040EA0120686016E0286840F0B1
:1013A000080028602868216A20F0F00008432860BF
:1013B0006868E16920F47F4040EA0120686026B94E
:1013C000206A01F01BFB0028D5D1FFF74BFFA9686D
:1013D000CF4AC1F30311515C01F01F01C840CD4950
:1013E0000860CD480068FFF785FC00287ED12EE01C
:1013F000CAE000BFFFF760FCA0EB0800022876D827
:1014000028688007F6D5286840F00800286028681A
:10141000216A20F0F000084328606868E16920F440
:101420007F4040EA0120686011E0FFE720F0010002
:101430002860FFF741FC804606E000BFFFF73CFC58
:10144000A0EB08000228DAD828688007F6D42078B4
:10145000C00740D0082E18D00C2E01D1032F14D075
:101460006068B0F5803F17D0B0F5A02F286817D07E
:1014700020F480302860286820F48020286060688C
:10148000E0B1FFF719FC804614E02868800322D5FC
:101490006068002878D01EE0286840F48030EDE7CE
:1014A00040F480202860F7E7FFF706FCA0EB080077
:1014B0006428A4D828688003F6D50CE0FFF7FCFB6D
:1014C000804605E0FFF7F8FBA0EB0800642896D8FB
:1014D00028688003F6D4207880073BD5042E11D0ED
:1014E0000C2E01D1022F0DD0E06801E0B6E1FFE043
:1014F000002828681ED040F480702860FFF7DCFBCD
:1015000007460CE0286840050CD5E0680028C1D0EB
:1015100008E000BFFFF7D0FBC01B022893D8286863
:101520004005F7D56868217C20F0F85040EA01605A
:1015300068600FE020F480702860FFF7BDFB07466D
:1015400005E000BFFFF7B8FBC01B0228B1D8286830
:101550004005F7D42078000729D560690028D5F820
:10156000940012D040F00100C5F89400FFF7A4FBEE
:10157000074604E0FFF7A0FBC01B022899D8D5F866
:1015800094008007F6D512E02BE120F00100C5F8A9
:101590009400FFF791FB074605E000BFFFF78CFBC7
:1015A000C01B022885D8D5F894008007F6D420788F
:1015B000400766D5A86D0027C00008D4A86D40F08C
:1015C0008050A865A86D012700F080500090534816
:1015D0000168C90512D40168814641F48071016037
:1015E000FFF76AFB804605E0FFF766FBA0EB08000B
:1015F00002287DD8D9F80000C005F5D5A0680128DB
:1016000016D00528D5F8900017D020F00100C5F8B5
:101610009000D5F8900020F0040000BFC5F89000BD
:10162000A06841F28839C0B1FFF746FB80460FE061
:10163000D5F8900040F00100F0E740F00400C5F854
:101640009000F5E7FFF738FBA0EB080149454FD8BC
:10165000D5F890008007F5D50EE0FFF72DFB80460A
:1016600006E000BFFFF728FBA0EB080149453FD883
:10167000D5F890008007F5D41FB1A86D20F08050F8
:10168000A8652078800628D5606A0028D5F89800DB
:1016900012D040F00100C5F89800FFF70DFB074697
:1016A00005E000BFFFF708FBC01B022820D8D5F8D3
:1016B00098008007F6D510E020F00100C5F89800EA
:1016C000FFF7FAFA074604E0FFF7F6FAC01B022814
:1016D0000ED8D5F898008007F6D4A06AA8B10228E1
:1016E00024D00C2E7DD0286820F08070286000E087
:1016F000B3E02868000103D4E86820F00300E86044
:10170000E86807490840E8600CE09FE000100240EC
:1017100054D103083400002028000020007000404D
:10172000FFFFEEFEFFF7C8FA044699E0E868E26AB8
:1017300000F00301914226D1216B00F070020901F3
:10174000103991421FD1626B00F4FE41B1EB022FC0
:1017500019D194F8382000F07841B1EBC26F12D162
:10176000A18F00F4C00249084905A1F5001191427A
:1017700009D194F8401000F0C06049084906A1F171
:10178000007181424BD00C2E6FD0286840016CD480
:10179000286820F080702860FFF78EFA064604E083
:1017A000FFF78AFA801B022857D828688001F7D4EF
:1017B000F4E90B016FF00F0202EB01110843218ADB
:1017C0005204490802EB4151A26841EA0221084350
:1017D000217D4FF07E42490802EB41610843217BA5
:1017E00000E042E040EAC160E968214A1140084354
:1017F000E860286840F080702860E86840F08070F9
:10180000E860FFF759FA044605E000BFFFF754FA15
:10181000001B022821D828688001F7D523E028681A
:10182000800120D4286840F080702860E86840F08B
:101830008070E860FFF740FA044604E0FFF73CFAE6
:10184000001B022809D828688001F7D50BE000BFEB
:10185000FFF732FA001B022802D90320BDE8F88303
:1018600028688001F4D40020F8E70120F6E70000A2
:101870008C809D012DE9F041040005D00025A56272
:1018800094F85D0018B107E00120BDE8F08184F80C
:101890005C50204600F044F8022384F85D30206854
:1018A000016821F040010160E0684FF4E066B04259
:1018B00001D9002101E04FF48051B0F5706F02D0E2
:1018C000B04200D0A562276B012227B9B04201D9EE
:1018D000236300E02263D4E901031843D4E904360A
:1018E00033431843238B03F400731843E36918430D
:1018F000236A1843A36A184323681860636B606AFD
:10190000A66918430427E36807EA164633431843D9
:10191000084321684860256684F85D200020B4E70C
:10192000F0B587B0044614216846FEF798FC1849C4
:10193000206888422AD11748816D41F48041816531
:10194000816D01F480410591C16C41F00401C164D5
:10195000C16C01F004010591C16C41F00201C16448
:10196000C06C022400F00200059008200025032628
:1019700005278DE8F10069460748FFF7B9F820030D
:101980008DE8F10069460548FFF7B2F807B0F0BDF1
:1019900000380040001002400008004800040048E1
:1019A00010B5401EB0F1807F01D3012010BD4FF073
:1019B000E02460610F21601701F082FC0020A0612B
:1019C00007202061002010BD30B590F83C20012A8E
:1019D00037D0012280F83C20CA688C6822F440721B
:1019E00022434C6822F4806222430C6822F4006295
:1019F00022430C6922F4805222434C6922F40052A3
:101A000022438C6A22F4804222430C8B22F47022FF
:101A100042EA04420C4D04680023AC420CD18D8C88
:101A200022F4700242EA0552CD6922F080722A4304
:101A3000096A22F000720A43626480F83C30002098
:101A400030BD022030BD0000002C014010B5040064
:101A500003D094F83D0010B107E0012010BD002034
:101A600084F83C00204600F00DF8022084F83D0088
:101A7000211D206801F086F8012084F83D00002037
:101A800010BD000008B500680649884208D1064824
:101A9000016E41F400310166006E00F400300090E8
:101AA00008BD0000004401400010024010B586B09F
:101AB000044614216846FEF7D2FB0E49206888428E
:101AC00016D10D48C16C41F00201C164C06C694679
:101AD00000F0020005904FF4807000900220019009
:101AE0000020029003900E2004900448FFF700F8B5
:101AF00006B010BD00440140001002400004004840
:101B000070B5044690F83C000D4601280ED0012621
:101B100084F83C60022084F83D000C2A45D007DCA4
:101B20005AB1042A1BD0082A78D12CE0022070BDBB
:101B3000102A4ED0142A71D15DE0206801F066F8B9
:101B40002068816941F0080181612068816921F084
:101B500004018161206881692A69114311E02068CC
:101B600001F090F82068816941F40061816120688A
:101B7000816921F480618161206881692A6941EA73
:101B8000022181614AE0206801F0B8F82068C1694B
:101B900041F00801C1612068C16921F00401C161FF
:101BA0002068C1692A69114311E0206801F0E0F85A
:101BB0002068C16941F40061C1612068C16921F4F4
:101BC0008061C1612068C1692A6941EA0221C1615D
:101BD00024E0206801F0FCF82068416D41F0080124
:101BE00041652068416D21F0040141652068416D27
:101BF0002A69114311E0206801F018F92068416D4D
:101C000041F4006141652068416D21F480614165C6
:101C10002068416D2A6941EA0221416584F83D60EE
:101C2000002084F83C0070BD10B5040003D094F887
:101C30003D0010B107E0012010BD002084F83C00F9
:101C4000204600F00CF8022084F83D00211D206899
:101C500000F098FF012084F83D00002010BD70477F
:101C600010B504460068012200F0C2FF0E4821684A
:101C7000814205D00D48814202D00D48814203D1F6
:101C8000486C40F40040486420688168094A11406B
:101C9000062906D0B1F5803F03D0016841F001016B
:101CA0000160002010BD0000002C014000400140F8
:101CB000004401400700010010B5044600680022FE
:101CC00000F096FF134841F21112216893108142EF
:101CD00005D01148814202D01048814209D1086ADA
:101CE000104206D1086A184203D1486C20F4004023
:101CF00048642068016A114206D1016A194203D181
:101D0000016821F001010160012084F83D000020FC
:101D100010BD0000002C0140004001400044014083
:101D200010B5040002D0606F10B107E0012010BDB3
:101D3000002084F87000204600F026F82420606718
:101D40002068016821F001010160204601F02CF9B2
:101D50000128ECD0606A10B1204601F095F82068A7
:101D6000416821F4904141602068816821F02A0196
:101D700081602068016841F0010101602046BDE8F2
:101D8000104001F0E5B8000010B586B004461421FB
:101D90006846FEF764FA13492068884220D1124849
:101DA000016E41F480410166016E01F480410591AC
:101DB000C16C41F00101C164C06C694600F00100D2
:101DC00005904FF4C0600090022001900020029026
:101DD00003200390072004904FF09040FEF788FE08
:101DE00006B010BD0038014000100240FEE72DE9AA
:101DF000F04107461C4615460E462A2000F07AFBA5
:101E0000380A00F085FBF8B200F082FB280A00F0E7
:101E10007FFBE8B200F07CFB2B2000F06BFB300A6C
:101E200000F076FBF0B200F073FB200A00F070FBCC
:101E3000E0B200F06DFBBDE8F0412C2000F05ABB91
:101E400070B5040AC5B2EF2300211A460846FFF711
:101E5000CEFF0F4900204FF4107200BF01F8104070
:101E600001EB4003401C80B25D709042F6D301222A
:101E700040210848FEF71BFF00244FF490652946D7
:101E8000034800F05DFA641CA4B2642CF7D370BD63
:101E9000C00100200008004810B514460B46024659
:101EA000FFF7A5FF2046BDE8104000F03FBB000053
:101EB00010B50B460246FFF79AFF03480088BDE8BD
:101EC000104000F033BB00000400002070B5764DD8
:101ED0004FF40044002221462846FEF7E8FE734EE8
:101EE000002280213046FEF7E2FE0C20FEF7EEFDD8
:101EF000012280213046FEF7DAFE6D4B1A68106829
:101F000040F4804010601868016841F040010160B1
:101F10000C20FEF7DBFD112000F0ECFA0C20FEF7A0
:101F2000D5FD362000F0E6FA002000F0F1FA3A2064
:101F300000F0E0FA652000F0EBFAB22000F0DAFAE7
:101F40000C2000F0E5FA0C2000F0E2FA002000F08E
:101F5000DFFA332000F0DCFA332000F0D9FAB720A2
:101F600000F0C8FA722000F0D3FABB2000F0C2FAE9
:101F70003D2000F0CDFAC02000F0BCFA2C2000F08B
:101F8000C7FAC22000F0B6FA012000F0C1FAC3205F
:101F900000F0B0FA192000F0BBFAC42000F0AAFA51
:101FA000202000F0B5FAC62000F0A4FA012000F0CD
:101FB000AFFAD02000F09EFAA42000F0A9FAA120E8
:101FC00000F0A6FAE02000F095FAD02000F0A0FA88
:101FD000042000F09DFA0D2000F09AFA112000F084
:101FE00097FA132000F094FA2B2000F091FA3F208A
:101FF00000F08EFA542000F08BFA4C2000F088FAA2
:10200000182000F085FA0D2000F082FA0B2000F075
:102010007FFA1F2000F07CFA232000F079FAE120FB
:1020200000F068FAD02000F073FA042000F070FA93
:102030000C2000F06DFA112000F06AFA132000F075
:1020400067FA2C2000F064FA3F2000F061FA442087
:1020500000F05EFA512000F05BFA2F2000F058FAF1
:102060001F2000F055FA1F2000F052FA202000F047
:102070004FFA232000F04CFA212000F03BFA2920EF
:1020800000F038FAEF2300211A460846FFF7AFFEAA
:102090004FF6FF70FFF7D4FE21462846BDE870409A
:1020A0000122FEF704BE00000004004800080048BA
:1020B0009C0000202DE9F047170A054602F0FF08B2
:1020C000F02952D3DFF8A8A0DFF8A890332400BF8E
:1020D00005EB440635F814007188A2B281421FFA5C
:1020E00084FC20D30B4601466046FFF780FE0122A8
:1020F00040215046FEF7DBFD35F8141048460EE04F
:102100000268177302689368DB439B07FBD482F86D
:102110000C8002689368DB439B07FBD4491C7288E0
:102120008A42EDD21EE003466046FFF760FE0122C0
:1021300040215046FEF7BBFD718848460EE002681C
:10214000177302689368DB439B07FBD482F80C800B
:1021500002689368DB439B07FBD4491C35F81420C5
:102160008A42ECD2641CEF2CB2D3BDE8F0870000A9
:10217000000800489C0000202DE9F0472DED028B5F
:1021800096B08A46064617469FED628A142102A839
:10219000FEF765F8142107A8FEF761F814210CA8D2
:1021A000FEF75DF8142111A8FEF759F832244FF418
:1021B00078452A46EF212046FFF76EFE641CE4B204
:1021C000F02CF6D31E242A4621463220FFF764FE67
:1021D000641CE4B2F02CF6D30020014606E000BFF8
:1021E00036F81120824200D91046491CB942F7D373
:1021F00080463488002005E036F81010A14200D255
:102200000C46401CB842F7D3B6F8DE2142A102A822
:1022100001F042F8424640A107A801F03DF82246ED
:102220003DA10CA801F038F8A8EB040291463AA1B0
:1022300011A801F031F8102539A0CDE900502B4646
:10224000F0222821052000F02EF902A8CDE9005047
:102250001023F0223C21052000F025F932A0CDE921
:1022600000501023F0225A21052000F01CF907A885
:10227000CDE900501023F0226E21052000F013F963
:102280002BA0CDE900501023F0228C21052000F076
:102290000AF90CA8CDE900501023F022A021052056
:1022A00000F001F924A0CDE900501023F022BE2156
:1022B000052000F0F8F811A8CDE900501023F02215
:1022C000D221052000F0EFF844451DD800EE109A09
:1022D000F02FF8EEC00A80EE880A15D35FF00000F8
:1022E00036F81010091B00EE901AF8EEE00A80EEA6
:1022F000801AFCEEC10A10EE901AC1F1EF012AF823
:102300001010401CF028EBD316B0BDEC028BBDE8DA
:10231000F0870000000052432530346400000000C4
:1023200072656C3A000000006D61783A00000000B0
:102330006D696E3A000000007375623A000000009B
:1023400030B50022064B08E01D68845C2C731C68C5
:10235000A568ED43AD07FBD4521C8A42F4DB30BDC7
:102360009C0000202DE9F05F203AD7B21C46F022F5
:10237000A2EB540282425BD3C4F1F0028A4257DBE3
:102380000A19521E93B200EB5402521E92B2FFF78A
:102390002EFD3F4E102C1AD0202C18D00C2C49D0DA
:1023A000182C45D13B4907EB47004FF0300A002479
:1023B00001EB00194FEA060819F80460E00756D04F
:1023C00004270025300654D5B8F8000053E0600714
:1023D00000D0012000EBD400610810FB01F000F0F8
:1023E000FF082D48002500EB071A00F5BE5000EB52
:1023F000C71BB1461AE0102C09D0202C18D11BF8AD
:1024000005600027300605D5B9F8000004E01AF889
:102410000560F6E7B9F8020000F088F870067F1C46
:10242000060EFFB2082FEDD36D1CEDB24545E2D389
:1024300000F036B8194807EB47014FF00C090024AB
:1024400000EB8108002518F80470380601D53088A3
:1024500000E0708800F06AF878066D1C070EEDB297
:10246000062DF2D3641CE4B24C45EBD3E0E7082719
:10247000A7E7B8F8020000F059F870066D1C060EC8
:10248000EDB2BD429ED3641CE4B2544594D3CFE771
:102490000400002004900308148A0308A0850308A0
:1024A00030BCBDE8C09F2DE9F047044600F0FF09AD
:1024B00010190D46DDE908A61FFA80F8581987B2F1
:1024C00010E0444503D305EB0A004C4685B2BD42FB
:1024D0000DD2534629462046FFF744FF04EB5A002D
:1024E00084B2761C3278A2F120005E28E9D9BDE8DA
:1024F000F087000001B5002240210448FEF7D7FB19
:1025000001216846FFF71CFF08BD000000080048D5
:1025100001B5012240210448FEF7C9FB01216846AC
:10252000FFF70EFF08BD00000008004808B50021B5
:102530000091010A8DF800108DF801000122402160
:102540000348FEF7B4FB02216846FFF7F9FE08BD19
:102550000008004800EB8100006E00F0F840704772
:102560008068C0F3C00070478068C0F38000704787
:10257000C06810F4406F01D0002070470120704700
:10258000042303EAD15310B518444369C1F304513D
:1025900007248C40A3438A401343436110BD00EBE2
:1025A0008100016E21F00041114301667047000077
:1025B00030B587B018216846FDF751FE1948184913
:1025C0000024C0E9001484600425C460C0E9044507
:1025D000047644760121C16180F82040C0E90914E5
:1025E000C46280F83040446380F83840FEF7D2F887
:1025F00008B1FDF7BDFE0C480090062001900720B1
:1026000002907F200594CDE9030569460548FDF752
:10261000C5FE002801D0FDF7ABFE07B030BD0000BD
:1026200000000450380000200800900C2DE9F0470D
:1026300086B014216846FDF712FE2A48C16C41F0AD
:102640008001C164C16C01F080010591C16C41F051
:102650000401C164C16C01F004010591C16C41F039
:102660000101C164C16C01F001010591C16C41F02F
:102670000201C164C06C4FF0904800F00200059068
:10268000002201214046FEF712FB0122DFF858909C
:10269000D70339464846FEF70AFBDFF850A0002270
:1026A000C0215046FEF703FB012401AA00250326A2
:1026B000009482E8700069464046FEF719FA01AAC4
:1026C000009782E8700069464846FEF711FAC0207C
:1026D0008DE8710069465046FEF70AFA06B0BDE87B
:1026E000F087000000100240000400480008004885
:1026F000124810B5104901604FF482714160002109
:102700004FF4E062C0E9021202220261012242613A
:102710005202C0E90621016207224162C0E90A12A1
:1027200001634163FFF7A6F8002803D0BDE810401D
:10273000FDF71EBE10BD0000003800409C000020C8
:1027400010B592B01C210BA8FDF789FD2C2168461D
:10275000FDF785FD20481F49002401604F21C0E995
:10276000011440F2E731C0E9031444618461FFF7CA
:102770006DF908B1FDF7FCFD1748FFF755FA08B1F0
:10278000FDF7F6FD60200B9040F2F310CDE90C044C
:102790000E940F94109400220BA90F481194FFF788
:1027A000AFF908B1FDF7E4FD00944FF40050CDE916
:1027B0000440019402940394694607480A94FFF781
:1027C00003F908B1FDF7D4FD0348FFF76FF912B024
:1027D00010BD000000440140000100200D4810B56C
:1027E0000B4901604FF4E1314160002181600C220E
:1027F000C160C0E904128161C16101624162FFF7F9
:102800008FFA002803D0BDE81040FDF7B1BD10BD20
:102810000038014040010020FEE77047704700008B
:102820002DE9FF4F89B08846824611466846FDF77C
:10283000A1FD00254FEA0D0B0BEB45001BF8151011
:102840004FF6FF72467802EA01210E43DFF84C9002
:1028500000240AEB050700BFC4F10F0026FA00F0C0
:10286000C00706D008EB0400B9B280B2FFF720FB26
:1028700009E00C9838B908EB0400B9B280B2B9F895
:102880000220FFF709FB641CE4B2102CE4D36D1C9A
:10289000EDB2102DD0D30DB000F002B8040000202E
:1028A00030BCBDE8C08F2DE9F0411F4615460E46ED
:1028B000044608E03B462A4621463046FFF7B0FF73
:1028C0001034A4B2AD1C28780028F3D1BDE8F08103
:1028D0002DE9F041444C05468846E0680026810712
:1028E00028680DD0E16801F00301814216D1A8B13A
:1028F000E0686968C0F30210401C88420ED120E0F5
:10290000012804D0022805D0032807D108E0216857
:10291000890701E021684905002907DB01265FE0FE
:102920002168890302D421684903F5E7E1686A68F0
:102930006FF00F0321F0730103EB02121143014307
:10294000E160206820F080602060FEF7B5F907465E
:1029500005E000BFFEF7B0F9C01B022837D8206899
:102960000001F7D4B8F1000F18D0B8F1010F1DD055
:10297000287D4FF07E41400801EB4060A96840EAA5
:1029800001202169194A114008432061206840F064
:1029900080602060FEF790F907461AE0A868297B5E
:1029A000000240EAC1602169114AECE7288A114916
:1029B000400801EB4050A96840EA012021690E4A15
:1029C000E1E700BFFEF778F9C01B022801D9032612
:1029D00006E020680001F5D52069A9690843206157
:1029E0003046BDE8F081000000100240FF80FFF992
:1029F000FF80FF070000E0FFFF809FFFF8B51C4D40
:102A000006460024A86DC00002D5FEF711FA0DE0BD
:102A1000A86D40F08050A865A86D00F0805000902F
:102A2000FEF706FAA96D21F08051A965B0F5007F87
:102A300004D0802E07D94FF003040AE0802E08D975
:102A4000A02E01D804E001D1022402E0702E00D1B2
:102A500001240848016821F0070121430160006852
:102A600000F00700A04201D00120F8BD0020F8BD11
:102A700000100240002002407047000010B5084CD2
:102A8000216841B9206040B18268002190472068E8
:102A90000021C2689047002010BD4FF0FF3010BDEC
:102AA0000800002002480168491C0160FEF70AB9CD
:102AB000000000202DE9F041AEB0442117A8FDF739
:102AC000CEFB142128A8FDF7CAFB5C216846FDF760
:102AD000C6FB01263004CDE9176002240327CDE9A7
:102AE00021474FF00708CDE9258414202794CDE92C
:102AF000236017A8FEF708FC0F2028900025CDE9D9
:102B000029752B95042128A82C95FEF7F7FA44F295
:102B1000010000900007149008950820CDE902609C
:102B200001974005CDE90640CDE904846846FEF7EB
:102B300087F92002FEF748F92EB0BDE8F0810000C9
:102B40000D48016841F4700101600C48016841F0D2
:102B500001010160002181600268094B1A40026096
:102B60008214C260026822F48022026081610249FC
:102B7000C00380390860704788ED00E00010024013
:102B8000FFFFF6EA70B50268164B4FF08046984298
:102B900001D0B04203D122F070044A682243124CA3
:102BA000124D984205D0B04203D0A04201D0A842B5
:102BB00003D122F44076CA6832434E6922F0800283
:102BC000324302608A68C2620A688262984203D015
:102BD000A04201D0A84201D10969016301214161EC
:102BE00070BD0000002C0140004001400044014045
:102BF00010B501F01F030121046A99408C4304625F
:102C0000016A9A401143016210BD0000F0B5026AEA
:102C100022F001020262056A43688269154C25F0C0
:102C2000020522400C6822F0030214438A68134E06
:102C30002A43114D124FA84203D0B04201D0B842EE
:102C400006D122F0080CCA6842EA0C0222F0040203
:102C5000A84203D0B04201D0B84205D14D6923F457
:102C600040731D438B692B43436084614968416312
:102C70000262F0BD8FFFFEFF002C014000400140CA
:102C80000044014030B5026A22F010020262046A78
:102C900042688369154D2B400D6823F4407343EA65
:102CA000052524F020038C6843EA0413104CA0424D
:102CB00007D1CC6823F0800343EA041323F04003D8
:102CC00005E00C4CA04202D00B4CA04207D14C694D
:102CD00022F4406242EA84028C6942EA8402426041
:102CE000856149688163036230BD0000FF8FFFFE8C
:102CF000002C0140004001400044014030B5026A10
:102D000022F480720262046A4268C369144D2B4047
:102D10000D6823F003031D4324F400738C6843EA19
:102D20000423104CA04207D1CC6823F4006343EA8B
:102D3000042323F4806305E00B4CA04202D00B4C2B
:102D4000A04207D14C6922F4405242EA04128C6935
:102D500042EA04124260C5614968C163036230BD42
:102D60008FFFFEFF002C0140004001400044014065
:102D700030B5026A22F480520262046A4268C36972
:102D80000F4D24F400542B400D6823F4407343EAA4
:102D900005238D6844EA05340A4DA84205D00A4D42
:102DA000A84202D0094DA84204D14D6922F48042C4
:102DB00042EA85124260C36149680164046230BD21
:102DC000FF8FFFFE002C0140004001400044014005
:102DD00030B5026A22F480320262046A4268436DAE
:102DE0000E4D2B400D681D4324F400330C8943EA3B
:102DF00004430B4CA04205D00A4CA04202D00A4C1E
:102E0000A04204D14C6922F4803242EA042242609A
:102E1000456549688165036230BD00008FFFFEFF94
:102E2000002C0140004001400044014030B5026ADE
:102E300022F480120262046A4268436D0E4D24F44B
:102E400000142B400D6843EA05230D8944EA05541C
:102E50000A4DA84205D00A4DA84202D0094DA84209
:102E600004D14D6922F4802242EA85224260436502
:102E70004968C165046230BDFF8FFFFE002C014030
:102E8000004001400044014090F82410C90706D0DA
:102E900001684A68836A22F400321A434A6090F853
:102EA0002410890706D501684A68C36A22F4803273
:102EB0001A434A6090F82410490706D501684A6809
:102EC000036B22F480221A434A6090F82410090709
:102ED00006D501684A68436B22F400421A434A60EF
:102EE00090F82410C90606D501688A68836B22F41D
:102EF00080521A438A6090F82410890606D501682A
:102F00008A68C36B22F400521A438A6090F8241036
:102F1000490611D501684A68036C22F480121A43ED
:102F20004A60016CB1F5801F06D101684A68436CA4
:102F300022F4C0021A434A6090F82410090606D50C
:102F400001684A68806C22F4002202434A6070479C
:102F5000F8B500260446C667FDF7AEFE05462068B4
:102F600000686FF07E47000708D52B4600224FF41B
:102F700000112046009700F03BF960B92068006816
:102F800040070AD52B4600224FF4800120460097C7
:102F900000F02EF908B10320F8BD20206067A0677B
:102FA00084F870600020F8BD2DE9F0410446016806
:102FB00080682369E5691843636900272B43184338
:102FC000814A0B68814D2B4003430B6020684168A8
:102FD000E36821F44051194341602168A06991429E
:102FE00001D0236A18438B6823F4306303438B605A
:102FF000774B2168774899420DD1D0F8880010F0BE
:10300000030006D0012847D0022843D0032830D13E
:1030100044E001252EE0704B99420BD1D0F8880096
:1030200010F00C0034D0042836D0082832D00C28F8
:103030001FD133E0694B99420BD1D0F8880010F0D2
:10304000300025D0102827D0202823D0302810D1B8
:1030500024E091420DD1D0F8880010F4406017D0E0
:10306000B0F5806F18D0B0F5006F13D0B0F5406F99
:1030700014D010255A4B00264FF40040914245D100
:1030800075B1022D0FD0042D0FD0082D18D10FE0EF
:103090000025EFE70225EDE70425EBE70825E9E742
:1030A000FEF7BCF803E0184602E0FEF7DBF8A8B331
:1030B000626802EB4201814202D8B0EB023F01D9C3
:1030C00001276EE0DFF81C815DB1022D0CD0042DCC
:1030D00013D0082DF4D150082905401846F10001FD
:1030E00005E0FEF79BF80AE050083F49F5E70023AA
:1030F000FDF768F8A0F540714FE0FEF7B3F862689D
:10310000010E0302500818187141F0E7E1694FF60B
:10311000EF7881422ED1092DD2D200E041E0DFE8E4
:1031200005F006091F05220505052500C8E7FEF77D
:1031300075F801E0FEF784F84100606801EB50018A
:10314000B1FBF0F080B2A0F110014145B8D84FF6C4
:10315000F0710140C0F3420001432068C16020E0EB
:1031600022496068EAE7FEF77DF8E5E74FF4803131
:103170006068E3E7092DA3D2DFE805F0060918052A
:103180001E05050520009BE7FEF748F816E0FEF750
:1031900057F813E080B2A0F11001414590D82168A2
:1031A000C860266638466666BDE8F081606803EB55
:1031B0005001B1FBF0F0EDE7FEF754F8616800EB69
:1031C0005100B0FBF1F0E5E700800040F369FFEF4C
:1031D0000038014000100240004400400048004018
:1031E0000024F400FFFC0F00000024F40048E80174
:1031F0002DE9F0479A4617460E4604464FF000095F
:103200004FF02008089D39E0681C37D0FDF754FDC9
:10321000A0EB0A00A84222D80DB320680168490734
:103220002CD5C069C043000528D421684FF4006044
:1032300008622068016821F4D0710160206881680B
:1032400021F001018160C4F87480C4F87880C4F86A
:103250007C8000BF84F870900320BDE8F087206870
:10326000016821F4D07101602068816821F00101BA
:103270008160C4F87480C4F87880EBE72068C06986
:1032800036EA000004D00020B842BDD00020E4E7B8
:103290000120F9E7FEE700000FB4084B10B504A9C0
:1032A00002AA039800F02CF8044602A9002000F0BE
:1032B000CBF9204610BC5DF814FB0000493600082D
:1032C0000907090E002804DB00F1E02080F8001453
:1032D000704700F00F0000F1E02080F8141D7047E7
:1032E00002E008C8121F08C1002AFAD170477047CF
:1032F000002001E001C1121F002AFBD1704700002D
:103300002DE9FF4F8BB088460546002606E02528AC
:103310000BD0DDE90D1290476D1C761C2878002833
:10332000F5D10FB0304600F063B90024A146A246A3
:103330000122AE4900E0044315F8013F203B02FAA8
:1033400003F00842F7D128782A2810D06FF02F0216
:103350002878A0F13001092915D809EB890102EB81
:10336000410144F0020400EB01096D1CF0E758F83C
:10337000041B5FEA010903D544F40054C9F10009B4
:1033800044F002046D1C28782E2817D115F8010F7F
:1033900044F004042A280ED06FF02F022878A0F100
:1033A000300109290AD80AEB8A0102EB410100EB3E
:1033B000010A6D1CF2E758F804AB6D1C28786C28E4
:1033C0000FD006DC4C2817D068280DD06A2814D1FD
:1033D00004E0742810D07A280FD10DE044F40014D2
:1033E0000AE044F4801401E044F440146978814216
:1033F00002D104F580146D1C6D1C2878692865D0F5
:1034000006DC00288DD0632827D0642806D15DE033
:103410006E2808D073282AD0752877D0DDE90D12E0
:103420009047761CE0E0C4F30250022809D003283C
:103430000DD0D8F8001004280DD00E6008F1040853
:10344000D2E0D8F80010F217C1E90062F6E7D8F828
:1034500000100E80F2E70E70F0E718F8041B8DF8EC
:10346000001000208DF80100EB46012003E058F821
:1034700004BB4FF0FF3061074FF0000701D40AE0B2
:103480007F1C57450DDA8742FADB1BF8071000292D
:10349000F6D106E07F1C8742FCDB1BF807100029F1
:1034A000F8D1DDE90D23A9EB07008146214600F0A4
:1034B000B4F83044C61904E0DDE90D121BF8010B25
:1034C00090477F1EF8D22146484688E058F8040B02
:1034D000C4F302514FF00A0B032900D100B20429B2
:1034E00000D140B2002802DA40422D2102E021053D
:1034F00005D52B218DF82410012104E006E0E10719
:1035000010D02021F6E708AF089113E058F8040B1B
:10351000C4F302514FF00A0B032900D180B20429F1
:1035200000D1C0B20021EEE75946FCF7A3FE3031CE
:1035300007F8011D0028F7D1ADEB070000F1200BC3
:10354000600702D524F4803401E04FF0010ADA4527
:1035500002DDAAEB0B0000E00020824600EB0B012D
:1035600008980144A9EB01000A90E00306D4DDE9C4
:103570000D2321460A9800F050F806444FF0000948
:1035800008E009A911F80900DDE90D12904709F1D9
:103590000109761C08998945F3DBE0030CD5DDE9C8
:1035A0000D2321460A9800F038F8064404E0DDE9CE
:1035B0000D1230209047761CBAF10001AAF1010AE1
:1035C000F5DC05E0DDE90D1217F8010B9047761CDC
:1035D000BBF10001ABF1010BF4DC0A982146DDE9F7
:1035E0000D2300F008F806446D1C97E60928010039
:1035F00030BCBDE8C08F2DE9F041044600251E46D1
:103600001746880404D405E039462020B0476D1CD5
:10361000641EF9D52846BDE8F0812DE9F041044645
:1036200000251E469046C80301D5302700E020271C
:10363000880404D505E041463846B0476D1C641E39
:10364000F9D52846BDE8F0810A68531C0B6010705C
:1036500070470000027961F341020271900704484B
:103660004FF0000101D5FEF7FBBAFEF725BB0000C5
:1036700000010020027961F300020271D1074FF0CE
:10368000904001D0012200E000220121FDF70FBB94
:103690000079C0F340007047007900F001007047E6
:1036A00010B504460548FDF7CDF932210348FDF772
:1036B00075F90248FDF76BF8206010BD3800002056
:1036C000FDF708FBFFF7F6F9FEF7B0FFFEF770FF16
:1036D000FFF70EF8FFF782F8FFF732F82948FFF7F7
:1036E000CDF9FEF7F3FB0020FEF7AAFB002326A28C
:1036F00019464620FFF7D7F8224D28462969884702
:10370000254C002180B200BF24F81100491CF0298B
:10371000FADB21494FF4F07601F570703246074626
:10372000FCF784FD1D48324639468046FCF77EFD95
:1037300029691448884701465FF0000004EB400205
:10374000528824F81020401CEE28F7DDA4F8DE1182
:103750000022F0214046FEF7ADFCF02239460E482B
:10376000FEF70AFD4FF4FC62F0213846FEF7A2FC9A
:10377000324639464046FCF759FD0A20FDF7A6F9C6
:10378000D6E700000C000020B4ABB8D0C6F7C7FAEB
:10379000CFDFCFD4CABE00004006002020080020A2
:1037A0000000F77E950495049674965495549554AC
:1037B0009554F55497740404040404040414040890
:1037C00000007BFE48085008600853E84A284A2851
:1037D0004A286BE85008400840084008402840103C
:1037E00010401068108411FE1084FD0011FC12209E
:1037F000142013FE10201C50E0884106060400002F
:1038000010401040108811FCFC04108014FC19209A
:103810003020D7FE1020106010501088510E260462
:1038200001100110F9108FFE89108800891089108D
:1038300088A0F8A0884000A001100218040E080417
:1038400000800088F10493FE9104920093FC944060
:10385000F84097FE804000A001100208040E080402
:10386000010000807FFE00001FF0101010101FF0FC
:103870001210053808E0184068300A1E0C080800CD
:103880001040124422447A444BFC48004BF878081C
:1038900048084BF84A087A004A02420201FE00003A
:1038A000010000803FFE2000A3F8620823F82000FA
:1038B0006FBEA8A22FBE20402444444447FC840489
:1038C0000420FFFE042023F8120813F80208E3F88E
:1038D000240027FC2C4434A42D1437E420140008C1
:1038E000401C43E0782053FE507090A8FD261260E3
:1038F00010402BFE28904590407080D807040000AF
:1039000004400440FFFE0440044008200830042026
:10391000044002800100028004400830300EC004E0
:1039200001FCFD0411FC110421FC20007BFE680851
:10393000A8082BFE28082888384828482028001086
:1039400000F83F90121009203FFE220242003FFC87
:10395000040007F00C200B4010C063308C0E3004C4
:1039600002107910492057FE6000611051084A0486
:1039700048006FF855284528452845285FFE400037
:1039800028402820FFFE2904382010207C4055FEC6
:1039900054487C881050FE2010501188160C1004DA
:1039A00008000FFC10002FF800007FF8081004102A
:1039B0007FD040900810FFD0190A060A0D067082C9
:1039C000020001003FFE2004440806000400FFFE40
:1039D0000820082008400680010006C01838E010C2
:1039E0001080188017FC212032106488BFF62490C4
:1039F00027F02490249027F024822082207E00004B
:103A000010401020102013FEFE04104014401BFE36
:103A10003088D110119010601058118E560420007B
:103A2000004000207BFC4910489048A07FFE4800E1
:103A300049F8490879F84908010801F80108000027
:103A40000080108410841FFC00003FFE20002FFC2B
:103A5000208020803FFE2080208040808080008069
:103A6000004078204BFE4A044C8878C048804BFCCC
:103A700078884908489048604850488C6906920404
:103A8000020001003FFC220804407FFC0C80038000
:103A90001E6001207FFE03400D30710E0104010005
:103AA00000403C20242027FE3C0024F024903C9041
:103AB000249024902490249044925492890E0200E1
:103AC0001FF810081FF810081FF80000060038FC47
:103AD0002084208428843094208800800080008006
:103AE000010001001FF011101110FFFE02800440C0
:103AF00008303FFED294129012901290FFFE000008
:103B000000007C7C4444444444444444444447C40A
:103B100040044004400440047FFC40044004000092
:103B2000082008307F2008403E7E08C8FF48104823
:103B300010281E28121022102228424E8B840400C6
:103B400010407E6010447EFE1088FF8811503E3089
:103B5000243024585C8E89042888244466664222D6
:103B600010007DDC44447C4446647D541154FE4482
:103B700028CC45549264FE441044104411541088DB
:103B80004000307823C00040F840084013FC144047
:103B900038A056A0949011101108120612041400B7
:103BA00012101A1817D0221027BE6224AFE4241472
:103BB000241427882488249428942BA631440000B8
:103BC00002003FF82108292825483FF82388256866
:103BD000292801007FFE028004400830300EC00416
:103BE0002040208027FC2554B4E4AFF4A4C425640D
:103BF000265420402FFE204020A023102C0E200011
:103C00004080210027F806A885C857F814C825A8C1
:103C100026A82488DFFE40C041204610580E000030
:103C200004400440FFFE044004401FF01110111036
:103C300011101FF010001004100410060FFC0000FB
:103C4000200223C22242224AFA4A23CA290A310AFE
:103C500067CAA14A214A224222422442A94A4084F8
:103C60001000100010101090FC90109018903090E0
:103C7000D11011081108120812045406280400007B
:103C800000400060F94089408940894089208920AE
:103C90008A20FA108A10040804080806100420007C
:103CA0000000FBFE8A228A228A228A228BFE8A0256
:103CB000FA008A00820002000202020201FE0000F5
:103CC00020403F7E4850448885083FFC2084208463
:103CD00020843FFC20002002200220021FFE000062
:103CE00000000040046006400440044004400820F6
:103CF0000820101010102008400E80040000000062
:103D0000010000801FFE1000900057FC5444144432
:103D1000344457FC940024002402440243FE8000F3
:103D200000003FF821082108210821083FF8200859
:103D30002000200020002004200420061FFC00009A
:103D4000108010901088FC8013FE108014FC1888DE
:103D50003148D150113012201250148E5B042000D3
:103D600000407C504448444847FE7C4010FC10848E
:103D70005C8850C851505D207250C48C0906020402
:103D8000240024FCFEA424A43CA410A47CFC5480A5
:103D900054807C801080FE8210821082107E100081
:103DA000100011FC11241124FD24112415FC19000C
:103DB0003100D100110011001102110250FE20004B
:103DC000100010007DFC11247D2411241124FDFC21
:103DD00039003500570055009102110210FE100005
:103DE000100011FC110411241124FD2411241124AC
:103DF0001124112414501850E08840860104020058
:103E00003FF801007FFE695415280000247CFF4420
:103E1000247C7F44497C7F440844FF84089409083B
:103E20003FFC244424443FFC210401003FF80100EE
:103E30000100FFFE0200042008103FF810100000EF
:103E400004200810142C2244018002600C1E3FF450
:103E5000D11011101FF01000100410040FFC00000E
:103E60000200020004003FF8200820082008200873
:103E70003FF820082008200820083FF8200800000C
:103E8000102010201040FDFC1104310439043504C9
:103E900055FC5104910411041104110411FC110486
:103EA0000000FFFE030002001FF0101010101010A1
:103EB0001FF0101010101010101010101FF0101024
:103EC000100013FC1294FE94129413FC14401BFC7B
:103ED0003040D04017FE10801108120457FE200415
:103EE00010001BFE10403040208063FCA20422041E
:103EF00023FC22042204220423FC220422040000C6
:103F000000403E60224022802AFE2B882A882A8890
:103F10002A5008501420122023502288410E0204F7
:103F2000060078FE0810087C3E100810087C7F1000
:103F3000081008FE10101010201040108010001003
:103F40000C20704011FC1124FD2411FC392435444F
:103F500055FC50A0912017FE10201020102010209A
:103F60000000FA7E21102FD024902490FA90237C18
:103F700021102190229022903490C81030FE000031
:103F80000100F97E2110211021102510FD7E251041
:103F90002910211021103A10C21004FE0800100050
:103FA0002100223C27A4FCA426A42DA634C06FFE29
:103FB000A4A2269425942488289828A6B2C4410057
:103FC000200023FC22002200FA0023FC2B08328868
:103FD0006290A250222024602498290EB60440004A
:103FE000080010F83C88248834882C882506FE00B8
:103FF00025FC34882C90246024604490550E8A045B
:10400000100029FE2420244042FC4284BCA414A4B5
:1040100014A414A424A424A42450548C8B040000BD
:10402000101C11E011001100FD0011FC398435480D
:1040300055485230921012301448108E110400006E
:10404000001C49E0490049007F0041FC4188798813
:104050004950495049204A304A504488890E020448
:10406000104010401060FCA0111015081A0635F819
:10407000D0881088108811081108120854282010C0
:10408000104010401248FD4C115013FC18401040D5
:104090003040D7FE104010401040104050402040AB
:1040A000084008401448134C225077FCA0402040A0
:1040B00020402FFE20402040204020402040000093
:1040C000401020C8FB3E158455941594FD7E25486C
:1040D0002548757E2548252849A8491890080000DC
:1040E0000100211019180D20094001083FFC0100B2
:1040F000010001047FFE0100010001000100010038
:104100000200020002207FF0022002202230242838
:104110002424442688240820102020A040400000A9
:1041200010201020112420A420A849FCF0201020E9
:10413000202043FEF820002000201C20E02000204A
:104140000800087EFF44084808487E500848084494
:10415000FF42084208421052104C204040400040AC
:1041600004003FBE04243FA804287FA4043208AC06
:1041700010A02FF84888088808A8089000800080C0
:104180001100111E111217D2FD1411143BD835184D
:10419000511457D29112121A121414101810101030
:1041A0001040102013FCFC90106033FE3A44542061
:1041B00053FC9040107810881088110812281410B1
:1041C000004078204BFE488878504BFE4A444820F7
:1041D0007BFC488048F8488848884908A9289210FC
:1041E0001100111E27D221124914F11417D82114DD
:1041F0004112F7F20112011A3214C2100410081011
:104200002040204027FC2040FBF8208077FE6920DA
:10421000A258ADF6204027FC2040204020402040FE
:1042200000407C2013FC1108109023FE3E426420C5
:10423000A7FC248024F824883D0825082250042067
:104240001020102010207FFE5220522053FE7E208E
:10425000522053FE142012201F20F2204020002064
:10426000104010203DFC20884050BBFE124410201E
:10427000FDFE1040107810881488192812100000D4
:104280001080184017FC2210212467FEA4842848BF
:1042900027FC210021F821082208222824100000F0
:1042A0004080204037FC2108009007FEE884204031
:1042B00027FC208020F8210829083208242808102B
:1042C00004400440FFFE144010001FF8200820089E
:1042D0005F8810881F881028101210020FFE00003F
:1042E000008078C0490049FC7A044C0449E4492420
:1042F000792449E44904491C490A490248FE9800C6
:1043000008000C0008081FFC100820085FC890482F
:1043100010481FC810081028101210020FFE0000CD
:1043200001007FFE10001BF0321063F0A0402FFE52
:1043300020E023502D4C03100CA078600C1C0808C2
:1043400000047F0401043F240124FFA4042424A4C6
:1043500015240E241524E4A4448404041414080829
:104360000440FFFE0450444837FE204083F8724862
:1043700053F8124823F8E2483FFE21102110203064
:104380001FF801007FFE41041D7001001C70080031
:104390001FF820085F8810A81F9210020FFE00006F
:1043A00010001BF812082208320863F8A0402FFE04
:1043B00020E0216021502258244E28442040000053
:1043C00010001BF8120823F87040AFFE20E02150C7
:1043D000224E244401003FFC01000100FFFE0000CA
:1043E0001080108020803EFC25044A0451E4912472
:1043F000112411E4110C11001502190210FE000025
:10440000020001007FFE400480083FF80100010027
:1044100001001FF801400120013001207FFE000053
:1044200011001100110011FCFE04120417E41A24FB
:104430003224D3E4121412081202120251FE200098
:1044400011FC11041104FD141108150019FC31842C
:10445000D1481148113011101138114E51842100EA
:104460001FF010101FF010101FF004407FFC0440DC
:10447000FFFE04400920355EC384092011100300AB
:1044800008400C601040237ED48218822942CC223E
:1044900012322622CA0212022202C2021414080890
:1044A00020403C40244048FC7C84D5F456947C94C5
:1044B00054F454847C9400881C82E082007E0000C6
:1044C00023FC22042BFC2A04B3FCA090A7FCA090A0
:1044D0002FFE32482D5448E251508648014000805A
:1044E000100017FE1020FC201040304038C054D07F
:1044F0005148924414461042104010401040104061
:1045000000207E4011FC1124112421FC3D2465442F
:10451000A5FC24A0252027FE3C20242020200020CC
:10452000044004407C7C04403C7804407C7E044091
:1045300004400100088028842812681207F0000057
:10454000010002003FF821083FF8210821083FF848
:1045500022080C80FFFE0080008000800080008028
:104560000440044004400444044E7C580460044069
:10457000044004400C403442E4424442043E000003
:1045800004407C7C04403C7804407C7E0540020072
:104590007FFC04800FF800807FFE00800080008098
:1045A000048004987CE004841C84E47C40001FF0B8
:1045B00010101FF0101010101FF0101010501020CD
:1045C00000001FF010101010111011101110111018
:1045D00011101110111002800460181860080000FA
:1045E000200021FC3D04210441047D24A124212438
:1045F000FD24212421242450284831842606000249
:104600000880084017FE121031185190112017FE33
:10461000100013F812081208120813F8120800000C
:10462000040045FC29041124312449248924192437
:104630002924492489440850088C09065202240080
:1046400008000FF0082014202240418002400C3066
:10465000301EDFF411101FF0111011101FF0101098
:10466000040007F00C201240018006607FFE091054
:104670000FF009100FF001002884281267F20000E3
:104680001040102013FC100015045888505097FE5D
:10469000100011FC19042504210441FC81040000D0
:1046A000202010201020FFFE0A240A2012F836884D
:1046B0005A88965012501220125012481286150431
:1046C000020002007FFE0440092011182FE6C104F9
:1046D00009200820FFFE0820102010202020402064
:1046E00004200420FFFE042001007FFC038005401D
:1046F0000520091011082FF6410481000100010076
:10470000010001000100FFFE038003400540052079
:10471000091011182FEEC104010001000100000072
:1047200020403E7E50904908890801047FFE0540E4
:104730000520092011182FEE41048100010001001D
:10474000010021083FF800003E7822483E482278C8
:1047500022483E482278224842884AA88510000014
:10476000100013BC22A422A44BBCFAA412A422A4BD
:1047700043BCFAA404A434A4CAA4115420880000A1
:1047800000047FFE01800F60F11C01063FF8210844
:104790003FF821083FF821082108410841288010EE
:1047A000FFFE020004000FF03410C41007F00100F7
:1047B0007D0C05B0094009201118210EC504020026
:1047C00000207A224A224BFE48007B9E1292139EC2
:1047D0005E925292539E52927C92C4A20AAA1144B3
:1047E00042082188311027FC01100110F1101FFC34
:1047F00011101110121012101410281047FE800012
:10480000000027FC100013F8020803F8700017FCE2
:10481000144417FC144417FC1000280047FE000045
:1048200002001FF0189014501FF000003FF82108FC
:104830003FF821083FF80000FFFE08200820102064
:10484000208020802080208020803E8E20F02080CC
:10485000208020802080248228823082207E0000D8
:104860003F00213E21223F240824FFA808247FA2E4
:1048700040A25EA252B25EAC40A07FA040A0002049
:10488000204020403EFE51208A1001F87E000200A8
:1048900003F07E00020003FEFE000204020401FC9D
:1048A00010201820202043FE92241A2032F862881B
:1048B000A28822502250222022502488250E2A0429
:1048C00000207EFC08843CFC088408847EFC0000F8
:1048D0007FFE040008001FF8280848080FF80808A1
:1048E0000440FFFE044008003FF824482388244881
:1048F0003FF8208020983EE020802682387E2000ED
:104900000440FFFE0440086049302A207F7E49446D
:104910005DC45B286B28691049104D284A46008405
:1049200020802080208C3EF0208024822882317ECE
:1049300001000100FFFE0100010001000100010073
:10494000208020983EE020842684387C0000FFFEF2
:1049500010401F4C3270544008423042C03E0000AC
:10496000208020803E8C20F020822482287E32000D
:1049700001200920284428824B120C10F7F0000077
:1049800000FC7F00010001003FF8210821082108F8
:10499000210821082108212821100100010001001F
:1049A000010000803FFE2000244024402444274E84
:1049B000247024402440244045424E42843E00005E
:1049C000008000401FFE100097FC544457FC144424
:1049D00037FC50009FFE111021102110421084104E
:1049E00020001BFC08042084208420842FF42084D1
:1049F000218422842C8420842284210420142008F1
:104A00000000082049302B201C7E7F4449C45944B3
:104A10005D286F28491049104928494849864304B0
:104A2000082049202A7E7F4449A45D186B28494606
:104A300043040820FFFE082008201020102020201A
:104A400004000210019801100C200820285028486A
:104A5000288449064A040C0818082FF8C0000000F2
:104A600000407C2045FE440044847C48400041FED8
:104A70007C206420A5FEA420BC20A42000200020CF
:104A800000407C2045FE44887C5043FE7C2065FE2F
:104A90007C20A42001003FF801000100FFFE00007F
:104AA0003C2025FE3C8821FE7C20A5FE3C200020E9
:104AB0001FF010101FF010101FF0101010501020D9
:104AC00000204F10297C29480F280810E8FE2F10DD
:104AD0002D102D7C35102710201050008FFE000067
:104AE00002207A204A2C53B0522062A253224A1E3E
:104AF0004840684053FC4040404040404FFE40002A
:104B0000488048FEFE904910797C13547D7C5554B2
:104B10007D7C11101110FD5011301128114E11041F
:104B2000408020803080208007F80088F08810883E
:104B300011081108120814701020280047FE000008
:104B40001080184023FC22044A04FBFC120023FCC2
:104B50007B54035405FC3554C5540954110C000012
:104B600000007C3C45C054405430542055FC54084F
:104B7000541054205440288025804640843E000034
:104B8000010000801FFC10041FFC100010001FFE1D
:104B9000192229222FFE292249224922892A080482
:104BA00008000FFE184017FC344467FCA44424445A
:104BB00027FC24402240218020C02130220E2C04DA
:104BC000020001807FFE024012501A4C22464244ED
:104BD0009FF004200420024001800660181EE008B7
:104BE000020001800100FFFE010001000100014000
:104BF0000120011001180110010001000100010055
:104C000020901088FEFE008446C62AA8FE8012FE70
:104C100010907C90117E21102210421084100810F8
:104C200022101188FD7E40042B462934FD28117E78
:104C300011087D0811BE1108200820084008000056
:104C4000201010087D7E09044AA62B94FD3E120810
:104C50001788FC3E100811C8270822084008800861
:104C60000080404027F8240807F80400E7F826A849
:104C700027F82AA82AA832A8221850008FFE000080
:104C8000100011FC10001000FC0013FE382034202E
:104C900055285124922614221022102010A01040D2
:104CA00008040F86080C7F9848A04E48780C4910DD
:104CB000472440464F0849104922510290FEA00067
:104CC00000007BFE48904BFC7A944BFC480049FC6A
:104CD00078004BFE4820492849A44A26ACA49040BD
:104CE000010001003FFC01001FF801007FFE0300EE
:104CF00006880C8C3850C82009100A0E0C040800D5
:104D000049202A207F3E49485DC86B30492847C664
:104D100008803FF051101FF011101FF00000FFFE3F
:104D2000082049202A207F7E49445DA45B18691829
:104D300049264B44000029042882681207F000002D
:104D400000043F042124212421243F242924082471
:104D50007F2409241124110421042704421C800803
:104D600001003FFE2080A7F864482528248827F802
:104D70006488A16026183A6623804208420881F8B8
:104D800011041106110C11087BD0110433863B4C21
:104D9000555055649546110C111811201140110001
:104DA0000010201813D4FC1007FE08904A902A9097
:104DB0002AF0129012902A8A4AEA8706000200001E
:104DC0004200227E2A100BA08A7C5FC422542A54FF
:104DD0004AD452D4C154411042284C46718200003A
:104DE0004040202027FE8404403801C0110011FCFF
:104DF00021102110C7FE40004010410842044C041D
:104E0000010000803FFE40044FE8080008000FF852
:104E100008400840FFFE04400E301818200C4008DF
:104E20001040102013FEFE02123815C0190031FC8C
:104E3000D110111017FE11101108120C540420008B
:104E400000700F80080008000FFC08400840084070
:104E50000840FFFE042006100C08180C3006400421
:104E600000404040204020480F4C02582260226001
:104E70002450C45048484846504461404080000097
:104E8000100013FE1020FC20102033FE3A22562280
:104E900052229252128A130A12021212120A120497
:104EA00000007FFE010001003FFC210421042104D9
:104EB00022842244243428242004201420080000C2
:104EC00000103FF80100FFFE01003FF80108FFFE5F
:104ED00001083FF80388054009203118C10E01047C
:104EE0002104208420483DFE44884888A0882088EA
:104EF00023FE2088208824882908310822080008F9
:104F0000100013FE14201420582053FC52449244E5
:104F100012641A9426942304420442048214020860
:104F2000010000801FFE10009FFC5040504017F809
:104F3000344854A894A82518260824084428841026
:104F400010100818061004207FFC04200420042000
:104F50007FFE0420042004200820082010202020A8
:104F600000200020FC2011FE112211247D2011FCC4
:104F7000128812881A50F42044500888110E020436
:104F800004400440FFFE0440204017FE44443448DF
:104F900027F815101510E4A0244028B0290E32047B
:104FA000203C27C02248F95027FE20E02950324EED
:104FB0006FFCA248224823F822482248A3F842085E
:104FC000204022482244FA4023FE2040288030F826
:104FD000E08821502150222024502988A606400034
:104FE000202020203E20202043FC7C20A07020B0E8
:104FF000FCA8212821FC222228203020202000206B
:1050000020401040104007FE84445440544017F89C
:1050100025082490E490246028602898310E260406
:105020002050204827FC204023F8FA4823F8224843
:1050300023F822582FFE22102190211020502020EA
:10504000082008207F2008207F7C412482247E24A1
:1050500004240B241C44E844088408942908100004
:10506000104817FE1040FBFC124417FC1A4433FC96
:10507000D244100817FE110810881008502820107C
:105080001010101020203EFE40827C82908210FE84
:10509000FE82108210821282148218FE108200009A
:1050A00020403F7E485084882040108093FC42047A
:1050B0004A04120413FC2204E204220423FC220406
:1050C00008400C6008801BFC1204320432045204B5
:1050D00093FC120412041204120413FC12040000C4
:1050E000010002001FF810081FF810081FF811082F
:1050F00001003FFC210421042104211421080100A6
:10510000082010203E4022FC32842A84FE8422FCA7
:1051100032842E842A842284228442FC4A8484009D
:10512000002078204BFE48207BFE4A044C0049F8C2
:10513000781048204BFE482048204820A8A09040E6
:10514000002878244BFE482049FC792449FC492456
:1051500049FC792448104BFE49104910A850902072
:10516000421022102F900210823E5FD250522F9296
:1051700021124212C3A25E22422242424A4A44847F
:1051800040402040208083FC4A044A041204120458
:1051900023FCE204220422042204220423FC22042D
:1051A0000000FD1008A0486048984B0848007C08A3
:1051B000050804903450C4200450288E13040000C5
:1051C00010201028102413FEFC2013FE16221BFEB4
:1051D0003222D22213FE122212221222522A222418
:1051E00002000200020002000200030002C00230BE
:1051F000021802080200020002000200020002007F
:1052000000500048FFFE904097FC9444944497FC63
:105210009444F44497FC04440444045404480000B7
:10522000202018201020FE200420083012283424CA
:10523000582294221220102010201020102010201C
:105240002040208023F82208FA0823F8220023FCBB
:10525000220422043BFCE04047FE004000400040A6
:1052600000047FFE018001000100010003600530A1
:105270000918110C21084100010001000100000083
:10528000020003000200FFFE0480048008801FF873
:10529000288848888888088808A8089000800080A6
:1052A0000080008008F8088008807FFE0080088069
:1052B0000888108C6090002000C007007800000073
:1052C00020403F7E4890A52817FE104083FC4A44AA
:1052D000527C13C4224C2FFEE10820882028201085
:1052E0001000087E7F42224412441448FFD8004434
:1052F00000423F422142215A21443F402140004088
:105300002040204027FE3080A8A0A920A3FC222412
:1053100026242A243224222422342028202020203B
:105320002040202027FE2504F9D0226835902B0844
:1053300062F6A4002BFC20402250224CA544408061
:1053400048402BFC104033F848408FFE08001BF803
:105350002A084BF88A080BF80A081208522822106B
:10536000084008503F480840FFFC104008487F4C68
:10537000082815303230D2221152188A1104000048
:105380000000101010101010FDFE101038303430D6
:105390003450505050909110121010101050102096
:1053A00000400040004000407FFE00C0014001403E
:1053B000024004400840104060400040014000802E
:1053C00000087E0842084A084AFE4A184A184A2835
:1053D0004A284A480848148812082308422880109E
:1053E000003C7FC048844A444908795048404FFEF9
:1053F00078E048D0495049487A4C4A4644440040F5
:10540000001C7FE04484464445687D28104013FC1E
:105410005CE050E051505D487246C444004000409A
:10542000000001F87E000010111008A001007FFEAE
:105430000180034005200918310EC104010001005C
:105440000F00F808110C49902A2024440806FF8810
:1054500008141C261A04298849108860098008004D
:105460000440FFFE044004403FF8220811100820C9
:1054700001007FFE038005400930111C6108010016
:105480000440FFFE044010001EF822885450A8205B
:1054900017D82006DFF8010011201918250842004E
:1054A00008000F7C28483E305428094472C00D3053
:1054B0003FEECA2009200FE808900A600C3008105F
:1054C00004000C2011F03F100200FFFC04400920F2
:1054D0003218CC6E31840618186003807C000000FE
:1054E0003FFC01000100FFFE024004200910310EC4
:1054F000DFF411101FF01110010801FC7E080000FC
:1055000000407F501048104E3FF02240424E65F060
:10551000942008280830103021D24E0A800600025C
:10552000210021062FB83220AB20A53EAFA42124B4
:10553000212421A423242D24214421442184210435
:105540002080211023F83088A880AFFEA1202210EF
:10555000248C3B262C402188263020C027002000A8
:105560001020103010201420152659245124912485
:105570001124292425242524412441FC81040004EC
:105580000820FFFE08200A20030006800C60101887
:10559000EFEE0820082008A00848080807F00000DF
:1055A000082010203C50248835062E0424F8FC885E
:1055B000248834882CB8249024844484547C880023
:1055C0000100010002800440083010182FEE48242A
:1055D00008200820082008E008400808080C07F800
:1055E0002040104010A0011082084C0E4BF4121005
:1055F00012102210E250222022002204220421FC58
:105600000440FFFE045004281FFE502057A8752CAC
:1056100017A874A85790551097AA204A20844000D4
:1056200021F8210821F8F80023BC22A42AA433BCC5
:105630006040A7FE206020D02148224EAC4440406C
:1056400010101090949054FC5890FD1031FE3600CC
:105650005AFC5684528492FC1200150018FE100069
:10566000105013FE1050FBFE12523BFE365253FEFA
:10567000500091FC110411FC1104110411FC1104DF
:105680000240FFFE02403FFC22443FFC22443FFC1C
:1056900000001FF810081FF810081FF8100800007D
:1056A00004400440FFFE044004401FF010101FF0AF
:1056B00010101FF00100FFFE0100010001000100B9
:1056C00000003FFE20042F8428942A942A942A94D0
:1056D0002A942A942A944204450488D4908800008D
:1056E000204020403EFE491085087FFC01003FF825
:1056F0002108210823A8255009203118C10E0104D2
:1057000010041FC41444245435546554A55425541E
:10571000255425542294224424642854300800003F
:105720003C7824482448244824482448FFFE244840
:105730002448244824482488448855288A10000096
:10574000400227C2244284524552555215522552D6
:1057500025522552C552410242824242444A4804DF
:1057600000003FFC200420043FFC200027F820001C
:1057700020003FFE2200221024084FFC4008800039
:105780000108788C48504BFE4B2A7AAE127253FEB9
:105790005C0051FC510451FC5D04E10401FC010476
:1057A000101C13E01020FC2013FE102014A01B2E50
:1057B0003222D22213AE1222122213FE52022000F3
:1057C00000001FF808100A10091005A00520044069
:1057D00002400180018002400C30300EC004000005
:1057E00004400440FFFE0440024002007FFE04002B
:1057F0000840104037FC50401040104017FE100089
:10580000042004207FFE0420052002800460191873
:105810002FF6C10009400D2011102118451002007B
:105820000100010001007FFE05400930310EDFF468
:1058300010101FF0101010101FF000007FFE00006D
:1058400000200020FDFE207020A8212E42247CF89C
:105850006488A4F8248824883CF8240023FE0000EF
:105860002110211027FEF910204020A029103248D5
:105870006C46A3F820402250224C2444A140408092
:10588000020001007FFE48049EF822905460A82088
:1058900017D8200EDFF40140112021184510020016
:1058A00004000640042008101FEE62240220042099
:1058B00008A011402108210821083FF82008000015
:1058C0000820063004407FFC01003FF80200FFFE84
:1058D000040008000FF81080208040809FFE000028
:1058E00000802060180013FE04040038F3C010404C
:1058F000105E17E01040144218421042003C0000B5
:10590000101C11E01100FD00110015FE19103110DE
:10591000D130111811161212121014105810201034
:1059200008400840284C2F7028402F42F842413E42
:105930000100FFFE038005400930310EC104010063
:1059400006083808D0084A082BFE141868180828DA
:105950001428E4480C883508C408040828281010C6
:10596000110011F01220FFF81248124813F818A283
:1059700030A2D31E1C401030119010605030201007
:1059800010401040109011F8FE48108017FE1910BA
:10599000364ED884132010C8131010605180260092
:1059A000110810CC10507DFC552455FC55247D2445
:1059B00051FC182014201FFEF4204020002000205D
:1059C0002080208021F83D1047FC4924A12421FC9F
:1059D00020522092234E203028903040203000105A
:1059E000410021F8321027FC0A440244F3FC20A0B5
:1059F0002122223E24C02020298030602010000077
:105A00002040202023FE42004AFCFAA412FC22A4DB
:105A10007AA402FC022035FCC420082013FE0000FA
:105A2000204020203BFE210840887890A3FE2200E1
:105A3000FA002200220022002A003400240008007C
:105A4000010000807FFE0810062024443FFE200055
:105A500020002000200020004000400080000000C6
:105A600010000BFC4004444442844FE449244FE4BA
:105A700049244FE441045FF44104410441144008C7
:105A80001000087EFF1000207F7E55425D5241527B
:105A90007F5222523E5222103E280026FF42000032
:105AA00000001FF010101FF0101010101FF0000069
:105AB0003FF820083FF8200820083FF820080000A1
:105AC000480029FC110431FC4904890419FC280010
:105AD0004BFE8A020BFE0A020A0213FE520220004B
:105AE000100013F810101020FC40108411FE105408
:105AF000105416A41924E24440840104021400083E
:105B000001001120093009447FFE400480001FF08D
:105B100000007FFE02000440082013F03E18101021
:105B200011100D1809207FFE40048FE808200FE0B7
:105B300001003FF82108210821282110010001005F
:105B4000080008100820084009800E000800FFFE29
:105B50000A0009000880084009300A1C0C080800E7
:105B600010401A48114C215027FE7404A00023F85D
:105B7000200027FE20802190220827FC2208000018
:105B800000003DF8241024203C40248025FC2454AF
:105B90003C542494252426444484551C8A0800003F
:105BA00000003FFE200020002000200020002000F8
:105BB0002000200020002000400040008000000065
:105BC0000820083049202A201C7E7F4441C45D48BB
:105BD0005528552855105D104128414845864204F6
:105BE000100013F810107C20544054FE7D52545283
:105BF00054927CA2552212421482110416141008E9
:105C00000000F3F8920893F8920893F8900097FC3C
:105C10009404F40497FC0404040407FC0404000046
:105C200010001BFC120433FC220463FCA2042000BD
:105C300027FE240227FE2402240227FE240200005D
:105C4000080009FC08447E4408440854FE8809FC06
:105C500048844E84488448FC4884A8009FFE000085
:105C6000102010201020FC2010A810A615221A24A5
:105C70003064D028101010201040118056002000F1
:105C8000200020203E2020A040A87D26A122222006
:105C9000FC62202420082410286031802E0000009F
:105CA0000800087C7F4408443E44227C3E44224451
:105CB0003E7C0844FF440844088408940908000016
:105CC0000100011EF7D2911297D2945E97D294529E
:105CD000F7DE911287D2011201120122012A01443A
:105CE0004200223C2FA402249FA458BC2FA428A425
:105CF0002FBC4224C2245FA442244244429442085E
:105D000008881110222011103FF821083FF82108BF
:105D10003FF80100FFFE038005600910110E210409
:105D20000040F040904092509348924694449848E6
:105D3000904CF048901000200040018006001800B0
:105D400010201020142014285924512292221420AB
:105D50001024282424082410406041808600180064
:105D6000020002007FFC04000480088010803FFCD9
:105D700000800080FFFE00800080008000800080A6
:105D8000102010201020FE2010201520193C11207A
:105D90003120D12011201120112017FE50002000A9
:105DA000221021182FD0F22024BE2FC4284437A45B
:105DB00064A8A7A82490279024A824A6A5C444805A
:105DC00028003F0448243F2408243F24290C2B04A6
:105DD0000FF000801FF800807FFE0080028001002D
:105DE00010001A0022FE4222922213A22E226222C8
:105DF000A22222A2232222422042209C210820000B
:105E0000441022102F900210853E4FA420242FE42E
:105E100028942F94C8984F88489848A44AC64904A3
:105E20002100213E2122F7E42124212873A86B645C
:105E3000A522A9222122213A21242120212000204B
:105E400000003FFC2100210021003FF8200820082D
:105E500020083FF821002100210021003FFE000022
:105E600000003FFC200020002FF820003FFE25000E
:105E70002508249C24A024404520461884060000C0
:105E80000100010011201910210C410681040000BD
:105E9000010001003FFC010001000100FFFE0000C5
:105EA0001FF810081FF810081FF800003FFC200022
:105EB0002FF820003FFE249044604520861C0408F3
:105EC00010401040104013FE5A445448904010A017
:105ED00010A010A01120112011221222121E140055
:105EE000400027FC24080000880049E051201120D0
:105EF0002120E1202120212222222222241E000012
:105F0000004078404BFE48805100614052404BFCBD
:105F100048406850524842444446484241404080CC
:105F20001020102010507C8811161024FEC011186B
:105F300010605D8C501850605380B0008FFE0000E0
:105F4000200818081008FC0805FE080814881648E0
:105F500038685448960814081008100810281010C3
:105F6000112410A813FEFA0210F8108814F8180073
:105F700031FCD02011FC102013FE102050A0204036
:105F80000C80708010FE1082FD243120322058B029
:105F900054A891A4112412221422102010A0104001
:105FA00020202028202427FEFC20242427A624A407
:105FB00024A83CA8E4904792092A084A11840000CA
:105FC000204027C824B02324F918220875F4680259
:105FD000A3F8A20823F82000211020A027FE20000B
:105FE00000A0009000803FFE208020803E88228C10
:105FF0002248225022202A604492410A860600024A
:1060000000001FF01010101010101FF000007FFC97
:10601000010001001FF8010001000100FFFE000067
:1060200000783F800104FFFE0920792C0930092205
:10603000393ECB8007600D30311CC10801000000E3
:106040000DF8710811081108FD0811F830003BFC2B
:106050005440504093FC10401040104017FE100078
:10606000100013FC2040C840127C3240D240124045
:106070001FFE1000010028842892681207F000001B
:106080004040274801300524921853F054081BF66D
:1060900022102210C3F04000421041205FFE000099
:1060A0004020302820240FFE0420E420242427A6AA
:1060B0002494249424982C9234AA2AC6090210000D
:1060C00000001FF8002000C4790C0FF0092017D041
:1060D000111021082FE8410681040100050002008B
:1060E000000047F02410241007F00000E7F820809B
:1060F00027F0208020802FFC200050008FFE000021
:106100000020F9FC092449FC4924492441FC7C0075
:1061100007FE3440C47C0404040428141008000062
:106120000C0071FE10201024FD2610A430A8382089
:1061300055FE5020902010201020102010201020FC
:106140000100018079004BFE4A004C004BF04810E2
:1061500048207840488041000202020201FE00000F
:10616000008000401FFE1400940057BC5A241224E3
:106170003FA452249224252424BC482490242000A7
:106180001040104013FCFC40104017FE1410181073
:1061900037FED010111010D0109010105050202049
:1061A00000003F2021203F2021243F380020FFA075
:1061B000042424242724241C54004C0083FE0000C3
:1061C0000000204010401240824C4A744BC41644D8
:1061D000124412542248E2402242220221FE0000D0
:1061E000400023F832082208020803F8E20822409F
:1061F00022202410240C28082000580087FE0000CC
:106200000000782009200924793E47E441244124F4
:1062100079240924090C09000902090228FE10004A
:106220000020782009202924293C29E42B243D241E
:1062300005240524352CC5200502150208FE0000A2
:106240000010FE10441044107C90449E44907C90BA
:106250004490449046907C90C49007FE0400040053
:106260000100010011F811001100FFFE01002108DA
:106270002108228822482428282820083FF80000E6
:1062800008800CFC198411083290346050C093408F
:1062900014FE1102128414481050102010C0170070
:1062A00000001FF81008100810081FF8110811004E
:1062B00010801080204020204018400E80040000F4
:1062C000010001003FFC01000100FFFE02401250EE
:1062D0001A48124424464442884008401140208015
:1062E000100013DCFC44126411547D54444444CC2B
:1062F00045542A64284411542888460081FE000031
:1063000000781F801000100010001FFE1040104089
:1063100011C010601058204820404040804000408C
:10632000100011FC1504150459045104510491FC8A
:10633000110428902488258441064202840200002A
:10634000020001007FFC020007400C2010103FF803
:10635000049004800480088008841084207C40001D
:1063600000404040204037FC24440444144414447A
:1063700017FC2444E04020402040204020402040A2
:106380000100010001003FF821082108210821082F
:106390003FF8210801000110010801FC7F080000FE
:1063A000008010841FFC010400803FFE20044FF099
:1063B00000007FFE008010901888108C2288410019
:1063C000010000803FFE2204424802207FFE024876
:1063D000024C0450046008C00B441044203C4000B0
:1063E000202020202020F82023FE22222A223222D0
:1063F00063FEA222222222222222A3FE40000000CB
:10640000FF02289228922892FE92ABDAAAB6AE92A8
:10641000C2928292FE9282928292FF1282120000B7
:106420000040F840AFFCA840A840ABFCF880A88032
:10643000AFFEA908FAFE8A48044808081028201070
:1064400000407C4047FE444045F87C40104013FE2D
:106450005C885088517E51485E48E208042800104C
:106460000C0071FE112211227DFA112239FE350233
:10647000557A514A914A117A124A1202140A1804A2
:106480000E207820082408ACFF701C202A202850F9
:10649000488E0B04000009082884281447F00000E7
:1064A00010401F7E28904508BFFC01001FF8020025
:1064B0007FFE04101FFE0A10111021104050002012
:1064C00008800880109017F820906090A09021100C
:1064D000211021102210221224122812301E000036
:1064E00010001BFC22444A44FBF4124423FC4204E7
:1064F000FAF4029402943AF4C494040408141008C0
:106500000010F0D0971091109152FFD493589350EF
:10651000F59095A899289128F144914401860104A9
:1065200000103FF8021002100210021002103FF09B
:10653000041004100410041004147FFE0000000076
:1065400002001FF010101FF010101FF010101FF0AD
:1065500001200110FFFE028004400830101C60087A
:106560001000080008047EFE0424082412243424A9
:10657000582494241244104410841114120800006A
:106580000100010021042104210421043FFC210415
:10659000010021042104210421043FFC2004000007
:1065A000200027FE2400F7E4240474046DDEA544D3
:1065B000A55425CC2444254428E42B043014200879
:1065C00000003FFE20083F8820082F7E2908294828
:1065D0002F28203831282A0847885C28801000009E
:1065E00000887C8847FE448844247DFE102853FEA2
:1065F0005C2050FC518456FC5884E08400FC0084EC
:10660000200820083BC82248427E7BCAA24A224A70
:10661000FBCA2252225222522A6233AA2644000086
:1066200010A010903E9025FE499092907EFC029022
:1066300002907EFC0290029002907EFE008000801C
:1066400040202F2029500A488A865C781A20292069
:1066500029FC2D204AA8C8A449224A2248A0484023
:106660000080F88089409120A210A7EC988090804B
:1066700097F8D080A2A08290848C88849280810038
:1066800008200820FEFE1C302A6849A608203FF892
:106690000110010011F811001900270041FE00004F
:1066A0000020FE2011241124212421243DFC6524F6
:1066B000A4202524252425243D2425FC2104000094
:1066C0001020182415FE242420285DFEA420244038
:1066D00025FC268424FC248425842EFC24840000AC
:1066E00001007FFC02001FF0149012501130FFFED9
:1066F0001020FEFC10207CFC54946CCC56A4F9FEB7
:106700002080204027FEF860209823E0288833FC72
:106710006002A3FC224423FC22442244A3FC420442
:1067200020103F10211042107F7CC9547F544954DF
:1067300049547F7C491049144912491E85F20200D0
:1067400010201820102020203E20223062285226BF
:106750009424142008201420232040C0803E0000F0
:106760001020122212221222FBFE10001BFE1040EB
:106770003080D3FE1252125212521252525622023C
:1067800010041084108410841084108410841084E9
:10679000108410841084108410842084200440000D
:1067A000020001007FFE482410102FE8004008403E
:1067B00008401FFC014002400C403040C1400080B6
:1067C00010401078108811F0FC2013FE38803544FA
:1067D00056A85130967010A8132E1C2410A01040FB
:1067E0001040184817FC204020806084AFFE2080B5
:1067F000210823FC2008211020A020402020000098
:10680000080010F83C88248834882C88250EFE0067
:10681000240034FC2C842484248444FC5484880084
:1068200000200224FA248A248BFC88008FFE8840F2
:106830008880FBFC8A9402940294029402840208E9
:10684000010001001FF0111011101FF001003FF8AE
:106850002108210821083FF821080100010001005A
:10686000010000801FFE10809140522014183BEE62
:106870005224922012A022402204420441FC8000B3
:10688000010000807FFE4022091812067FF81108DF
:1068900013E814481A881108128814081FF8100801
:1068A0002040202023FCF908A890AFFEA800A9FCF6
:1068B000A924A9FCA924B9FC202021FC202023FE26
:1068C000010000803FFE2080208020803FFC21804E
:1068D00021C022A022902488248648845080808071
:1068E000100009FC0804200427C42444244427F48D
:1068F00020142FD4201420542024200420142008F5
:10690000080208021412131221D24092BF1221125F
:1069100021122512221220822082208A1F84000048
:1069200001000180F10493FE9244944898509040F5
:106930009040F0A090A081100118020C040E0804F1
:1069400010801080108015FC590452485240944029
:10695000104010A028A0251045104208840E1804ED
:106960002000203C27C0F84027FE22482A483FFE4E
:106970006248A24820402FFE20402040A7FC400053
:106980000000207C23C03C4043FE41487D4813FE6C
:1069900011487D48114813FE1040144019FC1000A6
:1069A000001001F83F0001007FFE09200920FFFED2
:1069B000092009207FFC0100010001003FFC0000CC
:1069C000010001003FFC01001FF80200FFFE04204F
:1069D00008183FEEC8240FE0082008200FE0000050
:1069E0001040104017FCF84013F8388037FE511063
:1069F00052089DFE110811F81108110811F811082C
:106A00000040FE2029FE2800FEFCAA84AAFCAA0061
:106A1000AEF8C2108220FFFE8220FE2082A000403D
:106A200000007FF840004FF040005FF8491048A098
:106A30004B604C1C48085FF0501050105FF09010F5
:106A40004080204027FE000093F8520853F82000B1
:106A500023F82020C0404FFE40404040414040804D
:106A600008200820102013FE24207C200924112453
:106A700021247D2401FC0C20F02240220022001E53
:106A800001007FFC01003FF802007FFE0C2837E682
:106A9000C42417F07C7C54547C7C14141E1E62E2C7
:106AA000F720552833245320953E11E024203F241D
:106AB0006424BF1824103F30244A248A3F06200251
:106AC00010401840107C20404BF8FA0813F82208B8
:106AD0004208FBF8004007FE1840E040004000403C
:106AE000010000841FFE112091205120552635F809
:106AF000552095202520252025A24622581E8000BD
:106B000004400440FFFE0440410031FC29080A50C3
:106B100014401040E0A020A021102218240E2804C8
:106B20000104FCC8209027FE208840887908C910FD
:106B30004A524FBC49084A947C6247FE40420000DA
:106B400004402460249025FE2490BF90A4FCA490CF
:106B5000A490A4FCA490B690C49000FE0080008095
:106B600000400C20F1FE10001084FE48100013FEBF
:106B700010207C2045FE442044207C20442000201E
:106B8000082004407FFE0820082012503CF0082016
:106B900014503EF8000029082884681407F000000B
:106BA000410031FC15440A40144070B0110E12042B
:106BB000FFFE08000FE00A20092011221622181EED
:106BC000400023FC3004200403F40004F00411E42A
:106BD00011241124112411E41524181410080000A4
:106BE00004400440044004402446275824602440C4
:106BF00024402440244027423842E042003E000026
:106C0000080208027F22082208227F224922492204
:106C100049225D222A2229224882888A0804080003
:106C20000000F9F88908A9F8A908A9F8A900A9FCA1
:106C3000AA54AC5420942124524448848914000856
:106C400001004100250025FE2A440A481440104056
:106C500020C0E0A0412042104408180E600400004B
:106C60000000FD0848CC489079FC4904490479FCAF
:106C7000480048204C947A82CA8A0A88087808001A
:106C8000044004407FFE14401FF8124826484D88F7
:106C9000314806283A1001882894281647F4000045
:106CA000040008007FFC440444044FE44844564474
:106CB0006184418442444C24402440047FFC4004CD
:106CC00008000C0008041FFE1124292446248344D4
:106CD00004C408E410B4612402040C047014000815
:106CE000084008400840084008400840084008A004
:106CF00014A0129012902108230C4206840408006C
:106D0000000008400840084008400840084008606B
:106D100014901298230C21064204FFFE000000008C
:106D2000008040802FFC310027F801003FFE221038
:106D300027E8D8846FFE408041404230441C580808
:106D4000100011F8950855085908FDF83108390860
:106D5000550855F8510891081108110817FE100040
:106D60000048FF48284828FCFE48AA48ABFEAA0075
:106D7000CEFC8284FE8482FC8284FE8482FC0084B9
:106D800020403E7E48A08410208010FEFD0012802E
:106D90001CFC152025FE242024504448548E8904D0
:106DA00010001BF8320822086208A3F8224820408D
:106DB0002248227C22402240254028C0303E00004C
:106DC000004078204BFE4A9449287A2411FC512433
:106DD0005DFC502053FE52225FFEE0200020002088
:106DE00020803EFE49209FF010101FF010101FF071
:106DF00010101FF00200FFFE0A50342ECFF40010D6
:106E0000020001007FFE4422091031081FF011101A
:106E10001FF001003FF821083FF8010001000100C8
:106E200020202222222223FEF94021202BFE362080
:106E30006A20A3FC222023FC22202220A3FE420061
:106E40000080108410841FFC090008801FFE308021
:106E50005FFC90801FFC108010801FFE100010004F
:106E600010401C44144427FC22406224A7FE2A2020
:106E700023FC222023FC2220222423FE22002200A5
:106E80007880488048FC49047A084DFE4900497CD6
:106E9000794449444954494849424A42AA7E9400A7
:106EA000010000801FFE910050885FFC12203220FC
:106EB000553098C820802FFE208040804080808000
:106EC0001040102097FE54885888FE8811543A22AA
:106ED0003422502057FE9020102010201020102027
:106EE0004080204027FE00008A105210552818C408
:106EF00020402040EFFE2040204020402040204005
:106F00007EF8224812280A28134820807FFC04209B
:106F100004200A5011087FFE010001000100010059
:106F20001010101010101010FDFE10103810351039
:106F300054905090901010101010101010501020FD
:106F4000030002007FFC040004000BF8181010205E
:106F5000302057FE902010201020102010A010404C
:106F60000040004000400044FFFE00401040084048
:106F70000C400440044000400040004001400080BC
:106F80000104FC8823FE2040204023FC40807880C0
:106F90006FFEA90029FC2A203C20282437FE00008F
:106FA00021FC210421FC2104F9FC200027FE3240B1
:106FB00063FEA25423D4224823D82C66A044404028
:106FC000110810881090FDFE102011FC14401BFECB
:106FD0003080D10013FC14201020102057FE200018
:106FE000100011101110FBFC111011101FFE1000E9
:106FF00033F8D208120813F81208120853F82208BE
:10700000204020402248234CFA4822482B5834D4B0
:1070100068E2A04027FC204020402040AFFE400016
:10702000109010903C9021FC40907C9093FE1000BA
:10703000FDFC1104110411FC1104150419FC1104C8
:107040002110211027FEF9102150204028A03110D6
:10705000E3EE2C0023F8220822082208A3F84208B5
:1070600000004080308010800FFC00800080E080B5
:10707000214021202218240C280850028FFC0000F7
:1070800010401F7E28902508458802400C30300EA5
:10709000CFF400000FF00810081008100FF00810CF
:1070A00001001FFE122092205FFC52A011403220EE
:1070B00054189BEE200027F02410441087F0041091
:1070C0001000100013FE1020FE20102014201820A5
:1070D0003020D020102010201020102050A0204060
:1070E00001000100010001000100FFFE010002801B
:1070F000028002400440042008101018200E4004B2
:1071000000001FF01010101010101FF011100104DB
:107110007FFE0380054009203118C10E01040100E3
:1071200000007FFE0200020007FC040808080C10A3
:10713000131061200040018006001800E0000000EC
:107140001080188017FC208027F86080AFFE212077
:1071500022582646395420E02158264820C00000F5
:1071600008207F300828FFFE00207F2049287F2C40
:1071700049287F1812107F90122AFFCA1206610256
:10718000091009107FFE091009107FFE41048108D3
:107190001FF01110111011101150112001000100E9
:1071A00000207E20102010403E48228445FE6402CC
:1071B000980009FC110411042104410481FC01041C
:1071C000110019201110110821FC3F0050809080FF
:1071D00010801040104010241014100C10060000F5
:1071E00008A00C9010FC374050221012100C1FF019
:1071F00010101110111011101290046008181010C6
:1072000008900C8810BE37C050409024121411080A
:107210007FFE0290049808603820CA180C0E0804FB
:107220001040184013FC28404C40884017FE1010B6
:10723000301057FE101011101110101010501020A7
:107240000040404023F820480FFE0048E3F820406B
:10725000225021E02150264C214450808FFE000016
:107260000200042008101FF800080FF00810081092
:107270000FF00000090828842896681207F0000023
:107280000020FE20442045FE7D2246244420442048
:107290007C50445046505C90E4920512050E060066
:1072A000100011F81108FD08110815F81908110847
:1072B0003108D1F810001000100017FE5000200017
:1072C00000000FF008100A10099008D00890FFFE87
:1072D000081008101010101020102050402000003E
:1072E0000820063004403FF821083FF82108210813
:1072F0003FF821080100FFFE01000100010001002C
:107300002200143E7F22492449287F3049284924FD
:107310007F220822FFA2082A082408200820002033
:107320001208111810A0FFFC124417FC1A44324432
:10733000D3FC1040104017FE104010405040204039
:10734000000079F849084908790849F849084908C6
:107350007908490849F84800480048004BFE980061
:1073600000001FF01010101010101FF0101010105F
:10737000101010101FF0000000000000FFFE0000C1
:1073800010001FFC20005FF800007FF0021012D0F8
:107390000B1004903A5012900B0A050A1886E0620E
:1073A00010001BF812082208220873F8A20822080D
:1073B000220823F82208220020002FFE20000000CF
:1073C0001208110811101BFC562453FCD22412245D
:1073D00013FC102017FE1020102010201020102069
:1073E000408020802288029094E0509051082684AA
:1073F000208024B0C4C0494041204218440E5804A3
:1074000040002E0C327022100410E4502F5E2150E8
:1074100021502950257E2A0035002880107E00004A
:107420000208F90C08900BFC7A4443FC42444244A5
:10743000FBFC4A4408400FFE0840084050402040F2
:1074400000007FFC0108110011F81100290047FE1F
:1074500081001FF0111011101FF0010801FE7E04C1
:107460000080109008980C9008A000803FFC000459
:1074700000041FFC0004000400043FFC00040000A2
:107480001020102012261124FEA810B015FE18029C
:107490003002D1FE10021002100211FE5000200036
:1074A0000100111009203FFE200440080FE00820D1
:1074B00008200FE00440044408440844103C6000E5
:1074C00004407FFE044020001BF81020884069FC27
:1074D00048A410A41124E244244428842128221022
:1074E0001000102012241124FEA810B03BFE34021C
:1074F000540251FE90021002100213FE10021000FE
:1075000000003FF802080208020802080208020808
:107510000408040808080808100820F040200000AB
:107520001020104011F81108FD48112815081910F5
:1075300031FED0821492149217F21002500A2004E5
:10754000001C7DE04404444645247CA85440118E30
:107550005D02510251DE51025D02E1FE01020000B6
:1075600010041FC41204220434146894AFD422946B
:1075700022142FD422142214220423C42E142008EF
:10758000020004001FF010101410131012501020ED
:107590001FFC04040404444444447FC40028001035
:1075A0002040104017FCF8400BFC10401FFE2088C4
:1075B0007088A9FE21482228242828083028201075
:1075C00000001FF010101FF0100410040FFC00202A
:1075D0000020FFFE082004200620042000A0004018
:1075E00000047F840804122421247FA42524042479
:1075F00004247FA40424042405840E0470142008A9
:107600000C1C71E010021242FD2411283040399CFC
:107610005504550491DC11041104110411FC1104EA
:1076200020402040207C204033F8AA08ABF8A20874
:1076300023F8204020402FFE2040204020402040C2
:10764000021041202FFC2080010003F0E21023F003
:10765000221023F0221023F0221050008FFE000091
:107660004100210029FC0A44124814C060A02110E6
:10767000260E3FFC1248124812481248FFFE000036
:107680001040184027FE50409BFC3294229463FC2B
:10769000A0002FFE200025442522250A28F82000DE
:1076A00013F81A0823F84A088BF8100013FE30105C
:1076B000501097FE101011101110111010501020C2
:1076C0001080108020807CFC4504450446047C84A6
:1076D00044444464442444047C044428401000008E
:1076E00000007BA44CA84A924B147A0C15F61004A7
:1076F0005DF85108510851F85D08E09007FE000060
:107700001000100011FE101054105410581090105A
:10771000101018102410221040104050802000003B
:1077200000803E9002A42448145008201FF8200E28
:107730004FE4882008200FE00000082004407FFC70
:1077400020803EFC28A0451085103FF80100FFFE78
:10775000002000207FFC04200220022000A0004026
:107760000024F7A898B095129314F20895EE9804A7
:10777000F3F0921093F09000F21091248FFE00002D
:107780003E904460282C17D0600E8FE408200FE054
:107790000440FFFE00000FC008420842103E600097
:1077A00000FEFE44024442482448145008480C4459
:1077B000144212422242405480480040004000409F
:1077C000200021F8210821F8FD0821F8200027FEDB
:1077D000202021203D3CE120012002A0047E080061
:1077E00008180C7C1BA0122022206220A3FE22205D
:1077F0002220222022102252228A23462222000006
:10780000408027FC211000A087FC5444544417FCFE
:10781000244425F42514C5F44404440444144408C1
:10782000404020403040204007FC0444E44427FC12
:1078300024442444244427FC240450008FFE0000E8
:1078400000400E6070401040107EFE881088108846
:1078500011887E504250422042207E50018E060404
:10786000104010403F7E28904508850801003FF8F1
:10787000210821083FF82108210821083FF82008A5
:10788000044084404844304452488A500A401CA076
:1078900028A048A0891009100A101208540E2804C4
:1078A0000080208011F8111082A0544050B0134E77
:1078B0002C4023FCE04022502248244429442080CC
:1078C0007EFC224412240A14122429440C801FFC3A
:1078D00010803FFC50801FFC108010801FFE1000A5
:1078E0002040302023FE2108F8902BFE2A222A2255
:1078F0004AFA722212FA2A8A2EFA4A8A8202020668
:107900001000103C13E0FA20122012201BFE12205F
:107910003220D21012101210128A134A522620025C
:10792000010000803FFE2000203827C02440244072
:1079300027FE24402440242045124E4A844600005D
:107940000020112011201124FD3E11E417241124E0
:107950001124113411281D203102C10200FE000043
:10796000044004407FFE05403FFC042002403FFEEF
:1079700021045FF811101110111011701120010075
:1079800010401F7E28A045109FF800881FF8108027
:1079900010801FFC018402840C9470880080008099
:1079A000020001007FFE081004207FFE41048108D0
:1079B0001FF01110111011101150112001000100C1
:1079C0000810042002407FFC010401043FFC210058
:1079D00021003FFE030205020914110821004100A5
:1079E00002104110212027F8004807F8E44027FC46
:1079F00020C4214422442C54204850008FFE000013
:107A00000080204027FC42084910F7FE1444204023
:107A100043F8F248024802481A48E2580040004041
:107A200008007EFE08103E20227C3E4422543E5434
:107A300022543E542254FF2824242246428200002D
:107A40001040102013FEFE2012201220163E1A2095
:107A50003220D2FC128412841484148458FC2084B2
:107A60000040204017FC108003F8820853F81208E9
:107A700013F8220823F8E2082FFE21102208240818
:107A800000A0FCA013FC12A422A422A47BFC6AA4E4
:107A9000AAA42AA42FFE2800389029082204040250
:107AA0000100010001F8010001101FF81010101072
:107AB00010101FF0101001102888244444440000C6
:107AC0000240024002401FF8124812481FF81248B4
:107AD000124812487FFE042006100C18180C2008CB
:107AE0001040FE2011FE7D041000FEFC00207C20D2
:107AF00044A07CBC44A07CA045604520561E4800A4
:107B00001080108010807DF010901D90F0D0512AD0
:107B1000120A550621001FF8010001007FFE000037
:107B20000100010001003FF8210821083FF8210869
:107B3000210821083FF821080102010200FE00008F
:107B400008000C001BFE122222227222A22223FE17
:107B5000222222222222222223FE220220000000B0
:107B6000100010001FFC200420045FF49114111475
:107B70001FF4111411141FF4101400040028001035
:107B8000010000803FFE20802080208020FC20809B
:107B9000208027F824082408440847F884080000B7
:107BA0002080204027FE3420AC20A420A43E2420A6
:107BB000242025FC250425042904290431FC000087
:107BC000081004207FFE02801FF8148818781FF820
:107BD00010081FF80100FFFE02C00C30300EC00478
:107BE0004080204027FE040480004BFC48401040A9
:107BF0001240227CE240254024C02860301E200034
:107C00007F78414841487F484048528652007F7CF7
:107C1000524452287FA840105228A146C184000037
:107C20000000FDFE1122112221FE3D2265FEA5026B
:107C3000257A254A254A3E7A22022402040A0804AB
:107C4000000003FC7C0444044414442444244444BD
:107C500044847D04440400040004003C0008000047
:107C600000507E484A487EFE4A904B907EFE4290ED
:107C70005E9052FE5E90429042904AFE84800000E8
:107C8000400027FC344425F40444144417F424042D
:107C900025F4E514251425F429146804301420086B
:107CA00000003FF8000800080008002800C803088A
:107CB0000C08380810080008000800380010000000
:107CC00010401040107CFC4013F8120817F81A08F6
:107CD00033F8D040104017FE104010405040204074
:107CE00000001FF01010101010101FF011100100F4
:107CF0003FFC210421042104210421142108010056
:107D00001040104020403EFE20827D0252029042F0
:107D1000FE221012101212021402180A100400009F
:107D200043FC2244324423F40244E3F4220422F4C8
:107D3000229422942AF4329424040404081410088F
:107D400000207D20452045FC452046207C2013FE58
:107D500050205C205050505050885C8CE10602044A
:107D600004201C18626C03801D60E3DE0C2434C008
:107D700003000DFC32080C10326001801E00E00090
:107D80000048F94827FE214821482178790069FEFA
:107D9000A8202BFE286028B039282A24242200207D
:107DA0001048114813FE7D4855485578550055FC3C
:107DB0007C2013FE14701EA8E4A4012602240420D3
:107DC00040402240324023F804400440E84027FC71
:107DD000204020A02110220C240850008FFE00001B
:107DE000024882486FFE42480248E278220023FEA1
:107DF000204027FE20E02950324824460844004015
:107E00001FF00420024001803E7C144808301448D2
:107E10007FFE40020FF008100F1008F008107FFEE0
:107E200000007FFE010001000100010001000100CF
:107E30000100010001000100010005000200000036
:107E400000007C0447FE44207C2044204420442041
:107E50007C204420442044207C20442040A000403A
:107E600000007FFE4420442044204420442044203D
:107E700044207C2044200020002000A0004000007E
:107E80001000100021FE3E2040207C209020102079
:107E9000FE201020102012201420182010A00040D6
:107EA000000003FEFC40108011FC11041124112479
:107EB0001124112411241124105051882606000287
:107EC000000007E0052024A42664252427E42004DC
:107ED0003E7C02407E7C12441244224422444244AE
:107EE0002040202023FE3A04400079FCA0202020DE
:107EF000FD20213C212025202AA03260243E0000C4
:107F0000020001003FFE200440081FF001001100A4
:107F1000110011F0110029002500430081FC000030
:107F20004000200013FE00100010F0101010101080
:107F30001010101010101210141018501020000003
:107F4000001003F83D00010001003FF801000100AE
:107F5000FFFE01000320061008081FFC08080000AF
:107F6000020002007FFC04000880088010801FF8D7
:107F7000008008A00C901888108C2284018000805A
:107F8000040004000BF014206240018003800C60A8
:107F9000321EC10400C008800600018000E00040DD
:107FA0000440FFFE04403FF801007FFE01001FF087
:107FB00011101FF011101FF001003FF80100FFFE2B
:107FC00021102FFE211033F8A840AFFEA04023F867
:107FD000224823F8224823F8204027FC20402FFE87
:107FE000002000207E20002000FCFF24102410240C
:107FF000242422244F44FA4440840114020800003F
:108000001040104013FEFC40108030A0392055FC79
:1080100050209120112812241426102210A0104064
:1080200010001FFE140235FA24026402A5FA250A84
:10803000250A250A25FA250A2402240A2404000018
:10804000200023FC220433FCAA04AA04A2F42294F4
:108050002294229422F422042204221422080000F2
:10806000008080806FFE21001140124024482FFCC8
:108070002040C2504348424C44464844514040800E
:10808000400027FC240404048DF44C0455F415141A
:1080900015142514E5F424042404240424142408C9
:1080A0001100321C47C4444447C44444444477DC70
:1080B000000008400840084010441044203C4000A4
:1080C000101011101090FC90101015101890309096
:1080D000D01E17F01010101010101010501020109B
:1080E0000040084004400640124008400C40044054
:1080F000007EFFC0004000400040004000400040C3
:10810000004078404BFC5040604057FE484048409B
:108110004A406A7852404640454048C0503E400080
:1081200000007FFE000000001FF010101010101063
:108130001FF00020103008200440FFFE0000000067
:10814000000047FC200023F002100210E3F02000A2
:1081500022102110212027FC200050008FFE00005B
:10816000010000801FFE100097FC500053F8120819
:10817000320853F890001208211020A05FFE800002
:108180000800083E7EA209240A28FFB0082810240F
:108190003F226122BF22213A21243F2021200020BA
:1081A00008000FFC0888FF482C504A3088CE2B046A
:1081B0001FF010101FF010101FF010101FF0101003
:1081C00001003FFC01001FF801007FFE00001FF0CE
:1081D0001110FFFE111010901FFE00100050002023
:1081E0001020502051FC7C2053FE9002152418A032
:1081F0003220D12017FE1040108811041202140200
:10820000004088404840304033FC4A448A441A4485
:108210001BFC2A4448508848087C17C4520420009C
:108220000040404033FC204007FE0104E4A822A0A7
:10823000222027FE20202050288831042206040412
:108240001040104013FA1044FC4817FE102010C0D4
:1082500011FC170411041DFCE104410401FC01049C
:10826000004078444BF4484848507FFE48404880DE
:1082700079F84B084D0849F87908490841F8010890
:1082800000207C2445FE4424542857FE54205440AA
:1082900054FC5584568410FC2884248446FC848431
:1082A00000001040104010401040FE4010403BFCC9
:1082B00034405440504090401040104017FE100091
:1082C000202020103BFE224842487BFEA248227814
:1082D000FA0022FC224422282A103410242808C63E
:1082E00000203C20242024203C2025FC2420242085
:1082F0003C20242024202420442057FE8800000015
:10830000010000803FFE222022202FFC222023E0BB
:10831000200027F82210212020C04130460E98046A
:108320004080204027FE0490949057FC549024F005
:10833000240025F8C51048A0484050B0630E4C04F6
:1083400010401020101010FEFE822482248244FE71
:10835000448234800880148025004100820004009B
:108360004020212421240124FDFC08008BFE48200C
:1083700053FE525212521E52E2520252020A02049A
:10838000200023FE20003E0050F89088FE881088D0
:1083900010F81008190424882488405083FE000037
:1083A000208023383A28422843A87A46A200227C1B
:1083B000FBC4222822A823102E28324E228400003B
:1083C00006F83888208820883C88210E22003DFC51
:1083D000210820902C503020E0502088230E2C04BF
:1083E0000400440E65705540564044407F7E4C4822
:1083F000564855486448448844887F080208000865
:1084000020002778444844489748F4462480447C18
:10841000F744042404283710CC28044404840400BE
:10842000214021B0212023FEFA2026202BFE2220ED
:10843000222023FE3A20E220422003FE0200000018
:1084400010400C6004801FF010101010101010105D
:108450001FF004400440044408440844103C200039
:108460000040FC4088409040A040904088408840B8
:1084700088A0A8A0911081108208840698040000AA
:10848000001000107C10041005FE44102410191078
:10849000089014D024902210421080100050002028
:1084A000242022302FA02020277EF54427A4202836
:1084B0002FA821283A90E7105A2802460A8405007E
:1084C00000400040F8408FFC88408A488A488A482B
:1084D0008A48FBF88A48804000420042003E000083
:1084E00001087C9047FE445045FC7D54119C11745A
:1084F0005D0451FC500851FE5C88E08800280010A3
:1085000010400860FF4000407EFE42887F8800885F
:108510007E5004500F20F820085008882B0E1004BD
:1085200011FE10201040FEFC1084548454A454A466
:108530007CA410A410A4123014481986160200005E
:1085400000007FFC410441045FF4410449244924B4
:1085500049244FE44104411441F440047FFC4004A9
:108560001020102020203DFC40207C20912411244C
:10857000FD2411FC1020122014221822101E0000CD
:1085800000FC3F80208020803FFE2080208027F854
:10859000240827F8240827F84408440847F88408E2
:1085A000403C27C0244007FC044005F8E50825F8B6
:1085B000250825F8290829F8310850008FFE000009
:1085C00027BE20A22524FB18231824A428C237FC88
:1085D0006084A4A82328219022A82446B9844000BE
:1085E000008000F8F10893109CA0904092C0917E0A
:1085F0009686F10C92D884B00060018006001800C5
:10860000010001F8020804100B2010C003000C80C8
:1086100071FE02040D083090006001800E007000B1
:10862000010001007FFE028002400420081C302867
:10863000DFFE0820042006200420002000A00040C7
:10864000200021F021102110F910221E244020408A
:108650002FFE20E03950E2484446084400400040E4
:10866000100020F87C8844887C8845067E204420C1
:10867000FDFE0C70147014A82526462494200820B2
:1086800007C00440044004400840083C3100010099
:108690007FFC038005400930310EC1040100000059
:1086A00000007CF04490449044907D10110E1240E4
:1086B000584057FE50E055505A4EE44408400040A0
:1086C000084010203C2025FE35042E482440FC485C
:1086D000245C34602C40244024444446543C8800AC
:1086E00000043E0422242224222423A44824082413
:1086F000FFA41C242A2429044904882408140808F7
:108700002040204027FE3080A9F8AA20A7FE28009C
:1087100021F8210821F8210821F821082128211019
:10872000004078404BFC508049F84B086DF85108E8
:1087300041F84108411801007FFC01000100FFFEE3
:10874000201020D02718F914A910AFFEA910A954A1
:10875000F994A318291025323D52C58A020400005D
:10876000201020D027142114A910AFFEA914A95657
:10877000A994AB18AD10B928C948010A070A020428
:1087800008101820ECFC2AC428A4FEA4288C2880F9
:108790003AFE6402AC0235FA2302A302410A000445
:1087A000102019A8162422243FFE6220A22422A60B
:1087B000232C26282A102230224A2E8A2404000044
:1087C000100008FE7F9051201EFE228254820C92DF
:1087D00012923E92E29222AA22243E42218200007C
:1087E000412021203120222402260628EA3022605E
:1087F00022A02220222022202A223222221E000011
:10880000200030D023902094F8942FFE2890489494
:1088100050D45198529030A828CA4E868902000040
:1088200000003FFC0240224812480A500A60024001
:108830007FFE0000090828842816681207F000004F
:1088400000003FFE2000200027F0241024102410F8
:1088500024102450242044044404840483FC000095
:10886000200023FE2200FA0022F822482A4832483B
:108870006248A268245024402442A842503E00008E
:1088800047F8240827F8040807F80200E3FC2484CA
:108890002CC4252427F42004200C50008FFE000057
:1088A000778054BE54A277A400287F300028FFA40C
:1088B00010221F22013A012401200520022000205D
:1088C0002070239820943C9047FE4890A09020D49C
:1088D00021942298209020AA28CA328621020000E2
:1088E0001FF81088108817F81088114812281FF8F0
:1088F00000000100288828844816481407F000006A
:1089000000007FFE020004003FFC24442444244471
:1089100024442444244424442444245424080000AB
:108920000440044004400440044004400440044027
:10893000044004400840084210421042203E4000DB
:1089400000007FFE081008100FF0081008100FF04C
:108950000810081008FEFF90001000100010001012
:108960000400060008000FFE11042088448006A0C1
:1089700004900888108C20884080008002800100CC
:10898000200023FE21083F0845F84908910811F806
:108990001108110E13F81408180810080008000038
:1089A00040002FFE2210021093F05210521023F0BC
:1089B00022102210CFFE4010401040104010000046
:1089C000000000103FF80000000000000000000060
:1089D00000000000000000047FFE00000000000016
:1089E00000280024FFFE00203FA000207FE00020A0
:1089F0003FA020A024A024A024920A12118A6086FD
:108A000002002240223022107FFE2400040007E0F2
:108A10000C200A200A20114020804160861C180882
:108A20003FFC244424443FFC000020041844084434
:108A3000784408440844084408440A040C1408080C
:108A400020803EFE28A0451092A0109010FE2F809E
:108A50006084A0882050206021A22E12200A2006C7
:108A600010801CD01898109030FE3780509090984D
:108A7000109010B0106010621192160A10060000DB
:108A8000003001F87E000400030002107FF800208F
:108A900000400180060008003000580087FE0000FA
:108AA000100009FC080422C422A424F42F84349466
:108AB00024A424C427542454243424142004200C33
:108AC00020401040104000408BFC48405040104077
:108AD00017FE2040E08020802108220427FC20048B
:108AE00000200020F820202021FC20202020F82039
:108AF00023FE2040204020903908C3FC01040000E0
:108B00000440FFFE0440440033F824908FFE51C01F
:108B100052B01C8EE7FC248827F8248827F8240804
:108B2000100011F011107D10551055105590555032
:108B3000557055505D10111211121212120E1400C0
:108B400000F83F00091005247FFE03400D20311876
:108B5000DFFE111011101FF0111011101FF0101076
:108B60000E00F1FE52223422FF3238AA54A692227D
:108B7000FE6692AA9332FE2292229222FEAA00441C
:108B80001008148813087ABE10083A9C512A92885B
:108B90001108FFFE0100028004401830601C00082C
:108BA00001F0FD101110111021103D90655065501D
:108BB000A51025103D10251222120212040E0800E5
:108BC000200020F83C88208840887C88A0C820A805
:108BD000FCA82088208A210A290A320A24060000DB
:108BE00040407E40807E7E845348FE284A107F2885
:108BF000034604401F8002200FF0011009201310CB
:108C000000000FE00820082008200A20092008A002
:108C100008A00820082208221022201E4000000080
:108C2000100013FE1020144059FC510451249124CB
:108C300011241124192425542448408C810406044D
:108C400000783F80200020003FF0281028102420CA
:108C5000242022402180218042604C1CB00800006A
:108C6000000843FC2200320023F80208E3082290A7
:108C70002250242024502888230450008FFC000018
:108C800004200420FFFE0460400031F891086108D0
:108C9000490809381110E1002104210420FC2000BA
:108CA00000007C3C45E05500550055FC5588554872
:108CB0005548555055202A202A50448889061204C8
:108CC000000048FC288410841884288444840C8480
:108CD000149424884480848204820882287E1000B0
:108CE0000000201C21E03F004500490081FC118468
:108CF000114811481130112016501A8E1504000029
:108D0000403C27C020800840884057FC5008101085
:108D100020202040E08021002600290020FE2000A5
:108D200000801060102017FE1080FC80108010FC66
:108D3000108416841884E1044104020404280810F5
:108D400004200420FFFE042005200080FFFE040014
:108D5000040007F0041008100810101020A0404074
:108D6000020001000080FFFE0200020003F002107A
:108D7000041004100810081010102090C0600000AB
:108D800000403C20241027FE3C402440247C244406
:108D90003C442444248444844484550489140208B3
:108DA000010000803FFC20043FFC208020403FFE6B
:108DB0002200220023F8220844084408885010208A
:108DC00000807C40484053FE50806080508048F8CE
:108DD00049084908690852084208440848284010D0
:108DE00010401030102011FEFC402440247C24440C
:108DF0004844284418841484250442288410000020
:108E000008800C60182417FE20805080908410FE8B
:108E100010841104110412041244142818100000C4
:108E200040802060304027FE00400040F07C10442D
:108E300010841084108415041904123804100000E2
:108E400000402030302027FE4840F040107C204475
:108E50004044F884008400843904C21404080000EB
:108E6000104008600840FEFE208420843D442648CF
:108E700024282430241024304448448E95040800CB
:108E800004400440FFFE044004407C7C0440044055
:108E90007C7C04400440FC7E0440044004400440C8
:108EA0000440044004407C7E0440044004407C7C38
:108EB000044004400440FC7E04400440044004405C
:108EC00001200120F120973E91209120973C912094
:108ED0009120F1209F3E81200120012001200120CE
:108EE0000000FFC0004000480050006000600050DB
:108EF00000480040002000220012000A0006000086
:108F000000003DFC252425243D24252425FC2504A2
:108F10003D002500250025004502550288FE000081
:108F200000007FFE424042405E7C424042405E7C08
:108F3000424042407E7C4240424042407FFE000030
:108F40004120212031202F3E01200120F73E212009
:108F5000212021202F3E21202920312021200120E5
:108F60000040F05090489048904097FE90409040CC
:108F700090A0F0A0912001100218040E0804000037
:108F800000203C2027FE24203C2025FC25242524ED
:108F90003D242524252425344528542088200020DC
:108FA000010000803FFE2100292029102FFC210014
:108FB00021F82210231024A0484050B0A30E0C0426
:108FC00041202120212007F88928492857F8152019
:108FD0002520E7FC212422242224242C28202020C0
:108FE00002403FF802483FF822403FFE0442084A50
:108FF0001FF4681009100910091002C00C38301055
:1090000004400440FFFE0440044008200C100808FF
:1090100017E62224422004200420082010A020402B
:109020000020FE1028902888FE88AB06AA04AEF81F
:10903000C2488248FE4882888288FF288210000049
:1090400000200120F9A089108A188A0E8C048BF860
:109050008888F88888880108010802080428081010
:1090600010001FFC20005FF880007FF0021011103C
:1090700010903F50C9100908110A110A6506020232
:1090800008800C800840102010302018400E9FE40B
:109090000420042004200420082010A020404000C8
:1090A0002020212021A041104910F208140623F0AD
:1090B000F890409000901910E110421004500820E0
:1090C00010801060104017FE1108FF081108109062
:1090D000109016601860E0604090010802060C04D1
:1090E000081008107EFE18301C582A944B12881065
:1090F0000100091809A0124004200810300EC00415
:1091000001202120112011108210520854061BF05A
:109110002090E09020902110211022102450202037
:1091200010101098949054905908FD08320637FC9E
:1091300058885488508890881108110812501420BB
:10914000010001007FFE02800440082010103FFE55
:10915000D11411101FF01110111011101FF0101068
:1091600009300DA0092012101208240E6804B7F867
:109170002088208820882108210822382C1000000F
:1091800004200420081010083FF6C21004100850F4
:1091900010206100088848A44826883407E00000B1
:1091A000204023F820403150AFFEA910A00023F842
:1091B000220822482248224820B0230C2C04000018
:1091C0002108111009207FFC05400930310EC444EC
:1091D0003FF804400440FFFE000008200818100873
:1091E0000100010001083FFC010001103FF80100EF
:1091F00001000104FFFE0100010001000100010067
:10920000080808087F080808087EFF88080808483A
:1092100008287F28080808080F0878282010000070
:10922000200023F82208FA08222833286AA86A486E
:109230006248A2A8231A240A240628062002200035
:10924000108010F810887D5056205450558E5624AA
:109250007DFC102015FC1E20F7FE40200020002081
:10926000208020FC2088A988AA50AC20A8DCAB482C
:10927000A840ABFCB840EBFC804007FE004000403B
:10928000208020803DF8419042607890A34E20409D
:10929000FBF8204023F820402BFC304020400040C9
:1092A00000001FF810081048146812481148108870
:1092B00010881148126A242A2826400680020000DD
:1092C000010000801FFE100097F85408552814A8CC
:1092D00034485448A4A829282A2A480A5006A0023B
:1092E000104010FC108815505A2050D853261DFCF1
:1092F000102011FC282027FE402040208020002044
:10930000020043F0252020C00120069CE08027F0C9
:10931000208027F020802FF8208050808FFC0000D4
:10932000000047F82008290809100910111013FC43
:109330002104E0042FF4200420042004202820101D
:109340002040307C248842485230E04826A642F82B
:10935000FA2002F802203BFCE220052008FE000073
:10936000800043F8620842080328E2A82248224805
:1093700022A822A8230A2A0A340A24060802000086
:1093800001007FFC01003FF801000200FFFE042005
:1093900009103FEEC10401003FF801000100010087
:1093A00000001FF0101010101FD0105014901290D9
:1093B000111012902448286A500A400680020000CA
:1093C0000890089017FC1094309437FC54909490B7
:1093D00017FE10921092111A11141210121014107C
:1093E00000007FFC0080018003200D18190C61042F
:1093F00001001FF01010101010101FF010100000CE
:109400000100010001003FFC0100010001007FFE9E
:10941000010002800240042008301018200E400491
:109420000A20FFB008207F20497E7F4449A47F287E
:1094300049280428FF9010101F2821C62504420047
:1094400000403C40244027FC3C402440244027FE70
:109450003C40244024A024A0451055088A0604045A
:10946000100C20F05702555455545500777C550880
:109470005510571075FE14102410241044508420E9
:1094800020402040204023FCF8402040284037FE68
:109490006040A04020A020A021102108A20E4C0472
:1094A00010A010A013FC10A4FCA413FC1AA012A07E
:1094B00033FED0A210A2112A112412205420202001
:1094C000100011FEFE0020FC2084508450FCFE00A1
:1094D00011FE11221DFEF122112211FE11021000B7
:1094E000200023FE2000F9FCA904A904A9FCA8007F
:1094F000ABFEAA22ABFEBA22222223FE22022000C9
:1095000020003FF84000BFE000007FF0001009108D
:109510003FD009503FD029103FEA092A1166610265
:1095200020403F7E485044888910081017FE1010D4
:1095300032105110919010901010101010501020F7
:10954000108018D0108C108820802FFC6080A080A4
:1095500020802140212022302218240E28040000DF
:10956000107C1FC01488324C225067FCA0082030A9
:1095700020402FFE2040204020402140208000003D
:109580003CFC2484248424943C88248024FC3CC413
:1095900024C424A824A8249044A854CE888400007D
:1095A000203C17C0100804888A50480053F010204F
:1095B00020402FFEE04020402040204021402080DD
:1095C0002040102013FE00008908489050A017FE8C
:1095D000200023F8E2082208220823F822080000CD
:1095E000200013FE1000FDFC0504090411FC3000EE
:1095F0005BFE9622122213FE1222122213FE120288
:10960000409030D02094FD140B7E0D1011103510B9
:10961000D51019281528132811441146118411005A
:10962000044004407FF8044804483FF8244824409C
:109630003FFC0444044408540848104020404000C3
:10964000012001107FFE01001FF8110811081FF80A
:10965000110811081FF8110811081108112810101D
:10966000100013FC1040FC40104014401BFE306002
:10967000D06010A010A0112011221222541E200030
:10968000102010281024FFFE202029FC4924FD244E
:1096900009FC09243D24C9FC092409240924092CB6
:1096A0001080184017FE348824C86488A57E2508D9
:1096B00027482528252825082908292831100000B1
:1096C00008200C10384CC488030006C01830EFEE98
:1096D000010001000FE0110809100920FFFE000041
:1096E00004201818666401800660781E00680F80E8
:1096F00008000FFC0840104010402040C0400040CF
:1097000000203C28242427FE3C2025FC252425FC81
:109710003D24252425FC2524252445245534892849
:10972000004078204BFE4A447A644A444AFE4B4447
:109730004A647A544A544A444A444A44AA5494488B
:10974000010000803FFE24102610241025FE2C105E
:109750003510249024D024904410441084500420C8
:10976000010000803FFE241027FE2C9034902450EE
:1097700024A02FFC29442AA4288449444A34880878
:109780000420042004207FA004200430FFAC042621
:10979000242427A02420242054204C2087FE0000CD
:1097A00000027FC200123F92209220923F9200124C
:1097B0007FD244527FD2445244427FCA4044000088
:1097C000FFFE04407FFC44447FFC12002BFC4C0055
:1097D0009BF8324853F8910013FC150810F0170E4F
:1097E0000010F8108BF48814AFFEA890A890AA90EF
:1097F000AAF0AA90AA88228A53EA4E06880200009C
:1098000008000FFC10002FF848080FF808080FF8A0
:10981000040007F80C10126021800660181E600416
:10982000105018481FFC104027F8244877F8A44827
:1098300027F8244820102FFE21102110205020202E
:1098400008100C101010101027FE30105410921039
:109850001110119011101010101010501020000055
:10986000010002001FF010101FF010001FF0101078
:109870001FF001000100FFFE0100010001000100D6
:10988000044006200C18180C202448300420044002
:10989000024001800180024004201818200EC004FC
:1098A00001003DFE250027FC3D0425FC250425FC88
:1098B0003C8024FC2488255026204450548E8B0460
:1098C000040007E0082010403FF050101010111065
:1098D000111011101110129002400430181860106D
:1098E000020001007FFE4004BFF800001FF01010CE
:1098F0001FF000003FF821083FF821083FF820083A
:10990000004040403040204000400060F050104C8B
:1099100010481040104012401440184010400040C1
:109920000108790849084A0852FE660852084A8820
:109930004A484A486A0852084208420842284210E7
:1099400010001000100011FCFE0412042204240474
:1099500044FC240418040804140423FC420480007A
:109960002050304827FC40404BF8F24823F842484A
:10997000FBF8024800101BFEE09000900050002011
:1099800001080188F108920892FE96089A089288C8
:109990009248F268924882080208020802280210DF
:1099A00001200FFCF12097F8940897F8940897F895
:1099B000F20097FC8E44144404A4051407F4000C30
:1099C000000407FEF08093F892089388927892083A
:1099D000F3F89024007E07A8003C00600192060E78
:1099E0004080304027FE00400048F088111013F0FE
:1099F000102410481190163018C8110606040000F3
:109A0000004000607C40044004FE04887D88428859
:109A100040504050442048605090630E4C04000079
:109A2000200027BE2488FCA827A874A86CBEA7889D
:109A3000A4182518249825A826AA244A218620009F
:109A4000100011FE20203C20403E7D20912011205E
:109A5000FDFE10021002100210021402180A100477
:109A6000082004487FFC010001103FF801000104B8
:109A7000FFFE00003FF8244824482448FFFE000071
:109A800040002F7C291009108F504950597E1F101B
:109A900028102A28C9284B484C8A490A460E00003B
:109AA00000003FFC0100010001000100FFFE010079
:109AB000010001000100010001000100010000009F
:109AC0000820082008200820FFFE08200820082081
:109AD00008200FE008200820082008200FE00820B8
:109AE000100011FC1020FC20102030203BFE342000
:109AF00054205020902010201020102010201020E2
:109B00001084108410841084FDFE10843884348402
:109B100054FC508490841084108410FC1084100035
:109B200020403F7E2850448885083FFC010001000A
:109B30000100FFFE01000100010001000100010021
:109B400000003C0025FC242024203C20242027FE6B
:109B50003C202420242024204420442054208820F9
:109B60000800080008FE7E1008100810FF1008FE0C
:109B700048104F10481048104810B8008FFE0000E1
:109B8000005000483FFC20403F4820482F3029200B
:109B90004F32404A800609082884281667F00000E2
:109BA0000C08F1FC10201420FE20302030205BFE39
:109BB0005420902010201020102010201020102061
:109BC00000407C6004400440FEFE24883D882688D6
:109BD0003C50245027203C30E458048E07040400F5
:109BE0001040007C7EC82530FE4801867CF8442069
:109BF0007DFC44007DFC1124FD24115410881306C3
:109C000000003FFC200420442864244422842104D2
:109C100022C42464283430142004201420080000B6
:109C200000047F04412463245524552449244924F5
:109C3000552455246324412441044714420800005C
:109C4000200021FE3F02210A418A7D52A1222122C9
:109C5000FD52214A218A210229023102210A0104EE
:109C60002000300020FE3F10481088107F100810A0
:109C700049104910491049104F1078FE00000000AB
:109C800000003C0027FE24203C2024202420242007
:109C90003C20242024204420442057FE880000003B
:109CA000100013FE2202220A4A8AFA4A12322212B3
:109CB0004232FA4A028A030A1A02E202020A020441
:109CC0000100210821083FF800003FF820282C2837
:109CD00022482188224824282828200820282010CB
:109CE0004120212027FC012091205FFC51202210DF
:109CF00027E84A2ED3E442004208420841F8000017
:109D00001000100013FCFC4010403040384034403C
:109D10005440504090401040104017FE100010007A
:109D200010401F7E289045087FFE042007E00000B9
:109D30003FFC200427E4242427E4200420142008E6
:109D400001001FF010101FF010101FF0111002047E
:109D5000FFFE08201110210EDFF4010001000100B8
:109D600002000100FFFE00000FE008200FE00000ED
:109D70007FFC40044FE4482448244FE4401440084A
:109D80000100FFFE10101FF000007FFC50145FF474
:109D900000001FF010101FF010101FF010101030F6
:109DA0000820043002407FFC010001001FF8010080
:109DB0000100FFFE0000289024484666444400004D
:109DC00011041088109093FE54205820FDFC302080
:109DD000382057FE500052A49252125214521000D2
:109DE0001040102013FEFC0011F8150819F830007F
:109DF000D3FC120412F4129412F412045214220826
:109E0000204020203BFC200041F87908A1F82000E8
:109E1000FBFC220422F4229422F42A0432142208A5
:109E20000C40702013FE1000FEF8108838F8340043
:109E300053FE520292F2129212F21202120A12040B
:109E40001100190011001FFC210041000100FFFE5C
:109E500000001FF01010101010101FF01010000064
:109E600000007FFC00101F9010901F9010900004C5
:109E7000FFFE00101F9010901F90109000500020C7
:109E800000207F2002407A7E4A847B280220FFA0A7
:109E900002207A204A204A507A48028C0B06040499
:109EA0002200217E24022482FCFA258A2E5234725A
:109EB000648EA7FA248A248A24FA2402A40A440479
:109EC00002000240022002007FFC02100218011072
:109ED000012000C0008003400C247014000C00001E
:109EE0000820084018F824C822A84088FEA800903E
:109EF00000FC7C04440445F444047C04441400083D
:109F00000080788048F849887A884850482048502E
:109F1000788E4B044DF8490849084908A9F891087A
:109F2000008000401FFE1200920053FC54001800F5
:109F300033F05020904010801102220223FE400096
:109F4000080404047F8448A43F2408243F240824F0
:109F50007FA400243F24210421043F142108000091
:109F600004400440FFFE044007C001001FF0111030
:109F700011101FF00100FFFE0100010001000100AF
:109F80000440FFFE04401FF010101FF010101FF0DF
:109F900008000FFC11043284D4441FE4101400089C
:109FA0001080108011F8FD0812903450382054D8D9
:109FB000570691F8110811081108110811F8110835
:109FC0001020102010507C505488550656FA54002A
:109FD0007C0011F8190815081F08E5F801080000B1
:109FE000200017FC020443E444444A84410446C46C
:109FF000783447C44444444447C4400440144008AF
:10A0000000007BFC480051F8510861F850004FFEF9
:10A010004D126CA255FA444244424442444A44041C
:10A020001080108020FC3D0441887E50902010500C
:10A03000FC8E130411F811081508190811F8000016
:10A04000010001000280024004200918110E610481
:10A0500001000100010001000100010001000000F9
:10A060000400040007F00C2012206240018006600A
:10A07000181EEFF408100810081008100FF0000068
:10A080001040104020A020904908F20E15F4200046
:10A090004000F9F8010801081908E10801F800007A
:10A0A000100011F81108FD0811F81108390835F8E9
:10A0B0005184514C913011101148118E110410002F
:10A0C00000007DFC4504450445FC45047D0411FC6D
:10A0D00051205D245118511051085D48E18601045A
:10A0E00010881088FE8810887DFE10881088FC88F3
:10A0F00013FE38883488568894881108110812088D
:10A1000000007FFE01001FF811081FF81108110858
:10A110001FF809000500020005801860E01E000815
:10A12000010000803FFE20802FF820883FFE20881D
:10A1300020882FF82088214042204410880C1008E5
:10A1400004207FFC01001FF80100FFFE44223FFCB9
:10A1500001003FFC0100FFFE02800460181C600843
:10A16000200027FE202023FEFA22222223FE222284
:10A17000222223FE3D20E0A0006000D0030E0C044C
:10A180000020FE20442044247CA644A444A87D2032
:10A19000442044204E50F4480448048604840500BA
:10A1A000200023FE2020FC2021FC712469FCA9242E
:10A1B000A1FC2220212020C020C023302C0E20040E
:10A1C00000003FFC0100010001000100010001004E
:10A1D00001000100010001000100FFFE000000007D
:10A1E000010001800100FD0013FE13081508190885
:10A1F0001090149018602060C190060E3804000082
:10A20000002000207F2008200BFC0824082408449C
:10A2100009440E44F08440840104027804100000D4
:10A22000044004403FFC044004407FFE04400820FA
:10A2300011102108C1061150112821280500020023
:10A2400002400220FFFE049004E40B84347CC440EE
:10A250003FFC04407FFE004008201018600800000A
:10A26000100019101110211037FC6110A1102110DD
:10A2700021102FFE212023102218240C2808200052
:10A28000080010FC3E0422043E04227C3E40224092
:10A290007E7C06040A0412042204C2040A28041064
:10A2A0000000044006400440082008101018220E48
:10A2B000430402000420081011F83F181010000099
:10A2C000010000803FFC20044FF8081008100FF038
:10A2D000081000001FF81008100810081FF80000F0
:10A2E00000003FF8000800081FF8100010001000E0
:10A2F0001FF80008000800080008000800500020AF
:10A30000000001F8FD0811081108118811481128F2
:10A310001D283108C208020A040A080A10060000B3
:10A3200000003FF8010001007FFC010001107D20CA
:10A3300005C0094009201118210EC10405000200C2
:10A34000209020902090FC9023FC2090289030902A
:10A35000E09027FE2000211021082206A4024000E0
:10A360003FF8010001007FFE00001FF010101110E7
:10A370001110111011101280044008301018201014
:10A3800000000420042004207FFC0420042004207A
:10A390000420FFFE044006200C100818100C2008B2
:10A3A0001040104020403E8040FE7D02924210420C
:10A3B000FE82109211FA100A10021402180A1004F8
:10A3C000080008000FFC080412042304420404845B
:10A3D0000444082413F41C2400040024001400087E
:10A3E00021001100110003FC8A044C0450841084E5
:10A3F00011042224E7F42014200420042028201033
:10A4000004400440FFFE044014401FFC10042004DC
:10A410004FC48844084408440FC4000400140008D2
:10A4200005004500290013FE32024C0289F2191280
:10A430002912491289F2090208020804501420085E
:10A44000103C13C012001200FE0013FE1200120096
:10A4500012FC1E84F2844484048408FC10840000EE
:10A46000104010401080FEFC1104324438445484E3
:10A4700054A4911413F410141004101410080000C4
:10A4800000807CC0448054FE55025502564254421E
:10A4900054A2551211FA2812240244028014000812
:10A4A000204020403C7E448485487630546055A04E
:10A4B000547E5484754446280410282010C003009C
:10A4C00001007FFC01001FF010101FF001003FFC95
:10A4D00008200440FFFE01003FFC010001000100D4
:10A4E00004400440FFFE244030202020FDFE2420B4
:10A4F000242049FC49043104110429FC450484004A
:10A5000000400040F84088408FFE884088408840E6
:10A510008BFCFA048A048204020403FC0204000097
:10A5200010401F7E28904508940013FEFE2012FC68
:10A5300016A41AA4F2A452B412A81220522023FE88
:10A5400008400C401040104427FE30406040A040BE
:10A5500023FC220422042204220423FC22040000FF
:10A5600020401040104000408FFE484050401040B6
:10A5700013F82208E20822082208220823F82208F9
:10A5800000007E3C05D00950115015501950315033
:10A59000D150514811481164125612FA54502000FB
:10A5A00010201820102011FEFC202420242024201C
:10A5B00045FC490429041104290447FC85040000D2
:10A5C00010201020FF2010FC7E2000207EFC4288FE
:10A5D00042887E50445028200E50F18E0E04000018
:10A5E000010001000100FFFE010001000100010067
:10A5F0001FF010101010101010101FF0101000009D
:10A60000010001001FF8110811081FF8010801FCE2
:10A610003F0800003FF8244824482448FFFE00007B
:10A620001FF010101F10111011107FFE40040FF0CA
:10A6300008100FF008100FF008100810085008203C
:10A6400008400C201918210841000280044008200D
:10A6500010182FF6C814081008100FF0081000008A
:10A660003CF02490249024903D10260E24003DFCC4
:10A67000248824882450245044205450888E010477
:10A680001040106010401040FEFE108810887D8839
:10A6900046504450442044207C50418E0604000023
:10A6A00000007EFE401040205EFC52845294529482
:10A6B0005694509452945494582890C60302000023
:10A6C00000007FFC410441045FF4410441044FE475
:10A6D0004824482448244FE4482440047FFC400494
:10A6E000010000803FFC20043FFC2280244027FE24
:10A6F0002C4037FC244027FC4440444087FE0400A3
:10A7000000040F847404042404247FA40424042477
:10A710003F2421242124210421043F042114000882
:10A72000001001F81E401240124012201220122088
:10A73000122012101290225022A8432842068004B0
:10A7400000043F04210421243F24292408247FA459
:10A7500048A454A452A46284408442944108000056
:10A7600001003FFE200440083FFC02000FF00C9067
:10A770000A507FFE08203FF8C22E022404A00840A1
:10A7800010401040104013FCFC40104017FE1840D1
:10A790003040D04013FC10401040104057FE2000C5
:10A7A000410821082108FBE8090811082FE8690C75
:10A7B000B10A2BEA2908210821E82F0820082008DF
:10A7C00000783F800100FFFE010009207928093C44
:10A7D000092009243926C93C0100010001000000BC
:10A7E000100010FC1084FE84108410FC142018202B
:10A7F00031FED0221022104210421082510A22044F
:10A80000200027FC22083110A8A0A840A0B0234EA9
:10A810002C44204027FC204020402FFE2000000038
:10A820001040102013FEFA04100031F839085508C2
:10A8300051F8910011FC11041104110411FC1104D0
:10A8400008200430062004487FFC010001000100BC
:10A85000FFFE01000280044008201030201C400848
:10A86000020001003FFE20044FE8082008200FE00E
:10A87000080008000FF00810081008100FF008106A
:10A8800000003FFE200440003E08000800FE7F0854
:10A8900012481228120822282212420281FE0000C9
:10A8A000000001FC7D0405244524452429241124AD
:10A8B000292425544650449080920112020E04002F
:10A8C00020803EFC51208A1001007FFE40041FE0E2
:10A8D00010201FE010001FF0101010101FF01010BB
:10A8E0002040202020207DFE450448F8A0882088B4
:10A8F00020F8208020FC2484288430FC2084000060
:10A90000409047FE7C90539C929413DCFD2011FCF8
:10A91000132055FC552055FC55205D2071FE01008B
:10A92000200023F822482FFE3248AA48ABF8A000A6
:10A9300023F8224822482248224820B023082C0429
:10A9400041102FFE011097BC54A457BC124023FCA9
:10A9500026202BFCE22023FC222023FE22000000E4
:10A9600000001FF01110FFFE11101FF000001FF07B
:10A97000101011101110111012900460181C6008B2
:10A980000100211019180D10092001047FFE044058
:10A99000044004400440084208421042203E400067
:10A9A000010000803FFE2000200020002000200049
:10A9B0002000200020002000400040008000000017
:10A9C0000000490026FC262019200120E3FC252058
:10A9D00029202120212025FE220050008FFE00008A
:10A9E00000400080FBF82248224823F8FA48224819
:10A9F00023F820A828B4313CC1220222041E1800EA
:10AA0000100011FC11047D24112411241124FF24B1
:10AA1000112428502450269244924112820E0400A0
:10AA2000010001003FFC010001000100FFFE0100E8
:10AA300001007FFC0100010001000100FFFE000099
:10AA400000207E20102011FC202020203DFE6400EC
:10AA5000A420242025FC24203C20242027FE0000C4
:10AA6000080008000BFC480448044804480449FC5A
:10AA70004804480448040804100413FC2000400063
:10AA800008000FE0102010403FF8510891081FF80F
:10AA9000110811081FF801000102010200FE000068
:10AAA00020001BFC490441044FE441045FF44104CD
:10AAB00041044FE4410441045FF440044014400861
:10AAC00010401040FE40204029F848484848FE48C1
:10AAD000084808481E88E88A088A090A090E0A00F8
:10AAE000020004003FF821083FF8210821083FF840
:10AAF0000280029004A804FC08841082607E00009A
:10AB0000408020FE3084210803FEE2002200227CE7
:10AB10002244224422442A5C32482442083E100047
:10AB200000803E9002A024481450082037D0C10E67
:10AB300001047FFC0100024004200818300CC0040E
:10AB400020402040204023FCFC40204077FE68004D
:10AB50006840A04023FC2040204020402FFE2000E1
:10AB6000100011FE1100FD00110011FC3904350424
:10AB7000550451FC910011001100110011FE10004C
:10AB8000008078FC49084A104BFE7A00120012F847
:10AB90005A88528852A852905A82E482087E100045
:10ABA00001001FF011101FF00100FFFE00001FF058
:10ABB000101011101110111012900440183860106C
:10ABC000040404040A04112420E45FA48024002463
:10ABD0007FA408240924108427C47C942008000042
:10ABE000200021FCFD0421FC2104510451FCFC0047
:10ABF000111011D21D1CF11011521392111E1000D0
:10AC0000408020402FFE012082184488512013F0FC
:10AC1000109021882250E6203A102288230E220428
:10AC2000100011FC1104FDFC1104390435FC500026
:10AC30005120912611B811201120112211A2111EAC
:10AC4000200021FC3D04210441047DFCA02023FEC2
:10AC5000FA222252224A228622022A02320A22049E
:10AC60001000087C7F4400483E4822503E48004483
:10AC70003F4202420442075A7C44044014400840C8
:10AC800000007FFC40045FF44104410441044FE4B0
:10AC90004144412441245FF4400440047FFC4004CB
:10ACA00000001FF011101FF011101FF00100010033
:10ACB000FFFE038005400930310EC1040100010090
:10ACC00001007FFE11101FF011101FF001007FFE28
:10ACD00007C01930628E045018206A180C0608004C
:10ACE000401020103010201007FE00100210E1105C
:10ACF00021902110201020502020580087FE0000B5
:10AD000000400040F0A09118920E9C0493F890002F
:10AD1000F3F8920882080208020803F8020800000B
:10AD200000407C20442075FE5440FE4882887DF01F
:10AD300044207C4445887C10442844C44F06440485
:10AD40000040FC2007FE08401080110813F818107E
:10AD5000F024504811901630104851842604000009
:10AD60002100110011FE020097F852885248120883
:10AD70002FFE2288E248220823FE200820282010E7
:10AD800010001FF820005FF000007FF00410021098
:10AD90003FD008901F1002500C8A730A0C86704234
:10ADA00002000180FFFE01000220043008601FC87D
:10ADB000091C02300C6070E003180C0C70040000D9
:10ADC000020001007FFE400281043FF801001FF0F5
:10ADD00001007FFC01001FF0101010101FF0101078
:10ADE0000040F8200BFE48404840488449F87C1059
:10ADF000042234C4C7080410042814C60B0200003F
:10AE00000000FE4828482848FEFEAA48AA48AA484A
:10AE1000CE788248FE4882488248FE788248000008
:10AE20003E400440FF4022FE3EC823483E302710EB
:10AE30003A28C2C6000029042886681407F00000DA
:10AE40002200223E22222224FFA82230222822246D
:10AE50003E2222222222223A3E24222000200020CA
:10AE600010201020FDFE10207C2044FC7C2044207B
:10AE70007DFE1022FE221022102A10241020102005
:10AE800001000100028006400930311ECFE8002099
:10AE9000004000801FF0101010101FF01010000074
:10AEA000200013F81010082088405442554A14D24C
:10AEB00024E22552E64A254A248227FE2402000085
:10AEC000010000803FFE24447FF804401FF8044046
:10AED0007FFC04400B2010D8220E418400C000806B
:10AEE00000103FF800300040118049244D3449449F
:10AEF000438445445934451442047FFC4004000017
:10AF0000002000280024F7FE9420942097E4942445
:10AF100097D89658F6508BDA0A2A104620820000FD
:10AF200000003FFE24444630081810083FF8010096
:10AF300001007FFE0100010001000100010001008D
:10AF400010201020FE5010887D0647FC7C4446648B
:10AF50007D54114CFED41164124411541088100019
:10AF60002028202427FEF42027A82C2C3798269070
:10AF7000E69A2BAA280630402524250AA8FA400084
:10AF8000100011F81108FDF8110815F8180033FC2D
:10AF9000D020102017FE102010201020502020203C
:10AFA00000001FF810081FF810081FF800003FFCF1
:10AFB00001000100FFFE010001000100010001008D
:10AFC0002028202427FE242037A0AC28A7A8A4905E
:10AFD000279A2826280231442522250A28F800002D
:10AFE000200023F8220833F8AA08ABF8A00027FCB9
:10AFF000204020402FFE20402040204020400000E4
:10B0000011FC1104110415FC1504590451FC9000A5
:10B0100013FC1020282427FE402040208020002000
:10B02000200013FC0040804048404840104017FE7C
:10B030002040E04020402040204020402040204050
:10B040002000100017FC0208820849104910111056
:10B0500010A020A0E04020A02118260E2804000007
:10B06000010001007FFE0280024004200930111817
:10B07000210E5FF40110021002100410085010207D
:10B08000108010401040FBFE1000300039F03510E9
:10B09000511051109110111212121212140E1000B0
:10B0A000084010203C0025FC34002CF02490FC903B
:10B0B000249034902C90249024924512550E8A00AE
:10B0C000204027FC200023F8FA0823F8200027FE60
:10B0D000288A21DC36A0E15046A8012606A40040BB
:10B0E00000400FFEF00093F8920893F8900097FE4E
:10B0F0009802F7FC91888EF003500CAE03240CC02C
:10B10000020001007FFC08200FE000007FFE4004E9
:10B11000BFF80600091073200CC073B00C8E7304C6
:10B1200001007FFE00000FF008100FF000007FFE0E
:10B1300040040FE001001FF001003FFA010200FE91
:10B140000800083E7F2208240824FFA812281224A1
:10B15000532252A292A2223A22244A208420002082
:10B16000100011FC10081010FC202420242027FEC1
:10B1700044206420182008201420262044A0804069
:10B180001008101CFDE010207C3C11E01020FE2077
:10B19000103E3BE03420562054229022101E100016
:10B1A0001FF01010101010101FF00000FFFE08001C
:10B1B00008001FF0081000100010011000A000404F
:10B1C00020401040124003FC8A404C40504017FE83
:10B1D00010002000E3FC22042204220423FC2204A9
:10B1E000000007FEF80488048BE48A248A248A2459
:10B1F0008A24FBE48A24800400040024001400084C
:10B2000000007BFC4A044BFC4A044BFC49004BFE0B
:10B210007A2246220A52028A03FA00020014000827
:10B2200004200420FFFE1420180017FE300833C845
:10B2300052489248124813C812481008102810109B
:10B2400004400440FFFE0440444037FEA00850087C
:10B2500053C812481248E3C822482008202820106A
:10B2600010401020102013FEFC401044388835F0A8
:10B270005022504490881310102810C41306100454
:10B28000001000F83F00010001047FFE038005402C
:10B290000540092011102118410E81040100010010
:10B2A000000007007800087C08447F4408441844E4
:10B2B0001C442A442B444A44887C08440800080063
:10B2C00008000C001BFE1008300827C86448A4487A
:10B2D000244827C8244820082008202820100000DF
:10B2E00001000280044008201018202EDFF4000026
:10B2F00000001FF01010101010101FF010100000B0
:10B30000010002800440083037DEC0040FE008204E
:10B310000FE000001FF0129012901290FFFE00004C
:10B320000C803080D0FC548829485250882014D09A
:10B33000270ECDF815082508C50805F815080800DA
:10B34000100009FC4A0441044FF44104424447847C
:10B3500041244644588443645C244004401440081B
:10B36000200017FE1008000888084BC852481248F1
:10B37000224823C8E248200820082008202820105E
:10B38000200017FE1442844247FA4C420C4215F248
:10B3900015122512E51225F22402240227FE2402AA
:10B3A000101010107EFC10101010FEFE28482848C7
:10B3B000ACCCAACAAB4A2A4A48484888A8A8111067
:10B3C000200019FC1104FDFC050409FC150039FEE0
:10B3D000562296221A52128A13FA1202100A1004E6
:10B3E000102010407FFC52C418A424A43E8C688016
:10B3F000A8FE3E0228023EFA280228023F0A200444
:10B4000008007F7C09440944117C254442000FF068
:10B410000810089008900890094002300C1C300871
:10B42000000007FCF654955C956497FC94449040AA
:10B4300097FCF0409FFE0000052404920892000053
:10B440003FF821082928254825883FF801000100F8
:10B450003FF80100FFFE000048844442844200009F
:10B46000010000841FFE100097F8540857F81408D4
:10B4700037F854849488245024202510460E8404E0
:10B4800010001BF822084BF88A08120823F86240C3
:10B49000A248225C222022102258228E2704220059
:10B4A00000008BF85208220853F88A080A081BF893
:10B4B0002A404A448A280A300A501288530E22042D
:10B4C000200023F822083208ABF8AA08A20823F8C3
:10B4D0002244224C223022202290230E22040000FB
:10B4E00000800040FFFE900093F8920893F89000CF
:10B4F00093F8F010902000200020002000A00040D1
:10B50000020001047FFE00000FF008100FF00000A1
:10B510001FF800300040008000800480028001009D
:10B520002090209023FC2090F89027FE702069FC4A
:10B53000A124A1FC212421FC200020882106260230
:10B54000220033DE4440588097C0255E67C4A5447E
:10B5500027C421042FE42104228424542828200015
:10B56000200027FC20003000ABF8AA08A20823F82E
:10B570002208220823F8200020002FFE20000000CF
:10B5800002007FFC040009001FF00100FFFE010023
:10B590003F7C0288348808501420225842860104D7
:10B5A00001100110F9108FFE89108910891089107F
:10B5B0008910FFFE890001900308020C04060804AC
:10B5C000109010D8109014901BFC509050905090F8
:10B5D000909017FE28202490410842048404000023
:10B5E0001000100011FEFE20922092209220922046
:10B5F000FE2092201020142012201E20E3FE0000C6
:10B600004020204020FC0EC484A454A4548C2480E8
:10B6100024FE2602D80243FA40024002400A0004F7
:10B6200020001110111089104BFC51101110111035
:10B6300021102FFEE12021102208220C24042804CE
:10B64000010000803FFE2204430802007FFE02004A
:10B650000480048009001110220844FC0F880000B7
:10B6600000107E18021002103E20202020202040D2
:10B670007E4022400288028403FE028414000800F7
:10B6800010001000200425FE4420F820082010207F
:10B690002020FC20402000201C20E02447FE000049
:10B6A00002000378F20895FE94009C8094FC95209B
:10B6B000F62097FE842004500448048C0486050478
:10B6C00010001BF0101020102FFE6200A3FC22407F
:10B6D00024402FFE204020A021202218240E2804E0
:10B6E00089004978310823FE52808E801AFC2B2075
:10B6F0004A208BFE0A500A500A981288530E2204E0
:10B70000001007D0F09091109110911091D09710E7
:10B710009110F1109110811001120112050E02001A
:10B720003FFC20002FF828082FF828082FF82000C9
:10B730002FF8203020C02FFC408040808280010004
:10B7400010001BF8101027FE29006900A9FC2940F1
:10B750002A402FFE28A028902118220E2404000041
:10B76000007C1F80100010001FFC10001000100053
:10B7700017F824082408240847F84408840800001F
:10B780000000003CFFC088488A4C894889508840A6
:10B790008FFEF8408840004000400040014000809B
:10B7A000000801FC7F00111009180D100524FFFE90
:10B7B0000100010001000100090005000200000075
:10B7C000080008000FFC1244224444440884310459
:10B7D00006383810010028842892281247F000000B
:10B7E0000100F93C212427E42124213CF92427A449
:10B7F00024A424BC2FA434A4C4440044009401080D
:10B80000010001007FFC01003FF800007FFE44447E
:10B810008448244C2450145014600440FFFE00005F
:10B8200004400440FFFE0440080008FC08847FFC3C
:10B83000088408843EFC228422843E842114020869
:10B840000800087C0844FF44087C084408447E44FF
:10B85000427C4244424442447E44424402940108B1
:10B860002100211E211227D2F91EA912A912AB9282
:10B87000AA9EFA92229233A228223C42C88A01044C
:10B8800008788BD052502250525092500A501A5081
:10B890002A504A488A480A581454146C58462000C2
:10B8A0001100111E95125BD25112FD1E11123BD2D6
:10B8B0003652525E525293D210221022104A1084F5
:10B8C0004200223C222402248FBC522412242FBC8A
:10B8D00028A428A4C8A448A44FC4404440944108C4
:10B8E0000000F83C0BD00A500A507A5042504250A7
:10B8F000FA484A480A480A540A742AD614440800E6
:10B90000010001F001003FFC210821E02F0821F88F
:10B91000200027C02440244424444446483C90004E
:10B9200000400078F04097FE948494F097809488CB
:10B93000F478940084F0049004920912090E120025
:10B9400010401030101010FE7E821082148218FEFB
:10B950003080D080108011001100120054002800A7
:10B9600000007FFC04000400042007F008200820E9
:10B97000082008201FE0082000207FFE00000000B3
:10B9800020401020102003FE42022A022A0213FE49
:10B9900012002200E20022002200240024002800DD
:10B9A000010000C000401FFC1004100410041FFC24
:10B9B0001000100010001000200020004000800047
:10B9C00004400440FFFE044008000C8008901898D2
:10B9D00028A048C009800A8408840886087C0800DA
:10B9E000012001A079284B304B604DA44924491C0B
:10B9F0004840784047FC0040004000400040004084
:10BA000008800C88109C30E0538090841084107C57
:10BA1000110001007FFE0100010001000100010092
:10BA2000080089F8510821E8512897FE1C0229F8DE
:10BA3000290849F8890809F809081108512821102E
:10BA4000200013F8120883C8424847FE140413F874
:10BA5000120823F82208E3F82208220822282210DC
:10BA60000000FFFE00000FE0492449244FE4492470
:10BA7000492449244FE4482440047FFC400400004A
:10BA80001004140412041024FFA4122413241224FA
:10BA900014240C24182435246504831401080000A0
:10BAA00008800C800888108C109830B050E090C04E
:10BAB000118012801480108410841084107C000087
:10BAC0004000201C33E02020002007FEF020102042
:10BAD000102011FC11041104150419FC11040000BC
:10BAE0001040108013FCFE4412443BFC364453FCCF
:10BAF0005060906810A810B4113C1222141E10005F
:10BB000010001BFC220452049AF4129422946294B2
:10BB1000A29422F422942204220423FC2204200072
:10BB2000100013FE102010205840546094D010C80C
:10BB3000114C1246144410401040104010400000B8
:10BB40004140212021200BFE8A2056205BFC122040
:10BB5000222023FCE2202220222023FE22000000BB
:10BB6000200027FE20202020FC40204020E020D084
:10BB700021482A463444E84000400040004000404C
:10BB800000800080FC8005FE85044A482840104063
:10BB90001840186024A024904118860E3804000034
:10BBA00000007DFE1020102010607C6010B010A8F6
:10BBB00011241D26622204220820002000200020DB
:10BBC000100013FC10001000FDF83908350855F876
:10BBD0005108910811F81000100017FE1000000025
:10BBE000400027FC3040204000800080E1A02290EF
:10BBF0002488288C20882080208050008FFE000020
:10BC0000203833C02088424C4950FBFC108017FE7E
:10BC1000208078F801881950E2200258048E090427
:10BC20001080108011F8FD10122017F812481A48E1
:10BC30003248DFFE104010A01090110E5604200074
:10BC4000008000801FF810881FF800801FF81088FF
:10BC50001FF80080008029042892481207F0000095
:10BC600001000100F1F8921094209BF8924892484C
:10BC7000F24892488FFE00A00110020C040608044E
:10BC8000010000841FFE110093F0542057FC14485B
:10BC900034485488AFFE20C021204210440E98043E
:10BCA000111009203FF801007FFE04200FF0310E33
:10BCB000C614192066C019A06698188C6288010005
:10BCC0002100210021F022202C40B3F8A248A248F4
:10BCD00022482FFE304028A048904118860E1804B4
:10BCE0002100110013F0022094405BF852481248E2
:10BCF00022482FFEE04020A020A02110220E2C047C
:10BD0000020001003FFE400440081FF01100110036
:10BD10001FF0101010101FF0110011001FF800008C
:10BD200008000C0019FC100422044304FE0404045F
:10BD300008040A0411047F84210400280010000074
:10BD400004400440FFFE044001007FFC080008009E
:10BD50000FF800000920092009221122111E2100DC
:10BD60002110211027FE2110B040AFFEA2002200BA
:10BD700023FC200022482248244A244A2846200046
:10BD8000044004407FFC04400440FFFE01001FF01B
:10BD900011101FF0111011101FF00820101860086A
:10BDA0000110FD1023FC211027FE20407BF86A487B
:10BDB000ABF82A482A482BF8380029100208040456
:10BDC0002040208021FCF904A9FCA904A9FCA800BA
:10BDD000FBFCA020302029FC3C20E82003FE0000D2
:10BDE00020403F7E509089287FFC0820FFFE010004
:10BDF0001FF011101FF011101FF004400830301018
:10BE0000020004001FF010101FF010101FF00000BF
:10BE10007FFC010001003FFC01000100FFFE00006B
:10BE200000003FF8230822082FE828282FE82828B8
:10BE30002FE820082FE821082FEA410A5FF6800248
:10BE400020802080210033F8AA08ABF8A20823F84C
:10BE5000200027FC204023F8204020402FFE200017
:10BE60001040108013FC16041BFC520453FC90007D
:10BE700013FC30402BFC2440444447FE800000006B
:10BE80001FF810081FF810081FF8010011100D30DE
:10BE90000540FFFE0240044008423042C03E000020
:10BEA000200023F82208FBF8AA08ABF8A848AA4CFF
:10BEB000A950AFFEB910211021122212240E280021
:10BEC00020402040244C3248A950A160AFFE20A061
:10BED00020A021202120222022222422281E2000EE
:10BEE0008108410867FE4148002007FEE10021006B
:10BEF00021FC200022482A483248224A044A0806E7
:10BF00000200020002047FFE04400440044C0C7056
:10BF10000A400AA010A011102218240E48040000A4
:10BF2000100013FE1244FC8013FC10801520192011
:10BF300033FCD020102017FE10201020502020208D
:10BF4000100013FE9644584051FCFE4028A028A043
:10BF500029FC282028202BFE4C204820802000206F
:10BF600021103558255057E0983E2FA46464AFA4A3
:10BF7000221424142FD822082A8832542A26244432
:10BF800021002100210037FEA940A940A2482348F2
:10BF900022D02460246028903088230E2C042000B6
:10BFA000100011FC11047D0455745554555455541A
:10BFB0007D545174195415041F04E5FC010400005C
:10BFC00000007FFC400440044FE4482448244824F7
:10BFD000482448244FE44004400440047FFC00000F
:10BFE0001000667842486E484248424E7E80007C8F
:10BFF0007E040848082808100E30F0C80706000024
:10C000002100210021FE3200ABF8A508A948212813
:10C0100027FE21082148212821FE20082028201061
:10C0200008207EFC08207EFC08207EFC08201FF8EB
:10C0300000081FF800081FF82484241243F20000AF
:10C04000010001103FF8010001000910091008105B
:10C05000FFFE0810081010101010201040100000F3
:10C0600001007FFC01001FF011101FF011101FF0E4
:10C0700001087FFC000409002888282467E40000E8
:10C08000010001007BFE4A004DF849087948492823
:10C090004FFE49084948792849FE00080028001049
:10C0A00000207C20442057FE544054FC5584568484
:10C0B00054FC5084508428FC248446848494008852
:10C0C0000C20712211221122FFFE3122304058FE35
:10C0D00055049288145010201040108013001C004A
:10C0E0000100010002800440082010186FEE800457
:10C0F00000003FF802000420081011F83F1810104B
:10C100001040104010A014901908520655F858001D
:10C11000900417FE28802490450843FC8104000009
:10C12000200013FC1200020042002A002A000A002C
:10C1300012001200720012001200120013FE100012
:10C140004040304027FE00400040E3FC20402040BB
:10C1500027FC2044204424442854304820400040F8
:10C160000200420033FE140003F80288E24822086D
:10C170002FFE228822482A0833FE200800280010BB
:10C1800010401040206020904888F10612F82000EE
:10C190004000FBFE004000801888E10403FE00041C
:10C1A00004200420FFFE04207FFE4204BFF80500A7
:10C1B00009001FF001000100FFFE01000100010065
:10C1C00001F03F0021003FFC2080208028443034D3
:10C1D0003FFC101010101FF0101010101FF0101066
:10C1E0002000303C21D02110FDFE2510254A258657
:10C1F000490268FC108410FC2884448484FC008478
:10C20000004000807BF8024803F8FE48224823F8EB
:10C2100020A048A844B4FD3C052202220C1E0000C8
:10C22000200017FE1484808047FC5100114012400A
:10C2300027FC2040E0402FFE2040204020402040AE
:10C24000200013FC120483FC4A044A0413FC10204F
:10C2500024202424E7B82420242025222622241E5A
:10C2600010500848FE8492A67F2410507C501088FD
:10C27000FE86117C7E48444844487C78444800004F
:10C280002000103C13C0004088404FFE504010403A
:10C29000204023F8E20822082208220823F8220876
:10C2A00008400C4018401048324C22486250A440CC
:10C2B00020A020A0211021102208240E28042000F4
:10C2C000010001800100011011181120114011001E
:10C2D00022800280044004200830101C2008400006
:10C2E0000440FFFE044004404400285010482FFE44
:10C2F0004840984028A048908918090E2A04140044
:10C300000040005000487FFC004000403E40224C6E
:10C3100022483E30002002540C94730C0C040000A0
:10C3200000A000907FFE00803E8822483E50002002
:10C330000E54718C000449084884C81407F00000AA
:10C340001FF801007FFE41041D7801001A702100D2
:10C350003FF851009FF811001FF811001FFC10005A
:10C3600008800C8C18F033805084107C00001FF083
:10C3700010101110111011101280046008383010C4
:10C38000200011FC11040104FDFC0820102033FEE4
:10C390005A2296221252128A12021202120A12040F
:10C3A0000100010001003FF80100010001047FFECF
:10C3B000010011081108110811081FF810080000E9
:10C3C000100017FC11081108FD10111E1102118434
:10C3D00015841A483250C4300458088E13042400BF
:10C3E000082008207FFC08200FE008200FE008202C
:10C3F000FFFE082011183FEEC10401007FFC000081
:10C40000100010F81088FE8810881088388834884A
:10C41000548850889108110A120A120A1406100052
:10C420000040F840ABFCA8A0A910AA08FFFEA8088D
:10C43000ABC8AA48AA48FBC88A4880080028001050
:10C440000C50704013FC1092FD12160E313039C49E
:10C45000550450FC500091F8110811F8110811F81A
:10C460000C0071FC11041104FD041104390435049D
:10C4700055FC50009090108811041106120214020D
:10C4800020403F7E289045088A207FFC08200FE04E
:10C4900008200FE008200820FFFE04401830600C40
:10C4A0003CF02490249024903C902490249024905C
:10C4B0003C90249024902492451255128A0E00003C
:10C4C000200020F020907E9044904890A0902090F2
:10C4D000209020902090251229123212240E000064
:10C4E000410020C030402FFE01200120E5282524F6
:10C4F00029263124222022A0244050008FFE000053
:10C50000421024102F9008A08FBE58E41FA42228A8
:10C510003FA82428C790489048A850CE62840100C4
:10C52000400021F03110211001100110F110111004
:10C53000111011101110111215121A12120E0400FE
:10C5400000200040FDF80588494829482928111095
:10C5500019FC2804240445F4800400040014000895
:10C56000100011FE11101110FD10257C25442544EA
:10C5700049442944117C11102910451085FE000002
:10C58000104017FC204023F84840F7FE100023F825
:10C590004208FA480248024818A0E0900108020840
:10C5A000000021F8210841F84800FBFE110811F8AD
:10C5B00021087DF80108013E1BC8E00800080008BA
:10C5C00001000104FFFE0100010001087FFC0000E2
:10C5D00000001FF01010101010101FF010100000BD
:10C5E000100013FC1088FE88109010A038BC34C4D2
:10C5F0005548512891101210122814CE1B04100017
:10C6000010201020FEFE10207EFC52A452A452A442
:10C6100056AC1820347052A8912E162410201020E9
:10C62000200021F8FD0821F8200053FE5108FDF8F4
:10C63000110811F83D08D1FE17081008100810085D
:10C6400020403F7E509089087E4809FE7E48084879
:10C650007FFE18002CFC2A8448FC888408FC08848F
:10C66000088008401FF830805FF810801FF81080A5
:10C670001FFC01007FFE03400520191C610801001A
:10C6800000003FE0042004200440044004F80A5065
:10C690000A100920112010C0212042188C0E3004ED
:10C6A000040004000FE0084010802FF000100FF08D
:10C6B00000100FF0010028842892681207F0000093
:10C6C000010000801FFE1200920853FC54403840C5
:10C6D0005FFE904010A010A021102218440E880484
:10C6E000200013FC1108010889104910513C1184E5
:10C6F00012882248E43024302848318E2604000075
:10C7000000003E7C224422443E44224422443E44D3
:10C7100022442444225427487A40204000400040CC
:10C720002020201021FEF94029402D7C4B904910FB
:10C730004BFE351011102A282A2444468884000014
:10C74000100013F8208824884490F89010BE2144EB
:10C750007D44414802281A10E4300848118E06042E
:10C760001080104013FCFD1010A0144019B0160EDC
:10C770003114D11011101110111012105210241078
:10C7800000000FE0082008200820082008200820CA
:10C7900008200820082210221022201E400000003D
:10C7A0000100210811300A9872482430180E6FF4E5
:10C7B00008100FF008100FF008100810085008209B
:10C7C00000003FF00010001000103FF0201020008B
:10C7D0002000200020002004200420061FFC000070
:10C7E0000440FFFE044024443E0444247F24C92422
:10C7F0007F2449247F24402400240F047814000857
:10C80000102010201020FDFE1020142019FC3108EB
:10C81000D0881090106010601090110E5604200007
:10C8200004407C7C04407C3E1FF011101FF011106E
:10C830001FF004407FFC0440FFFE064018306010EB
:10C8400000F01F0001007FFC03800560191E6FC40B
:10C8500000400080FFFE0100010001000500020011
:10C8600010401860104817FC2040304063F8620800
:10C87000A110211020A0204020A02118220E2C045D
:10C8800010001EFC228854508C60282010102FEEBF
:10C890004004BFFC010009201110210845040200DA
:10C8A00008020402FFD2011232120E12199220D293
:10C8B000D11211121112111221022102411E810402
:10C8C0000000207C27C0204037FEA8E0A958A246DF
:10C8D0002DF0202020402FFE2040204021402080AD
:10C8E0004080204027FE011088A0484051B0160E1D
:10C8F00011102110E11021102210221024102810F4
:10C90000020001003FFE21025FF402800440082083
:10C910007FFE00100F9008900F90089000500020AC
:10C92000010000803FFE480448000F78088808880E
:10C930007F4808502C202A204B508A882906120450
:10C9400040202020302020200020F3FE1020102046
:10C950001020102010201220142018201020002059
:10C96000400021FC3004200400040004F1FC11000C
:10C9700011001100110011041504190610FC00002B
:10C9800000007DFC442045207D20452045FE7C2084
:10C990004060506048A054A0652242220C1E000056
:10C9A00000001FF0001000101FF010001008100809
:10C9B0000FF80100088848844814881007F0000028
:10C9C0000000F9FC880090009000A7FE904088408D
:10C9D0008A50AA489444844688448040814080809C
:10C9E000102010201020FDFC2420242025F844884D
:10C9F000488828881050105028204450818E060402
:10CA000020203220222443244AA8FA2013FE227038
:10CA10004268FAA402A403201A20E20003FE0000E8
:10CA2000100011FC200424044404F80449FC110003
:10CA300021007D0001000D04F104410600FC00000E
:10CA400001007FFC01000FE000001FF010101FF03C
:10CA50000840FFFE10007E78124822484A78840081
:10CA60000000110011001100FBDC11543154395445
:10CA700055545154915412541254155C10801000A6
:10CA80000100010001007FFC012011300D20094050
:10CA9000FFFE03000280044008201018200EC0048E
:10CAA00008400C40184817FC30406044AFFE20405E
:10CAB0002040204827FC2040204020442FFE20001A
:10CAC000020001003FFE40045FE8010002000F2069
:10CAD00072B004C019C066B0188E608405000200F0
:10CAE0000800080008007F7C0944094409440944FF
:10CAF0001144114411442144217C454482400000EA
:10CB0000044004407FFE044001003FF811200D3036
:10CB100009407FFE0280024004200818300EC00445
:10CB2000100011FE7E20104092FC548418A4FEA434
:10CB300010A418A424A422504248808603020000B6
:10CB40000000FFFE04403FF824483FF800001FF0BB
:10CB5000101011101110111012900460183860108C
:10CB600000003FF82108210821083FF8210821088A
:10CB700021083FF821080100010001000100010027
:10CB8000100011FE21223D2241227DFE9122112220
:10CB9000FD2211FE1020102014201820102000204B
:10CBA00010001FBC1484248427BC6484A40027BC08
:10CBB0002444242827A824102438244E2584000047
:10CBC0000C40702013FE1202FCF8104039883650D9
:10CBD000506051B0966811A816261024114010809C
:10CBE00008400C4018A011103218640EA91421102E
:10CBF000211021102110221022102410241028109E
:10CC0000080008007F7C094409441144157C620037
:10CC100001007FFC038005400930310EC104010092
:10CC200008007F7C11441144257C42000FE0002065
:10CC30000420042007FC00043FF400040028001036
:10CC40002040202023FE2204F9F828402888494C5F
:10CC50004ED04930526834A429264A2480A000408E
:10CC60000000FE1E11E010201E20222023FE622064
:10CC7000942004200820082010202020C02000201C
:10CC8000048024C0248024FE254026202430041063
:10CC900000003FF82488248824882488FFFE0000B0
:10CCA00008000BFC4908491048A0484048B0490E0C
:10CCB0000A0409003FF8010001000100FFFE000026
:10CCC0000100114019201118210C450482000100B7
:10CCD0000100FFFE0280024004200818100E6004CC
:10CCE00010401F7E28A04510844004207FFC0200D5
:10CCF00002007FFE012000C001420622781A0006D1
:10CD0000200013FC1004400447E44424442447E476
:10CD10004424442447E440044004400440144008B0
:10CD200008200440FFFE00003E0822483E482248FA
:10CD30003E4822482A28241048884444C666822255
:10CD4000082004407FFC04401FF804487FFE04488C
:10CD50003FF80C480C6014502448444E844404406E
:10CD6000010000801FF8100810081FF8100017F8C5
:10CD7000140817F8240827F8240844288410000011
:10CD80000000FBF80A080A084BF82A08120813F8F2
:10CD900012462A582E204A108258028E070402009A
:10CDA000100811FC10201020FC202420242427FE31
:10CDB00024204420282010202820442084200020E3
:10CDC00020283024202423FE4A20FBE4122622249B
:10CDD00043D4FB58034835DAC42A084600820000D1
:10CDE00008200820FFFE0820092001003FF8210844
:10CDF00021083FF821000108010401FE7F04000022
:10CE00001040104010A0FD10120E380035F85000F0
:10CE10005088924C11481150102017FE100000004D
:10CE200001000100FFFE01003FF8210829282548E4
:10CE30003FF80100038005400930310EC1040100B4
:10CE400000100018FC1423FE221042107BF4CA16B6
:10CE50004BD44B544B487DDA452A444A088610028D
:10CE600000400040FEA010A01110220C25F67C000E
:10CE70006488A64C254825503D10242423FE00003C
:10CE8000104010401040FBFE108013E018A011204D
:10CE900033FED020112811A41226142250A02040C5
:10CEA000100010401040FCA0111013E814061800E8
:10CEB0003084D24411481110102017FE5000200079
:10CEC00020403F7E28904508900009FC200427E47C
:10CED000242427E42424242427E4200420142008E4
:10CEE00008400C4018A01110320C6426ABF420004E
:10CEF0002110249822D022A020202FFE2000000004
:10CF0000081004207FFE00003F0421243F24212438
:10CF10003F04251422087FFC02040404081430088E
:10CF20000020402820242FFE08202FE42826282C2B
:10CF30004BA8CAA84A90539252AA204641820000A8
:10CF40000440FFFE044005407FFE020004000BF891
:10CF5000181028204FFE084008400840094008806B
:10CF600020A020A022BE22A0FAC022907288688849
:10CF7000A000A3FC22A422A422A422A42FFE20000D
:10CF80000880488049FE49204A1048100300048068
:10CF900018606FDC01001FF009200540FFFE000053
:10CFA00000407C50444C4448447E7DC01040107E7C
:10CFB0005DC05024502850305E50F092010A0004A9
:10CFC00000607C584450447855C05440547C57C04D
:10CFD00054485450102028502492470A84040000DA
:10CFE0001FF010101010111011101110111011104D
:10CFF000129002800480048408843086C07C000083
:10D0000020202020277C392441FE7A24A77C21205F
:10D01000F97C252023FE21202AA03460281E000050
:10D0200020403F7E489095280840FFFE00003F04C6
:10D0300021243F2421243F242124212425142208B3
:10D0400010401A401340324023FC6440A440284062
:10D050002FFE204020402040204020402040204003
:10D06000102010202DF8242865FEA8282FF8222053
:10D0700022F832202DFC24202A2031A020FC0000A0
:10D08000080010FC3E84228432A42AA422A4FEA418
:10D0900022A432202A502250225242924A8E8500E7
:10D0A000080408041424122421247FA480241124B9
:10D0B00049A42524152412240784780400140008A8
:10D0C0002040205020483E4045FC4840804013FE10
:10D0D00010401044102812321452198A160600000B
:10D0E000420022062FB80220842056205A3E1FA458
:10D0F00022242224DFA442244244424442844204A3
:10D10000802040285F24112095FE5520152035FEF3
:10D1100035205524C4284C104A32514A6106400239
:10D12000440022FC200404048DF44D14551415F41D
:10D1300025142514E5F424042404240424142408C8
:10D14000004078400BF8104817FE20487BF8084054
:10D150004BFC4840284017FC2840464081FE000018
:10D1600010001FFE100037FC244467FCA4442FFE6F
:10D17000200027FC244427FC244427FC20002FFE09
:10D18000081004207FFC01003FF801007FFE04002E
:10D190000400FFFE08200E4001C003300C18701080
:10D1A000088008FC09088B086C90482008C80B0808
:10D1B0001FFEE8084908088808C8088808280810D9
:10D1C0000880488028FC29080A902860C840098007
:10D1D00001187DA0054009201118610E0504020008
:10D1E0002000100013FC0040884048405040104090
:10D1F00010402040E040204020402FFE2000000052
:10D20000FBFE080009FC792441FC412479FC08005C
:10D210004BFEE92449FC692489FC500027FE0000EC
:10D2200004400440FFFE0440088088F849086E90DE
:10D23000486019902FFEC8104910091008500820A6
:10D2400004002440147E0C840D48143065200540F1
:10D25000FFFE0380054009203118C10E01040100C2
:10D260000440447E248414840568165024204440DD
:10D270000500FFFE0100028004400830300EC004AB
:10D28000411021103110211007FC0110E110211074
:10D290002FFE2110211021102A1032102410081006
:10D2A00000007FFE400047E04400441047F844403F
:10D2B0004440444048404840504040007FFE000009
:10D2C000048024F81D08169064600780FFFE048027
:10D2D0003FF8248828F830083FF820083FF8200855
:10D2E000008078F8491052A0504060B0534E48403A
:10D2F0004BF86840524043FC404040404040404072
:10D3000004200420FFFE052010801FFC30805FF801
:10D3100090801FF810801FFC000028882666444477
:10D3200010001100113E11E4FD2411243BE43528C6
:10D33000512855989550191811241146158212003C
:10D3400000A07C9011FE1110231025FC7D1065FCBF
:10D35000A510251025FE24003D54212A022A000094
:10D36000090008841FFE308050809FFC10801FFC45
:10D37000108010841FFE1000288824446666422214
:10D3800000403C2027FE24803CD0250C26042508A4
:10D390003C88245024204450448855068A040000C8
:10D3A0000200010001807FFE08200C18100C2020D4
:10D3B0000830046002C0018003400430181C60087B
:10D3C0000800043E7FA40028222821B040A8A224FF
:10D3D00012220C2204320A2C11206120002000208D
:10D3E0002080108013FC00808090406451A4161CA3
:10D3F00020002FFCC1204122422242224C1E40002C
:10D40000001CF9E0082048204BFE486048907C88CA
:10D4100005963690C4900490051029101210001043
:10D42000200823FC20402040FBFE28A0289049082B
:10D430004A96749010902890251041108210041084
:10D4400007FC0288F15097FC9524952497FC9008DE
:10D45000978896FEF58897A80428050805880698F9
:10D46000100010441124FCA813FE120415F819082A
:10D470003148D148116810A010A21122561E200078
:10D48000204020203C2023FE40007C88A0842114E2
:10D49000FA902090206020602890330E2C04000029
:10D4A000201C21E020203C2053FE90507E88110457
:10D4B00016961090289024904490411082100410E9
:10D4C0001080188010FC2F8030906062A1A22E1A6C
:10D4D00020042FFC2120212022222422281E0000AB
:10D4E0000100791E49124BD2791249124FD24912CA
:10D4F00079124A124A524FF648504810A81090101C
:10D5000088804840304427FE511091080A041D14B9
:10D51000291048A088A0084010A05118260E180411
:10D52000040007F8041008201FFC308450841FFCFE
:10D53000108410841FFC1084108420842094408860
:10D540002040202023FE7C0045108908020422147C
:10D550002510209020602460289033082C060000BD
:10D560002108320827C8445057DEF47417D4211418
:10D5700047D4F21403881A88E49404940AA6114448
:10D5800010801060202023FE4400FC90090C12043F
:10D5900020107C90005000200C507088010E060472
:10D5A00014842484491424943F9424943F94249410
:10D5B0003F9404147FD40E14150424C44494040826
:10D5C000082008207F200A7EFFC4084410C43E487B
:10D5D000C42808280F10F810082808C82B061004C3
:10D5E0000020FE2428FC2828FE30ABFEAA40AAFC1E
:10D5F000CF088210FFFE82108210FE1082500020A1
:10D60000203C23C02040FC4023FE50A05110FA0EC5
:10D61000149410901C90F09011101110121014100E
:10D6200010401020FDFE2000509050889104FA9484
:10D63000109010903C60D06010901108120E1404ED
:10D64000000400047C8444844484448444844484EA
:10D65000449C7DE44484400400040004000400046D
:10D66000020001007FFE4424191869060FF811001A
:10D6700021007FFE00001FF0101010101FF010108E
:10D68000100011FC110411FCFD0411FC148019FEA2
:10D690003222D6221252138A13FE1002500A20049C
:10D6A0001040102013FCFD08109017FE1400188085
:10D6B0003080DFFE1110131010E01050518C260442
:10D6C000208024883E9C20E024822882327E240010
:10D6D0001FF0101010101FF0101010101FF010107D
:10D6E0000C207020102413FEFE201020382035FC62
:10D6F0005400500091FC11041104110411FC110498
:10D700001100191E210047C09900111E2FE8600862
:10D71000A10827C82108210821C8272820100000B7
:10D720007C40444048A05090610852064D1049107A
:10D73000491069105110411042104210441040101D
:10D74000082008207FA80824FFFE282024207FA886
:10D75000642CBF1824103F102438244A3F8620022E
:10D760000820082008207F2008FE0822FFA210229F
:10D770001022142222224F22FA42404E008400003E
:10D7800004200420FFFE0420042000003FF80208CB
:10D790000208020802080228021002000200020029
:10D7A0000000102010201020FDFE1020302039FC39
:10D7B0005400540091FC11041104110411FC1104D3
:10D7C0000100010001007FFC0380034005200918CF
:10D7D000110E6104010000004888444484440000A4
:10D7E000204027FE2040FBF8204827FE284833F839
:10D7F0006040A040227C2240234024C0A43E480038
:10D80000004077FC504057F8704857FE504857F892
:10D8100070485240527C5240754054C0083E10043B
:10D8200021FC110411FCFD0401FC888048FE5122FA
:10D83000522254521A8AE20203FA0002001400082B
:10D8400020401040104007FE88404840504017FCE0
:10D85000100023F8E20822082208220823F82208F0
:10D8600010201020202023FE4820F02011FC200052
:10D870004000F9FC010401041904E1FC010400006A
:10D88000200021FC7C4488447E444A9C7F084A90C6
:10D890004AFE7F104A104BFE4A1042104A10841074
:10D8A000100019F811081108FD0825F825082508A9
:10D8B000490829F811081908250847FE84000000C6
:10D8C0000040005000487FFE0040124012487F4C4C
:10D8D00012481230122022502290430A820600027F
:10D8E00004200420FFFE14201048FDFE10487DFE99
:10D8F0001000FEFC388434FC5284908410FC1084A8
:10D90000042004207FFE04200520010002C0043012
:10D91000180EE424042004200820082010202020D1
:10D920001FF8110811081FF8110811081FF81188B5
:10D93000024004301A4E6244024004400840104045
:10D9400011101910111027FC21106110AFFE2000DA
:10D9500023F82208220823F82208220823F82208A4
:10D9600001000100028002400430181C64280420D9
:10D97000042004200420082008201020202000007B
:10D98000010000801FFE104090A05110520C1D1687
:10D9900031105110911011102210221044108810D3
:10D9A0004020202830242FFE002004A0E4A82FECE3
:10D9B00024A824A8249024902CAA344A2886010064
:10D9C00000003FFC200420043FFC208020802FF832
:10D9D000288828882FF8288848884FF88808000069
:10D9E0000100010001003FF8210821082108210859
:10D9F00021082108210821082138211001000100F7
:10DA000010401F7E28A0451084403E4023FC224445
:10DA10003E44224422443E44224442844AA8851083
:10DA200000701F801000100010001FFE10401040FA
:10DA300010401040104020402040404080400040B6
:10DA400001000100028004400830300ECFF40100D4
:10DA500001003FF80100092005200540FFFE0000FD
:10DA6000010001000280044008201218218EC084A9
:10DA700000001FF000200020004000400080010056
:10DA80004040204027F800488FFE504857F810408B
:10DA90002040E7F820402FFE20402040204020403A
:10DAA0004110311027BCF9180BB61554211068002D
:10DAB000B3FC280027FE20202128222624A4204071
:10DAC00008004BFC488848904860499E0704044081
:10DAD0000F8002100FF8010811201118250802000C
:10DAE000202020403DFC210441FC7D0491FC1020BD
:10DAF000FDFE112211221122152A192410200020C6
:10DB000008000C001BF812082208311051105110A7
:10DB100090A010A0104010E01198130E1C041000EB
:10DB2000011081104FFE611041F00040E3F82248DF
:10DB300023F8204027FC20402BF830402FFE000027
:10DB400001104110211037FC211001100110F7FEC7
:10DB500011101110121012101410280047FE0000AE
:10DB60002400241CFEE024803C8010807CFE549025
:10DB70007C9010901090FE90111011101210101047
:10DB80007FFC04402450145014600440FFFE000049
:10DB90001FF0101010101FF0101010101FF01010B8
:10DBA000081008107EFE1C302A58499488123FF84D
:10DBB00000000000FFFE09201110210845080200A6
:10DBC0004000203C33C02200020003FEE22022205D
:10DBD0002220222022202220242050008FFE00001C
:10DBE000200023F822082A082BF8B248A220A2100D
:10DBF0002498244E3464292048C0486080200000C6
:10DC0000400027F8200887F8500857F810002FFE2A
:10DC10002804E3F02210212020C020A0231C2C087F
:10DC200000001FF8100810081FF810801080104026
:10DC300026202198408E840403000180008000008B
:10DC400000207E200220042009FC14242324C12467
:10DC50007F240844084408840E84F114420800001C
:10DC6000090209027FE2091200123FD209120912C9
:10DC70007FD209120912090211021112210A41046C
:10DC800010201020FEFE102010207EFC42844284D2
:10DC90007EFC2850285029522A525C928B0E00009C
:10DCA000042004207FFE04201FE000400080034089
:10DCB0000C30300EDFF401000100010001007FFC98
:10DCC00000407BFC48404BFC48407FFE48004BF83E
:10DCD0007A084BF84A084BF87A084A08422802109A
:10DCE00000000FF008100FF008100FF008100000EF
:10DCF0007E7E42427E7E424242427E7E4242000020
:10DD0000204020203DFE44004800FCFC54847C84DC
:10DD100054FC54107C10009404921912E05000201E
:10DD2000020001087FFC000000001FF0101010101E
:10DD30001FF0010009301918310C410805000200DC
:10DD40001040102013FE1000180055FC55049104DB
:10DD500011FC1020112811241226142210A01040AA
:10DD6000102011FE942054FC5820FDFE300038FC99
:10DD7000548452FC508490FC1084108410941088B9
:10DD8000100013FE942055FC5924FF2431FC392443
:10DD9000552451FC9240114010801160121E140451
:10DDA000100011FC200820104830F0C81306200293
:10DDB00041FCF820002000201820E3FE00000000B5
:10DDC00004200420042004247FFE042004200424D2
:10DDD000FFFE0420042008200820102020204000FE
:10DDE00014407F40147E7F4861A8BD1025283D4423
:10DDF0000282FFFE00001FF000001FF010101FF055
:10DE00001FF010101FF010101FF00100FFFE0000A7
:10DE10001FF010101FF009201918610C05080200EE
:10DE200001FE7C20084019FC2504C3040124FD24C4
:10DE300011241124112410501E48E0860302000012
:10DE40001040FE4010787C901020FEFC00247DFEE7
:10DE500044247CFC44207C204420442054A048409E
:10DE60000040202023FC21082090FBFC200021F80A
:10DE7000210821F8210839F8E09040920112020EA1
:10DE800012201220FFA01220207E3F4441C481486E
:10DE90003D28252825103D100128014E058402004B
:10DEA000204020203DFC208840507BFEA00021F82F
:10DEB000F90821F8210825F828923112220E0000D5
:10DEC00010001BF820104020904018B0330C6C0656
:10DED000A7FC204020402040204020402FFE200072
:10DEE000010000801FFE100097F85010502030D025
:10DEF00053089C0417FC2040204040405FFE8000F7
:10DF0000202011FE10207CFC002045FE240024FC73
:10DF1000288428FC1C84E0FC008400840094008891
:10DF2000020001007FFC0420FFFE00001FF0101023
:10DF30001FF010101FF00440044008420842103E39
:10DF4000020001003FFC042002407FFE00001FF0A1
:10DF5000101010101FF00440044008443044C03C2E
:10DF6000010041F82210322027F8084820482FFEEF
:10DF700020482048C7F84040404040404140408051
:10DF8000100013FC120416045AF452949294129442
:10DF9000129432F42A942A0442044204821402089D
:10DFA000020001007FFE482410187FF602107FFE59
:10DFB00004101FF008003FF0C81008100FF0081000
:10DFC00020D0271021102110F9142FD6235833B058
:10DFD0006550A51829283128214C2146A1844100EB
:10DFE000020001007FFE40041220221042081FC0E0
:10DFF000024002400440044208421042203E000019
:10E00000080408041044124422447C442444084474
:10E0100013443C5C006403441C04600400040004DA
:10E02000008000807C8010F8111011107D101220EB
:10E03000142010501C5060880108020604040800D7
:10E040000440044004407C7C044004407C7C044048
:10E05000044004407C7C04400440FFFE00000000BB
:10E0600002000200044007E008400840108020C081
:10E0700041400120022004100818300EC0040000A6
:10E08000020007E008401080214042300C0C3104AF
:10E09000C9100B20128004400830301EC00400005C
:10E0A00002000200020002207FF002200220042071
:10E0B000042004200820082410242026403C0000CE
:10E0C00040002FFE2120012097FC552415242524F3
:10E0D0002524263CC40447FC440447FC44040000B7
:10E0E00000007FFE40005F7C51105F50515051FE98
:10E0F0005F10542852285728594A904A80860000B9
:10E1000008400A600A40FF7E08444A842AC42D4819
:10E110001C282B2849108810082808C82B06100432
:10E12000000023FC2204220422042204220423FCF3
:10E130002204220422042204220423FC22040000DC
:10E1400002000700387C20042004200420043E7CC8
:10E15000200420042004200420043FFC20040000AC
:10E16000060038F820083CF820083FF800003FF887
:10E1700021083FF821083FF802003FF8040838184A
:10E18000104010401F40226052588A4C04480B40F7
:10E1900030FEC0001FF01010101010101FF01010F3
:10E1A00010200828FF24002400207FFE4250425007
:10E1B0007E5008502C502A904A9289122A0E100044
:10E1C000008000401FFE1100910051F0122032200B
:10E1D00054209840204020A021104208440E88047A
:10E1E00048804880FE8049FE7A421152FCE295FA4E
:10E1F000FC4210E210D2FD5212421042104A1004AA
:10E20000108010C01080FDFC1104120415E41924C4
:10E210003124D12411E410041004100450142008F7
:10E22000080089F851082108510891F809081908CF
:10E23000290849F8890809080908110857FE20002B
:10E24000010000841FFE100093F85208520833F8B2
:10E250005208920813F81208220822084FFE800084
:10E260003FF8200820083FF8208020803FFC2080D5
:10E27000208027F824082408440847F88408000070
:10E280000040F840088048FC49044A0448F47C9463
:10E2900004943494C4F4040404041414080800001E
:10E2A00004200420FFFE142010001FFC2104292458
:10E2B00045449FF4038405440934112421140108C2
:10E2C0003FF8200820083FF8200820003FFC2004E9
:10E2D0002FC4284428442FC42844480440148008EC
:10E2E000000003F8FA088A088A088BF88A088A0866
:10E2F0008A08FBF88A08820802081FFE0000000056
:10E30000200020FE20803E80508090FC1084FE84FF
:10E31000108418FC148422802280408080FE00003B
:10E320002410121809100920FFFE044009201110C2
:10E330002FE8410681003FF80100010001000100C3
:10E34000400023F822080A088A084BF852081208ED
:10E350002208E3F822082208220822082FFE2000C3
:10E360007F0022FC3E0822C83E3022483F86C23849
:10E370003FC0011819A061400530190E6104010069
:10E38000100011FC11001100FD0011FC150419040E
:10E390003104D1FC110011001100110051FE2000C8
:10E3A000100013FC1204FA0413FC122016201BFEAA
:10E3B0003220D22013FC13041504150459FC210447
:10E3C00000003FFC2000200020003FF02010201023
:10E3D00020103FF02010200020003FFE2000000011
:10E3E00000000FF008100FF008100FF008100FF0E9
:10E3F00008100810FFFE040006200C10101820085A
:10E4000000007DFE4500450045007DFC110411041F
:10E410005D0451FC510051005D007100C1FE00001F
:10E4200000007DFC450445047DFC5520112051FE73
:10E430005D20512051FC52845E84E28404FC0884F7
:10E44000100011FE21023D0241FE7D10911011FECF
:10E45000FD101110117E1142114216421A7E144213
:10E4600010001BF8120823F8320863F8A20823F8FA
:10E47000220822082FFE21102388260C38080000CD
:10E48000080008000FFC1004100420044FC4884446
:10E49000084408440FC40844000400440028001045
:10E4A000200023F8220833F8AA08ABF8A20823F8C2
:10E4B000220822082FFE2110210822042404000033
:10E4C000110411FE11001500150059FC51049104AE
:10E4D000110411FC290425004500410481FE0100BE
:10E4E00000023F82208220923F92221222123FD2CB
:10E4F000221222122F922892488248828F8A000488
:10E5000011FE11021102FDFE100011FE150219028A
:10E5100031FED102110211FE11021102510A210431
:10E5200000207E4042F842C87EA800887EA8429023
:10E530007EFE42027E0243FA420242024A0A44043A
:10E54000100011FC11041104FDFC240025FC25041D
:10E5500049FC6904110429FC2504450481140108BF
:10E5600010801890149822A027FC6080AFFE212014
:10E5700023D8262E3A2422A02248220821F800007F
:10E580001110092005403FF80200FFFE042008108A
:10E590003FE8C8260FE008200FE008200FE0082021
:10E5A0000110111809203FFC01000200FFFE0420A9
:10E5B0000FD8144E244485400490041003F000004A
:10E5C000100011FC2104210445FCF80009FC110491
:10E5D00021FC7D0401040DFCF10441040114010837
:10E5E000200027FE2408FE48258E27D235126548D4
:10E5F000A54827C82908290C2A143212A422400051
:10E6000013DE125213DE1252FFDE11201BFE3620E3
:10E61000D3FC122013FC122013FE10885070278E9A
:10E62000208020802080FBF820882088288830885F
:10E63000E7FE2080214021202210240EB804400053
:10E6400027FC24042404FFFC24002C20352465240A
:10E65000A5FC2420262226222A222BFEB2024000DC
:10E6600010001BFC1204320423FC6220A2A422A48A
:10E6700022FC22A4222025242524252429FC31043F
:10E68000007C7F88110808903FFC24443FFC000078
:10E690003E0822FE3E0822483E2828082C28321038
:10E6A0002208118C08907FFC400400001FF010101D
:10E6B0001110111011101110028004840886307C92
:10E6C00000808080408037F820880088208820885B
:10E6D0002FFEC080414041204218440E48045000A3
:10E6E00040802080308027F80088E08820882FFE36
:10E6F00020802140214021202A203210240C0808AB
:10E700002080308021FC41084A10FBFC1524212484
:10E710004124F9FC010001001D02E10200FE00009D
:10E72000108010C0108410FEFD04110412841464C3
:10E730001044161C1864E3844104002400140008EB
:10E7400004400440FFFE044004403FF820682F8846
:10E7500021083FF823882548292831083FF8200858
:10E760001040104020403EFC40847D0492841064A0
:10E77000FE041014102410C41004140418141008FB
:10E7800000003FFE2202430444103FF80400090049
:10E7900009101FF8010001047FFE010001000100C3
:10E7A00000003FF802080208FFFE040804083FF8D2
:10E7B000040808001FF81808280848088FF80808F7
:10E7C00010801080110813FE549454C855045684C8
:10E7D00054F8548855505E20F050408801060604D5
:10E7E00008800CC00988123C17E6311452089504C1
:10E7F00019F81110129014A010601198160600005C
:10E80000404020902108FBFC000408908D084A84B9
:10E8100050F851081990E26000600098030E0C0453
:10E82000408020802110027887885210520C1504F5
:10E8300029F82108E31024A020602098230E2C043E
:10E840007F3E11221122FFE4112411287F28102479
:10E8500020223F226122A13A21243F2021200020B2
:10E860000040F850088849FC4804488849047C80E6
:10E8700004FC15882650C4200450298E160400007C
:10E8800000800040F7FE9504910091F89310949059
:10E89000F060919E860401F80108010801F8010862
:10E8A00002000200F2009FBC92A492A492A492A43F
:10E8B00092A4F2A494A404A408BC0AA41120000009
:10E8C0000100010001FC0100010001007FFE0100C8
:10E8D0000100014001300118010C01080100010094
:10E8E00001000100F9FC8A088B088C9088608890F0
:10E8F0008B0EFFFC8A0802080208020803F80208CF
:10E9000000007FFE0420042004200420FFFE0420D9
:10E91000042004200820082010202020402000008F
:10E9200022202220222623B8FA2022A22B1E3040A9
:10E9300063FCA204220423FC22042204A3FC42045C
:10E940002210221023DE2210FA922312724E6880C7
:10E95000A3FCA204220423FC2204220423FC22049C
:10E96000100092F892889288FE880088FE880288BB
:10E970007E88408842884508590AE20A4406000019
:10E98000200027BE24882788B4A8ACA8A7BE2418D6
:10E990002418251825A826A8244A208A2306200002
:10E9A00000047F040844084408440844FF44084421
:10E9B00008440844084408440804081408080000EF
:10E9C0002110211027FE211021F0F91021F0211033
:10E9D0002FFE229022C83A8CE308420407FE020070
:10E9E000222022207FA022203EFC22243E2422241A
:10E9F000FFA454245A2453246244FF544088000046
:10EA0000208020C0208021FCF9042248245020408E
:10EA1000204024A038A0E1104118020E0404080090
:10EA200000807C80108011FE210421483A406C4017
:10EA3000A84028A028A0291039102A08240E08046C
:10EA400000F83F0001003FF80200FFFE04000FF055
:10EA500018106FF088100FF0081008100FF0081051
:10EA6000010000803FFE20802FF820883FFE208894
:10EA70002FF8288024C822D824A058984A8E8104D0
:10EA8000202023FE222033FCAA24ABFEA22423FC58
:10EA90002220232422E824B02528262E28A4204042
:10EAA00020402020ABFEAA2072FCFA2463FE7224D0
:10EAB0006AFCAB20A2A8A47024A82B2628A0304072
:10EAC0001000100011FC1020FE201020142018202F
:10EAD0003020D02010201020102017FE50002000E1
:10EAE000104010201020FDFE1000100014F01890AF
:10EAF0003090D0901090111011125212240E00007C
:10EB0000020001000104FFFE000007E004200420D1
:10EB1000042004200420082208221022603E000065
:10EB200010801040104017FE1400580050F09090D4
:10EB3000109010902890251045124212840E080063
:10EB4000020002103FD8022002407FFE01000200B6
:10EB500007FC1A00E7F8020800080008005000202F
:10EB60001040104011F8FC48105013FE144018805B
:10EB700031FCD6401840107C1004100450142008BA
:10EB80001040104413F41448185457FE504050FCE1
:10EB900091401640287824084408400880500020FE
:10EBA000010011001FF821007FFE101010101FF04F
:10EBB00004407C7E04403C7C0440FC7E04400440D5
:10EBC000200023FE20042004F9E421242124212410
:10EBD000212421E43D24E004400400040014000842
:10EBE00004400440FFFE044000007FFC00101F9022
:10EBF000109010901F901090001000900050002076
:10EC00001000100013FE1004FC0411E43924352414
:10EC1000552451E49004100410041004101410083A
:10EC2000100011FC1124FDFC1124312439FC542066
:10EC300053FE906010B01128162E102410201020C2
:10EC400000200020FDFC1020102023FE3850688892
:10EC5000A9FC28042BFC2A943A942A9427FE00004D
:10EC600000007EFE52107E2052FE52827E92109252
:10EC7000FE9218923492529290281046118200000F
:10EC80000608788808480848FE0818881C482A485A
:10EC9000280E48788B88080808080808080808081B
:10ECA000010001007FFC01003FF000003FFE400436
:10ECB00080080FC00840084008441044603C000031
:10ECC00000800040FFFE888088C0889089188BE013
:10ECD0008848F88C891082300448008403040C00B2
:10ECE00000007FFE000800081F8810881088108828
:10ECF00010881F88108800080048002800100000B5
:10ED0000200013F8120883F842084BF8110011FC98
:10ED100022442C44C2A4431443F440044014000889
:10ED2000010001007FFC010001001FF01010101015
:10ED30001FF014500440044008420842103E2000D6
:10ED40000804060404047FA4102422247F2426241B
:10ED50000CA419E43324C60409043184C114000846
:10ED6000020001003FFE4404440807F00C2012405A
:10ED7000218006703FFEC814081008100FF008101C
:10ED8000400021FC312421FC0124E12421FC20202D
:10ED900027FE206020B029283226242400200020CD
:10EDA0000100110011F81100FFFE00001FF010100B
:10EDB0001FF0101010101FF0101010101050102025
:10EDC00000400040027CFA408A408FFE88008BF8A9
:10EDD0008A088BF8FA088A0883F8020802280210C9
:10EDE00000001FF010101FF010101FF011081498F1
:10EDF0001860111801003FF801000100FFFE00003B
:10EE000000001FF010101FF010101FF011081490D8
:10EE10001860101C010848804884C81207F00000E0
:10EE200010801040102013FCFC00100011F0111095
:10EE3000111015101910E21042120412040E0800ED
:10EE400000800060F8408FFE880089F089108910EA
:10EE50008910F9108910021202120412040E08001F
:10EE6000020001007FFE40028444082010102008A8
:10EE70001FF0010001000100010001007FFC000003
:10EE800000007DF011101190115015501A12E2126D
:10EE9000040E0900008008802814281267F2000080
:10EEA00000407F4002400440084008400B400C40B6
:10EEB0001840E8404840084008422842103E000000
:10EEC000100010201010FDFE11041050148C1904B5
:10EED0003000D1FC102010201020102053FE200004
:10EEE000100013FE12001208FF0C128816501A2090
:10EEF0003230D248124812841304120053FE20000C
:10EF0000000000003FF82008200820082008200802
:10EF10002008200820083FF82008200800000000F2
:10EF20000800080008FC7E84088408840A840C8495
:10EF300018846884088408FC080028001000000079
:10EF4000020001003FFE204440403E7C00407EF82D
:10EF5000140814D014202450258A440283FE000093
:10EF6000102010201020FE2011FE302038205420C8
:10EF700055FC910411041104110411FC110410003A
:10EF800000003EF8228822883EF8228801200110E5
:10EF9000FFFE0280028004400820101C6008000070
:10EFA00001007FFE481210087FFC10081FF8108037
:10EFB0001488148817F81084188428842FFC4804B7
:10EFC000042004207FFE042005200100FFFE010034
:10EFD00001001FF01010101010101FF01010000092
:10EFE0000020FE2028A028FCFEA0AB20ABFEAE0037
:10EFF000C20082FCFE8482848284FEFC8284000043
:10F00000010000803FFE210021003FFC22402440FF
:10F010002FFC244020403FFE2040404040408040A4
:10F020004040302023FEFA200A2012FC16403A50BD
:10F030005A9096FE1210121012FE12101210141096
:10F04000020002007FFE042008101FF8200EDFF4EB
:10F05000040004100FF804100010001000A000407D
:10F060002080208027FE2120F91023F824062BF889
:10F070002100210023F83908C008000800280010EA
:10F080001040104013FEFCA01110120E11F41800D5
:10F0900037FED08010F810081008100850282010F3
:10F0A000004078404BFE489049087BFE1404100055
:10F0B0005DFE5080508050F85C08E0080028001089
:10F0C000004078404BFE48A079184BF64C044800AD
:10F0D0007BFE488049F848884808A80890500020DE
:10F0E00020802080208023F8F888208820882088AD
:10F0F0002FFE20803940E1204218020E040408004F
:10F1000020403E7E28A04510904013F858485448AF
:10F11000504817FE104010A010901108120E140451
:10F120001080188010C011202218240E6BF4A0004B
:10F1300020082FFC21002120221024F82F982010D5
:10F1400020802080208037F8A888A888A0882FFEFB
:10F15000208021402140212022102218240E280442
:10F16000020001007FFE4444BFF8044000001FF08D
:10F17000111011101110129002840484187C600088
:10F1800008400840FF40087E7E84012800207E2041
:10F190000020FF2008504A504A88888C2906120413
:10F1A00000007FFE400040005FF8408040804FF844
:10F1B0004080408040805FFC400040007FFE0000B7
:10F1C00020403E7E50A089107FFE40005FF8410045
:10F1D00041005FF8410041007FFC40007FFE0000DD
:10F1E000840047FC284010403040484088401BFCC9
:10F1F00028404840884008400840104057FE200002
:10F200000000100013FE1200FEFC12203A2036FC13
:10F2100052205220922013FE1200120013FE100002
:10F220000020FE1011FE1100110021003D002500FC
:10F230006500A500250025003D00260022000400F1
:10F2400000007BFE4A004AFC4A207A204A204AFC01
:10F250007A204A204A204BFC7A004A0043FE0000F4
:10F260000040002079FE490049004900790049002A
:10F270004900490049007A0002000400180000001B
:10F28000400023F832082A080A08120813F820A0C0
:10F2900020A0C0A04120412042224422581E00004C
:10F2A00000103FF800000004FFFE040004000808FE
:10F2B0001FFC000800080010011000A00040000022
:10F2C00004000400FFFE08800880148C15502920DB
:10F2D00042108C0E1FFC124812481248FFFE00001C
:10F2E0000080208420843FFC0400040025FC2404CA
:10F2F000240425FC24042404080409FC1004200030
:10F30000020001007FFE4822101021FC11047D2420
:10F3100011241124FD241154285224924512820EE6
:10F3200004400440FFFE04407C9004642428181824
:10F3300017EE210441003FF8010002C00C303010EC
:10F34000010001007FFC0240052009103FEEC104CE
:10F350003FF8010001001FF0010001007FFC0000E8
:10F36000080810087E484A287EA84A484A487E0E67
:10F3700014781508168827C8240A440A83FE00005A
:10F380001080190017F0349027F06490A49027F0B3
:10F39000254021502154227C22422442283E000054
:10F3A000202021FC21243DFC44204BFE800021FC38
:10F3B00021042124212425242850318C26040000F6
:10F3C0002040208023F822483248ABF8AA48A248BF
:10F3D00023F820A020A82134213E2222241E200030
:10F3E000204013F81248824843F8104017FE1000DE
:10F3F00023F82208C248424842604090410C46042B
:10F4000000201020102013FEFE22122213FE1222D2
:10F4100012221FFE3222C2200020002000200020E5
:10F4200000001FF010101FF010101FF020402040AF
:10F4300020443E4C2070204026423842203E0000AE
:10F44000100013FC1204FE24122413FC16741A6C10
:10F4500032A4D2A4132412241224122453FC220412
:10F460007FFC4104410441045FF443044384454468
:10F470004564493449245104410440047FFC40045C
:10F480001000103C13C0FC40104017FE1840104004
:10F490003040D3F8120812081208120853F8220854
:10F4A000102010101010FDFE1100110015001900A1
:10F4B0003100D100110011001200520024000000A0
:10F4C000010000803FFE22002FBE20242FA828A884
:10F4D0002FA420222FA2252A23A45E204A208420A4
:10F4E00010000BFC400450644B84408463F454844B
:10F4F00044845BE44A244A244BE44004401440081A
:10F5000000401020102017FE1000FC081108110800
:10F510001088109010D01C90E020002007FE000002
:10F5200010801060102011FEFC001008150C1888C7
:10F530003088D04810501050105017FE5000200056
:10F540000104010477E45104511457D4555455541F
:10F55000555457D451147384454409440114010887
:10F560001090109013FE7C905490549057FE7C00A5
:10F5700055F81108190815F81F08E50801F80108E1
:10F58000009078904BFE4890789048904BFE480051
:10F5900079F84908490849F849084908A9F891083B
:10F5A00020201020FFFE0020442029FCFD241124EF
:10F5B00011FCFC6010B010A8212E222444208020D1
:10F5C00002200210F2109FFE920092049244934493
:10F5D0009644FA448228022802000AFE0400000031
:10F5E000042004207FFE042005203FFC1110091098
:10F5F0000920FFFE054009201118210E41040100D9
:10F60000010001003FFC01000930052003407FFE9E
:10F610000180034005200918310EC10401000100DA
:10F62000082008207F3C08483EFC2B442A443E54D6
:10F6300008541C541A542A54482888460882090041
:10F6400008400840FFFE0840048024FC24A0251048
:10F65000261004001FF0129012901290FFFE00007E
:10F66000082008207EFE1C701A682AA649248A20D9
:10F670000400FFFE08201F4000E00718780C00007F
:10F68000100011081088FC9013FE100038003400A0
:10F6900055FC500090001000100017FE10001000E4
:10F6A0001008120C1108FC9017FE10001800100032
:10F6B00033FCD00010001000100017FE5000200096
:10F6C00020403F7E489085080440247E2490248872
:10F6D000050800003FF8244824482448FFFE0000A5
:10F6E000200017FC010441045FF441045FF4555409
:10F6F0005FF44384454459344114410440144008A4
:10F70000002010300820044000807FFC0000000032
:10F7100000003FF8000000000000FFFE00000000B5
:10F72000440022FE2002044297FA544217FA255A56
:10F7300024EA27FAC4E24552464A4442444A440471
:10F740004200317E2502042207FEE42225FE25AA7E
:10F75000257225FE24722CAA34A62522042A04042C
:10F760002090229022BEFAB022C820842BF83208C2
:10F770006248A248224822A820A22122A61E4000B8
:10F780000480248024FE24A0251806101FF01010E9
:10F790001110111011101110128404841886607C4D
:10F7A0002210221E2FA222443FBEAAA2AAA2AFAAC2
:10F7B000222A272A26AA2A2A320822142222224270
:10F7C00000902290329E22A04AC8F08413F82208AA
:10F7D0004248FA48024800A038A2E122021E040072
:10F7E0002000220C2108289028A4B3FEA000A0002D
:10F7F000200023FC30004800480447FE8000000041
:10F80000212011201520057E8540559015082508DA
:10F81000200027F8C5284528452845285FFE000018
:10F8200000400020FBF82208220823F8FA082208EA
:10F8300023F82288225022203A10C28E03040200AC
:10F840001200110013DEFE52125433D83A585654A7
:10F8500053D292121312129A135412501010101005
:10F860008840488033F82208520893F81A082A087A
:10F870002BF84A848A480A500A201298530E220410
:10F88000010000803FFE2400227C2F4429482F489D
:10F8900029502F4828442A442B5C5D484940804029
:10F8A0001000087E7E4442447E48424842507E48D2
:10F8B0004044484244424A5A52446040404000401A
:10F8C0001000087C7E4442447E44427C42447E4494
:10F8D000407C48444C445484608441140608000031
:10F8E0002080104013F882084BF84A08120813F8D9
:10F8F0001280224CE250222022102298230E220451
:10F900001090109013FEFC90109013FE1A4430409B
:10F91000D04013FC10441084108411045228241089
:10F9200004200420FFFE042000007FFE42040200A9
:10F930003FF0021002100410041008101050202094
:10F94000010000803FFE2002488408800FF81080EC
:10F95000208000847FFE0080008000800080008086
:10F96000020002087FFC020802100220FFFE018054
:10F9700002000C3034C0C7000404040403FC00007F
:10F9800008800C84188617EC308820906FFEA04009
:10F99000228023102D3831C42104210620FC0000D0
:10F9A00020403040204423F6FC48245027FE2420E9
:10F9B0004840288011982AE024844484807C0000F8
:10F9C0000040FE4028FC2888FF50AA20AA50AA88A0
:10F9D000CF0682F8FE8882888288FEF8828800003E
:10F9E0001080108011F815081690586050605090E3
:10F9F000930E15FC31082908450841F881080000DC
:10FA00002110111017FE8110511057FE1404208090
:10FA1000208027F8C088410841084208442848103F
:10FA200022202220FFA022203EFC08247F244924FB
:10FA300049247F240824FF44084408940908080046
:10FA4000003001F81F001080108010803FFC1080F3
:10FA500008800C901888308C2486428401000000B5
:10FA60001FF801007FFE41041D7001001D700100A0
:10FA70003FF8210821083FF8210821083FF8200815
:10FA8000200021FC3C2023FE42247DB8A02021B888
:10FA9000FC0021FC212421FC2924312421FC00002C
:10FAA0000440FFFE04403FF801007FFE4104A950DE
:10FAB000152800003FF821083FF821083FF82008EA
:10FAC00000007FFC04000FF03810C8100FF0081081
:10FAD000FEFE102020203E7C62C4A3443E7C2244D3
:10FAE0001FF811081FF811081FF8020004200FC0AA
:10FAF000012006100FF8008808A00898128801005D
:10FB000010001BF8124823F8224863F8A0002FBE0B
:10FB10002AAA2AAA2FBE2AAA2AAA2FBE28A20000F1
:10FB20000100022004100FF800101040109025086A
:10FB30007FFC248801003FF8010001007FFE0000E7
:10FB4000000023F8204027FEF444235820402B587F
:10FB5000300063FCA24423FC22442244A3FC420460
:10FB600000403C40244024403DFC244424442444A0
:10FB70003C44244424442444448454848914020886
:10FB80002108111009207FFE03800D603118C10487
:10FB90000100FFFE0100028004400830300EC00466
:10FBA000200013FC12048A044A0453FC12041204B9
:10FBB000220423FCE2042204220423FC2204000089
:10FBC0001040104013FCFC40104017FE3910350C5B
:10FBD000528454F8911016A010601198160E10045B
:10FBE000100013FE1252FA5213FE3840342053FE16
:10FBF00050409040107C108410841104121414089A
:10FC000000808080414061205218148E284420409A
:10FC10002FF8C0104010412040C04060404000001C
:10FC200000003FFE20002FF828882FF82888288819
:10FC30002FF8288840804FFC40808080BFFE000065
:10FC400007847C0404247FA40E2415242504C414F2
:10FC500001087FFE038005400930310EC104010018
:10FC60007F040824FFA41C242A244924881408881B
:10FC700010801FFC208000807FFE008000800080BC
:10FC80000640384008FC7EA419242E44C8940B0872
:10FC900004801960E95E07800560191801080300F7
:10FCA00020403F7E52A08910FFFE04401390145064
:10FCB0001FF002003FF824882FC820482028201079
:10FCC00008008BFC5244224453FC924412442BFC07
:10FCD0002A4448408BFC08401040104057FE20004A
:10FCE000020001047FFE06601188124814281FF8E4
:10FCF00001003FFC244428242FF420142014200861
:10FD00002080104017FE000082A85268129823F845
:10FD1000204027FCC484451445F44404441444089A
:10FD2000000003FCFA44224423FC2244FA4423FC4E
:10FD30002244204023FC3840C04000400FFE000019
:10FD4000010001007FFC038005400930310EDFE433
:10FD5000008001007FFE010001000100050002009B
:10FD60003FF82108210821083FF8210821083FF821
:10FD7000010001003FF8010001000100FFFE00004A
:10FD8000200021FC3D24452449FCFD24552455FC3C
:10FD90007C20542055FC7C2000201C20E3FE000029
:10FDA000104008400840FE400440044008401C4009
:10FDB0002A404A4088400840084008420842083E1D
:10FDC00004207FFE042004243F04042404247FA490
:10FDD0000C240E24152425A44524840404140408AA
:10FDE00004207FFE042002003FF802100C50302057
:10FDF00010207EFC12241224224422444A948508B6
:10FE000001000100FFFE01003FF8210821083FF832
:10FE1000210809000500020005800860101C600828
:10FE20007FFE044004403FF8244824483FF8010086
:10FE3000FFFE0180034005201918610E0104010036
:10FE40000000FFFE000000007EFC428442C462A469
:10FE500052B45AA45284428442844EBC4488000066
:10FE600000003FFE200020002FFC2100210021F88F
:10FE70002108210822082208440848289010000080
:10FE800000103F90201020103F7E281228122F12C1
:10FE900029122922292251225542A24E40840000D3
:10FEA0000000FE3C11C01120212021207D2465FE90
:10FEB000A420252825243D262622242208A000400F
:10FEC00000003FFE2000208020802FF8208820881E
:10FED00020882108210822084208443888100000A0
:10FEE000000203823C02042204227FA20C220C2284
:10FEF0001622152225A2452284020412040A0404B3
:10FF000010001FFE109027FC34946494A7FC244436
:10FF100020402FFE20E021D8234E264428402040B8
:10FF200010021BE21102211221D26252A25224526B
:10FF30002A9232922112210222022202240A280449
:10FF4000108419C41604321422146FD4A3142694F6
:10FF500026D42A942A1432042204223C22080000C7
:10FF6000010000801FFE10C09704511451141FD4CB
:10FF700033145594A55429143114410441148108B3
:10FF800002000100010000007FFC00200030102072
:10FF900008400C400440048000800104FFFE000083
:10FFA00010401020902055FE5408180CFE0831080F
:10FFB00039105490569052A09020100017FE100057
:10FFC000200013FE1220822042204BFC0A2412241F
:10FFD00012242444E4442484288429043214240868
:10FFE000010001001FF001107FFE01101FF0010051
:10FFF0001110092003C005401920611C05080200EA
:020000040801F1
:1000000001000100010001007FFC01040104010462
:10001000010402040204040404040804102820104B
:1000200000400020FBFE208021542124F95421FCB3
:10003000202023FE2A423292C2F20212020A020455
:100040000000F7FC9444944497FC9444944497FC37
:10005000F440904087FC0040004000401FFE00003C
:1000600010001FFE1090209027FE6492A49224920C
:100070002492256A252A26462482240A2404000084
:100080000108FE8C444844507FFE442044207C20DC
:1000900047FE44204E20F4204450044804860504C2
:1000A00004400440FFFE0440410037FC2140024070
:1000B000E7F820402FFE2040204050408FFE0000F7
:1000C0004080208037FC210001400240F7F81240B8
:1000D00010401FFE104010401040280047FE000056
:1000E000204020203BFE428843FEFA5023FC22544D
:1000F000FBFE225423FC22D02D5835562A540050A2
:1001000000803FFE242022403FFC22402FF822485E
:100110003FFE22482FF8266026504A4E5244824025
:100120002080208020C03120A910AA88A446284021
:1001300027FC20082010212020C020602040000043
:100140004040284025FC0440904050A050A02DFC89
:10015000242025FEC420442044204A2051FE0000D3
:10016000020001007FFE40049110190C31085FF875
:1001700011081108110811081128111001000100BF
:100180000840086014401340217E5EC880C81148B2
:10019000494829282A1021900E2870CE0704000013
:1001A00000203C20245024883D06260425F8240401
:1001B0003C862644256825482510440057FE8800C3
:1001C000202020203AFC212041507850A37C21108F
:1001D000F91021FE2110251029103280247E000004
:1001E000020001007FFE0440145014482446C44419
:1001F00004400000090828842892681207F00000D3
:100200001040104413FE1440548058F051209120A7
:1002100013FE3120282825244122422284A00040B8
:100220000040204033FC20404840F9F010902090DE
:1002300041FEF810009000941912E21200500020C4
:100240001040102095F855085908FDF83108390874
:1002500055F855405124912811101158118E110450
:10026000008040402FFE3000200013F812082208C2
:1002700023F8C04044504648444C484651444080CE
:1002800023F8104880484A8C128AE10A22282D104F
:100290000100FFFE038005400930310EC10401005A
:1002A00023F0909052984A941492E15026203110F5
:1002B00009207FFE038005400930310EC104010092
:1002C000020001001FE010201FE0102010201FE09E
:1002D000121012301140108010401430380E1004EB
:1002E0000004FFFE044004447FFE4444444446446A
:1002F000496448945094610442044014400800004A
:10030000100013FEFC90209023FE52925292FE9217
:10031000129212D21F2AF34612021202120A120479
:100320001FF010101FF010101FF00000FFFE111042
:100330001FF011101FF001001FF80100FFFE000068
:10034000004000207BFE4800480049FC7904490435
:1003500049FC4820492879240226042200A00040B4
:1003600001007FFC00000FE008200FE000047FFE8A
:10037000400487C80440044008421042603E000028
:1003800040802060302023FE0000F1FC11041104A5
:1003900011FC1124102015281924122604A4004051
:1003A0002080208027FCF4C823302BF836162BF44D
:1003B0006210A3F0204022502348244CA9444080DE
:1003C0000060FF804A1E4A527A524A524A527A527A
:1003D0004A524ADA4F54F8500890089009100A100F
:1003E0001080188017FE28C8352C6210A7FE2A142A
:1003F00033F0221023F022502348244C2948208037
:10040000010000841FFE1000900057F850103020AB
:10041000504090401040204020404040414080806B
:100420002040204023FC24A02910B3F8A616ABF0EE
:10043000221023F0324029504A4C4444814000802D
:1004400001007FFE4004BEF812480A2812C82108A5
:1004500006C01930E68E19C00618386003803C00CB
:10046000400027FC3008201000A00040E040204061
:1004700020402040204023C02080580087FE0000FC
:10048000408020802FFC0548923057F81A1623F040
:10049000221023F0C0404250444858444144408018
:1004A00000007FFC001800600180010001000100D5
:1004B000010001000100010001000100050002002F
:1004C00013FC124413FCFE4413FC108018F8119026
:1004D0003260D050118E17F81108110851F8210818
:1004E000204020403BFC20A045147BF8A51621F0BD
:1004F000FD10211021F020402A483244254400807C
:1005000001003FFE20003F7829282518292832982D
:100510002160265839862E60218C4E3041C09E00C5
:10052000080808884A482C481808FF081C882A48E8
:100530002A4E49F8480888080808080808080808E2
:100540000004FF84080411241FA411242124522430
:100550008A2404240424080410042014C008000081
:100560007FC408241FA420A4D92406241914608859
:100570007FFE0288048C0C503420C5100E0E04043B
:100580007FC4080408240FA4112411242A244A2417
:10059000040408143008C010244C222622224000F3
:1005A000010009200D18112C2174C1C003000D0099
:1005B00071000FF8010802080208040818286010EA
:1005C00004904490289013FC309048908FFE1800BF
:1005D00029F84908890809F80908110851F821087B
:1005E00001100110F910211027BE2110FB3823B88B
:1005F000235825543594C91611100110011001100B
:100600001020102010201020FDFE102010603870E7
:1006100034B054A851289226142410201020102001
:1006200000207D2410A813FE10B021283E26692842
:10063000ABDE2C482AA839BE29282208040808085D
:100640003FF80100FFFE81043D7001003D7008206D
:10065000FEFE08201C702AA828AE49240820082085
:1006600001000980090049FE4A204A104C10490443
:1006700049FE492449244924492409FC090400006D
:100680000800087E144413442948445084487F4499
:10069000014202421452084C0C4004400440004005
:1006A00021243CA844B04BFEFC6855A654207D088C
:1006B00055FE56487D6800BE1C88E1080208000807
:1006C00042102210221002108F7C42105630273820
:1006D0002AD84A54D2964310421042104210421077
:1006E00000804FFE200027FC15E4152425E427FC9C
:1006F0002000C7F840005FFE44504448494C5088F1
:10070000083C0BC0104037FE5040904013FC1000D6
:100710000FF008100890089008900160061838063D
:10072000020001007FFE08200420024001800660D4
:10073000381ECFF408100810081008100FF0081029
:10074000204020402060F8A0209021482A26340034
:1007500061F8A0082010201020A02040A0304010F8
:100760000040F84020A020A021102148FA26242093
:1007700023F8201022203940C0C000600020000073
:100780000440FFFE044005403FF80100FFFE082042
:10079000141027ECCC20124061800660181E600403
:1007A0001FF801007FFE41041D7001001D700280D2
:1007B00004601A1EE1081FE00040028001000100F1
:1007C000082008204E6048504888FF4600245220E8
:1007D00052FC52086A1046604E2072100010000051
:1007E0001040104020403CA040907D4E92241020AC
:1007F000FDFC1008101010A010401420183010201C
:1008000008400C4018C0112032906448A86E204463
:1008100027FC20082010212020C02060204000005C
:10082000002044202850FC50108811467A241020C3
:1008300011FCFC0410082090206040308020000053
:100840000040404023F830402FFE01B023082484AC
:1008500029F8C3104CA0404040B0430E1C040000D7
:1008600000083FFC00081FF800083FF8010801904D
:1008700009100920128002400420081C30084000A2
:10088000004078404BFC504057FE612051104A8C8C
:1008900048F0691052A0444040A043184C0E400458
:1008A00010201020105010485484554656245400EF
:1008B00057FC54085D10E0A04040003000100000DC
:1008C000100011FE2820244042FC508488A47EA4FD
:1008D00004A408A430A410B4084808840304000049
:1008E00000001FF81008100810081FF81108010078
:1008F0003FFC010402040204040408041028201030
:10090000010001000280024004200918308EC0144A
:100910001FF80010002004400280018000C0008009
:100920004180263E2412051285A256AA14442000B6
:1009300027FC2444C44447FC4444444447FC440446
:1009400000407C2013FE1040109011087BFC100426
:100950001150115011501D50E2520252044E080025
:1009600010C0133E1212FA9212D23B2236465000A9
:1009700053FC9224122413FC1224122413FC12049C
:1009800000407C2013FE1040109021083BFC2804FE
:100990006950A9502950395029522252044E08005A
:1009A000204023BE22123E924A525292832A22446F
:1009B00021FC2124212425FC2924312421FC0000B0
:1009C000060038FC2044284424442A8432A82110FC
:1009D0001FF8110811081FF8110811081FF8100856
:1009E0001004080404047FA40124212412240A24EE
:1009F000042406240A2411042184411480080000E0
:100A0000010000801FFE100097BC5414151435A47B
:100A1000564C908017FC144427FC244447FC840463
:100A20002080104017FE0040808049104BF81008CD
:100A300012501250E250225024522452284E2000CC
:100A4000100010C0131EFE1212523A523652525269
:100A500052D2935A12541090109011101610101078
:100A60000400030001800100FFFE0000000004807C
:100A70000640042008100818100C200C4008000044
:100A800002000240022002207FFE028002900290BB
:100A900004A004C00880098012822082407E0000E9
:100AA00002400224FFFE02A004C418FC23007FFCC5
:100AB00008200FE008200FE00824FFFE002000209F
:100AC000008000A00098F8908FFC88A088A488A8D7
:100AD00088B0F920896002A002220422081E0000CA
:100AE00020403F7E285044884508822002107FFE27
:100AF0000480049008A008C011822682C07E0000F5
:100B000001007FFE4824311001007BF84A905460B8
:100B1000519E4EF44A406BFC544049F8404047FE19
:100B2000008078F849085290506060D0530E48F029
:100B30004A406BFC544043F8404040404FFE400068
:100B4000022002107FFC0280049004E009841684D5
:100B5000217C41001FF8010001000100FFFE0000A0
:100B6000108010A010981090FBFE10A014A818ACD4
:100B700030A8D1301120126012A21422581E200079
:100B800000A07C90489057FE60A050A048A4492443
:100B900049286930516042A042224422481E400048
:100BA000102010A41068FDFE107038A835265040A3
:100BB000504097FE10901190106010D81706100248
:100BC0001110091809207FFE038005400930110E1D
:100BD00022047FFE04200840048003000CE0701C07
:100BE0001040124C114810D0FBFE10D015481AC608
:100BF0003080D7FE1108131010E01058518C2604D5
:100C000020403E7E48908508111009207FFE096033
:100C1000311EC2047FFC04200E4001800E6070185B
:100C2000200017FC140407FC8400540017FE142055
:100C300027FE262226AAC6224AAA4A22522A42046D
:100C400000007BFE48205020602055FC4D244524A8
:100C5000455445946D0455144508440047FE400032
:100C600004200420FFFE052000801FF81008100853
:100C70001FF8100810001000200020004000800025
:100C80000080008000FE008000801FFC1004100423
:100C90001FFC100410001000100020002000400075
:100CA000080008FE0E2008407EFC428442A47EA478
:100CB00040A440A440A44030404841868602000041
:100CC000010000803FFE2080204027F824082408EF
:100CD00027F8240824002400480048009000200041
:100CE00010401020102415FE15045904510491FCE5
:100CF00011041100190025002200420084000800A0
:100D00002040207C2040F7FE244427F82C44347CEB
:100D10006400A44025FC244428442884B09441085D
:100D20000100010401FE01003FFC2044286424C4AA
:100D3000228421042284246428243FFC200400000F
:100D4000010001F801003FFE21042FF0210420FCE6
:100D500021002FF821082108220842084428881081
:100D6000040007E008401FF871081FF811081FF879
:100D70000000FFFE00000FF008100FF008100FF049
:100D800008207EFC1C702AA8CA2601003FFC2440D3
:100D90003FF824483FF828402F5048644E44883C90
:100DA00003F0FC10101013F0201038106FFEA84450
:100DB0002A68295028D039482A4E2444014000800E
:100DC0003FF801007FFE410415500A283C8024F8BA
:100DD0003D5012205CD8530650F85C88E0F800883B
:100DE0000080788048FC49884A487C505020105840
:100DF0005D8653FC510851085D08E1F801080000C8
:100E000000807C8044FC54885548565054205450EF
:100E1000548E55FC52881088288846F88488000033
:100E2000010000803FFE224022403FFC22443FFC64
:100E3000204028402F4C28704A424C42883E0000F7
:100E400040202720253C05249548572812102228A9
:100E50002A462BFCCA444A444B445C7C4044000074
:100E6000200013F80008FDF804080BFE10403A4873
:100E70005550916010D01148164610401140108016
:100E800000003FF000101FF00010FFFE01101130B5
:100E90000940058003400D30711C21080500020047
:100EA0000040F840884097FCA040904088408FFE6A
:100EB0008840A84094448444844487FC840480008F
:100EC000F720552833243520D1FE15200C24322458
:100ED000C9A8101064301850628A040A1806E0028B
:100EE00000207C10041024FE2482248224823EFEF2
:100EF000028002801A80E280030015000A000000D0
:100F00001FF01010101010101FF010100000000043
:100F10003FF820082008200820083FF8200800009B
:100F2000100010FC20843E8440847CFC9000100063
:100F3000FDFE110211021102150219FE110200003C
:100F400010001BF812083208220863F8A2082000DB
:100F500027FC240424042404240427FC2404000083
:100F6000204010401080FEFE2100220C3CF0248026
:100F700024CC24B024A02490448844A694C408809F
:100F80003FFC20043FFC210025FC2D0033FC250400
:100F900029FC390429FC288029FC4A8848708B8E5A
:100FA0003FFC20043FFC249022A03FFE21C022B041
:100FB0002C8C22803FFC2420442043C08C383010ED
:100FC00000402248315020404BFCF8E01150224CA8
:100FD0004080F7FE011001903860C098030C0C08A7
:100FE000010001F801003FFE210421F02F0021083B
:100FF00020F8200022882A542A52521A41F08000F8
:101000003FF820005FF000007FF000103F9000905C
:101010001F900090FFF02490170A148A64460C0277
:101020001040184013F828484FFE904813F83040FD
:1010300053FC9040104017FE1040104010401040EC
:10104000020001007FFE4100222817D00480111009
:10105000224847C40120FFFE0100010001000100F9
:10106000208010F8108007FE848454F817802488AC
:1010700024F82400C44049244D0A550A60F80000B1
:10108000200033F8200821F84808FFFE10402248CD
:101090004150F0E00150024E3444C0400140008015
:1010A000020001007FFE04401450144824464442CC
:1010B000810001002108210821083FF820080000D4
:1010C000020001007FFE04401450144C24464444A6
:1010D0000FF001001FF801007FFE01000500020073
:1010E000010000807FFE024012501A482244424014
:1010F0000FF0002000407FFC008000800280010093
:10110000408020402FFE01209528552419242120BD
:1011100020802FFEC0C041A04298448E5884408059
:1011200003003C7C2244224432642A542E5C2A541C
:1011300026447A542448044008403040C0400040CF
:1011400006407840084008400A40FF4008400840F8
:101150007E4042404240424442447E46423C00007F
:1011600010401020101013FEFE0011FC150419048D
:1011700031FCD020112811241226142250A0204026
:1011800000800080F9FCA908AA90AC60F850A988FA
:10119000AE06A9F8A908F908890801F801080000B5
:1011A000104010401040FCA01090150E1A041500BD
:1011B0003138D1C0110011001104110450FC20007D
:1011C00010201020FE502050208851069284FC8868
:1011D000109C16E03880D08410841086107C10009B
:1011E00010401840104030A02118620EA5042910AC
:1011F000213821C0210021042104210420F82000ED
:1012000001000100028004400830101C68080840FA
:1012100008E009800E0008080808080C07F800001C
:101220004040204020C000A089104A085506110007
:10123000213021C0E10021002104210420FC000014
:101240001040104020A020904508FA0E0C04110018
:101250002108F93041C001001904E10600FC00003A
:101260004040204030A0209001080206E5042110F3
:10127000213821C0210025002904310420FC000070
:1012800004400440FFFE044004403FF824483FF877
:10129000020007F808103420C240018006007800E0
:1012A000100011FC11247DFC552455FC54487CF0A1
:1012B0005428104419FE16241CA8E52402A200405C
:1012C00000003FFC2244224422443FFC220003FC55
:1012D00006080C081210612000C003000C00F0008A
:1012E000000047FC2524252407FC0100E1F8220822
:1012F0002510209020202040208053008FFE0000E9
:10130000200023FE3A52225243FE7880908011FC46
:10131000FD04128810481050142018401180060057
:1013200020403F7E48904508BFFC224422443FFCB9
:10133000220007FC08083410026001800E00F00053
:10134000F9FC092409FC492449FC484040887DF007
:101350000440148825FCC4200528292412A4004038
:10136000200011FC1124FDFC0924112435FC582017
:101370009BFE147010B010A811241222142010200B
:1013800004400440FFFE0440450021F8A1104AA09B
:10139000484010A01318EFF62210221023F022105C
:1013A0000100410023F82208851050A0504010B0E1
:1013B000230E2E04E3F822082208220823F822082C
:1013C0000080F88008FC498849504A2048307C4811
:1013D000058604FC3484C484048414FC088400005E
:1013E0002080308020F841884A90F860106020907A
:1013F000410CFBFE050801083908C1F8010800008E
:10140000100011F810081088FC882488248824FE15
:101410002802480233FA1802240246028414000803
:10142000010000803FFE241024103F7E2410241071
:101430002E302D5834586496451484100410000042
:101440000000FBF82008210821082108F90821FEE6
:101450002002200223FA3802C0020004001400080F
:101460000000FDF810081088108820883C8864FC73
:10147000A404240425F424043C042404202800109B
:10148000100013F8100810887C885490551055FCF3
:101490007C0450041BF414041E04E414000800002F
:1014A00000003FE0002008200820082008200FFC52
:1014B000000400047FF4000400040034000800006D
:1014C0003E7C224422443E7C00001FE00020082095
:1014D00008200FFC00047FE4000400140008000052
:1014E00000800040F7FE9510951097BE951097B8B4
:1014F0009778F55495528992091011102110000027
:10150000000003F8780849084908490849084BFCD5
:10151000490478044BF4000400040004001400089B
:10152000100013FC1244124413FCFE44124413FC3A
:101530001244104013FC1C40E040004007FE000035
:1015400000003FFE0004048802C01280088008806A
:1015500000843FFE014003300618180C60040000B0
:10156000010001003FFC01001FF801007FFE0400A4
:1015700007F00610092010C001200610380E0004E4
:10158000008000883FFC008000807FFE048C029079
:10159000128009007FFE014002200430081830103C
:1015A000400027FE30802080008000F8F1081108FC
:1015B00011081108120812281410280047FE800094
:1015C0000080786048404BC8784C48484B50496090
:1015D00079504948494C4A464C448840A9401080BB
:1015E0000110F7FE9110911097FEF09097FE9492E3
:1015F000F4929552952A9646F4829402840A040441
:1016000021F8210821F83D0845F8480083FC229480
:1016100023FC200021F8209028603090230E000049
:10162000020001007FFE1450144824444444054045
:101630001FF0111011101FF0010801F87E0C0008B6
:10164000411021102FFE0110800057FE512017FC81
:101650002524252425B4C64C448444044414440859
:101660000440FFFC04401FF011101FF000003FF881
:1016700024483FF800000FE0044003801C70E00E97
:101680001FF010101FF010101FF000007FFC4444EA
:101690007FFC00001FF00420024001800660781CDF
:1016A00021F8210821F83108A9F8A800A7FE249202
:1016B00027FE200021F82090206021B02E0E20006F
:1016C00023F8120813F8020883F8500017FC2524A9
:1016D00027FC2000C3F8411040A04060419C460810
:1016E00043F8220833F8220803F8E00027FC24A47A
:1016F00027FC200023F8211028A0304021B00E0E36
:1017000004200420FFFE042005200080FFFE1000BE
:101710001000100010001000100010001FFC00004E
:1017200004200420FFFE04202440102097FE4900DE
:10173000490011001100E100210023FE21002000DA
:1017400002000100FFFE100010001FFC00001FF04F
:1017500010101FF010101FF0101010101FF01010BC
:10176000000021FC11041104FDFC4120412041FE38
:101770004120412041207D100112014A01860102D1
:1017800020802040202037FEAA00AA00A2002200CC
:101790002200220022002200220023FE200020003E
:1017A00004207FFE0420024002207FFC0420081059
:1017B000344EC4443FFE04400840084010402040DE
:1017C0000890889057FE2090509088901BFC2A44E7
:1017D0004A448A440BFC0A440A44124453FC22043F
:1017E00004400440FFFE044000003FF80230014086
:1017F0007FFE01840288048008803080C28001005E
:101800002090209023FE3C9040907C0091FC11247D
:10181000FD2411FC11241124152419FC11040000CD
:10182000000001F87E000200020003F83E00020002
:10183000020003FCFE0002000202020201FE0000A0
:1018400000001FF80010022001407FFE0184028882
:101850000280048008801080208040808280010007
:10186000204021803D1E211241527D52A152215221
:10187000FD5221D2215A205428903090211000107E
:10188000000003803C7C224422442244224422441F
:1018900022442A44745C2448084010406040000000
:1018A00004400440FFFE044000A000903FFE208062
:1018B000208420482050206020A043124C0A80043D
:1018C0003FFC20042FF420042FF400041FF810081C
:1018D0001FF8100810081FF8100810081FF810084B
:1018E000200023FC2204FAF4AA04AAF4A800A9F810
:1018F000A908A9F8B90821F82108210821F8210828
:101900000C20F04011FC4B042D0431FCC9041904D7
:1019100025FCCC5014502450C4920492290E12007D
:10192000060038FC242422242F44725420881FF0FF
:101930001010111011101110129004401830602076
:101940000100018001000300024004600840108093
:101950002080010002100408087C1FC6000400005B
:101960000080F8C02080208421FE2110FA1023106E
:1019700024A020A0204038A0C110060E18040000AA
:10198000108010C010801080FDFE111032903C902D
:1019900054505060902010501088130E1C041000FA
:1019A0001100110011FE1200FBF815083948352806
:1019B00057FE51489128110811FE100810281010E8
:1019C0000040FE4028FE2880FFFCAAC4AAA4AAA4C6
:1019D000CFFE82C4FEA482A482FEFE04821400080C
:1019E0001FF001007FFE49228544092010001FF8E6
:1019F00020005FF01210FFFE10903FF80010006012
:101A00001110111017FE151059F0511051F090409F
:101A1000104017FE28E0295042484C46B042004092
:101A2000200011F0111081104212540E100017F80E
:101A300022102110E0A0204020A02118260E200412
:101A40003FFC208420843FFC200027FC2404240445
:101A500027FC2404240447FC4404440487FC0404B5
:101A60001108110817FE1108FDF8250825F828406F
:101A700048444FFE30E011502A48444E884400400C
:101A80002108209023FC3C4040407BFCA04023FCEC
:101A9000FC40204027FE204020A02890310E260444
:101AA000100010003FFC20004FF08A1009100810B1
:101AB000FFFE1110109010101FFE001000500020AB
:101AC000082004407FFC01001FF8010001007FFE98
:101AD000010001003FFC028004400830301CC008B7
:101AE0000040004078404BF8484048407FFE48C0E6
:101AF00048E0495049507A48444E0844004000406C
:101B0000020001007FFE4004844025F83C40044070
:101B100007FCFCE024D02548264E44448440044081
:101B2000202030202020FDFC24202420242047FEDB
:101B30004460287010B018A82D2649248220002067
:101B4000100019FC11241124FDFC250025FC25841E
:101B50004BFC6A8412FC1A84268444FC88840000AE
:101B600010000BFC0804200420042004200420049E
:101B70002004200420042004200420042014200831
:101B800010000BFC080440044104448444A4541491
:101B900054146404442443E44004400440144008C2
:101BA0000A00090011BC1104340424046404A404D0
:101BB00024042404240424042404241424080000F9
:101BC00004200420FFFE042000007CF8448844F830
:101BD00044887C8844F844887D08450842280410DD
:101BE0000420FFFE04207FFE40040FF000007FFC75
:101BF0000610191862B00CC073A00C98728E010404
